:020000040800F2
:1000000078820020C1010008AF520008453F000877
:10001000AD520008090B0008D5E3000800000000FD
:10002000000000000000000000000000D18C00086B
:10003000D90F0008000000009D56000867940008D2
:10004000DB010008DB010008DB0100082561000876
:10005000DB010008DB010008DB010008DB01000810
:10006000DB0100083D370008DB010008DB01000868
:10007000DB010008DB010008DB010008DB010008F0
:10008000DB010008DB010008DB010008DB010008E0
:10009000DB010008DB010008DB010008DB010008D0
:1000A000DB010008DB010008DB010008DB010008C0
:1000B000A1950008DB010008DB010008DB01000856
:1000C000DB010008DB010008DB010008DB010008A0
:1000D000DB010008DB010008DB010008E9B30008D0
:1000E00021370008DB010008DB010008DB01000804
:1000F000DB010008DB010008DB010008DB01000870
:10010000DB010008DB010008DB010008DB0100085F
:10011000DB010008DB010008B5950008DB010008E1
:10012000DB010008DB010008DB010008DB0100083F
:10013000DB010008DB010008DB010008DB0100082F
:10014000DB010008DB010008DB010008DB0100081F
:10015000DB010008DB010008DB010008DB0100080F
:10016000DB010008DB010008DB010008DB010008FF
:10017000DB010008B9530008DB010008DB010008BF
:10018000DB010008DB010008DB010008DB010008DF
:10019000DB010008DB010008DB010008DB010008CF
:1001A000DB010008DB010008DB010008DFF80CD0F0
:1001B00000F04EFB004800478926010878820020A5
:1001C0000648804706480047FEE7FEE7FEE7FEE7F1
:1001D000FEE7FEE7FEE7FEE7FEE7FEE745950008DF
:1001E000AD01000840EA01039B0703D009E008C9FC
:1001F000121F08C0042AFAD203E011F8013B00F8EC
:10020000013B521EF9D27047D2B201E000F8012B37
:10021000491EFBD270470022F6E710B513460A4686
:1002200004461946FFF7F0FF204610BD421E12F8A3
:10023000013F002BFBD111F8013B02F8013B002BE1
:10024000F9D1704710B5002200E0521C835C8C5C31
:10025000A34201D1002BF8D1D8B2E1B2401A10BDAF
:100260002DE9FE4F81EA030404F0004421F000412F
:1002700000944FF0000B23F0004350EA01045ED0DD
:1002800052EA03045BD0C3F30A54C1F30A552C4469
:10029000A4F2F3340194A0FB0254C1F3130141F41E
:1002A0008011C3F3130343F4801301FB024400FBEA
:1002B000034E840A970A44EA815447EA8357A4FB11
:1002C000076802958D0A05FB07854FEA932C04FB0E
:1002D0000C542705029D4FEA065847EA1637B5EB3E
:1002E00008056EEB070C870E920E47EA811742EA6B
:1002F0008312A7FB0201B6EB0B0164EB00042B0D8C
:1003000043EA0C335E1844EB1C50DA465146E7FBD7
:100310000201C5F313044FEA0B3343EA14534FEAC7
:100320000432019C43EA0603A4F10C040294009CED
:10033000CDE900B400F03EF903B0BDE8F08F002035
:100340000146F9E72DE9F04D81EA030404F0004B82
:1003500021F0004514464FF0000A23F0004150EA16
:10036000050220D054EA01021DD0C5F30A57024607
:10037000C5F31303C1F31300C1F30A5640F480150B
:1003800043F48013A7EB0608101BD64608F2FD388D
:1003900073EB050002D308F1010801E092185B41FC
:1003A000B8F1000F03DA00200146BDE8F08D00200F
:1003B0004FF48011064684460EE0171B73EB0507C9
:1003C00005D3121B63EB050306434CEA010C4908F5
:1003D0004FEA300092185B4150EA0107EDD152EA32
:1003E000030012D082EA040083EA0501084305D025
:1003F000101BAB4106D20122002306E000224FF081
:10040000004302E06FF0010253101AEB06004CEBC0
:10041000085110EB0A0041EB0B01BDE8F04D00F074
:10042000BAB80EB540F2334102910021CDE9001176
:100430000A460B4600F0BEF803B000BD00F00042D3
:1004400030F000400AD0C10D01F56071C0F3160014
:1004500042EA0151C208400711437047002001469B
:10046000704701F0004330B421F0004150EA01022E
:1004700006D00A0DA2F56072C1F31301002A02DC56
:1004800030BC00207047440F44EAC104C100E018AA
:1004900030BC00EBC25000F047B830B50B46014607
:1004A00000202022012409E021FA02F59D4205D313
:1004B00003FA02F5491B04FA02F52844151EA2F1BD
:1004C0000102F1DC30BD2DE9F05F054600209246C7
:1004D0009B4688460646814640241BE02846414606
:1004E0004746224600F0D5F953465A46C01A914174
:1004F00010D311461846224600F0BCF92D1A67EBBE
:1005000001084F4622460120002100F0B3F917EB05
:1005100000094E41201EA4F10104DFDC48463146AB
:100520002A464346BDE8F09F0029A8BF7047401CFB
:10053000490008BF20F00100704710B4B0FA80FCF9
:1005400000FA0CF050EA010404BF10BC704749B136
:10055000CCF1200421FA04F411FA0CF118BF0121A6
:1005600021430843A3EB0C01CB1D4FEA00614FEA86
:10057000102042BF002010BC704700EBC350104455
:100580000029A4BF10BC7047401C490008BF20F0E0
:10059000010010BC704710B5141E73F1000408DA96
:1005A000401C41F1000192185B411A4301D120F037
:1005B000010010BD2DE9F04D92469B4611B1B1FAF4
:1005C00081F202E0B0FA80F22032904600F052F957
:1005D00004460F4640EA0A0041EA0B0153465A46D8
:1005E000084313D0114653EA010019D0C8F1400264
:1005F000504600F04EF905460E46504659464246D2
:1006000000F038F9084305D0012004E020463946BF
:10061000BDE8F08D0020054346EAE0762C433743E1
:100620000A986305E40AA0EB08000022FD0A44EAE8
:1006300047540A3002D500200146E9E701051019A8
:100640006941DDE9084500196941BDE8F04DA2E7BF
:100650002DE9FE4F804681EA0300C00F0C46009052
:1006600021F0004123F00045B8EB0200A94105D27A
:100670004046214690461C460B46024623F0004069
:10068000104347D0270DC7F30A00C3F30A51029065
:10069000401A019040286BDAC3F3130040F4801B2A
:1006A0000098924620B10023D2EB030A63EB0B0BB8
:1006B00001985946C0F14002504600F0DBF806466A
:1006C0000D4650465946019A00F0F3F810EB080029
:1006D0006141002487EA115284EAE7731A4340D04B
:1006E000009A62B3019A012A4FEA075215DC001BF7
:1006F00061EB02014FF0004202EA0752CDE90042ED
:10070000001C41F5801132462B46FFF753FF03B022
:10071000BDE8F08F40462146F9E7001B61EB02017E
:10072000001C41F5801300185B412018A2F500174A
:1007300047EB030140EAD570B6196D4111E06D0831
:100740004FEA360645EAC0754FEA0752001B61EBD7
:100750000201001C41F5801149084FEA30000019E0
:10076000514132462B4603B0BDE8F04FFFF713BFAF
:100770000098012240000023D0EB020263EBE073FB
:10078000009821464FEAE074B8EB000061EB0401E9
:10079000E9E783F000435BE781F0004158E770B57B
:1007A00021F0004303430CD0C1F30A550024D5EBDC
:1007B000040564EB0403D617AD1AB34102DB002035
:1007C000014670BD201841EB025170BD0EB5C10F3E
:1007D00080EAE0700844CA07002140F233438DE804
:1007E0000E000A460B46FFF7E5FE03B000BDC1F35D
:1007F0000A52C1F3130140F2FF3341F480119A42CF
:1008000002DA00200146704740F233439A42A2F2D6
:10081000334202DC524200F03CB800F02BB800003A
:1008200030B5041E71F1000404DB4FF00044404277
:1008300064EB0101141E73F1000405DB1C464FF04C
:100840000043524263EB0403994208BF904230BD1B
:10085000064C074D06E0E06840F0010394E807000D
:1008600098471034AC42F6D3FFF7A4FCB0400A0816
:10087000D0400A08202A04DB203A00FA02F10020C6
:1008800070479140C2F1200320FA03F319439040CE
:100890007047202A04DB203A21FA02F00021704739
:1008A00021FA02F3D040C2F12002914008431946D8
:1008B0007047202A06DBCB17203A41FA02F043EAC0
:1008C000E07306E041FA02F3D040C2F12002914009
:1008D0000843194670472DE9F04D00231A461B1AAC
:1008E0008A4103DB00200146BDE8F08DC1F30A52C6
:1008F000C1F3130141F480154FF0000BD10702D171
:1009000000186D41521E0027044640F2FF11384680
:1009100001EB620A3E468046024600204FF48011F9
:10092000FFF7B7FFC2197141BB1846EB0100B4EBEA
:10093000030C75EB000C04D3E41A65EB00051746B5
:100940000E46241908F101006D4180463428E3DD8C
:10095000F91946EB0600091BA84103D24FF0FF32FC
:10096000134601E0002213461BEB070046EB0A5139
:10097000BDE8F04DFFF70FBE70B58C1810F8015BA5
:1009800015F0070301D110F8013B2A1106D110F828
:10099000012B03E010F8016B01F8016B5B1EF9D12C
:1009A0002B0705D40023521E0DD401F8013BFAE7B2
:1009B00010F8013BCB1A921C03E013F8015B01F81D
:1009C000015B521EF9D5A142D8D3002070BD0000B2
:1009D00010B504210D4803F008F901210C4803F07B
:1009E00004F94FF480610B4803F0FFF84FF4005115
:1009F000094803F0FAF88021084803F0F6F804F0FB
:100A0000C5FABDE810400AF0BFBC0000001002406B
:100A100000000240001C024000080240000C02409E
:100A20004178007841EA00207047000010B5074C7B
:100A30002060084600F00CF820680028FCD1BDE8D2
:100A4000104000214FF0804008F01DBE54010020EE
:100A50003EB504464FF080450021284608F013FEBD
:100A600000220121284608F0FDFE022C02D0012CB4
:100A700003D005E00B20019002E042F6DF60019018
:100A80000520ADF800000020ADF80800ADF8020028
:100A90006946284608F010FF0121284608F0F0FDBD
:100AA0000121284608F0DDFD01221146284608F004
:100AB000D9FE0121284608F0E6FD3EBD202101486F
:100AC00003F093B8001C02402021014803F08FB8C6
:100AD000001C02400B4991F84220002A06D038B190
:100AE00091F8420002280BD0FFF7E8BFFFF7E6BFFE
:100AF00091F84200012801D0FFF7E0BFFFF7E4BF03
:100B0000FFF7E2BFD4110020FEE700007CB5012111
:100B1000084604F019FFA020009002208DF805007F
:100B200001248DF8044000258DF806508DF807400B
:100B3000084E6946304603F003F88DF804508DF8EE
:100B400006508DF80740402100916946304602F07A
:100B5000F7FF7CBD0000024070B5FF22FF23084D67
:100B600005F5807605E010F8014B54402A5D5A40A7
:100B7000335D491E89B2F6D243EA022070BD0000FF
:100B8000BC3101082DE9F05F2DED028B0024624D90
:100B900095F840A00021084605F07AFC2146002087
:100BA00001F0E0FC9FED5D8A5D4E5E4FACE0012000
:100BB00008F0A6F8687848B16878012809D0687804
:100BC000022809D06878032809D00AE011F070FEE5
:100BD00007E011F0E5FE04E011F05EFF01E011F026
:100BE000ABFF96ED000ADFF84081BCEEC00A10EEC4
:100BF000100AC8F8000005F0CDFBDFF8309120E0C6
:100C000005F0C8FB687848B16878012809D0687891
:100C1000022809D06878032809D00AE011F048FEBC
:100C200007E011F0BDFE04E011F036FF01E011F025
:100C300083FF96ED000ABCEEC00A10EE100AC8F859
:100C4000000099F800000028DAD108F059F8687817
:100C500048B16878012809D06878022809D06878F6
:100C6000032809D00AE011F0B5FF07E012F02CF8D4
:100C700004E012F0F7F801E012F0F4F8DFF8B080C9
:100C80002C4998ED000ABCEEC00A10EE100A08606C
:100C900005F080FB98ED000A4FF0964110EE100A27
:100CA000884205DD38EE400AB1EE400A88ED000AC0
:100CB00096ED000A10EE100A884205DD38EE400A73
:100CC000B1EE400A86ED000A601E96ED000A05EBC3
:100CD000800080ED7C0A032C04D298ED000A80EDA0
:100CE000830AA3465946204605F0D2FB2146002040
:100CF00001F038FC072C05D30620387085F840A099
:100D000008F080FB641CE4B2387811283FF44FAF40
:100D1000BDEC028BBDE8F09FD4110020FFFF7F4B9C
:100D200054000020410000205C0000204F00002003
:100D3000500000206000002010B54FF40051094819
:100D400002F055FF0121084802F051FF4FF4806185
:100D5000064802F04AFFBDE810400421044802F0B2
:100D600044BF00000008024000000240001C024096
:100D70000010024030B587B0054628784C4C04F886
:100D8000280C687804F8270CA87804F8260CE91CCD
:100D9000684608F04BFB9DF8000004F8240C01980D
:100DA00044F8200C029844F81C0C039844F8180CE2
:100DB000049844F8140C059844F8100C069844F86C
:100DC0000C0C687A04F8080C687A04F8080C05F131
:100DD0000A01684608F02AFB9DF8000004F8040C9C
:100DE00001982060029860600398A0600498E06019
:100DF0000598206106986061287C2076687CA07642
:100E000005F11201684608F011FB9DF800002077FB
:100E100001982062029860620398A0620498E062E0
:100E2000059820630698606305F11801684608F08C
:100E3000FDFA9DF8000084F838000198E0630298FC
:100E40002064039860640498A0640598E0640698A0
:100E5000206505F11E01684608F0E8FA9DF80000DB
:100E600084F854000198A0650298E0650398206614
:100E7000049860660598A0660698E06605F124016E
:100E8000684608F0D3FA9DF8000084F870000198D5
:100E900060670298A0670398E0670498C4F8800030
:100EA0000598C4F884000698C4F8880007B030BDDF
:100EB000FC11002010B50121CC05204604F052FDA4
:100EC0002046BDE81040002104F04CBD0146002042
:100ED000024A52680A4200D00120704700B0024026
:100EE00030B500242A4B19682A4A11401960196844
:100EF000026811431960596B21F007015963596B5E
:100F00004268114359634168002928D001292DD036
:100F1000022930D0032933D0C1680A0101690902CE
:100F2000446924038568214315430D43996B0D43A0
:100F30009D638169D963196C6FF30D011964196C94
:100F4000C26911431964818C09045A6C02F0404251
:100F50005A645A6C006A02430A435A6430BDC1683D
:100F60000A02018A0904047D2406DBE7C1680A023B
:100F7000018A0904D6E7C1684A010169C902D1E7BB
:100F8000C1684A01016989024469E403CAE70000B3
:100F900000B00240FCE0FCFF0248016841F00101A2
:100FA0000160704700B002400CB5094B1B788DF80A
:100FB000063000910749895C8DF8041005490B3112
:100FC000895C8DF80510DDE9001206C00CBD00003B
:100FD0003E000020573D0108704710B590B0044610
:100FE00002F00EFB0122214601A800F08BFF9DF8C4
:100FF00004008DF8240002980A9003980B9004983E
:101000000C9005980D9006980E9007980F9009A8DF
:1010100000F078F80890089810B010BD10B590B0A6
:10102000044602F005FB0022214601A800F06AFFF9
:101030009DF804008DF8240002980A9003980B9004
:1010400004980C9005980D9006980E9007980F90B4
:1010500009A800F057F80890089810B010BD0000DB
:10106000F0B587B006460121022004F06DFC012195
:10107000880404F093FC214F07220B21384602F02C
:101080009DFD07220A21384602F098FD00248DF8C4
:101090001A4001208DF81B0002258DF8185080029F
:1010A00005908DF8195005A9384602F049FD8DF8D4
:1010B0001850A802059005A9384602F041FD019696
:1010C000ADF80840ADF80A40ADF80C40ADF810405E
:1010D0000C20ADF80E000A4C01A920460AF05EFA79
:1010E00004F0E6F8012240F2255120460AF03BFACE
:1010F000012120460AF0A4F907B0F0BD0004024027
:1011000000480040416844F62062914204D9416899
:101110000A22B1FBF2F141604068704738B5002007
:1011200000905E4942F210725D484EF66023AFE0D7
:101130009DF8004000EBC404D4F8B4409DF8005082
:1011400001EBC5056D68AC420CD89DF8004000EB82
:10115000C404D4F8B4409DF8005001EBC5056D6897
:10116000AC4210D29DF80040072C06D29DF80040FA
:1011700000EBC404C4F8B42005E09DF8004000EB87
:10118000C404C4F8B4309DF8004000EBC404D4F8A3
:10119000FC409DF8005001EBC5056D68AC420CD8D1
:1011A0009DF8004000EBC404D4F8FC409DF80050CA
:1011B00001EBC5056D68AC4210D29DF80040072CCC
:1011C00006D29DF8004000EBC404C4F8FC2005E002
:1011D0009DF8004000EBC404C4F8FC309DF80040CA
:1011E00000EBC404D4F844419DF8005001EBC50560
:1011F0006D68AC420CD89DF8004000EBC404D4F8F4
:1012000044419DF8005001EBC5056D68AC4210D219
:101210009DF80040072C06D29DF8004000EBC40466
:10122000C4F8442105E09DF8004000EBC404C4F874
:1012300044319DF8004000EBC404D4F88C419DF883
:10124000005001EBC5056D68AC420CD89DF800401C
:1012500000EBC404D4F88C419DF8005001EBC505A7
:101260006D68AC4210D29DF80040072C06D29DF864
:10127000004000EBC404C4F88C2105E09DF8004058
:1012800000EBC404C4F88C319DF80040641C009449
:101290009DF80040092CFFF44BAF38BD90000020B2
:1012A000D41100201CB54FF40050009000208DF8A0
:1012B00004000C218DF805108DF80600684602F038
:1012C000A5FA1CBD2DE9FC5F0546012D0AD00020C2
:1012D00000904FF0501B4FF47F07FE4C009818B160
:1012E000676003E00120F3E7C4F804B0DFF8E8A387
:1012F0009AF8D80108B1F94E01E0F84E1C3E1223CD
:1013000068221A21582003F043F99AF800000023BC
:10131000C0EBC00082191A2158200DF053FF022D96
:1013200005D000200090009818B1676003E001200C
:10133000F8E7C4F804B09AF8D80110B1E74E38368F
:1013400001E0E64E1C36122368222E21582003F0BD
:101350001FF99AF801000023C0EBC0008219302168
:1013600058200DF02FFF032D07D000200090DFF84C
:101370007083009818B1676003E00120F6E7C4F8B5
:1013800004809AF8D80110B1D44E8C3601E0D34EC7
:101390007E36122368225C21582003F0F9F89AF86F
:1013A00002000023C0EBC00082195C2158200DF020
:1013B00009FF042D05D000200090009818B1676047
:1013C00003E00120F8E7C4F80480DAF80C00C1B2A9
:1013D000DAF808000023052202F0B6FD12237A2273
:1013E0007021582003F0D4F80023BE4A72215820FF
:1013F0000DF0E8FEDAF81010BB48002300EB810284
:10140000722194200DF0DEFE052D05D00020009005
:10141000009818B1676003E00120F8E7C4F8048081
:101420009AF8D80110B1AD4E693601E0AB4E543692
:10143000122368229E21582003F0AAF89AF820006F
:101440000023C0EBC0008219A02158200DF0BAFE85
:10145000062D05D000200090009818B1676003E0C9
:101460000120F8E7C4F80480DAF82C00C1B2DAF8F9
:1014700028000023062202F067FD12237A22B221FF
:10148000582003F085F80023964AB42158200DF027
:1014900099FE002395A2B421A0200DF093FE072D04
:1014A00005D000200090009818B1676003E001208B
:1014B000F8E7C4F804B09AF8D80110B18A4E583E43
:1014C00001E0894EB03E1223682218214FF4A97022
:1014D00003F05EF89AF84100A8B19AF840000023A2
:1014E000401C00EB400101EBC00082191A214FF4AF
:1014F000A9700DF067FE082D0DD000200090009817
:1015000058B167600BE0002332461A214FF4A970EE
:101510000DF058FEEFE70120F0E7C4F804B09AF8A8
:10152000D80110B16D4ED63601E06C4E9A364FF4AC
:10153000A97B122368222E21584603F029F89AF835
:1015400042000023C0EBC0008219302158460DF044
:1015500039FE092D05D000200090009818B1676071
:1015600003E00120F8E7C4F80480DAF84C00C1B2C7
:10157000DAF848000023052202F0E6FC12237A2262
:101580005C21584603F004F80023564A5C21584673
:101590000DF018FEDAF850105348002300EB8102DA
:1015A0005E214FF4C7700DF00DFE0A2D05D000200E
:1015B0000090009818B1676003E00120F8E7C4F8D4
:1015C0000480DAF86800C1B2DAF86400002305226A
:1015D00002F0BAFC12237A227021584602F0D8FF9A
:1015E0000023404A722158460DF0ECFDDAF86C10E9
:1015F0003D48002300EB810272214FF4C7700DF0CB
:10160000E1FD0B2D05D000200090009818B1676017
:1016100003E00120F8E7C4F80480DAF88400C1B2DE
:10162000DAF880000023062202F08EFC12237A22D0
:101630009C21584602F0ACFF00232A4A9E215846BE
:101640000DF0C0FD002329A29E214FF4CD700DF0B6
:10165000B9FD0C2D05D000200090009818B16760EE
:1016600003E00120F8E7C4F80480DAF8A000C1B272
:10167000DAF89C000023062202F066FC12237A228C
:10168000B221584602F084FF0023164AB42158467E
:101690000DF098FD002315A2B4214FF4CD700DF08C
:1016A00091FD00F0DBFB0020114A54276FF07F41D1
:1016B0000D2D3DD2DFE805F0070C3E5F80A0C1E1B3
:1016C000EFEEEDECEB00BDE8FC5F022000F0D2B9DC
:1016D00021600FE030010020D411002046380108BD
:1016E0006534340077000020083A010820560000D5
:1016F0003800310062609AF8D81109B1D84C01E085
:10170000D74C1C3C019010E001980023C0EBC000B6
:1017100002190198F12100EB800007EB001080B264
:101720000DF050FD0198401C019001980428EBD366
:10173000BDE8FC9F216062609AF8D81111B1C84CD5
:10174000383401E0C64C1C34019010E001980023AD
:10175000C0EBC00002190198F12100EB800007EBFB
:10176000001080B20DF02EFD0198401C01900198F0
:101770000428EBD3DCE7216062609AF8D81111B13C
:10178000B74C8C3401E0B64C7E34019010E00198E7
:101790000023C0EBC00002190198F12100EB80008A
:1017A00007EB001080B20DF00DFD0198401C019078
:1017B00001980228EBD3BBE7216062609AF8D81148
:1017C00009B1A84C01E0A74CE41F019010E001987A
:1017D0000023C0EBC00002190198F12100EB80004A
:1017E00007EB001080B20DF0EDFC0198401C019059
:1017F00001980028EBD09BE7216062609AF8D8112D
:1018000011B1974C693401E0954C5434019010E0CB
:1018100001980023C0EBC00002190198F12100EBF0
:10182000800007EB001080B20DF0CCFC0198401C4A
:10183000019001980328EBD37AE7216062609AF85F
:10184000D81109B1874C01E0864CE41F019010E0EB
:1018500001980023C0EBC00002190198F12100EBB0
:10186000800007EB001080B20DF0ACFC0198401C2A
:10187000019001980028EBD05AE7216062609AF845
:10188000D81109B1784C00E0774C019017E0C6E020
:10189000A5E084E063E016E00198002300EB40013E
:1018A00001EBC00002190198F12100EB800007EB69
:1018B000001080B20DF086FC0198401C0190019848
:1018C0000528E9D334E7216062609AF8D81159B14C
:1018D0009AF84310012904D0DFF88C91A9F1DC09B2
:1018E0000AE05F4ED63607E09AF84310012909D086
:1018F000DFF86C9109F1B6099AF84310012904D078
:10190000019028E0564E9A36F6E7019010E00198D3
:101910000023C0EBC00082190198F12100EB800088
:1019200007EB001080B20DF04DFC0198401C0190B7
:1019300001980428EBD3FBE60198002309EBC002D1
:1019400000EB800007EB001080B2F1210DF03AFCB3
:101950000198401C019001980428EDD3E8E621602D
:1019600062609AF8D81109B13E4C01E03D4CE41F89
:10197000019010E001980023C0EBC000021901980B
:10198000F12100EB800007EB001080B20DF01AFC93
:101990000198401C019001980028EBD0C8E6216016
:1019A00062609AF8D81109B12E4C01E02D4CE41F69
:1019B000019010E001980023C0EBC00002190198CB
:1019C000F12100EB800007EB001080B20DF0FAFB74
:1019D0000198401C019001980028EBD0A8E62160F6
:1019E00062609AF8D81109B11E4C01E01D4CE41F49
:1019F000019010E001980023C0EBC000021901988B
:101A0000F12100EB800007EB001080B20DF0DAFB53
:101A10000198401C019001980028EBD088E62160D5
:101A200062609AF8D81109B10E4C01E00D4CE41F28
:101A3000019010E001980023C0EBC000021901984A
:101A4000F12100EB800007EB001080B20DF0BAFB33
:101A50000198401C019001980028EBD068E6000036
:101A600046380108C3330108143A0108002000F089
:101A700001B800002DE9F041044600F0EFF9944868
:101A8000944B95496FF07F424FF483754FF4AB76DA
:101A9000002C47D04FF4D377012C7DD0022C7CD181
:101AA00091F8D801002879D000238CA2E721662084
:101AB0000DF088FB00238BA2FB2166200DF082FB3A
:101AC000002386A2E721B6200DF07CFB002387A22D
:101AD000FB21B6200DF076FB002386A2E7212846E5
:101AE0000DF070FB002381A2FB2128460DF06AFB5C
:101AF000002382A2E72130460DF064FB002380A280
:101B0000FB2130460DF05EFB00237CA2E721384626
:101B10000DF058FB3846BDE8F04100237AA2FB21C6
:101B20000DF050BB0260436091F8D801002831D01D
:101B300000236AA2E72166200DF044FB002369A27E
:101B4000FB2166200DF03EFB002364A2E721B620B6
:101B50000DF038FB002365A2FB21B6200DF032FB0F
:101B6000002364A2E72128460DF02CFB00235FA28E
:101B7000FB2128460DF026FB002360A2E72130461A
:101B80000DF020FB3046BDE8F04100235CA2FB21B4
:101B90000DF018BB002302E032E097E058E05CA2B1
:101BA000E72166200DF00EFB00235BA2FB216620DF
:101BB0000DF008FB002356A2E721B6200DF002FB32
:101BC000002357A2FB21B6200DF0FCFA002356A2F9
:101BD000E72128460DF0F6FA002351A2FB21284602
:101BE0000DF0F0FA002350A2E72130460DF0EAFA9A
:101BF0003046BDE8F04100234DA2FB210DF0E2BAD2
:101C00000260436000234CA2E72166200DF0DAFA5F
:101C100000234BA2FB2166200DF0D4FA00234AA238
:101C2000E721B6200DF0CEFA002349A2FB21B62011
:101C30000DF0C8FA002348A2E72138460DF0C2FA99
:101C40003846BDE8F041002345A2FB210DF0BABAA9
:101C500000232FA2E72166200DF0B4FA00232EA264
:101C6000FB2166200DF0AEFA002329A2E721B62061
:101C70000DF0A8FA00232AA2FB21B6200DF0A2FA4B
:101C8000002329A2E72128460DF09CFA002324A274
:101C9000FB2128460DF096FA002323A2E7213046C7
:101CA0000DF090FA002322A2FB2130460DF08AFAB3
:101CB00000232DA2E72138460DF084FA3846BDE80E
:101CC000F04100232AA2FB210DF07CBABDE8F0818F
:101CD0003001002038003100D41100204D4541531F
:101CE0000000000044495350000000005345545583
:101CF0005000000020535953000000005359530076
:101D0000494E464F000000005550444154450000E4
:101D1000B2E2C1BF00000000CFD4CABE0000000084
:101D2000C9E8D6C300000000CFB5CDB30000000065
:101D3000D0C5CFA200000000CEC4BCFE0000000051
:101D4000B9DCC0ED00000000B1A3B4E60000000063
:101D5000CAFDBEDD00000000B8FCB6E000000000D7
:101D600020322F3200000000B9CCBCFE0000000081
:101D7000C9FDBCB6000000000FB410B59DF8080006
:101D8000002812D09DF80800072807D99DF81010E8
:101D900000230622039802F0D7F806E09DF81810F9
:101DA00000230722059802F0CFF89DF808001A21B9
:101DB00010BC00EB800001EB80010123034A4FF4CB
:101DC000A0705DF814EB0DF0FDB900007700002065
:101DD00071B581B0002000901D4C4FF0501532E0DD
:101DE0009DF804100098401C814203D14FF47F01FC
:101DF000616000E0656000EB80001A2606EB800061
:101E000081B214235A22A02002F0C2FB114800998B
:101E1000415C1148009A00EBC200D0F8B4000023E6
:101E2000062202F091F800980A4A401C00EB80005C
:101E300006EB800081B20123813AA0200DF0C2F9A7
:101E40000098401C009000980928C9D365607CBDAB
:101E500030010020F8000020D41100202DE9F05FAF
:101E60000024DFF878801E4EDFF878A000274FF0BE
:101E70004C094FF0010BC6F8048004EB4401A000AC
:101E800001EB041100EB810080B22B234C22E421F2
:101E900002F07EFBC6F804A004EB84050BEB0510F2
:101EA00080B201234C22E32102F072FB09EB051002
:101EB00080B22C230122E32102F06AFB77604D20DF
:101EC00000EB051080B22C230322E32102F060FB1B
:101ED000641C062CCFD3BDE8F09F00003800310011
:101EE00030010020684369000549044848606E23BA
:101EF0005C2140F2DF12002002F04ABB653434005E
:101F0000300100202DE9F04F93B080460E460120AD
:101F100012900C9000270B970A9709970897039740
:101F20000297049702970D974FF0200A0FAD07E034
:101F30009DF8340005F800A09DF83400401C0D9079
:101F40009DF834000728F3D38DF843700AB10724B5
:101F500000E00624DFF8E0B34FF02E0975E102201F
:101F600002F00AFA0E909DF83800002846D00121B0
:101F70000C919DF838001228F8D00CDC12283DD2C4
:101F8000DFE800F03C3C3C7EEEE1D43C3C5A3C783F
:101F9000C7BAAD3C3C3D1A28E8D009DCA0F11300DB
:101FA0000728ECD2DFE800F02A8E81722A2A0E0080
:101FB0001E2878D022DC1B28D8D01C2874D01D28DD
:101FC0001CD1E7E0049712979DF82000A04214D29C
:101FD0009DF82C0088B99DF8200050B19DF8200094
:101FE00005F800909DF820000A909DF82000401C04
:101FF00008909DF82C00401C0B9005910CE1049179
:1020000012979DF82000A04214D29DF82C0088B9A8
:102010009DF8200050B19DF8200005F800909DF833
:1020200020000A909DF82000401C08909DF82C008C
:10203000401C0B900591EFE00220049012979DF850
:102040002000A04214D29DF82C0088B99DF82000F1
:1020500050B19DF8200005F800909DF820000A90EE
:102060009DF82000401C08909DF82C00401C0B900F
:102070000591D1E006208BF8000012970597CBE080
:102080001297059712208BF80000C5E09DF82000FC
:10209000A04207D29DF82010312068549DF82000FE
:1020A000401C0890B8E068E091E09DF82000A04254
:1020B00007D29DF82010322068549DF82000401C63
:1020C0000890A9E09DF82000A04207D29DF82010BA
:1020D000332068549DF82000401C08909CE09DF837
:1020E0002000A04207D29DF82010342068549DF8AB
:1020F0002000401C08908FE09DF82000A04207D2ED
:102100009DF82010352068549DF82000401C089050
:1021100082E09DF82000A0427ED29DF8201036205B
:1021200068549DF82000401C089075E09DF8200040
:10213000A04271D29DF82010372068549DF82000ED
:10214000401C089068E09DF82000A04264D29DF8F1
:102150002010382068549DF82000401C08905BE057
:102160009DF82000A04257D29DF8201039206854D5
:102170009DF82000401C08904EE09DF82000A042F1
:102180004AD29DF82010302068549DF82000401C51
:10219000089041E09DF82000A0423DD29DF820002B
:1021A00040B39DF82C0028BB9DF8200050B19DF84D
:1021B000200005F800909DF820000A909DF820006E
:1021C000401C08909DF82C00401C0B9024E09DF8CA
:1021D000200080B19DF82000401E08909DF820004E
:1021E00005F800A09DF828009DF82010884213D122
:1021F0000B970A9710E09DF82000285C78B39DF8B3
:102200002000285C2D2830D09DF820102D20685407
:102210009DF82000401C08909DF83000A8B10C9754
:1022200046486FF07F4101604FF47F014160B08804
:102230007188103082B23088102302F0A9F97188B9
:10224000308800230FAA0CF0BDFF9DF8480000283D
:102250007FF485AE9DF820000D90302011E0FFE75F
:102260009DF820102D206854D2E79DF820102B20D7
:102270006854CDE79DF8341068549DF83410491C1B
:102280000D919DF83410A142F4D30D9734E09DF8E0
:102290003C0030282CD39DF83C00392828D89DF8E4
:1022A0003400285C302823D39DF83400285C39287A
:1022B0001ED89DF828009DF8341088420CD9029849
:1022C00000EB80004000029002989DF83410695C99
:1022D0000844303802900BE0029800EB8000400088
:1022E000029002989DF83410695C084430380290DE
:1022F0009DF83400401C0D909DF83400A042C6D3D8
:102300009DF8280003909DF8040088F800000298CA
:10231000C8F804000398C8F808000498C8F80C002E
:102320000598C8F810000698C8F814000798C8F86F
:10233000180013B0BDE8F08F4100002030010020EC
:102340002DE9F84F584E7768584870600CF02AFF16
:10235000574D687803281BD0687860B1012355A2D7
:102360006C2130200CF07EFF012352A2A3213020EB
:102370000CF078FF18E000234EA25C2120200CF026
:1023800071FF00234BA2932120200CF06BFF0BE088
:10239000002348A27C2140200CF014FF002345A21A
:1023A000B32140200CF00EFF45484FF00008C0F864
:1023B00000800830C0F8008095F84300414C4FF48D
:1023C000C8794FF4967A80B9FEF7B6FCFEF776FB33
:1023D00016233C22B421484602F0DAF8372328229B
:1023E0005C215046009402F061FC95F82000E0B9B1
:1023F000A878012819D0FEF79FFCFEF75FFB162393
:102400003C22B421484602F0C3F8372328225C213D
:102410005046009402F04AFC776095F841002A4942
:102420000978BDE8F84F00F09DB895F8430040B337
:102430004FF47F0070600120FEF74CFB02F038FD86
:102440001F4A22A0103A0168C2F807104C23D37229
:10245000204A032090742048816280F82C3018486C
:10246000093880F8058016233C22B421484602F042
:102470008FF8134A0023093AB42148460CF0A2FE13
:10248000CAE7FEF759FCFEF719FB16233C22B421DC
:10249000484602F07DF8372328225C2150460094FC
:1024A00002F004FCB8E7000030010020653434007D
:1024B000D41100202D2D2D2D2D2D2D2D00000000AF
:1024C00080000020FE71070843000020525620467D
:1024D0004C000000441100205911002008B511489B
:1024E00041794FF4967000290BD0012911D00229AF
:1024F00006D10D490091372328225C2102F0D6FB3A
:1025000008BD0A490091372328225C2102F0CEFB46
:1025100008BD07490091372328225C2102F0C6FB41
:1025200008BD000080000020FE710708377507080D
:10253000967A070818B509484FF4AA740090372313
:1025400028225C21204602F0B1FB05490091372387
:1025500028229321204602F0A9FB18BD70780708B5
:10256000F57F0708012800D90120062900D9062196
:102570000A4B4FF050125A60C0EBC000084A00EB03
:10258000400002EB800001EB410100EB81020023DF
:10259000D2214FF4BE700CF015BE000030010020B7
:1025A000A33C010830B595B004460D4601F028F86B
:1025B000012229466846FFF7A5FC9DF800008DF82A
:1025C000380001980F900298109003981190049889
:1025D000129005981390069814900EA9684601F081
:1025E0001BFD9DF800008DF81C00019808900298D2
:1025F000099003980A9004980B9005980C900698FF
:102600000D900B9818B90020099008900A909DF839
:102610001C002070089860600998A0600A98E0602B
:102620000B9820610C9860610D98A06115B030BDC9
:1026300030B595B004460D4600F0FAFF0022294659
:102640006846FFF75FFC9DF800008DF838000198A0
:102650000F9002981090039811900498129005988A
:102660001390069814900EA9684608F073FD9DF823
:1026700000008DF81C0001980890029809900398BA
:102680000A9004980B9005980C9006980D900B9862
:1026900018B90020099008900A909DF81C0020703D
:1026A000089860600998A0600A98E0600B98206123
:1026B0000C9860610D98A06115B030BD70B500F048
:1026C000AFF8254D6FF07F462E6024486860244C9B
:1026D00094F8D80108B1234A01E0224AF23A0023D3
:1026E000DC32042118460CF06DFD2E604FF05010C6
:1026F000686094F81E0238B194F8D80108B11A4DF8
:102700000AE0194D543D07E094F8D80110B1164D78
:10271000A83501E0144D543500241A26C4EBC4003A
:1027200000EB4000421904EB440000EBC40006EB50
:10273000400081B2002318460CF044FD641C042CB8
:10274000ECD30023094A5C2152200CF03BFDBDE88C
:102750007040FFF78BB90000300100200352F300F6
:10276000D4110020D0350108A73B0108E813002050
:1027700070B500241825601C00EB400101EBC0007F
:1027800005EB400081B2012364225A2001F000FFD2
:10279000641C072CEFD370BD2DE9F04100F040F828
:1027A0001A4E6FF07F47376019487060194C94F8E3
:1027B000D80108B1184A01E0174AF23A0023B032B2
:1027C000042118460CF0FEFC37604FF0501070608A
:1027D00094F8D80108B1114D01E0104D583D002486
:1027E0004FF01A0804EB440000EBC400421908EB58
:1027F000400081B2002318460CF0E4FC641C082C55
:10280000F0D37760BDE8F041FFF7B2BF30010020A0
:102810000352F300D4110020D0350108A33A010877
:1028200010B500F06DFEBDE81040FFF717BB0000CB
:102830002DE9FF5F044600278DF80770012C0AD0B0
:1028400000200290FA4D02984FF47F064FF0501B83
:1028500018B16E6003E00120F3E7C5F804B0DFF8BB
:10286000D48398F8D80110B1DFF8CC9303E0DFF8F7
:10287000C893A9F10E09122366221A215A2001F0E9
:1028800087FE98F8D4010023C0EBC00000EB0902DA
:102890001C215A200CF096FC022C05D0002002903E
:1028A000029818B16E6003E00120F8E7C5F804B0A3
:1028B0001223662230215A2001F06AFE98F8D501D1
:1028C000DFF87893C0EBC00000EB0902002332214F
:1028D0005A200CF077FC032C05D0002002900298BF
:1028E00018B16E6003E00120F8E7C5F804B098F86D
:1028F000D80110B1DFF840A303E0DFF83CA3AAF150
:102900000E0A1223662246215A2001F041FE98F851
:10291000D6010023C0EBC00000EB0A0248215A2078
:102920000CF050FC042C05D000200290029818B145
:102930006E6003E00120F8E7C5F804B098F8D8010C
:1029400010B1DFF8F4A203E0DFF8ECA2AAF10E0A5E
:10295000122366225C215A2001F01AFE98F8D70152
:102960000023C0EBC00000EB0A025E215A200CF0ED
:1029700029FC052C05D000200290029818B16E6049
:1029800003E00120F8E7C5F804B0122366227221A3
:102990005A2001F0FDFD98F8D801DFF8A0A200232D
:1029A0000AF1380A0AEBC00274215A200CF00AFC22
:1029B00001A9002003F02AFA6946002003F0F4F987
:1029C000062C05D000200290029818B16E6003E03A
:1029D0000120F8E7C5F804B012231A4688215A20CE
:1029E00001F0D6FD9DF8032095A196480CF08CFCD3
:1029F0000023944A8A215A200CF0E4FBC5F804B065
:102A0000002391A28A216E200CF0DCFB072C05D05C
:102A100000200290029818B16E6003E00120F8E7F0
:102A2000C5F804B012231A468821782001F0B0FDC1
:102A30009DF8012082A183480CF066FC0023814AA6
:102A40008A2178200CF0BEFBC5F804B000237EA2DA
:102A50008A218C200CF0B6FB082C05D000200290B7
:102A6000029818B16E6003E00120F8E7C5F804B0E1
:102A700012231A468821982001F08AFD9DF8022031
:102A80006FA170480CF040FC00236E4A8A21982008
:102A90000CF098FB092C05D000200290029818B188
:102AA0006E6003E00120F8E7C5F804B012231A466F
:102AB0009E215A2001F06CFD9DF8042060A1614820
:102AC0000CF022FC00235F4AA0215A200CF07AFB74
:102AD000C5F804B000235DA2A0216E200CF072FBAB
:102AE0000A2C05D000200290029818B16E6003E015
:102AF0000120F8E7C5F804B012231A469E21782079
:102B000001F046FD9DF805204DA14E480CF0FCFB60
:102B100000234C4AA02178200CF054FBC5F804B0E7
:102B200000234AA2A0218C200CF04CFB0B2C05D0DA
:102B300000200290029818B16E6003E00120F8E7CF
:102B4000C5F804B012231A469E21982001F020FDFA
:102B50009DF806203AA13B480CF0D6FB0023394AE9
:102B6000A02198200CF02EFB0C2C05D00020029008
:102B7000029818B16E6003E00120F8E7C5F804B0D0
:102B800012236622B4215A2001F002FD0023304AAC
:102B9000B6215A200CF016FBFFF760F96FF07F406A
:102BA00028602C48686054250C2C09D2DFE804F01A
:102BB000060A28547290A5A5A5A5A5A5FEF756FF5F
:102BC000BDE8FF9F98F8D80108B11B4C01E01A4CF2
:102BD0000E3C039710E003980023C0EBC0000219DD
:102BE0000398F12100EB800005EB001080B20CF09F
:102BF000E9FA0398401C039003980228EBD3DFE71F
:102C0000039711E003980023C0EBC00000EB09021A
:102C10000398F12100EB800005EB001080B20CF06E
:102C2000D1FA0398401C039003980528EAD3C7E71C
:102C300030010020D4110020D2380108FB3A0108ED
:102C400025326400770000202D0000003A000000CB
:102C5000AD1300203800310098F8D80108B1324C8B
:102C600001E0314C0E3C039710E003980023C0EBC9
:102C7000C00002190398F12100EB800005EB001061
:102C800080B20CF09FFA0398401C0390039802282E
:102C9000EBD395E798F8D80108B1234C01E0224C1A
:102CA0000E3C039710E003980023C0EBC00002190C
:102CB0000398F12100EB800005EB001080B20CF0CE
:102CC00081FA0398401C039003980228EBD377E71E
:102CD00003970EE0039800230AEBC00200EB80008C
:102CE00005EB001080B2F1210CF06CFA0398401C47
:102CF000039003980228EDD362E703970B4C0EE094
:102D00000398002304EBC00200EB800005EB0010E9
:102D100080B2F1210CF056FA0398401C03900398FE
:102D20000228EDD34CE70000D2380108433B0108EC
:102D300010B500F0E5FBFFF791F8BDE81040FFF794
:102D4000D3B810B500F0DCFBFFF788F8BDE8104001
:102D5000AFF30080FFF7C8B870B5FFF7E9FF254C67
:102D60006FF07F45256024486060244E96F8D801B6
:102D700008B1234A01E0224AF23A0023042118460E
:102D80000CF020FA25604FF05010606096F8D801E2
:102D900008B11C4D01E01B4D3C3D00241A26032CBC
:102DA0000FD204EB840005EB400204EB440000EB7F
:102DB000C40006EB400081B2002318460CF002FA72
:102DC0000FE004EB840005EB4002E01E00EB400145
:102DD00001EBC00006EB400081B20023FA200CF0AA
:102DE000F1F9641C062CDAD3BDE870400020FEF730
:102DF00041BE0000300100200352F300D411002036
:102E0000D0350108A23401082DE9F047FFF799FFFA
:102E10002E4E6FF07F4434602D4870602D4D95F834
:102E2000D80108B12C4A01E02B4AF23A002358326B
:102E3000042118460CF0C6F934604FF05017776043
:102E400095F8D80108B1254D01E0244DB43D00248A
:102E5000DFF88C804FF01A09092C16D2E01E0528E5
:102E600002D2C6F8048000E0776004EB840005EB32
:102E7000400204EB440000EBC40009EB400081B2C7
:102E8000002318460CF09EF918E0A4F10C00052868
:102E900002D2C6F8048000E0776004EB840005EB02
:102EA0004002A4F1090000EB400101EBC00009EB76
:102EB000400081B20023FA200CF084F9641C122C2B
:102EC000CAD3BDE8F0470020FEF7D4BD3001002092
:102ED0000352F300D4110020D035010876370108E1
:102EE000653434002DE9FC5F0546DFF8C08398F8AF
:102EF000D801002802D0DFF8B8A303E0DFF8B0A3C0
:102F0000AAF11C0A012D0AD000200090E94C00987B
:102F10004FF47F064FF0501918B1666003E00120AE
:102F2000F3E7C4F8049014235C221821582001F020
:102F30002FFB6FF07F47276098F800000023C0EB5D
:102F4000C00000EB0A021A2158200CF03BF9022DB8
:102F500005D000200090009818B1666003E00120C1
:102F6000F8E7C4F80490D8F86800C1B2D8F8640053
:102F70000023052200F0E8FF14235C2230215820B2
:102F800001F006FB0023CC4A302158200CF01AF93E
:102F9000D8F86C00DFF824A300230AEB800230216C
:102FA00094200CF00FF9032D05D00020009000981C
:102FB00018B1666003E00120F8E7C4F80490D8F87F
:102FC0000C00C1B2D8F808000023052200F0BCFFB5
:102FD00014235C224621582001F0DAFA0023B64A75
:102FE000462158200CF0EEF8D8F8100000230AEB28
:102FF0008002462194200CF0E5F8042D05D0002035
:103000000090009818B1666003E00120F8E7C4F86A
:10301000049098F8D80120B1DFF8A0A2AAF1580ACC
:1030200003E0DFF898A2AAF1B00A4FF4A97B1423B9
:1030300068221821584601F0ABFA98F84100A8B16F
:1030400098F840000023401C00EB400101EBC00059
:1030500000EB0A021A2158460CF0B4F8052D0CD0EA
:1030600000200090009850B166600AE000235246AC
:103070001A2158460CF0A6F8F0E70120F1E7C4F851
:103080000490D8F8A000C1B2D8F89C000023062212
:1030900000F05AFFDA46142368222E21504601F030
:1030A00077FA0023844A302150460CF08BF84FF415
:1030B000CD7B002382A2302158460CF083F8062DE8
:1030C00005D000200090009818B1666003E0012050
:1030D000F8E7C4F80490D8F82C00C1B2D8F828005A
:1030E0000023062200F030FF1423682244215046BA
:1030F00001F04EFA0023704A462150460CF062F867
:1031000000236FA2462158460CF05CF8FEF7A6FE9D
:1031100000206C495426072D29D2DFE805F0040968
:103120002A4A6A87A700BDE8FC5F0020FEF7A2BC20
:103130002760616098F8D81109B15D4C01E05C4CE2
:103140001C3C019010E001980023C0EBC000021964
:103150000198F12100EB800006EB001080B20CF02A
:1031600031F80198401C019001980428EBD3BDE888
:10317000FC9F2760616098F8D81109B1524C01E0BA
:10318000514CE41F019010E001980023C0EBC000F7
:1031900002190198F12100EB800006EB001080B2CB
:1031A0000CF010F80198401C019001980028EBD019
:1031B000DDE72760616098F8D81109B1424C01E061
:1031C000414CE41F019010E001980023C0EBC000C7
:1031D00002190198F12100EB800006EB001080B28B
:1031E0000BF0F0FF0198401C019001980028EBD0F3
:1031F000BDE7276061600190304C0C3412E001980B
:10320000002300EB400101EBC00002190198F121FD
:1032100000EB800006EB001080B20BF0D3FF0198AA
:10322000401C019001980428E9D3A0E72760616061
:1032300098F8D81109B1244C01E0234CE41F019007
:1032400010E001980023C0EBC00002190198F121A1
:1032500000EB800006EB001080B20BF0B3FF01988A
:10326000401C019001980028EBD080E72760616046
:1032700098F8D81109B1144C01E0134CE41F0190E7
:1032800010E001980023C0EBC00002190198F12161
:1032900000EB800006EB001080B20BF093FF01986A
:1032A000401C019001980028EBD060E7D411002069
:1032B000463801083001002077000020083A010854
:1032C0002056000038003100C33301082DE9FF5FAC
:1032D00000980021824C00226254491CC9B209297D
:1032E000FAD348F2E8012D27884206D90020275456
:1032F000401CC0B20628FAD305E09DF80410002354
:10330000052200F021FEDFF8D881764EA8F10708EB
:10331000D8F80700C6F80300B8F80B10A6F8071095
:10332000714D6861298308F1100A70499AF8050007
:1033300001EB800001886983807828774FF0090BC2
:1033400085F81DB04FF0200984F80690684C61782C
:103350009DF8060003292BD0617839B1D8B101233B
:1033600064A26C2130200BF07DFF1AE030B1002305
:1033700060A25C2120200BF075FF05E000235EA217
:103380005C2120200BF06EFF0023554A5C21402079
:103390000BF068FF20E0012357A26C2130200BF0D6
:1033A00061FF01234E4A6C2140200BF05BFF13E0CC
:1033B00030B100234FA27C2140200BF003FF05E039
:1033C00000234DA27C2140200BF0FCFE0023444A48
:1033D0007C214A200BF0F6FE9DF80C1000230622FB
:1033E000029800F0B1FDD8F80710C6F80B10B8F835
:1033F0000B00A6F80F0098F80D20727445F81F1FF7
:10340000A880AA715620E87185F808B03BA0008812
:10341000E8811F3D60789DF80E8003282FD06078EA
:1034200048B1B8F1000F1DD0012332A2A3213020F2
:103430000BF018FF1CE0B8F1000F06D000232DA2FE
:10344000932120200BF00EFF05E000232AA29321F8
:1034500020200BF007FF0023214A932140200BF08E
:1034600001FF22E0012324A2A32130200BF0FAFE69
:1034700001231B4AA32140200BF0F4FE15E0B8F114
:10348000000F06D000231BA2B32140200BF09AFEB0
:1034900005E0002318A2B32140200BF093FE002387
:1034A0000F4AB3214A200BF08DFEB8F1000F06D071
:1034B00086F80A9085F81E900BF074FE07E0B7724C
:1034C000AF7794F82000022806D00BF065FE9AF83A
:1034D00005007072BDE8FF9F0BF064FEF7E7000087
:1034E000770000204411002059110020083A0108FB
:1034F000D4110020200000002D0000000D0A000063
:103500000549044848601623AA220021084601F014
:103510003FB800000352F3003001002038B50E4CD4
:1035200025680E49616001280FD04FF47F01022801
:103530000FD021600A48009018233022F1214FF467
:10354000CA7001F0B3FB256038BD4FF47F402060A6
:10355000F0E72160EEE70000300100203800310084
:103560008C92070870B500F043F81D4C6FF07F4552
:1035700025601C48606000231B4A042118460BF09C
:1035800021FE25604FF0501060600024174D4FF66B
:10359000FF7604EB840000EBC400421904EB8400C6
:1035A00006EA401000231A210BF00CFE641C032CC9
:1035B000EFD300240D4E1A25273604EB840000EBD0
:1035C000C4008219601C00EB800005EB800081B212
:1035D000002318460BF0F6FD641C092CEDD370BDDA
:1035E000300100200352F3004C350108CA330108B2
:1035F00010B5FFF785FFBDE81040FEF72FBC0000B7
:1036000010B5FEF72BFC0848064941606FF07F417A
:1036100001600023F121BDE8104004A254200BF00A
:10362000D1BD0000380031003001002020562000BC
:1036300010B5FEF713FC0E480C4941606FF07F4156
:10364000016000230BA2F12154200BF0BBFD0023ED
:103650000AA2F121A4200BF0B5FD0023F121BDE861
:10366000104008A2F4200BF0ADBD0000380031007E
:1036700030010020206DA6B82020000020A6B82030
:10368000000000006BA6B8200000000000B58FB05D
:103690000EA9002002F0BAFB0DA9002002F084FB65
:1036A0009DF836309DF83A009DF839109DF8382085
:1036B000CDE90210CDE900329DF835309DF8372074
:1036C0000BA105A80BF020FE13494FF050104860E5
:1036D000002305AA0421FA200BF074FD132205A98A
:1036E0000E48FCF77FFD0D490920C8740FB000BDDE
:1036F000323025302E32642D25302E32642D253087
:103700002E32642025302E32643A25302E32643A2F
:1037100025302E32640000003001002059110020B5
:1037200010B54FF40054204600F066F8002804D08D
:103730002046BDE8104000F047B810BD10B5082085
:1037400000F05AF800281FD010480DF084FB082123
:103750000F4800F043FA90B90E48002101700E485E
:103760000E4A012304781CB101700F20107002E092
:103770000370022010700A494FF400700860BDE821
:103780001040082000F020B810BD0000A086010005
:10379000001002406A000020490000204100002083
:1037A00080E100E01CB54FF40050009000208DF83F
:1037B000040001208DF807006946024800F0C0F9B6
:1037C0001CBD000000040240014908607047000071
:1037D000143C0140064900200860091D0860091DCD
:1037E0000860091D086002490248143108607047EA
:1037F000003C0140FFFF7F0001460020024A1268A2
:103800000A4200D001207047143C014030B51B4AE9
:1038100083790168002B2AD013688B431360111D34
:103820000B680468A3430B60017911440B680468BA
:1038300023430B60114C08342168036899432160CD
:10384000231D19680568A94319604179102905D01D
:1038500011440A68006802430A6030BD21680268AA
:1038600011432160196800680143196030BD007977
:10387000104402688A43026030BD0000003C0140F1
:103880002DE9FF410121102002F05EF8012188039B
:1038900002F0A0F801F01FFD0826029600248DF822
:1038A0000C4001258DF80F5002A9144800F048F98A
:1038B0000321042005F00EFA00968DF804400C2632
:1038C0008DF805608DF806506846FFF79FFF6F037F
:1038D000029702A90A4800F033F90D21022005F0F1
:1038E000F9F900978DF804408DF805608DF80650C1
:1038F0006846FFF78BFFBDE8FF8100000010024023
:103900000008024000224FF0204310280AD0B0F5F2
:10391000807F09D0B0F5805F09D0D3F8580181438A
:1039200009D107E0586EFAE7D3F88400F7E7D3F837
:10393000A400F4E70122104670470000D0E900120D
:1039400011438268C068521E520142EA402001437E
:103950000148016070470000500100A070B5046884
:10396000A100A1F1C041D1F84011CE0BF603D0E97E
:1039700001121143D0E903231A4311434269C36979
:1039800011438269056A11431943426A294311436D
:1039900031434FF02046002C3CD0D6F840416FF325
:1039A0000E042B4322431343C6F8403102689200B1
:1039B000A2F1C042C2F84011016871B38900A1F1BF
:1039C000C041D1F8481101F07043816A0A684C681F
:1039D000521E641E42EA04148A68521E44EA0224FB
:1039E0000A8A521E44EA02421A43D6F8483103F0CA
:1039F0007043CC68898A641E2403491E44EA01513D
:103A00001943C6F8481100688000A0F1C040C0F812
:103A1000482170BDC6F84011CEE7FFE7D6F848113F
:103A200001F07041806A02684368521E5B1E42EAE0
:103A300003138268521E43EA0223C268521E43EAFD
:103A40000233028A521E43EA0243828A007E521ED9
:103A500043EA0252401E42EA00600843C6F84801A9
:103A600070BD000002490A6842EA400008607047E1
:103A7000540100A02DE9FC47012140F2A71001F0FC
:103A800063FF2E20009002268DF8056001248DF83A
:103A9000044000258DF806508DF80740244F6946F4
:103AA000384600F04DF80E21384600F0A0F82027E7
:103AB0000097DFF880806946404600F041F82021F9
:103AC000404600F092F840200090DFF86C90694684
:103AD000484600F035F800976946484600F030F84F
:103AE0002021484600F081F88DF804508DF80750E9
:103AF000600300906946114800F022F801F0F6F9E1
:103B0000FDF704F80BF026FB01F05CFC01F074FCFF
:103B1000102000908DF805608DF804408DF8065057
:103B20008DF807406946404600F00AF8BDE8FC877A
:103B300000080240001C0240002002400004024035
:103B40002DE9F041002201274FF0030C07FA02F59E
:103B50000B682B40AB422CD1066853000CFA03F4DF
:103B6000A64306600E79D0F800809E4046EA08061B
:103B700006600E79012E01D0022E12D18668A6436E
:103B800086604E79D0F808809E4046EA0806866036
:103B90004668AE43466045688E799640B6B2354376
:103BA0004560C568A543C560CC799C40C3681C438B
:103BB000C460521C102AC9D3BDE8F08110B54B0770
:103BC000DB0E9A40C90800EB8100016A0F249C407B
:103BD000A1430162016A1143016210BD0246002047
:103BE00012690A4200D00120704741837047018367
:103BF00070470000034A203902EB01111022FCF744
:103C0000F1BA00009C8C07082DE9F04788B0044603
:103C10000F46002514218548FCF7FDFA834814213E
:103C20001430FCF7F8FA824E00217170B170204612
:103C3000DFF8F8A1AAF1A30A9AF89E3006E01AF874
:103C400000202C2A00D10546401CC0B28342F6D881
:103C5000DFF8D8914FF0010C4FF00208EDB95FE0AA
:103C60001AF80420A2F13000092801D92E2A07D120
:103C7000707809F800202E2A00D13071401C707035
:103C800086F805C06D2A02D06B2A02D003E071715C
:103C900001E086F80580641CE4B2AC42E0D36D1C00
:103CA000EAB21DE01AF80200A0F13004092C01D993
:103CB0002E2808D15D4DB478143528552E2800D112
:103CC000B471641CB47086F807C06D2802D06B28EC
:103CD00002D003E0F17101E086F80780521CD2B2F5
:103CE0009342DFD81EE01AF80400A0F13002092A3E
:103CF00001D92E2807D1727809F802002E2800D1A8
:103D00003271521C727086F805C06D2802D06B2883
:103D100002D003E0717101E086F80580641CE4B212
:103D2000A342E0D8434C97B3012F45D0022F57D080
:103D3000032F29D101A804F04DFA9DF8040004F8DE
:103D4000240F029860600398A0600498E0600598D2
:103D50002061069860610798A06101A804F0BEFA8E
:103D60009DF8040084F874000298A0670398E06747
:103D70000498C4F880000598C4F884000698C4F834
:103D800088000798C4F88C0008B0BDE8F087FFE70A
:103D900001A804F01FFA9DF8040004F87C0F0298B3
:103DA00060600398A0600498E06005982061069820
:103DB00060610798A061E7E701A804F0FBF89DF8AF
:103DC000040084F844000298A0640398E064049816
:103DD0002065059860650698A0650798E065D3E7BB
:103DE00001A804F0E7F89DF8040020710298A06093
:103DF0000398E06004982061059860610698A061CE
:103E00000798E06101A804F05DF99DF8040084F8CA
:103E10006000029860660398A0660498E0660598C2
:103E20002067069860670798A067ADE793020020B7
:103E300024000020D41100200349085C002801D090
:103E400000207047012070474D00002040698068C5
:103E500080B27047D0F8CC000068C0F34140704792
:103E6000084490F89B03704700EB8100D0F85003A2
:103E7000704710B5044600220023C4F8103304EB49
:103E80008200C0F81433C0F85033A01880F88C3387
:103E9000521CD2B20F2AF2D30820A4F8B203204653
:103EA00009F0D8FA204609F067F8204608F088FFA4
:103EB0000121204609F030FB204608F0D5FF2046BE
:103EC00009F094F8002010BDD0F81003704710B529
:103ED00009F0A9FA002010BD0022431883F89B23A3
:103EE00000EB4113C3F8C02309F0D6B92DE9F04126
:103EF0000546134F4FF4807631463846FFF775FE7E
:103F000000244FF48058280604D541463846FFF770
:103F10006EFE03E041463846FFF767FE31463846FD
:103F2000FFF765FE0BF0DAF931463846FFF75DFE24
:103F30006806050E641CE4B2082CE4D3BDE8F081E9
:103F400000080240FEE700002DE9F041082A00D9F0
:103F5000082202B90122072900D90721914200D97C
:103F600011460024224E20273755641CE4B2082C49
:103F7000FAD314460A250DE0B0FBF5FC05FB1C0C3A
:103F800006EB04080CF1300C08F801CCB0FBF5F09E
:103F9000641EE4B2002CEFD169B110460C4605E076
:103FA000351815F8015C3554401EC0B2641EE4B2E9
:103FB000F6D22E24345473B90020531E09E0345C29
:103FC000302C08D1341864782E2C04D03754401C7F
:103FD000C0B29842F3DB09B1521CD2B2002002E019
:103FE000B054521CD2B2082AFAD3BDE8F0810000C6
:103FF0007700002006494FF40870002201E001F824
:10400000012B401E80B2FAD20248027070470000B5
:10401000D41100204000002070B505462DED028B24
:104020000C46A068C0F10700FCF7FBF941EC110B4E
:104030009FED2E0B0BF094F9B0EE408AF0EE608A03
:104040006068FCF7EEF953EC182BFCF77BF9FCF7F2
:1040500008FA00EE100ADFED270A20EE200A2649B2
:1040600010EE100A884201DD9FED240A244910EE6B
:10407000100A88420BDB0320A060DFED220A80EEED
:10408000201AFCEEC10A10EE900A606017E010EEF4
:10409000100A1D4988420BDB0420A060F2EE040ADE
:1040A00080EE201AFCEEC10A10EE900A606006E075
:1040B0000520A060FCEEC00A10EE900A6060BCEE25
:1040C000C00A10EE100AA06120782870606868604D
:1040D000A068A860E068E86020692861606968619C
:1040E000A069A861BDEC028B70BD0000000000005B
:1040F0000000244000247449001B374B001B374B41
:104100008096184B0000C842002474490FB40299ED
:10411000032902D1039901B900200299022902D191
:10412000039901B901200299042903D103990129B6
:1041300000D102200299032903D10399012900D15A
:1041400003200299022903D10399012900D10420F7
:104150000299042903D10399022900D1052002996B
:10416000032903D10399022900D1062004B0704726
:104170000FB40298032806D101980449884202D955
:10418000012004B070470020FBE70000C0D401000C
:104190002DE9F04137285DD172B62F4C65682F4E5E
:1041A0000021304605F06FFAB704384605F078FA7A
:1041B0000021384605F067FA304605F071FA002212
:1041C0000121304605F04EFB0021304605F05BFA38
:1041D000234E304607F040F9002240F22551304688
:1041E00007F0C1F90021304607F02AF901F00EFC72
:1041F000002001F0CDFCFFF7EDFA4FF0E0200026A3
:10420000066101F04BFD0021381401F025FE00206D
:1042100001F0D8FFFDF746F81249134807F0FCFA01
:1042200072B6432001F06AF82A2001F067F84D20A9
:1042300001F064F84C2001F061F872B6206880F358
:10424000098886F31488206880F30888AC46BDE8A6
:10425000F0416047BDE8F08100000C08001000400C
:1042600000480040983B0020EC3500202DE9F05F2D
:10427000FF250020FFF73AFEDFF8CCA04FF40069DD
:1042800049465046FFF7AAFCDFF8C0804FF4806B28
:1042900000B359464046FFF7A1FCE8B14946404605
:1042A000FFF79CFCD0B104212948FFF797FCB8B177
:1042B0000426042E40D20024264F385DFFF716FE58
:1042C0000BF00CF876B1012E13D0022E18D0032E6D
:1042D00023D11CE00026ECE70126EAE70226E8E706
:1042E0000326E6E749465046FFF778FCA8B925467D
:1042F00013E059464046FFF771FC70B925460CE0C3
:1043000049464046FFF76AFC38B9254605E00421D6
:104310000F48FFF763FC00B92546FF2D03D1641C4D
:10432000E4B2082CC9D3FF2D04D005EBC600C0B2FF
:10433000BDE8F09F0020FBE74FF400510448FFF771
:104340004DFC0020F4E7000000200240000802407D
:10435000000C02406D37070810B5064C6078002845
:1043600005D00020607000F055F8207810BD0020C6
:1043700010BD00001801002010B50146002004F017
:1043800037FD064C0020FFF757FD10B96078002874
:10439000F8D0BDE81040FFF7DFBF00001801002093
:1043A00070B5FFF763FF1A4C00230125E21CD0B162
:1043B0002178814228D16178652901D2491C617038
:1043C000617864291BD00DD910709570A07800F128
:1043D0000100C0B2A0700E2804D9A3705078002844
:1043E00000D1557070BD207828B16178091F60290F
:1043F00001D21070557023706370937070BDA370FC
:1044000010705570957070BD2070637070BD0000A5
:104410001501002010B5FCF757FB4FF47A700CF033
:104420001AFDBDE81040FCF749BB00007CB5012136
:104430004FF4867001F088FA4FF4985000900220F3
:104440008DF8050001208DF8040000248DF8064049
:104450008DF80700134D69462846FFF771FB691573
:104460002846FFF7C4FB4FF4406100918DF80440EB
:1044700069462846FFF764FBE814009069460A483D
:10448000FFF75EFB0420009069460848FFF758FBE1
:104490000748047044708470C01E047044708470B7
:1044A0007CBD00000008024000200240000C0240D9
:1044B0001801002010B500231C4C2468002C06D0E5
:1044C000012C0DD0022C17D0032C1ED023E000EBC2
:1044D0004003C1EB011000EB400003EB40131AE076
:1044E000A1F20F11C0F5F070A1EB011100EB41102A
:1044F000401E00EB40030EE0A0F20F10A0EB0010F6
:1045000001EB401000EB400305E000EB0010C1EBB5
:10451000001303F20F130648834205D20548806852
:10452000C2521844110C817010BD000064000020BC
:1045300000FA05001C01002070B58AB0C0F30744E2
:10454000C0F30725C6B2FCF7B5FC4FF4403000902D
:10455000012001900494039502960F2005900B48CA
:1045600080680690002007904FF4887008904FF400
:10457000F07009906846FCF7B3FCFCF70DFD0220D3
:10458000FCF7A4FC0028FAD00AB070BD1C01002082
:104590002DE9F04F8BB03B4C6468C4F3074704F03F
:1045A000FF09C4F30728384CDFF8D8A0C2F5F0762D
:1045B000AAF1140A2568DAF80840002D37D0C3F5AF
:1045C000887C012D3ED0022D4CD000EB0010C3EBB7
:1045D0000010401A00F5887000EB400005191FFA22
:1045E0008CF614469B46FCF765FC4FF44030019076
:1045F00001200290CDF81080CDF80C900597FF2097
:104600000690079508960994CDF828B001A8FCF704
:1046100067FCFCF7C1FC0220FCF758FC0028FAD02C
:10462000DAF8000000F0B4FA0BB0BDE8F08FC1EB8F
:10463000011100EB411000EB40000519B6B21C4619
:104640009346D0E7ACEB0101C1EB0111C0EB411087
:10465000801A00F5F07000EB40000519B6B21C4658
:104660009346C0E7C0F58870801AC0EB001001EBDC
:10467000401000EB40000519C3F5F07086B21446F7
:104680009B46B0E730010020640000202DE9F04394
:104690008BB09046994600242E4A1568002D0CD008
:1046A000C1EB011200EB42162B4A012D97680DD089
:1046B000022D11D0032D18D01AE000EB4002C1EBFF
:1046C000011000EB400002EB401411E0A6EB860065
:1046D0002249384444180BE0A0F20F10A0EB001060
:1046E00001EB401000EB400402E006EB4600C41969
:1046F000194814300068C0F30745C6B2C0F3072755
:10470000FCF7D8FB4FF44030019001200290049751
:10471000039605950F2106910794B9F1000F12D069
:1047200040F2DF110891CDF824800A9001A8FCF72F
:10473000D7FBFCF731FC0220FCF7C8FB0028FAD0BD
:104740000BB0BDE8F083002108910990CDF82880D6
:10475000ECE70000640000201C01002000FA0500C6
:104760002DE9FC5F012140F2FF1001F0EDF84FF060
:104770000408CDF8008003208DF8050002208DF894
:10478000040000208DF806008DF807006946AB484C
:10479000FFF7D6F90E220221A848FFF70FFA4FF0D3
:1047A0000809CDF800906946A448FFF7C9F90E2220
:1047B0000321A248FFF702FA4FF4807ACDF800A057
:1047C00069469E48FFF7BCF90E2208219B48FFF777
:1047D000F5F90124009469469948FFF7B1F90922D7
:1047E00000219748FFF7EAF94FF4006BCDF800B0CD
:1047F00069469448FFF7A4F90E220B219148FFF770
:10480000DDF92003009069468E48FFF799F90E22E2
:104810000C218C48FFF7D2F90220009069468848A5
:10482000FFF78EF9092201218548FFF7C7F94025D6
:10483000009569468448FFF783F90E2206218248D5
:10484000FFF7BCF92020009069468048FFF778F90F
:104850000E2205217D48FFF7B1F9009569467B4896
:10486000FFF76EF90E2206217848FFF7A7F96003DB
:10487000009069467148FFF763F90E220D216F48D9
:10488000FFF79CF9A602009669466F48FFF758F9B2
:1048900009220A216C48FFF791F9E003009069466C
:1048A0006648FFF74DF90E220F216448FFF786F99D
:1048B000009469466648FFF743F90E2200216448D8
:1048C000FFF77CF98027009769466248FFF738F9BF
:1048D0000E2207215F48FFF771F9CDF80080694685
:1048E0005B48FFF72DF90E2202215948FFF766F9C0
:1048F0004FF01008CDF8008069465448FFF720F9C2
:104900000E2204215148FFF759F92003009069460F
:104910004D48FFF715F90E220C214B48FFF74EF9D1
:1049200000954D4D69462846FFF70AF90E220621EB
:104930002846FFF743F9CDF800B069464248FFF733
:10494000FFF80E220B214048FFF738F9CDF8008020
:1049500069463F48FFF7F4F80E2204213C48FFF770
:104960002DF9CDF8009069463648FFF7E9F80E2298
:1049700003213448FFF722F9CDF800A069463048FA
:10498000FFF7DEF80E2208212D48FFF717F94FF444
:104990000079CDF8009069462948FFF7D1F80E223A
:1049A00009212748FFF70AF9009769462648FFF7CB
:1049B000C7F80E2207212448FFF700F90096694640
:1049C0002348FFF7BDF80E220A212148FFF7F6F829
:1049D000CDF8009069461E48FFF7B2F80E22092173
:1049E0001B48FFF7EBF800961C4E69463046FFF770
:1049F000A7F80E220A213046FFF7E0F8CDF8008034
:104A000002208DF805008DF8044000208DF8060086
:104A10008DF8074069462846FFF792F800976946E7
:104A20002846FFF78DF810212846FFF7E0F880218F
:104A30002846FFF7DCF8BDE8FC9F0000001C0240A0
:104A40000004024000000240001802400010024032
:104A50000020024000080240000C02400014024006
:104A600000B58FB00121880600F0B4FF0121C80510
:104A700000F06AFFFFF774FE03F078FE06220721BC
:104A80004FF4967001F07AF84FF4803001F066F838
:104A9000012001F06DF83D2001F034F80028FAD033
:104AA000002000900190029003900C900D900E90C9
:104AB000049005902E2006901720079040F20E20BB
:104AC000089040F2271009904FF409700A9040F2C4
:104AD0003D100B90684600F037F9012000F024F9F2
:104AE0000FB000BD10B590B02F20009040F20E2006
:104AF00001901820029040F22710039001200490AA
:104B0000FF200590069007900890099007200B90D1
:104B100040F2A3500D90C01E0E904FF488700F907D
:104B20000C480C904FF4C0600A900B4C694620462C
:104B300000F06CF9012000F0B5F90121204600F0E9
:104B400059F9012000F0AEF9044800F009F810B05E
:104B500010BD000000FA05D00469014038010020B2
:104B600001490861704700001C0100200649002827
:104B700004D0064888600120C86070474FF050405C
:104B800088600020C86070471C01002000FA05D032
:104B900001490860704700001C01002010B5094958
:104BA000C968002908D00146074800F021F9BDE88E
:104BB0001040012000F076B901460348803800F02B
:104BC00017F9F4E71C010020046901402DE9F04FBA
:104BD000044688462546334902EB0210DFF8C8A098
:104BE00001EB4009002B0FD0002709EB070090F8DC
:104BF00002B000265FEA0B6035D541462046DAF860
:104C00000020FFF757FC34E04FF0000B09EB0B00DE
:104C100087780026380606D541462046DAF8002077
:104C2000FFF748FC05E041462046DAF80420FFF78C
:104C300041FC7806070E641CA4B2601B10280CD03F
:104C4000761CF6B2082EE5D30BF1010B0BF0FF0B2F
:104C5000BBF1200FDAD3BDE8F08F2C4608F1010834
:104C60001FFA88F8F0E741462046DAF80420FFF7FB
:104C700021FC4FEA4B604FEA106B641CA4B2601B2E
:104C8000102808D0761CF6B2082EB3D37F1CFFB2D2
:104C9000202FAAD3DFE72C4608F101081FFA88F875
:104CA000F4E7000075370708300100202DE9F84FC0
:104CB00004468B469246A04600270AFB03F0C11724
:104CC00000EB5170DFF85C90009025E00A98C65D1B
:104CD0000025300606D559462046D9F80020FFF7B2
:104CE000E9FB05E059462046D9F80420FFF7E2FB2E
:104CF0007006060E641CA4B2A4EB0800504505D152
:104D000044460BF1010B1FFA8BFB03E06D1CEDB267
:104D1000082DDED37F1CBFB20098B7EBE00FD5DBC8
:104D2000BDE8F88F300100200649002804D008684B
:104D300040F0010008607047086820F0010008603A
:104D4000704700001868014030B5264A13682649AC
:104D50000B401360038A1B04146845692C431C43F1
:104D60001460121D13680B401360038B1B0414683E
:104D7000C5692C431C431460121D13680B4013605B
:104D8000038C1B041468456A2C431C431460121DD9
:104D900013680B401360018D09041368C46A234330
:104DA0000B431360111D0A68104B1A400A60D0E9CA
:104DB00000231A43D0E9023423431A430B681A43F1
:104DC0000A60416B0A02018E0B04064924310C680B
:104DD00004F07F440C600C68806B134304431C4355
:104DE0000C6030BD0868014000F800F08F88FE0FAD
:104DF00041617047002904D0016841F00101016060
:104E00007047016821F001010160704770B58A8820
:104E10001204436803F4704343600B681343436018
:104E20008A891204836803F4704383608B68134398
:104E30008360026922F0070202610A690261CA699D
:104E400013020A8C120491F8244024068569002577
:104E500085618E6922431E4316438661426922F0B2
:104E6000FF0242614A694261C26940F207739A4394
:104E7000C261D1E90A231A43C261826A85620A6B60
:104E800082620A8F1204C36A03F0E023C3624B6B91
:104E90001343C362026B6FF30A020263C96B0163BF
:104EA00070BD00000149086070470000246801409F
:104EB00010B54FF480610948FEF799FE4FF4005198
:104EC0000748FEF794FE04210648FEF78EFEBDE873
:104ED000104001210448FEF788BE0000001C02407B
:104EE0000008024000100240000002407CB5012191
:104EF000BF2000F029FD0420009000248DF805401B
:104F000001258DF804508DF806408DF8075069464C
:104F10000C48FEF715FE4FF4B840009069460A4869
:104F2000FEF70EFE8DF805408DF804508DF8064012
:104F30008DF807500820009069460448FEF700FEEF
:104F40007CBD000000100240001C0240000C02402A
:104F500010B504210948FEF74AFE01210848FEF772
:104F600046FE4FF480610748FEF73FFEBDE8104063
:104F70004FF400510448FEF738BE00000010024014
:104F800000000240001C0240000802404FF4006193
:104F90000148FEF72ABE0000001C02404FF40061E9
:104FA0000148FEF724BE0000001C02402DE9F04736
:104FB00090B0304D002085F8A10095F89E004FF08C
:104FC00003094FF0020AE846082802D085F8A190AC
:104FD0001DE0A81CFBF724FD0746281DFBF720FD5C
:104FE0004FF6FF7101EA4006202E02D985F8A19004
:104FF0000DE0002409E008EB4401384600F0ACF86D
:10500000A8B17F1CBFB2641CA4B2B442F3D395F81C
:10501000A10000282BD12878A87716496878C8778E
:10502000700085F8A29081F82000002117E085F833
:10503000A1A0ECE795F8A20018F81130421C284412
:1050400085F8A220837708EB4100437895F8A20009
:10505000421C284485F8A2208377491C89B2B142BA
:10506000E8D3044895F8A2101E3000F003F910B000
:10507000BDE8F087F001002010B51D4A002382F83A
:10508000A13092F89E00082803D0032082F8A100E6
:1050900010BD901CFBF7C4FC0446101DFBF7C0FCC0
:1050A0000E2CF5D11349C0B1012240314A70401E87
:1050B000087009781048017010490978007801F0EB
:1050C000E7F90F48017806290CD000781228DFD1C3
:1050D000BDE810400720FCF7F5B8062001F8400FA6
:1050E0004B70EEE7BDE810400420FDF7FBBE00006A
:1050F000F0010020D41100204300002044000020D3
:105100004100002010B5104C104A94F89E00106029
:10511000082801D1092111600D49536809688B42A3
:1051200011D051600B4A117809B1491E11701178E4
:10513000002908D1002806D0032801D301F022FA63
:10514000002084F89E0010BDF001002044010020E2
:105150002C000020240000202DE9F0413F4A92F865
:1051600000C03F4A00260127136803EB8302550065
:10517000642203FB02F43B4ABCF1070F1AD2DFE8BA
:105180000CF004070A0D101316001361D66011E02D
:105190001561D6600EE01461D6600BE01361D76034
:1051A00008E01561D76005E01461D76002E0136183
:1051B0000223D3602C4B1D782C4C236845B103EBA4
:1051C00083035B0053612A4B1B78012B02D005E05F
:1051D0005361F8E74FF0FF331361536113283BD25B
:1051E000DFE800F00A0D101316181B1D1F212325E0
:1051F00027292B2D2F3133001069000C26E0108A4F
:1052000080B223E05069000C20E0908A80B21DE05B
:10521000A0791BE0908980B218E0002016E0002001
:1052200014E0002012E0002010E000200EE000203A
:105230000CE000200AE0002008E0002006E000204A
:1052400004E0002002E0002000E00020020A0A70D2
:1052500048700120BDE8F0810020FBE743000020FA
:10526000800000202400002044000020880000204E
:105270006800002030B5A1B005460C4622462946FC
:1052800001A8FAF7AFFF21462846FBF765FC050A9F
:10529000224601AB641CE1B29D544A1CD2B2585460
:1052A000114601A80DF05CFF21B030BDFEE770474C
:1052B00008B54FF4A06000F06BF827208DF80000CF
:1052C00001208DF801008DF802008DF8030068467A
:1052D00000F02AF808BD08B54FF4C06000F058F897
:1052E00009208DF8000001208DF801008DF80200E2
:1052F0008DF80300684600F017F808BD00F01F02A3
:10530000012191404009800000F1E020C0F88011A7
:10531000704700F01F02012191404009800000F118
:10532000E020C0F80011704730B50F23C278012586
:105330000178002A1FD0154A126802F4E062C2F513
:10534000E062C2F30722C2F10404D3404278A240D3
:1053500084781C401443220101F1E02181F80024EB
:10536000007800F01F018D404009800000F1E0202E
:10537000C0F8005130BD01F01F0085404809800091
:1053800000F1E020C0F8805130BD00000CED00E0DD
:105390000249084302490860704700000000FA050E
:1053A0000CED00E0024A11400143024801607047E1
:1053B00080FFFF1F08ED00E0014807F0FDB9000085
:1053C000EC3500201CB50121084600F0BDFA402054
:1053D000009002208DF8050000208DF804008DF863
:1053E000060001208DF8070069460248FEF7A8FB79
:1053F0001CBD0000000002407CB50121CD2000F062
:10540000A3FA1020009000248DF8054001258DF8A6
:1054100004508DF806408DF8075069460D48FEF798
:105420008FFB009569460C48FEF78AFB6D030095DB
:1054300069460A48FEF784FB8DF8044000956946EA
:105440000748FEF77DFB2811009069460548FEF7E6
:1054500077FB7CBD001C02400000024000080240B7
:10546000000C024000180240014908627047000029
:1054700000000E42F0B5804B93F81E020021012877
:1054800001D983F81E121878032800D919705878AA
:10549000032800D959709878012800D99970DA6AE0
:1054A0000320052A00D9D8629D6A744C744AA5422B
:1054B00000D99A621D6B052D00D9196393F84050ED
:1054C0000A2D01D983F8401093F841500A2D01D9D3
:1054D00083F8411093F84250032D01D983F842100C
:1054E00093F82050022D01D983F82010DD6C052D92
:1054F00000D9D8649E6C42F6E065A64200D99D644E
:105500001E6D052E00D919659E6E052E00D9986670
:105510005E6E964200D95D66DE6E052E00D9D966B4
:10552000DE68052E00D9D8609E68964200D99D603D
:105530001D69052D00D91961D3F88450052D01D9B5
:10554000C3F88400D3F88050A54201D9C3F8802065
:10555000D3F88850052D01D9C3F88810D3F8A0508E
:10556000052D01D9C3F8A000D3F89C00A04201D9B1
:10557000C3F89C20D3F8A400052801D9C3F8A410CF
:1055800093F8D5010A2801D983F8D51193F8D801E9
:10559000012801D983F8D81193F8D701012801D93E
:1055A00083F8D71193F8D401012801D983F8D411D5
:1055B00093F8D601012801D983F8D61100201A18D2
:1055C00092F8D941802C01D982F8D911401CC0B27F
:1055D0001428F4D3002030241A1892F81452802D85
:1055E00006D9082802D282F8144201E082F8141287
:1055F000401CC0B20A28EFD30020224C224D234A7F
:105600009FED230A03EBC001D1F8B8602644AE42F7
:1056100003D3F7EE000AC1ED2E0AD1F8B46052F8B8
:105620003070BE4206D8D1F8B46002EBC0077F6884
:10563000BE4205D2154E483656F82060C1F8B46017
:10564000062809D203EB8001124FD1F8F061BE4267
:105650000CDD81ED7C0A09E0811F03EB81010E4F17
:10566000D1F80C62BE4201DD81ED830A401CC0B25C
:105670000828C7D3F0BD0000D4110020804F1200CD
:10568000C0D40100CDCCCCC03433730090000020D6
:10569000000000000050C3470024F448704710B5D4
:1056A00005F092FEBDE8104000F01CB910B505F001
:1056B0007BFEBDE8104000F00FB900002DE9FE436D
:1056C00079480024047005F07FFE00F095FA00216F
:1056D000042000F0C9FCFEF7CDF9002000F006FC24
:1056E000A0F54851F23902D000F0F5FC08E00121A4
:1056F000080700F053F90120FFF7B6FE00F028FD7F
:1057000003F0B4FE4FF47A700BF0A5FBFEF78EFEAB
:10571000FFF7A6F9FFF7E6F90120FFF705FB0020E8
:10572000FFF724FA4FF47F00FEF706FF0120FFF792
:105730001DFAFF20FFF732FA4FF050184046FEF7EF
:10574000FBFE03F041F9FEF755FC00F013FFFFF7F5
:1057500091FE564F97F8D50180B197F8D5010128F1
:1057600011D097F8D501022812D097F8D501032857
:1057700013D097F8D501042814D017E04FF49650B1
:10578000FBF76EFC12E04FF41650FBF769FC0DE0DE
:105790004FF46150FBF764FC08E04FF49640FBF7D0
:1057A0005FFC03E04FF4E130FBF75AFC97F81E0270
:1057B000012802D13E480CF043FF03F0F3FE3D48C0
:1057C0000470FDF7EFFF00243B48012505703B48BE
:1057D000062606700021007800F05AFE3848057051
:1057E00038480090384B394A0021394806F0C6FA4B
:1057F0003649374807F044F9364D4FE0641CA4B2EF
:10580000142C03D997F81E02012813D02E70022001
:10581000FEF7B2FD12282DD00EDC12283ED2DFE8B2
:1058200000F03D203D263D3D3D3D3D1D38233D3DA5
:105830003D3D3D1A2E70EAE71B282FDAA0F1130038
:1058400008282BD2DFE800F02A2A2A2A2A2A04284C
:1058500005F0A2FD22E005F097FD1FE0FFF79EFB9B
:105860001CE0FFF793FB19E005F0AEFD16E005F034
:105870009BFD13E04046FEF75FFEB420ADF8040048
:105880007820ADF80600ADF8080001A80CF078FD0E
:1058900004E0FFF75DFB01E0FFF70AFB2878022830
:1058A000ACD0BDE8FE8300006A000020D4110020C7
:1058B0006D3D0108420000206800002043000020E8
:1058C0006900002058010020D4010020983B0020EE
:1058D000EC3500204100002020210148FEF785B969
:1058E0000008024020210148FEF781B9000802406B
:1058F0002DE9FF5F8946074611469B466846FEF73D
:1059000079F90025EA461AF80580002409EB050616
:10591000C4F1070028FA00F0C00706D03819B1B268
:1059200080B25A46FEF7C6FD05E03819B1B280B222
:105930000E9AFEF7BFFD641C082CE9D36D1C102DD8
:10594000E1D3BDE8FF9F0000054A002903D011689C
:105950000143116070471168814311607047000076
:1059600030380240054A002903D011680143116014
:105970007047116881431160704700001038024081
:10598000054A002903D0116801431160704711686E
:10599000814311607047000038380240054A0029F1
:1059A00003D0116801431160704711688143116091
:1059B0007047000040380240054A002903D01168B2
:1059C0000143116070471168814311607047000006
:1059D00020380240054A002903D0116801431160B4
:1059E00070471168814311607047000044380240DD
:1059F000054A002903D011680143116070471168FE
:105A0000814311607047000024380240104801684B
:105A100041F0010101600E4A002108321160026864
:105A20000C4B1A400260031D0B4A1A60084B0B4ACC
:105A300084331A60084A103A1B1D1A60026822F467
:105A40008022026002480C300160181D016070471E
:105A500000380240FFFFF6EA10300024003000203A
:105A600070B5244B196801F00C01234C00291ED09D
:105A7000224E04291DD008291DD00460196801F0A8
:105A8000F00109091E4A545C0168E14041601C684C
:105A900004F4E054A40A145D21FA04F484601B6841
:105AA00003F460435B0BD25CD140C16070BD046005
:105AB000E4E70660E2E70F4A121F1168C1F3805560
:105AC000116801F03F0135B1B6FBF1F11468C4F380
:105AD0008814614305E0B4FBF1F11468C4F3881441
