:020000040800F2
:1000000080830020C1010008C75300087540000824
:10001000C5530008090B00089DE700080000000018
:10002000000000000000000000000000C18D00087A
:10003000D90F000800000000B55700084F950008D0
:10004000DB010008DB010008DB0100083D6200085D
:10005000DB010008DB010008DB010008DB01000810
:10006000DB0100086D380008DB010008DB01000837
:10007000DB010008DB010008DB010008DB010008F0
:10008000DB010008DB010008DB010008DB010008E0
:10009000DB010008DB010008DB010008DB010008D0
:1000A000DB010008DB010008DB010008DB010008C0
:1000B00089960008DB010008DB010008DB0100086D
:1000C000DB010008DB010008DB010008DB010008A0
:1000D000DB010008DB010008DB010008B1B7000804
:1000E00051380008DB010008DB010008DB010008D3
:1000F000DB010008DB010008DB010008DB01000870
:10010000DB010008DB010008DB010008DB0100085F
:10011000DB010008DB0100089D960008DB010008F8
:10012000DB010008DB010008DB010008DB0100083F
:10013000DB010008DB010008DB010008DB0100082F
:10014000DB010008DB010008DB010008DB0100081F
:10015000DB010008DB010008DB010008DB0100080F
:10016000DB010008DB010008DB010008DB010008FF
:10017000DB010008D1540008DB010008DB010008A6
:10018000DB010008DB010008DB010008DB010008DF
:10019000DB010008DB010008DB010008DB010008CF
:1001A000DB010008DB010008DB010008DFF80CD0F0
:1001B00000F04EFB00480047C12C0108808300205E
:1001C0000648804706480047FEE7FEE7FEE7FEE7F1
:1001D000FEE7FEE7FEE7FEE7FEE7FEE72D960008F6
:1001E000AD01000840EA01039B0703D009E008C9FC
:1001F000121F08C0042AFAD203E011F8013B00F8EC
:10020000013B521EF9D27047D2B201E000F8012B37
:10021000491EFBD270470022F6E710B513460A4686
:1002200004461946FFF7F0FF204610BD421E12F8A3
:10023000013F002BFBD111F8013B02F8013B002BE1
:10024000F9D1704710B5002200E0521C835C8C5C31
:10025000A34201D1002BF8D1D8B2E1B2401A10BDAF
:100260002DE9FE4F81EA030404F0004421F000412F
:1002700000944FF0000B23F0004350EA01045ED0DD
:1002800052EA03045BD0C3F30A54C1F30A552C4469
:10029000A4F2F3340194A0FB0254C1F3130141F41E
:1002A0008011C3F3130343F4801301FB024400FBEA
:1002B000034E840A970A44EA815447EA8357A4FB11
:1002C000076802958D0A05FB07854FEA932C04FB0E
:1002D0000C542705029D4FEA065847EA1637B5EB3E
:1002E00008056EEB070C870E920E47EA811742EA6B
:1002F0008312A7FB0201B6EB0B0164EB00042B0D8C
:1003000043EA0C335E1844EB1C50DA465146E7FBD7
:100310000201C5F313044FEA0B3343EA14534FEAC7
:100320000432019C43EA0603A4F10C040294009CED
:10033000CDE900B400F03EF903B0BDE8F08F002035
:100340000146F9E72DE9F04D81EA030404F0004B82
:1003500021F0004514464FF0000A23F0004150EA16
:10036000050220D054EA01021DD0C5F30A57024607
:10037000C5F31303C1F31300C1F30A5640F480150B
:1003800043F48013A7EB0608101BD64608F2FD388D
:1003900073EB050002D308F1010801E092185B41FC
:1003A000B8F1000F03DA00200146BDE8F08D00200F
:1003B0004FF48011064684460EE0171B73EB0507C9
:1003C00005D3121B63EB050306434CEA010C4908F5
:1003D0004FEA300092185B4150EA0107EDD152EA32
:1003E000030012D082EA040083EA0501084305D025
:1003F000101BAB4106D20122002306E000224FF081
:10040000004302E06FF0010253101AEB06004CEBC0
:10041000085110EB0A0041EB0B01BDE8F04D00F074
:10042000BAB80EB540F2334102910021CDE9001176
:100430000A460B4600F0BEF803B000BD00F00042D3
:1004400030F000400AD0C10D01F56071C0F3160014
:1004500042EA0151C208400711437047002001469B
:10046000704701F0004330B421F0004150EA01022E
:1004700006D00A0DA2F56072C1F31301002A02DC56
:1004800030BC00207047440F44EAC104C100E018AA
:1004900030BC00EBC25000F047B830B50B46014607
:1004A00000202022012409E021FA02F59D4205D313
:1004B00003FA02F5491B04FA02F52844151EA2F1BD
:1004C0000102F1DC30BD2DE9F05F054600209246C7
:1004D0009B4688460646814640241BE02846414606
:1004E0004746224600F0D5F953465A46C01A914174
:1004F00010D311461846224600F0BCF92D1A67EBBE
:1005000001084F4622460120002100F0B3F917EB05
:1005100000094E41201EA4F10104DFDC48463146AB
:100520002A464346BDE8F09F0029A8BF7047401CFB
:10053000490008BF20F00100704710B4B0FA80FCF9
:1005400000FA0CF050EA010404BF10BC704749B136
:10055000CCF1200421FA04F411FA0CF118BF0121A6
:1005600021430843A3EB0C01CB1D4FEA00614FEA86
:10057000102042BF002010BC704700EBC350104455
:100580000029A4BF10BC7047401C490008BF20F0E0
:10059000010010BC704710B5141E73F1000408DA96
:1005A000401C41F1000192185B411A4301D120F037
:1005B000010010BD2DE9F04D92469B4611B1B1FAF4
:1005C00081F202E0B0FA80F22032904600F052F957
:1005D00004460F4640EA0A0041EA0B0153465A46D8
:1005E000084313D0114653EA010019D0C8F1400264
:1005F000504600F04EF905460E46504659464246D2
:1006000000F038F9084305D0012004E020463946BF
:10061000BDE8F08D0020054346EAE0762C433743E1
:100620000A986305E40AA0EB08000022FD0A44EAE8
:1006300047540A3002D500200146E9E701051019A8
:100640006941DDE9084500196941BDE8F04DA2E7BF
:100650002DE9FE4F804681EA0300C00F0C46009052
:1006600021F0004123F00045B8EB0200A94105D27A
:100670004046214690461C460B46024623F0004069
:10068000104347D0270DC7F30A00C3F30A51029065
:10069000401A019040286BDAC3F3130040F4801B2A
:1006A0000098924620B10023D2EB030A63EB0B0BB8
:1006B00001985946C0F14002504600F0DBF806466A
:1006C0000D4650465946019A00F0F3F810EB080029
:1006D0006141002487EA115284EAE7731A4340D04B
:1006E000009A62B3019A012A4FEA075215DC001BF7
:1006F00061EB02014FF0004202EA0752CDE90042ED
:10070000001C41F5801132462B46FFF753FF03B022
:10071000BDE8F08F40462146F9E7001B61EB02017E
:10072000001C41F5801300185B412018A2F500174A
:1007300047EB030140EAD570B6196D4111E06D0831
:100740004FEA360645EAC0754FEA0752001B61EBD7
:100750000201001C41F5801149084FEA30000019E0
:10076000514132462B4603B0BDE8F04FFFF713BFAF
:100770000098012240000023D0EB020263EBE073FB
:10078000009821464FEAE074B8EB000061EB0401E9
:10079000E9E783F000435BE781F0004158E770B57B
:1007A00021F0004303430CD0C1F30A550024D5EBDC
:1007B000040564EB0403D617AD1AB34102DB002035
:1007C000014670BD201841EB025170BD0EB5C10F3E
:1007D00080EAE0700844CA07002140F233438DE804
:1007E0000E000A460B46FFF7E5FE03B000BDC1F35D
:1007F0000A52C1F3130140F2FF3341F480119A42CF
:1008000002DA00200146704740F233439A42A2F2D6
:10081000334202DC524200F03CB800F02BB800003A
:1008200030B5041E71F1000404DB4FF00044404277
:1008300064EB0101141E73F1000405DB1C464FF04C
:100840000043524263EB0403994208BF904230BD1B
:10085000064C074D06E0E06840F0010394E807000D
:1008600098471034AC42F6D3FFF7A4FC20470A089F
:1008700040470A08202A04DB203A00FA02F100204F
:1008800070479140C2F1200320FA03F319439040CE
:100890007047202A04DB203A21FA02F00021704739
:1008A00021FA02F3D040C2F12002914008431946D8
:1008B0007047202A06DBCB17203A41FA02F043EAC0
:1008C000E07306E041FA02F3D040C2F12002914009
:1008D0000843194670472DE9F04D00231A461B1AAC
:1008E0008A4103DB00200146BDE8F08DC1F30A52C6
:1008F000C1F3130141F480154FF0000BD10702D171
:1009000000186D41521E0027044640F2FF11384680
:1009100001EB620A3E468046024600204FF48011F9
:10092000FFF7B7FFC2197141BB1846EB0100B4EBEA
:10093000030C75EB000C04D3E41A65EB00051746B5
:100940000E46241908F101006D4180463428E3DD8C
:10095000F91946EB0600091BA84103D24FF0FF32FC
:10096000134601E0002213461BEB070046EB0A5139
:10097000BDE8F04DFFF70FBE70B58C1810F8015BA5
:1009800015F0070301D110F8013B2A1106D110F828
:10099000012B03E010F8016B01F8016B5B1EF9D12C
:1009A0002B0705D40023521E0DD401F8013BFAE7B2
:1009B00010F8013BCB1A921C03E013F8015B01F81D
:1009C000015B521EF9D5A142D8D3002070BD0000B2
:1009D00010B504210D4803F0A0F901210C4803F0E3
:1009E0009CF94FF480610B4803F097F94FF40051E4
:1009F000094803F092F98021084803F08EF904F0C9
:100A00005DFBBDE810400AF0A3BE000000100240EC
:100A100000000240001C024000080240000C02409E
:100A20004178007841EA00207047000010B5074C7B
:100A30002060084600F00CF820680028FCD1BDE8D2
:100A4000104000214FF0804008F091BE5C01002072
:100A50003EB504464FF080450021284608F087FE49
:100A600000220121284608F071FF022C02D0012C3F
:100A700003D005E00B20019002E042F6DF60019018
:100A80000520ADF800000020ADF80800ADF8020028
:100A90006946284608F084FF0121284608F064FED4
:100AA0000121284608F051FE01221146284608F08F
:100AB0004DFF0121284608F05AFE3EBD2021014885
:100AC00003F02BB9001C02402021014803F027B994
:100AD000001C02400B4991F84220002A06D038B190
:100AE00091F8420002280BD0FFF7E8BFFFF7E6BFFE
:100AF00091F84200012801D0FFF7E0BFFFF7E4BF03
:100B0000FFF7E2BFDC110020FEE700007CB5012109
:100B1000084604F0A5FFA020009002208DF80500F3
:100B200001248DF8044000258DF806508DF807400B
:100B3000084E6946304603F09BF88DF804508DF856
:100B400006508DF80740402100916946304603F079
:100B50008FF87CBD0000024070B5FF22FF23084DD6
:100B600005F5807605E010F8014B54402A5D5A40A7
:100B7000335D491E89B2F6D243EA022070BD0000FF
:100B8000043801082DE9F05F2DED028B0024624D41
:100B900095F840A00021084605F006FD21460020FA
:100BA00001F064FD9FED5D8A5D4E5E4FACE001207B
:100BB00008F01EF9687848B16878012809D068788B
:100BC000022809D06878032809D00AE012F08CF9CD
:100BD00007E012F001FA04E012F07AFA01E012F0F4
:100BE000C7FA96ED000ADFF84081BCEEC00A10EEAD
:100BF000100AC8F8000005F059FCDFF8309120E039
:100C000005F054FC687848B16878012809D0687804
:100C1000022809D06878032809D00AE012F064F9A4
:100C200007E012F0D9F904E012F052FA01E012F0F4
:100C30009FFA96ED000ABCEEC00A10EE100AC8F842
:100C4000000099F800000028DAD108F0D1F868789F
:100C500048B16878012809D06878022809D06878F6
:100C6000032809D00AE012F0D1FA07E012F048FB9D
:100C700004E012F013FC01E012F010FCDFF8B08089
:100C80002C4998ED000ABCEEC00A10EE100A08606C
:100C900005F00CFC98ED000A4FF0964110EE100A9A
:100CA000884205DD38EE400AB1EE400A88ED000AC0
:100CB00096ED000A10EE100A884205DD38EE400A73
:100CC000B1EE400A86ED000A601E96ED000A05EBC3
:100CD000800080EDBC0A032C04D298ED000A80ED60
:100CE000C30AA3465946204605F05EFC2146002073
:100CF00001F0BCFC072C05D30620387085F840A015
:100D000008F0F4FB641CE4B2387811283FF44FAFCC
:100D1000BDEC028BBDE8F09FDC110020FFFF7F4B94
:100D200054000020410000205C0000204F00002003
:100D3000500000206000002010B54FF40051094819
:100D400002F0EDFF0121084802F0E9FF4FF4806155
:100D5000064802F0E2FFBDE810400421044802F01A
:100D6000DCBF00000008024000000240001C0240FE
:100D70000010024030B587B0054628784C4C04F886
:100D8000280C687804F8270CA87804F8260CE91CCD
:100D9000684608F0BFFB9DF8000004F8240C019899
:100DA00044F8200C029844F81C0C039844F8180CE2
:100DB000049844F8140C059844F8100C069844F86C
:100DC0000C0C687A04F8080C687A04F8080C05F131
:100DD0000A01684608F09EFB9DF8000004F8040C28
:100DE00001982060029860600398A0600498E06019
:100DF0000598206106986061287C2076687CA07642
:100E000005F11201684608F085FB9DF80000207787
:100E100001982062029860620398A0620498E062E0
:100E2000059820630698606305F11801684608F08C
:100E300071FB9DF8000084F838000198E063029887
:100E40002064039860640498A0640598E0640698A0
:100E5000206505F11E01684608F05CFB9DF8000066
:100E600084F854000198A0650298E0650398206614
:100E7000049860660598A0660698E06605F124016E
:100E8000684608F047FB9DF8000084F87000019860
:100E900060670298A0670398E0670498C4F8800030
:100EA0000598C4F884000698C4F8880007B030BDDF
:100EB0000412002010B50121CC05204604F0DEFD0F
:100EC0002046BDE81040002104F0D8BD01460020B6
:100ED000024A52680A4200D00120704700B0024026
:100EE00030B500242A4B19682A4A11401960196844
:100EF000026811431960596B21F007015963596B5E
:100F00004268114359634168002928D001292DD036
:100F1000022930D0032933D0C1680A0101690902CE
:100F2000446924038568214315430D43996B0D43A0
:100F30009D638169D963196C6FF30D011964196C94
:100F4000C26911431964818C09045A6C02F0404251
:100F50005A645A6C006A02430A435A6430BDC1683D
:100F60000A02018A0904047D2406DBE7C1680A023B
:100F7000018A0904D6E7C1684A010169C902D1E7BB
:100F8000C1684A01016989024469E403CAE70000B3
:100F900000B00240FCE0FCFF0248016841F00101A2
:100FA0000160704700B002400CB5094B1B788DF80A
:100FB000063000910749895C8DF8041005490B3112
:100FC000895C8DF80510DDE9001206C00CBD00003B
:100FD0003E000020EA430108704710B590B0044677
:100FE00002F0A6FB0122214601A801F009F89DF8B4
:100FF00004008DF8240002980A9003980B9004983E
:101000000C9005980D9006980E9007980F9009A8DF
:1010100000F078F80890089810B010BD10B590B0A6
:10102000044602F09DFB0022214601A800F0E8FFE3
:101030009DF804008DF8240002980A9003980B9004
:1010400004980C9005980D9006980E9007980F90B4
:1010500009A800F057F80890089810B010BD0000DB
:10106000F0B587B006460121022004F0F9FC012109
:10107000880404F01FFD214F07220B21384602F09F
:1010800035FE07220A21384602F030FE00248DF892
:101090001A4001208DF81B0002258DF8185080029F
:1010A00005908DF8195005A9384602F0E1FD8DF83C
:1010B0001850A802059005A9384602F0D9FD0196FE
:1010C000ADF80840ADF80A40ADF80C40ADF810405E
:1010D0000C20ADF80E000A4C01A920460AF042FC93
:1010E00004F072F9012240F2255120460AF01FFC5B
:1010F000012120460AF088FB07B0F0BD0004024041
:1011000000480040416844F62062914207D9816856
:10111000032904D041680A22B1FBF2F14160406822
:101120007047000038B5002000905E4942F210720E
:101130005D484EF66023AFE09DF8004000EBC4042C
:10114000D4F8B4409DF8005001EBC5056D68AC4281
:101150000CD89DF8004000EBC404D4F8B4409DF8CE
:10116000005001EBC5056D68AC4210D29DF80040FF
:101170000F2C06D29DF8004000EBC404C4F8B42044
:1011800005E09DF8004000EBC404C4F8B4309DF8BD
:10119000004000EBC404D4F83C419DF8005001EB42
:1011A000C5056D68AC420CD89DF8004000EBC40446
:1011B000D4F83C419DF8005001EBC5056D68AC4288
:1011C00010D29DF800400F2C06D29DF8004000EB95
:1011D000C404C4F83C2105E09DF8004000EBC404C1
:1011E000C4F83C319DF8004000EBC404D4F8C4417D
:1011F0009DF8005001EBC5056D68AC420CD89DF818
:10120000004000EBC404D4F8C4419DF8005001EB49
:10121000C5056D68AC4210D29DF800400F2C06D277
:101220009DF8004000EBC404C4F8C42105E09DF81B
:10123000004000EBC404C4F8C4319DF8004000EB4A
:10124000C404D4F84C429DF8005001EBC5056D680C
:10125000AC420CD89DF8004000EBC404D4F84C42DA
:101260009DF8005001EBC5056D68AC4210D29DF8A9
:1012700000400F2C06D29DF8004000EBC404C4F8D7
:101280004C2205E09DF8004000EBC404C4F84C3249
:101290009DF80040641C00949DF80040112CFFF460
:1012A0004BAF38BD98000020DC1100201CB54FF476
:1012B0000050009000208DF804000C218DF80510DE
:1012C0008DF80600684602F039FB1CBD2DE9FC5F75
:1012D0000546012D0AD0002000904FF0501B4FF41E
:1012E0007F07FE4C009818B1676003E00120F3E728
:1012F000C4F804B0DFF8E8A39AF8D80208B1F94EB0
:1013000001E0F84E1C3E122368221A21582003F0F7
:10131000D7F99AF800000023C0EBC00082191A2107
:1013200058200EF06BFA022D05D000200090009896
:1013300018B1676003E00120F8E7C4F804B09AF838
:10134000D80210B1E74E383601E0E64E1C361223C3
:1013500068222E21582003F0B3F99AF801000023E7
:10136000C0EBC0008219302158200EF047FA032D3F
:1013700007D000200090DFF87083009818B16760F4
:1013800003E00120F6E7C4F804809AF8D80210B10F
:10139000D44E623601E0D34E5436122368225C21CB
:1013A000582003F08DF99AF802000023C0EBC0002A
:1013B00082195C2158200EF021FA042D05D000205E
:1013C0000090009818B1676003E00120F8E7C4F8C6
:1013D0000480DAF80C00C1B2DAF808000023052214
:1013E00002F04AFE12237A227021582003F068F995
:1013F0000023BE4A722158200EF000FADAF81010CD
:10140000BB48002300EB8102722194200EF0F6F914
:10141000052D05D000200090009818B1676003E00A
:101420000120F8E7C4F804809AF8D80210B1AD4E54
:10143000623601E0AB4E5436122368229E215820BA
:1014400003F03EF99AF820000023C0EBC000821997
:10145000A02158200EF0D2F9062D05D000200090D2
:10146000009818B1676003E00120F8E7C4F8048031
:10147000DAF82C00C1B2DAF828000023062202F0C4
:10148000FBFD12237A22B221582003F019F9002320
:10149000964AB42158200EF0B1F9002395A2B42148
:1014A000A0200EF0ABF9072D05D000200090009889
:1014B00018B1676003E00120F8E7C4F804B09AF8B7
:1014C000D80210B18A4E583E01E0894EB03E122338
:1014D000682218214FF4A97003F0F2F89AF841003D
:1014E000A8B19AF840000023401C00EB400101EB3A
:1014F000C00082191A214FF4A9700EF07FF9082D4F
:101500000DD000200090009858B167600BE00023D8
:1015100032461A214FF4A9700EF070F9EFE701205E
:10152000F0E7C4F804B09AF8D80210B16D4EAC36AA
:1015300001E06C4E70364FF4A97B122368222E21F5
:10154000584603F0BDF89AF842000023C0EBC000F3
:101550008219302158460EF051F9092D05D000208E
:101560000090009818B1676003E00120F8E7C4F824
:101570000480DAF84C00C1B2DAF8480000230522F2
:1015800002F07AFD12237A225C21584603F098F883
:101590000023564A5C2158460EF030F9DAF8501014
:1015A0005348002300EB81025E214FF4C7700EF018
:1015B00025F90A2D05D000200090009818B1676029
:1015C00003E00120F8E7C4F80480DAF86800C1B24B
:1015D000DAF864000023052202F04EFD12237A227D
:1015E0007021584603F06CF80023404A7221584697
:1015F0000EF004F9DAF86C103D48002300EB81028C
:1016000072214FF4C7700EF0F9F80B2D05D00020B1
:101610000090009818B1676003E00120F8E7C4F873
:101620000480DAF88400C1B2DAF8800000230622D0
:1016300002F022FD12237A229C21584603F040F842
:1016400000232A4A9E2158460EF0D8F8002329A2EA
:101650009E214FF4CD700EF0D1F80C2D05D0002056
:101660000090009818B1676003E00120F8E7C4F823
:101670000480DAF8A000C1B2DAF89C000023062248
:1016800002F0FAFC12237A22B221584603F018F82D
:101690000023164AB42158460EF0B0F8002315A2D4
:1016A000B4214FF4CD700EF0A9F800F055FC0020E5
:1016B000114A54276FF07F410D2D3DD2DFE805F030
:1016C000070C3E5F80A0C1E1EFEEEDECEB00BDE862
:1016D000FC5F022000F0D2B921600FE03801002049
:1016E000DC110020033F0108653434007F00002036
:1016F0009B400108205600003800310062609AF8D3
:10170000D81209B1D84C01E0D74C1C3C019010E034
:1017100001980023C0EBC00002190198F12100EBF1
:10172000800007EB001080B20EF068F80198401CB2
:10173000019001980428EBD3BDE8FC9F2160626012
:101740009AF8D81211B1C84C383401E0C64C1C3498
:10175000019010E001980023C0EBC000021901982D
:10176000F12100EB800007EB001080B20EF046F88C
:101770000198401C019001980428EBD3DCE721601C
:1017800062609AF8D81211B1B74C623401E0B64CDD
:101790005434019010E001980023C0EBC0000219FE
:1017A0000198F12100EB800007EB001080B20EF0F1
:1017B00025F80198401C019001980228EBD3BBE763
:1017C000216062609AF8D81209B1A84C01E0A74CD8
:1017D000E41F019010E001980023C0EBC000021943
:1017E0000198F12100EB800007EB001080B20EF0B1
:1017F00005F80198401C019001980028EBD09BE768
:10180000216062609AF8D81211B1974C623401E0FD
:10181000954C5434019010E001980023C0EBC000B7
:1018200002190198F12100EB800007EB001080B253
:101830000DF0E4FF0198401C019001980228EBD3C1
:101840007AE7216062609AF8D81209B1874C01E00A
:10185000864CE41F019010E001980023C0EBC0000B
:1018600002190198F12100EB800007EB001080B213
:101870000DF0C4FF0198401C019001980028EBD0A6
:101880005AE7216062609AF8D81209B1784C00E0FA
:10189000774C019017E0C6E0A5E084E063E016E035
:1018A0000198002300EB400101EBC00002190198F0
:1018B000F12100EB800007EB001080B20DF09EFFDD
:1018C0000198401C019001980528E9D334E7216074
:1018D00062609AF8D81259B19AF84310012904D0DD
:1018E000DFF8849109F1C8090AE05F4EAC3607E0E1
:1018F0009AF84310012909D0DFF86C9109F18C099D
:101900009AF84310012904D0019028E0564E703611
:10191000F6E7019010E001980023C0EBC0008219A7
:101920000198F12100EB800007EB001080B20DF070
:1019300065FF0198401C019001980428EBD3FBE659
:101940000198002309EBC00200EB800007EB0010B8
:1019500080B2F1210DF052FF0198401C01900198D6
:101960000428EDD3E8E6216062609AF8D81209B144
:101970003E4C01E03D4CE41F019010E00198002333
:10198000C0EBC00002190198F12100EB800007EBC9
:10199000001080B20DF032FF0198401C01900198B8
:1019A0000028EBD0C8E6216062609AF8D81209B12D
:1019B0002E4C01E02D4CE41F019010E00198002313
:1019C000C0EBC00002190198F12100EB800007EB89
:1019D000001080B20DF012FF0198401C0190019898
:1019E0000028EBD0A8E6216062609AF8D81209B10D
:1019F0001E4C01E01D4CE41F019010E001980023F3
:101A0000C0EBC00002190198F12100EB800007EB48
:101A1000001080B20DF0F2FE0198401C0190019878
:101A20000028EBD088E6216062609AF8D81209B1EC
:101A30000E4C01E00D4CE41F019010E001980023D2
:101A4000C0EBC00002190198F12100EB800007EB08
:101A5000001080B20DF0D2FE0198401C0190019858
:101A60000028EBD068E60000033F01080B3A0108AC
:101A7000A7400108002000F001B800002DE9F04166
:101A8000044600F069FA9448944B95496FF07F4200
:101A90004FF483754FF4AB76002C47D04FF4D377D7
:101AA000012C7DD0022C7CD191F8D802002879D06D
:101AB00000238CA2E72166200DF0A0FE00238BA25C
:101AC000FB2166200DF09AFE002386A2E721B620B6
:101AD0000DF094FE002387A2FB21B6200DF08EFEB0
:101AE000002386A2E72128460DF088FE002381A26C
:101AF000FB2128460DF082FE002382A2E72130461A
:101B00000DF07CFE002380A2FB2130460DF076FE16
:101B100000237CA2E72138460DF070FE3846BDE870
:101B2000F04100237AA2FB210DF068BE0260436001
:101B300091F8D802002831D000236AA2E72166205C
:101B40000DF05CFE002369A2FB2166200DF056FE1D
:101B5000002364A2E721B6200DF050FE002365A209
:101B6000FB21B6200DF04AFE002364A2E72128469F
:101B70000DF044FE00235FA2FB2128460DF03EFE3F
:101B8000002360A2E72130460DF038FE3046BDE864
:101B9000F04100235CA2FB210DF030BE002302E0E7
:101BA00032E097E058E05CA2E72166200DF026FEC7
:101BB00000235BA2FB2166200DF020FE002356A22D
:101BC000E721B6200DF01AFE002357A2FB21B62014
:101BD0000DF014FE002356A2E72128460DF00EFE5C
:101BE000002351A2FB2128460DF008FE002350A23D
:101BF000E72130460DF002FE3046BDE8F0410023FB
:101C00004DA2FB210DF0FABD0260436000234CA2FF
:101C1000E72166200DF0F2FD00234BA2FB21662098
:101C20000DF0ECFD00234AA2E721B6200DF0E6FD01
:101C3000002349A2FB21B6200DF0E0FD002348A2BD
:101C4000E72138460DF0DAFD3846BDE8F0410023C3
:101C500045A2FB210DF0D2BD00232FA2E721662073
:101C60000DF0CCFD00232EA2FB2166200DF0C6FD59
:101C7000002329A2E721B6200DF0C0FD00232AA2EF
:101C8000FB21B6200DF0BAFD002329A2E72128464A
:101C90000DF0B4FD002324A2FB2128460DF0AEFD7B
:101CA000002323A2E72130460DF0A8FD002322A245
:101CB000FB2130460DF0A2FD00232DA2E72138467E
:101CC0000DF09CFD3846BDE8F04100232AA2FB211F
:101CD0000DF094BDBDE8F0813801002038003100DE
:101CE000DC1100204D454153000000004449535091
:101CF0000000000053455455500000002053595334
:101D00000000000053595300494E464F00000000A8
:101D10005550444154450000B2E2C1BF00000000EC
:101D2000CFD4CABE00000000C9E8D6C3000000003E
:101D3000CFB5CDB300000000D0C5CFA20000000099
:101D4000CEC4BCFE00000000B9DCC0ED0000000005
:101D5000B1A3B4E600000000CAFDBEDD0000000033
:101D6000B8FCB6E00000000020322F320000000076
:101D7000B9CCBCFE00000000C9FDBCB600000000EC
:101D80000FB470B59DF8100000283CD01F480278B1
:101D90009DF818101A244FF4A075AAB100780128F4
:101DA00031D100230622059802F066F99DF8100053
:101DB000012300EB800004EB8001284670BC144A2C
:101DC0005DF814EB0DF01ABD9DF81000072805D939
:101DD00000230622059802F04FF906E09DF8201036
:101DE00000230722079802F047F99DF8100001230D
:101DF00000EB800004EB8001284670BC044A5DF8CB
:101E000014EB0DF0FBBC70BC5DF814FB0C01002062
:101E10007F0000202DE9F34381B09DF808100020D9
:101E20004A4E4B4D1A274FF47F084FF050140029AB
:101E300007D09DF8081001293AD10090DFF81491DD
:101E400078E0009030E09DF804100098401C81423A
:101E500002D1C6F8048000E0746000EB800007EB5C
:101E6000800081B214235A22A02002F029FC3948B4
:101E700000998930415C009805EBC000D0F8B400AF
:101E80000023062202F0F8F80098324A401C00EBCA
:101E9000800007EB800081B201230832A0200DF002
:101EA000ADFC0098401C009000980928CBD37460CA
:101EB000BDE8FE839DF804100098401C814202D1C9
:101EC000C6F8048000E0746000EB800007EB80003F
:101ED00081B214235A22A02002F0F2FB00980828B5
:101EE0000CD2009819F80010093005EBC000D0F8AA
:101EF000B4000023062202F0BFF80BE0009819F8A6
:101F00000010093005EBC000D0F8B4000023072210
:101F100002F0B2F800980F4A401C00EB800007EB7B
:101F2000800081B201230832A0200DF067FC0098E8
:101F3000401C009000980828BCD314235A22CE21BC
:101F4000A02002F0BDFB7460B2E700003801002061
:101F5000DC110020770000202DE9F05F0024DFF87D
:101F600078801E4EDFF878A000274FF04C094FF024
:101F7000010BC6F8048004EB4401A00001EB04113E
:101F800000EB810080B22B234C22E42102F098FB6D
:101F9000C6F804A004EB84050BEB051080B2012306
:101FA0004C22E32102F08CFB09EB051080B22C23BC
:101FB0000122E32102F084FB77604D2000EB051045
:101FC00080B22C230322E32102F07AFB641C062C4E
:101FD000CFD3BDE8F09F0000380031003801002069
:101FE000684369000549044848606E235C2140F25B
:101FF000DF12002002F064BB653434003801002099
:102000002DE9F04F93B080460E46012012900C90BF
:1020100000270B970A970997089703970297049749
:1020200002970D974FF0200A0FAD07E09DF834009E
:1020300005F800A09DF83400401C0D909DF8340078
:102040000728F3D38DF843700AB1072400E0062473
:10205000DFF8E0B34FF02E0975E1022002F024FA18
:102060000E909DF83800002846D001210C919DF873
:1020700038001228F8D00CDC12283DD2DFE800F03E
:102080003C3C3C7EEEE1D43C3C5A3C78C7BAAD3C8B
:102090003C3D1A28E8D009DCA0F113000728ECD257
:1020A000DFE800F02A8E81722A2A0E001E2878D0DE
:1020B00022DC1B28D8D01C2874D01D281CD1E7E0B6
:1020C000049712979DF82000A04214D29DF82C008E
:1020D00088B99DF8200050B19DF8200005F80090C7
:1020E0009DF820000A909DF82000401C08909DF863
:1020F0002C00401C0B9005910CE1049112979DF867
:102100002000A04214D29DF82C0088B99DF8200030
:1021100050B19DF8200005F800909DF820000A902D
:102120009DF82000401C08909DF82C00401C0B904E
:102130000591EFE00220049012979DF82000A04244
:1021400014D29DF82C0088B99DF8200050B19DF85C
:10215000200005F800909DF820000A909DF82000CE
:10216000401C08909DF82C00401C0B900591D1E07C
:1021700006208BF8000012970597CBE01297059781
:1021800012208BF80000C5E09DF82000A04207D285
:102190009DF82010312068549DF82000401C0890C4
:1021A000B8E068E091E09DF82000A04207D29DF8D9
:1021B0002010322068549DF82000401C0890A9E0AF
:1021C0009DF82000A04207D29DF8201033206854CB
:1021D0009DF82000401C08909CE09DF82000A04243
:1021E00007D29DF82010342068549DF82000401C30
:1021F00008908FE09DF82000A04207D29DF82010A3
:10220000352068549DF82000401C089082E09DF81D
:102210002000A0427ED29DF82010362068549DF800
:102220002000401C089075E09DF82000A04271D26B
:102230009DF82010372068549DF82000401C08901D
:1022400068E09DF82000A04264D29DF8201038205C
:1022500068549DF82000401C08905BE09DF8200029
:10226000A04257D29DF82010392068549DF82000D4
:10227000401C08904EE09DF82000A0424AD29DF8F4
:102280002010302068549DF82000401C089041E048
:102290009DF82000A0423DD29DF8200040B39DF85B
:1022A0002C0028BB9DF8200050B19DF8200005F8B7
:1022B00000909DF820000A909DF82000401C089096
:1022C0009DF82C00401C0B9024E09DF8200080B16C
:1022D0009DF82000401E08909DF8200005F800A001
:1022E0009DF828009DF82010884213D10B970A977B
:1022F00010E09DF82000285C78B39DF82000285C51
:102300002D2830D09DF820102D2068549DF82000F5
:10231000401C08909DF83000A8B10C9746486FF01B
:102320007F4101604FF47F014160B08871881030B7
:1023300082B23088102302F0C3F9718830880023FC
:102340000FAA0DF05BFA9DF8480000287FF485AED7
:102350009DF820000D90302011E0FFE79DF820103F
:102360002D206854D2E79DF820102B206854CDE72B
:102370009DF8341068549DF83410491C0D919DF857
:102380003410A142F4D30D9734E09DF83C0030287E
:102390002CD39DF83C00392828D89DF83400285CBF
:1023A000302823D39DF83400285C39281ED89DF8A6
:1023B00028009DF8341088420CD9029800EB800068
:1023C0004000029002989DF83410695C084430384F
:1023D00002900BE0029800EB80004000029002980F
:1023E0009DF83410695C0844303802909DF8340040
:1023F000401C0D909DF83400A042C6D39DF82800E3
:1024000003909DF8040088F800000298C8F80400C2
:102410000398C8F808000498C8F80C000598C8F894
:1024200010000698C8F814000798C8F8180013B0F0
:10243000BDE8F08F41000020380100202DE9F84F61
:102440005A4E77685A4870600DF0C8F9594D68784F
:1024500003281BD0687860B1012357A26C2130207B
:102460000DF01CFA012354A2A32130200DF016FA1E
:1024700018E0002350A25C2120200DF00FFA002369
:102480004DA2932120200DF009FA0BE000234AA26F
:102490007C2140200DF0B2F9002347A2B321402057
:1024A0000DF0ACF947484FF00008C0F80080083044
:1024B000C0F8008095F84300434C4FF4C8794FF4BE
:1024C000967A80B9FEF738FCFEF7F8FA16233C221C
:1024D000B421484602F0F4F8372328225C21504604
:1024E000009402F07BFC95F8200001281FD0A8780A
:1024F00001281CD0FEF720FCFEF7E0FA16233C2250
:10250000B421484602F0DCF8372328225C215046EB
:10251000009402F063FC776095F841002B4909783C
:1025200000F0A4F82A4902200880BDE8F88F95F849
:10253000430040B34FF47F0070600120FEF7CAFAF9
:1025400002F04EFD1F4A23A0183A0168C2F80F108E
:102550004C23D374214A032090742148816280F86F
:102560002C301848093880F8058016233C22B42105
:10257000484602F0A5F8134A0023093AB421484618
:102580000DF03CF9C7E7FEF7D7FBFEF797FA1623E5
:102590003C22B421484602F093F8372328225C21DC
:1025A0005046009402F01AFCB5E700003801002004
:1025B00065343400DC1100202D2D2D2D2D2D2D2DD9
:1025C00000000000880000206E780708430000200B
:1025D00012010020525620464C0000004C110020F1
:1025E0006111002008B5114841794FF49670002917
:1025F0000BD0012911D0022906D10D4900913723B2
:1026000028225C2102F0EAFB08BD0A490091372329
:1026100028225C2102F0E2FB08BD07490091372324
:1026200028225C2102F0DAFB08BD000088000020AF
:102630006E780708A77B07080681070818B50948C0
:102640004FF4AA740090372328225C21204602F020
:10265000C5FB05490091372328229321204602F02B
:10266000BDFB18BDE07E070865860708012800D974
:102670000120062900D906210A4B4FF050125A605A
:10268000C0EBC000084A00EB400002EB800001EB09
:10269000410100EB81020023D2214FF4BE700DF006
:1026A000ADB80000380100203643010830B595B0C0
:1026B00004460D4601F03CF8012229466846FFF722
:1026C0009FFC9DF800008DF8380001980F9002984B
:1026D0001090039811900498129005981390069802
:1026E00014900EA9684601F02FFD9DF800008DF8AA
:1026F0001C00019808900298099003980A90049889
:102700000B9005980C9006980D900B9818B9002026
:10271000099008900A909DF81C002070089860604D
:102720000998A0600A98E0600B9820610C9860619D
:102730000D98A06115B030BD30B595B004460D467A
:1027400001F00EF8002229466846FFF759FC9DF873
:1027500000008DF8380001980F90029810900398AF
:1027600011900498129005981390069814900EA951
:10277000684608F0D3FE9DF800008DF81C00019813
:1027800008900298099003980A9004980B90059875
:102790000C9006980D900B9818B90020099008909D
:1027A0000A909DF81C002070089860600998A0604D
:1027B0000A98E0600B9820610C9860610D98A06108
:1027C00015B030BD70B500F0AFF8254D6FF07F4605
:1027D0002E6024486860244C94F8D80208B1234A3B
:1027E00001E0224AF23A0023DC32042118460DF0BF
:1027F00005F82E604FF05010686094F81E0338B151
:1028000094F8D80208B11A4D0AE0194D543D07E07A
:1028100094F8D80210B1164DA83501E0144D543586
:1028200000241A26C4EBC40000EB4000421904EB5C
:10283000440000EBC40006EB400081B200231846C0
:102840000CF0DCFF641C042CECD30023094A5C214F
:1028500052200CF0D3FFBDE87040FFF70BB9000029
:10286000380100200352F300DC1100208D3C0108E8
:102870003A420108F014002070B500241825601CAD
:1028800000EB400101EBC00005EB400081B20123E9
:1028900064225A2001F014FF641C072CEFD370BD92
:1028A0002DE9F04100F040F81A4E6FF07F47376095
:1028B00019487060194C94F8D80208B1184A01E020
:1028C000174AF23A0023B032042118460CF096FF62
:1028D00037604FF05010706094F8D80208B1114D75
:1028E00001E0104D583D00244FF01A0804EB44005D
:1028F00000EBC400421908EB400081B200231846E7
:102900000CF07CFF641C082CF0D37760BDE8F0412C
:10291000FFF7B2BF380100200352F300DC110020A2
:102920008D3C01083641010810B500F065FEBDE898
:102930001040FFF711BB00002DE9FF5F04460027A0
:102940008DF80770012C0AD000200290FA4D0298F1
:102950004FF47F064FF0501B18B16E6003E001206A
:10296000F3E7C5F804B0DFF8D48398F8D80210B1C3
:10297000DFF8CC9303E0DFF8C893A9F10E09122326
:1029800066221A215A2001F09BFE98F8D4020023F7
:10299000C0EBC00000EB09021C215A200CF02EFFF6
:1029A000022C05D000200290029818B16E6003E05E
:1029B0000120F8E7C5F804B01223662230215A201E
:1029C00001F07EFE98F8D502DFF87893C0EBC000E6
:1029D00000EB0902002332215A200CF00FFF032CD8
:1029E00005D000200290029818B16E6003E001202B
:1029F000F8E7C5F804B098F8D80210B1DFF840A3A2
:102A000003E0DFF83CA3AAF10E0A12236622462156
:102A10005A2001F055FE98F8D6020023C0EBC00002
:102A200000EB0A0248215A200CF0E8FE042C05D0E5
:102A300000200290029818B16E6003E00120F8E7D0
:102A4000C5F804B098F8D80210B1DFF8F4A203E09A
:102A5000DFF8ECA2AAF10E0A122366225C215A20AA
:102A600001F02EFE98F8D7020023C0EBC00000EB67
:102A70000A025E215A200CF0C1FE052C05D0002070
:102A80000290029818B16E6003E00120F8E7C5F8E3
:102A900004B01223662272215A2001F011FE98F828
:102AA000D802DFF8A0A200230AF1380A0AEBC0021C
:102AB00074215A200CF0A2FE01A9002003F032FA82
:102AC0006946002003F0FCF9062C05D00020029096
:102AD000029818B16E6003E00120F8E7C5F804B071
:102AE00012231A4688215A2001F0EAFD9DF803209E
:102AF00095A196480CF024FF0023944A8A215A207D
:102B00000CF07CFEC5F804B0002391A28A216E204F
:102B10000CF074FE072C05D000200290029818B12A
:102B20006E6003E00120F8E7C5F804B012231A46EE
:102B30008821782001F0C4FD9DF8012082A18348FE
:102B40000CF0FEFE0023814A8A2178200CF056FE0C
:102B5000C5F804B000237EA28A218C200CF04EFE22
:102B6000082C05D000200290029818B16E6003E096
:102B70000120F8E7C5F804B012231A4688219820EE
:102B800001F09EFD9DF802206FA170480CF0D8FE68
:102B900000236E4A8A2198200CF030FE092C05D0C3
:102BA00000200290029818B16E6003E00120F8E75F
:102BB000C5F804B012231A469E215A2001F080FD68
:102BC0009DF8042060A161480CF0BAFE00235F4A22
:102BD000A0215A200CF012FEC5F804B000235DA21B
:102BE000A0216E200CF00AFE0A2C05D000200290D5
:102BF000029818B16E6003E00120F8E7C5F804B050
:102C000012231A469E21782001F05AFD9DF80520D6
:102C10004DA14E480CF094FE00234C4AA021782090
:102C20000CF0ECFDC5F804B000234AA2A0218C20D2
:102C30000CF0E4FD0B2C05D000200290029818B196
:102C40006E6003E00120F8E7C5F804B012231A46CD
:102C50009E21982001F034FD9DF806203AA13B48C2
:102C60000CF06EFE0023394AA02198200CF0C6FD1E
:102C70000C2C05D000200290029818B16E6003E081
:102C80000120F8E7C5F804B012236622B4215A20C7
:102C900001F016FD0023304AB6215A200CF0AEFD9B
:102CA000FFF75AF96FF07F4028602C486860542580
:102CB0000C2C09D2DFE804F0060A28547290A5A56E
:102CC000A5A5A5A5FEF7D6FEBDE8FF9F98F8D802FA
:102CD00008B11B4C01E01A4C0E3C039710E003981E
:102CE0000023C0EBC00002190398F12100EB800023
:102CF00005EB001080B20CF081FD0398401C03909E
:102D000003980228EBD3DFE7039711E00398002331
:102D1000C0EBC00000EB09020398F12100EB80003A
:102D200005EB001080B20CF069FD0398401C039085
:102D300003980528EAD3C7E738010020DC110020FA
:102D4000653F01088E410108253264007F000020A4
:102D50002D0000003A000000B514002038003100BA
:102D600098F8D80208B1324C01E0314C0E3C039780
:102D700010E003980023C0EBC00002190398F12172
:102D800000EB800005EB001080B20CF037FD0398DB
:102D9000401C039003980228EBD395E798F8D802DB
:102DA00008B1234C01E0224C0E3C039710E003983D
:102DB0000023C0EBC00002190398F12100EB800052
:102DC00005EB001080B20CF019FD0398401C039035
:102DD00003980228EBD377E703970EE003980023CC
:102DE0000AEBC00200EB800005EB001080B2F1217D
:102DF0000CF004FD0398401C039003980228EDD3C7
:102E000062E703970B4C0EE00398002304EBC0022B
:102E100000EB800005EB001080B2F1210CF0EEFC1D
:102E20000398401C039003980228EDD34CE7000060
:102E3000653F0108D641010810B500F0DDFBFFF742
:102E40008BF8BDE81040FFF7CDB810B500F0D4FB0B
:102E5000FFF782F8BDE81040AFF30080FFF7C2B87B
:102E600070B5FFF7E9FF254C6FF07F4525602448DA
:102E70006060244E96F8D80208B1234A01E0224A45
:102E8000F23A0023042118460CF0B8FC25604FF0FC
:102E90005010606096F8D80208B11C4D01E01B4D3F
:102EA0003C3D00241A26032C0FD204EB840005EBD2
:102EB000400204EB440000EBC40006EB400081B28A
:102EC000002318460CF09AFC0FE004EB840005EB9D
:102ED0004002E01E00EB400101EBC00006EB4000A9
:102EE00081B20023FA200CF089FC641C062CDAD392
:102EF000BDE870400020FEF7C1BD00003801002091
:102F00000352F300DC1100208D3C01085F3B0108F7
:102F10002DE9F047FFF799FF2E4E6FF07F443460A4
:102F20002D4870602D4D95F8D80208B12C4A01E06B
:102F30002B4AF23A00235832042118460CF05EFC6A
:102F400034604FF05017776095F8D80208B1254DDE
:102F500001E0244DB43D0024DFF88C804FF01A09C5
:102F6000092C16D2E01E052802D2C6F8048000E023
:102F7000776004EB840005EB400204EB440000EBB7
:102F8000C40009EB400081B2002318460CF036FC67
:102F900018E0A4F10C00052802D2C6F8048000E075
:102FA000776004EB840005EB4002A4F1090000EB1C
:102FB000400101EBC00009EB400081B20023FA2080
:102FC0000CF01CFC641C122CCAD3BDE8F047002096
:102FD000FEF754BD380100200352F300DC1100203D
:102FE0008D3C0108333E0108653434002DE9FC5F57
:102FF0000546DFF8C08398F8D802002802D0DFF831
:10300000B8A303E0DFF8B0A3AAF11C0A012D0AD08F
:1030100000200090E94C00984FF47F064FF05019C3
:1030200018B1666003E00120F3E7C4F804901423AC
:103030005C221821582001F043FB6FF07F47276086
:1030400098F800000023C0EBC00000EB0A021A2130
:1030500058200CF0D3FB022D05D0002000900098E2
:1030600018B1666003E00120F8E7C4F80490D8F8CE
:103070006800C1B2D8F864000023052200F0FCFF0C
:1030800014235C223021582001F01AFB0023CC4A83
:10309000302158200CF0B2FBD8F86C00DFF824A3E4
:1030A00000230AEB8002302194200CF0A7FB032DB3
:1030B00005D000200090009818B1666003E0012060
:1030C000F8E7C4F80490D8F80C00C1B2D8F80800AA
:1030D0000023052200F0D0FF14235C224621582053
:1030E00001F0EEFA0023B64A462158200CF086FB88
:1030F000D8F8100000230AEB8002462194200CF03F
:103100007DFB042D05D000200090009818B166606A
:1031100003E00120F8E7C4F8049098F8D80220B141
:10312000DFF8A0A2AAF1580A03E0DFF898A2AAF1FA
:10313000B00A4FF4A97B142368221821584601F0E5
:10314000BFFA98F84100A8B198F840000023401C4D
:1031500000EB400101EBC00000EB0A021A215846C7
:103160000CF04CFB052D0CD000200090009850B1C5
:1031700066600AE0002352461A2158460CF03EFBD6
:10318000F0E70120F1E7C4F80490D8F8A000C1B23C
:10319000D8F89C000023062200F06EFFDA461423C4
:1031A00068222E21504601F08BFA0023844A3021F8
:1031B00050460CF023FB4FF4CD7B002382A230213C
:1031C00058460CF01BFB062D05D0002000900098FF
:1031D00018B1666003E00120F8E7C4F80490D8F85D
:1031E0002C00C1B2D8F828000023062200F044FFCA
:1031F000142368224421504601F062FA0023704AE9
:10320000462150460CF0FAFA00236FA24621584698
:103210000CF0F4FAFEF7A0FE00206C495426072DAE
:1032200029D2DFE805F004092A4A6A87A700BDE829
:10323000FC5F0020FEF722BC2760616098F8D8127E
:1032400009B15D4C01E05C4C1C3C019010E0019820
:103250000023C0EBC00002190198F12100EB8000AF
:1032600006EB001080B20CF0C9FA0198401C0190E6
:1032700001980428EBD3BDE8FC9F2760616098F8B3
:10328000D81209B1524C01E0514CE41F019010E0FA
:1032900001980023C0EBC00002190198F12100EB56
:1032A000800006EB001080B20CF0A8FA0198401CD8
:1032B000019001980028EBD0DDE72760616098F865
:1032C000D81209B1424C01E0414CE41F019010E0DA
:1032D00001980023C0EBC00002190198F12100EB16
:1032E000800006EB001080B20CF088FA0198401CB8
:1032F000019001980028EBD0BDE727606160019044
:10330000304C0C3412E00198002300EB400101EB3B
:10331000C00002190198F12100EB800006EB0010BB
:1033200080B20CF06BFA0198401C019001980428BF
:10333000E9D3A0E72760616098F8D81209B1244C5E
:1033400001E0234CE41F019010E001980023C0EB42
:10335000C00002190198F12100EB800006EB00107B
:1033600080B20CF04BFA0198401C019001980028A3
:10337000EBD080E72760616098F8D81209B1144C4F
:1033800001E0134CE41F019010E001980023C0EB12
:10339000C00002190198F12100EB800006EB00103B
:1033A00080B20CF02BFA0198401C01900198002883
:1033B000EBD060E7DC110020033F0108380100205A
:1033C0007F0000209B40010820560000380031009B
:1033D0000B3A01082DE9FF5F009800217E4C002286
:1033E0006254491CC9B20929FAD348F2E8012D27D1
:1033F000884206D900202754401CC0B20628FAD3C0
:1034000005E09DF804100023052200F035FEDFF8EA
:10341000C881724EA8F10F08D8F80F00C6F8030053
:10342000B8F81310A6F807106D4D6861298308F1EC
:10343000180A6C499AF8050001EB8000018869833D
:10344000807828774FF0090B85F81DB04FF02009E0
:1034500084F80690644C61789DF8060003292BD00F
:10346000617839B1D8B1012360A26C2130200CF011
:1034700015FA1AE030B100235CA25C2120200CF088
:103480000DFA05E000235AA25C2120200CF006FA78
:103490000023514A5C2140200CF000FA20E0012377
:1034A00053A26C2130200CF0F9F901234A4A6C2117
:1034B00040200CF0F3F913E030B100234BA27C2143
:1034C00040200CF09BF905E0002349A27C2140201C
:1034D0000CF094F90023404A7C214A200CF08EF92C
:1034E0009DF80C1000230622029800F0C5FDD8F8C4
:1034F0000F10C6F80B10B8F81300A6F80F0098F8D4
:103500001520727445F81F1FA880AA715620E87113
:1035100085F808B037A00088E8811F3D60789DF8E5
:103520000E8003282FD0607848B1B8F1000F1DD06D
:1035300001232EA2A32130200CF0B0F91CE0B8F139
:10354000000F06D0002329A2932120200CF0A6F919
:1035500005E0002326A2932120200CF09FF90023F0
:103560001D4A932140200CF099F922E0012320A26A
:10357000A32130200CF092F90123174AA321402007
:103580000CF08CF915E0B8F1000F06D0002317A25B
:10359000B32140200CF032F905E0002314A2B3213E
:1035A00040200CF02BF900230B4AB3214A200CF0E9
:1035B00025F9B8F1000F06D086F80A9085F81E901C
:1035C0000CF00CF903E0B772AF770CF001F99AF840
:1035D00005007072BDE8FF9F7F0000204C110020A5
:1035E000611100209B400108DC1100202000000038
:1035F0002D0000000D0A000005490448486016230C
:10360000AA220021084601F05BB800000352F30033
:103610003801002038B50E4C25680E49616001283C
:103620000FD04FF47F0102280FD021600A4800908C
:1036300018233022F1214FF4CA7001F0CFFB25602E
:1036400038BD4FF47F402060F0E72160EEE70000D6
:103650003801002038003100FC98070870B500F0F0
:103660005FF82A4C6FF07F45256029486060002391
:10367000284A042118460CF0C1F825604FF050107C
:1036800060600024244D4FF6FF7604EB840000EBCD
:10369000C400421904EB840006EA401000231A21FA
:1036A0000CF0ACF8641C032CEFD31C4800781A25EE
:1036B000A8B10024184E9C3604EB840000EBC40033
:1036C0008219601C00EB800005EB800081B20023B2
:1036D00018460CF093F8641C092CEDD370BD00243F
:1036E0000D4E273604EB840000EBC4008219601CE9
:1036F00000EB800005EB800081B2002318460CF03F
:103700007DF8641C092CEDD370BD00003801002049
:103710000352F300093C0108123A01080C01002091
:1037200010B5FFF769FFBDE81040FEF715BC0000BB
:1037300010B5FEF711FC0848064941606FF07F4163
:1037400001600023F121BDE8104004A254200CF0D8
:1037500055B8000038003100380100202056200004
:1037600010B5FEF7F9FB0E480C4941606FF07F4140
:10377000016000230BA2F12154200CF03FF800233C
:103780000AA2F121A4200CF039F80023F121BDE8B0
:10379000104008A2F4200CF031B8000038003100CD
:1037A00038010020206DA6B82020000020A6B820F7
:1037B000000000006BA6B8200000000000B58FB02C
:1037C0000EA9002002F0AEFB0DA9002002F078FB4C
:1037D0009DF836309DF83A009DF839109DF8382054
:1037E000CDE90210CDE900329DF835309DF8372043
:1037F0000BA105A80CF0A4F813494FF05010486035
:10380000002305AA0421FA200BF0F8FF132205A9D2
:103810000E48FCF7E7FC0D490920C8740FB000BD45
:10382000323025302E32642D25302E32642D253055
:103830002E32642025302E32643A25302E32643AFE
:1038400025302E3264000000380100206111002074
:1038500010B54FF40054204600F066F8002804D05C
:103860002046BDE8104000F047B810BD10B5082054
:1038700000F05AF800281FD010480DF008FE08216B
:103880000F4800F043FA90B90E48002101700E482D
:103890000E4A012304781CB101700F20107002E061
:1038A0000370022010700A494FF400700860BDE8F0
:1038B0001040082000F020B810BD0000A0860100D4
:1038C000001002406A000020490000204100002052
:1038D00080E100E01CB54FF40050009000208DF80E
:1038E000040001208DF807006946024800F0C0F985
:1038F0001CBD000000040240014908607047000040
:10390000143C0140064900200860091D0860091D9B
:103910000860091D086002490248143108607047B8
:10392000003C0140FFFF7F0001460020024A126870
:103930000A4200D001207047143C014030B51B4AB8
:1039400083790168002B2AD013688B431360111D03
:103950000B680468A3430B60017911440B68046889
:1039600023430B60114C083421680368994321609C
:10397000231D19680568A94319604179102905D0EC
:1039800011440A68006802430A6030BD2168026879
:1039900011432160196800680143196030BD007946
:1039A000104402688A43026030BD0000003C0140C0
:1039B0002DE9FF410121102002F052F80121880376
:1039C00002F094F801F013FD0826029600248DF809
:1039D0000C4001258DF80F5002A9144800F048F959
:1039E0000321042005F0EEF900968DF804400C2622
:1039F0008DF805608DF806506846FFF79FFF6F034E
:103A0000029702A90A4800F033F90D21022005F0BF
:103A1000D9F900978DF804408DF805608DF80650AF
:103A20006846FFF78BFFBDE8FF81000000100240F1
:103A30000008024000224FF0204310280AD0B0F5C1
:103A4000807F09D0B0F5805F09D0D3F85801814359
:103A500009D107E0586EFAE7D3F88400F7E7D3F806
:103A6000A400F4E70122104670470000D0E90012DC
:103A700011438268C068521E520142EA402001434D
:103A80000148016070470000500100A070B5046853
:103A9000A100A1F1C041D1F84011CE0BF603D0E94D
:103AA00001121143D0E903231A4311434269C36948
:103AB00011438269056A11431943426A294311433C
:103AC00031434FF02046002C3CD0D6F840416FF3F4
:103AD0000E042B4322431343C6F840310268920080
:103AE000A2F1C042C2F84011016871B38900A1F18E
:103AF000C041D1F8481101F07043816A0A684C68EE
:103B0000521E641E42EA04148A68521E44EA0224C9
:103B10000A8A521E44EA02421A43D6F8483103F098
:103B20007043CC68898A641E2403491E44EA01510B
:103B30001943C6F8481100688000A0F1C040C0F8E1
:103B4000482170BDC6F84011CEE7FFE7D6F848110E
:103B500001F07041806A02684368521E5B1E42EAAF
:103B600003138268521E43EA0223C268521E43EACC
:103B70000233028A521E43EA0243828A007E521EA8
:103B800043EA0252401E42EA00600843C6F8480178
:103B900070BD000002490A6842EA400008607047B0
:103BA000540100A02DE9FC47012140F2A71001F0CB
:103BB00057FF2E20009002268DF8056001248DF815
:103BC000044000258DF806508DF80740244F6946C3
:103BD000384600F04DF80E21384600F0A0F82027B6
:103BE0000097DFF880806946404600F041F82021C8
:103BF000404600F092F840200090DFF86C90694653
:103C0000484600F035F800976946484600F030F81D
:103C10002021484600F081F88DF804508DF80750B7
:103C2000600300906946114800F022F801F0F6F9AF
:103C3000FCF76CFF0BF0AAFD01F050FC01F068FCF2
:103C4000102000908DF805608DF804408DF8065026
:103C50008DF807406946404600F00AF8BDE8FC8749
:103C600000080240001C0240002002400004024004
:103C70002DE9F041002201274FF0030C07FA02F56D
:103C80000B682B40AB422CD1066853000CFA03F4AE
:103C9000A64306600E79D0F800809E4046EA0806EA
:103CA00006600E79012E01D0022E12D18668A6433D
:103CB00086604E79D0F808809E4046EA0806866005
:103CC0004668AE43466045688E799640B6B2354345
:103CD0004560C568A543C560CC799C40C3681C435A
:103CE000C460521C102AC9D3BDE8F08110B54B073F
:103CF000DB0E9A40C90800EB8100016A0F249C404A
:103D0000A1430162016A1143016210BD0246002015
:103D100012690A4200D00120704741837047018335
:103D200070470000034A203902EB01111022FCF712
:103D300059BA00000C9307082DE9F04788B00446F3
:103D40000F46002514218548FCF765FA83481421A5
:103D50001430FCF760FA824E00217170B170204679
:103D6000DFF8F8A1AAF1A30A9AF89E3006E01AF843
:103D700000202C2A00D10546401CC0B28342F6D850
:103D8000DFF8D8914FF0010C4FF00208EDB95FE079
:103D90001AF80420A2F13000092801D92E2A07D1EF
:103DA000707809F800202E2A00D13071401C707004
:103DB00086F805C06D2A02D06B2A02D003E071712B
:103DC00001E086F80580641CE4B2AC42E0D36D1CCF
:103DD000EAB21DE01AF80200A0F13004092C01D962
:103DE0002E2808D15D4DB478143528552E2800D1E1
:103DF000B471641CB47086F807C06D2802D06B28BB
:103E000002D003E0F17101E086F80780521CD2B2C3
:103E10009342DFD81EE01AF80400A0F13002092A0C
:103E200001D92E2807D1727809F802002E2800D176
:103E30003271521C727086F805C06D2802D06B2852
:103E400002D003E0717101E086F80580641CE4B2E1
:103E5000A342E0D8434C97B3012F45D0022F57D04F
:103E6000032F29D101A804F02DFA9DF8040004F8CD
:103E7000240F029860600398A0600498E0600598A1
:103E80002061069860610798A06101A804F09EFA7D
:103E90009DF8040084F874000298A0670398E06716
:103EA0000498C4F880000598C4F884000698C4F803
:103EB00088000798C4F88C0008B0BDE8F087FFE7D9
:103EC00001A804F0FFF99DF8040004F87C0F0298A3
:103ED00060600398A0600498E060059820610698EF
:103EE00060610798A061E7E701A804F0DBF89DF89E
:103EF000040084F844000298A0640398E0640498E5
:103F00002065059860650698A0650798E065D3E789
:103F100001A804F0C7F89DF8040020710298A06081
:103F20000398E06004982061059860610698A0619C
:103F30000798E06101A804F03DF99DF8040084F8B9
:103F40006000029860660398A0660498E066059891
:103F50002067069860670798A067ADE79B0200207E
:103F600024000020DC1100200349085C002801D057
:103F700000207047012070474D0000204069806894
:103F800080B27047D0F8CC000068C0F34140704761
:103F9000084490F89B03704700EB8100D0F8500371
:103FA000704710B5044600220023C4F8103304EB18
:103FB0008200C0F81433C0F85033A01880F88C3356
:103FC000521CD2B20F2AF2D30820A4F8B203204622
:103FD00009F024FC204609F0B3F9204609F0D4F892
:103FE0000121204609F07CFC204609F021F92046F9
:103FF00009F0E0F9002010BDD0F81003704710B5AB
:1040000009F0F5FB002010BD0022431883F89B2324
:1040100000EB4113C3F8C02309F022BB2DE9F041A6
:104020000546134F4FF4807631463846FFF775FE4C
:1040300000244FF48058280604D541463846FFF73F
:104040006EFE03E041463846FFF767FE31463846CC
:10405000FFF765FE0BF05EFC31463846FFF75DFE6C
:104060006806050E641CE4B2082CE4D3BDE8F081B8
:1040700000080240FEE700002DE9F041082A00D9BF
:10408000082202B90122072900D90721914200D94B
:1040900011460024224E20273755641CE4B2082C18
:1040A000FAD314460A250DE0B0FBF5FC05FB1C0C09
:1040B00006EB04080CF1300C08F801CCB0FBF5F06D
:1040C000641EE4B2002CEFD169B110460C4605E045
:1040D000351815F8015C3554401EC0B2641EE4B2B8
:1040E000F6D22E24345473B90020531E09E0345CF8
:1040F000302C08D1341864782E2C04D03754401C4E
:10410000C0B29842F3DB09B1521CD2B2002002E0E7
:10411000B054521CD2B2082AFAD3BDE8F081000094
:104120007F00002006494FF44870002201E001F8AA
:10413000012B401E80B2FAD2024802707047000084
:10414000DC1100204000002070B505462DED028BEB
:104150000C46A068C0F10700FCF763F941EC110BB5
:104160009FED2E0B0BF018FCB0EE408AF0EE608A4B
:104170006068FCF756F953EC182BFCF7E3F8FCF7F2
:1041800070F900EE100ADFED270A20EE200A26491A
:1041900010EE100A884201DD9FED240A244910EE3A
:1041A000100A88420BDB0320A060DFED220A80EEBC
:1041B000201AFCEEC10A10EE900A606017E010EEC3
:1041C000100A1D4988420BDB0420A060F2EE040AAD
:1041D00080EE201AFCEEC10A10EE900A606006E044
:1041E0000520A060FCEEC00A10EE900A6060BCEEF4
:1041F000C00A10EE100AA06120782870606868601C
:10420000A068A860E068E86020692861606968616A
:10421000A069A861BDEC028B70BD00000000000029
:104220000000244000247449001B374B001B374B0F
:104230008096184B0000C842002474490FB40299BC
:10424000032902D1039901B900200299022902D160
:10425000039901B901200299042903D10399012985
:1042600000D102200299032903D10399012900D129
:1042700003200299022903D10399012900D10420C6
:104280000299042903D10399022900D1052002993A
:10429000032903D10399022900D1062004B07047F5
:1042A0000FB40298032806D101980449884202D924
:1042B000012004B070470020FBE70000C0D40100DB
:1042C0002DE9F04137285DD172B62F4C65682F4E2D
:1042D0000021304605F04BFAB704384605F054FA91
:1042E0000021384605F043FA304605F04DFA002229
:1042F0000121304605F02AFB0021304605F037FA4F
:10430000234E304607F08CFA002240F22551304609
:1043100007F00DFB0021304607F076FA01F002FCB1
:10432000002001F0C1FCFFF7EDFA4FF0E02000267D
:10433000066101F03FFD0021381401F019FE002054
:1043400001F0CCFFFCF7B2FF1249134807F048FC1C
:1043500072B6432001F05EF82A2001F05BF84D2090
:1043600001F058F84C2001F055F872B6206880F33F
:10437000098886F31488206880F30888AC46BDE875
:10438000F0416047BDE8F08100000C0800100040DB
:1043900000480040A03C0020F43600202DE9F05FEA
:1043A000FF250020FFF73AFEDFF8CCA04FF40069AC
:1043B00049465046FFF7AAFCDFF8C0804FF4806BF7
:1043C00000B359464046FFF7A1FCE8B149464046D4
:1043D000FFF79CFCD0B104212948FFF797FCB8B146
:1043E0000426042E40D20024264F385DFFF716FE27
:1043F0000BF090FA76B1012E13D0022E18D0032EB6
:1044000023D11CE00026ECE70126EAE70226E8E7D4
:104410000326E6E749465046FFF778FCA8B925464B
:1044200013E059464046FFF771FC70B925460CE091
:1044300049464046FFF76AFC38B9254605E00421A5
:104440000F48FFF763FC00B92546FF2D03D1641C1C
:10445000E4B2082CC9D3FF2D04D005EBC600C0B2CE
:10446000BDE8F09F0020FBE74FF400510448FFF740
:104470004DFC0020F4E7000000200240000802404C
:10448000000C0240003E070810B5064C607800287A
:1044900005D00020607000F055F8207810BD002095
:1044A00010BD00002001002010B50146002004F0DE
:1044B00017FD064C0020FFF757FD10B96078002863
:1044C000F8D0BDE81040FFF7DFBF0000200100205A
:1044D00070B5FFF763FF1A4C00230125E21CD0B131
:1044E0002178814228D16178652901D2491C617007
:1044F000617864291BD00DD910709570A07800F1F7
:104500000100C0B2A0700E2804D9A3705078002812
:1045100000D1557070BD207828B16178091F6029DD
:1045200001D21070557023706370937070BDA370CA
:1045300010705570957070BD2070637070BD000074
:104540001D01002010B5FCF7BFFA4FF47A700CF093
:104550009EFFBDE81040FCF7B1BA00007CB5012118
:104560004FF4867001F07CFA4FF4985000900220CE
:104570008DF8050001208DF8040000248DF8064018
:104580008DF80700134D69462846FFF771FB691542
:104590002846FFF7C4FB4FF4406100918DF80440BA
:1045A00069462846FFF764FBE814009069460A480C
:1045B000FFF75EFB0420009069460848FFF758FBB0
:1045C0000748047044708470C01E04704470847086
:1045D0007CBD00000008024000200240000C0240A8
:1045E0002001002010B500231C4C2468002C06D0AC
:1045F000012C0DD0022C17D0032C1ED023E000EB91
:104600004003C1EB011000EB400003EB40131AE044
:10461000A1F20F11C0F5F070A1EB011100EB4110F8
:10462000401E00EB40030EE0A0F20F10A0EB0010C4
:1046300001EB401000EB400305E000EB0010C1EB84
:10464000001303F20F130648834205D20548806821
:10465000C2521844110C817010BD0000640000208B
:1046600000FA05002401002070B58AB0C0F30744A9
:10467000C0F30725C6B2FCF71DFC4FF44030009094
:10468000012001900494039502960F2005900B4899
:1046900080680690002007904FF4887008904FF4CF
:1046A000F07009906846FCF71BFCFCF775FC0220D3
:1046B000FCF70CFC0028FAD00AB070BD24010020E1
:1046C0002DE9F04F8BB03B4C6468C4F3074704F00E
:1046D000FF09C4F30728384CDFF8D8A0C2F5F076FC
:1046E000AAF1140A2568DAF80840002D37D0C3F57E
:1046F000887C012D3ED0022D4CD000EB0010C3EB86
:104700000010401A00F5887000EB400005191FFAF0
:104710008CF614469B46FCF7CDFB4FF440300190DD
:1047200001200290CDF81080CDF80C900597FF2065
:104730000690079508960994CDF828B001A8FCF7D3
:10474000CFFBFCF729FC0220FCF7C0FB0028FAD0C5
:10475000DAF8000000F0B4FA0BB0BDE8F08FC1EB5E
:10476000011100EB411000EB40000519B6B21C46E8
:104770009346D0E7ACEB0101C1EB0111C0EB411056
:10478000801A00F5F07000EB40000519B6B21C4627
:104790009346C0E7C0F58870801AC0EB001001EBAB
:1047A000401000EB40000519C3F5F07086B21446C6
:1047B0009B46B0E738010020640000202DE9F0435B
:1047C0008BB09046994600242E4A1568002D0CD0D7
:1047D000C1EB011200EB42162B4A012D97680DD058
:1047E000022D11D0032D18D01AE000EB4002C1EBCE
:1047F000011000EB400002EB401411E0A6EB860034
:104800002249384444180BE0A0F20F10A0EB00102E
:1048100001EB401000EB400402E006EB4600C41937
:10482000194814300068C0F30745C6B2C0F3072723
:10483000FCF740FB4FF440300190012002900497B8
:10484000039605950F2106910794B9F1000F12D038
:1048500040F2DF110891CDF824800A9001A8FCF7FE
:104860003FFBFCF799FB0220FCF730FB0028FAD055
:104870000BB0BDE8F083002108910990CDF82880A5
:10488000ECE70000640000202401002000FA05008D
:104890002DE9FC5F012140F2FF1001F0E1F84FF03B
:1048A0000408CDF8008003208DF8050002208DF863
:1048B000040000208DF806008DF807006946AB481B
:1048C000FFF7D6F90E220221A848FFF70FFA4FF0A2
:1048D0000809CDF800906946A448FFF7C9F90E22EF
:1048E0000321A248FFF702FA4FF4807ACDF800A026
:1048F00069469E48FFF7BCF90E2208219B48FFF746
:10490000F5F90124009469469948FFF7B1F90922A5
:1049100000219748FFF7EAF94FF4006BCDF800B09B
:1049200069469448FFF7A4F90E220B219148FFF73E
:10493000DDF92003009069468E48FFF799F90E22B1
:104940000C218C48FFF7D2F9022000906946884874
:10495000FFF78EF9092201218548FFF7C7F94025A5
:10496000009569468448FFF783F90E2206218248A4
:10497000FFF7BCF92020009069468048FFF778F9DE
:104980000E2205217D48FFF7B1F9009569467B4865
:10499000FFF76EF90E2206217848FFF7A7F96003AA
:1049A000009069467148FFF763F90E220D216F48A8
:1049B000FFF79CF9A602009669466F48FFF758F981
:1049C00009220A216C48FFF791F9E003009069463B
:1049D0006648FFF74DF90E220F216448FFF786F96C
:1049E000009469466648FFF743F90E2200216448A7
:1049F000FFF77CF98027009769466248FFF738F98E
:104A00000E2207215F48FFF771F9CDF80080694653
:104A10005B48FFF72DF90E2202215948FFF766F98E
:104A20004FF01008CDF8008069465448FFF720F990
:104A30000E2204215148FFF759F9200300906946DE
:104A40004D48FFF715F90E220C214B48FFF74EF9A0
:104A500000954D4D69462846FFF70AF90E220621BA
:104A60002846FFF743F9CDF800B069464248FFF702
:104A7000FFF80E220B214048FFF738F9CDF80080EF
:104A800069463F48FFF7F4F80E2204213C48FFF73F
:104A90002DF9CDF8009069463648FFF7E9F80E2267
:104AA00003213448FFF722F9CDF800A069463048C9
:104AB000FFF7DEF80E2208212D48FFF717F94FF413
:104AC0000079CDF8009069462948FFF7D1F80E2209
:104AD00009212748FFF70AF9009769462648FFF79A
:104AE000C7F80E2207212448FFF700F9009669460F
:104AF0002348FFF7BDF80E220A212148FFF7F6F8F8
:104B0000CDF8009069461E48FFF7B2F80E22092141
:104B10001B48FFF7EBF800961C4E69463046FFF73E
:104B2000A7F80E220A213046FFF7E0F8CDF8008002
:104B300002208DF805008DF8044000208DF8060055
:104B40008DF8074069462846FFF792F800976946B6
:104B50002846FFF78DF810212846FFF7E0F880215E
:104B60002846FFF7DCF8BDE8FC9F0000001C02406F
:104B70000004024000000240001802400010024001
:104B80000020024000080240000C024000140240D5
:104B900000B58FB00121880600F0A8FF0121C805EB
:104BA00000F05EFFFFF774FE03F058FE06220721B7
:104BB0004FF4967001F06EF84FF4803001F05AF81F
:104BC000012001F061F83D2001F028F80028FAD01A
:104BD000002000900190029003900C900D900E9098
:104BE000049005902E2006901720079040F20E208A
:104BF000089040F2271009904FF409700A9040F293
:104C00003D100B90684600F037F9012000F024F9C0
:104C10000FB000BD10B590B02F20009040F20E20D4
:104C200001901820029040F2271003900120049078
:104C3000FF200590069007900890099007200B90A0
:104C400040F2A3500D90C01E0E904FF488700F904C
:104C50000C480C904FF4C0600A900B4C69462046FB
:104C600000F06CF9012000F0B5F90121204600F0B8
:104C700059F9012000F0AEF9044800F009F810B02D
:104C800010BD000000FA05D0046901404001002079
:104C900001490861704700002401002006490028EE
:104CA00004D0064888600120C86070474FF050402B
:104CB00088600020C86070472401002000FA05D0F9
:104CC00001490860704700002401002010B509491F
:104CD000C968002908D00146074800F021F9BDE85D
:104CE0001040012000F076B901460348803800F0FA
:104CF00017F9F4E724010020046901402DE9F04F81
:104D0000044688462546334902EB0210DFF8C8A066
:104D100001EB4009002B0FD0002709EB070090F8AA
:104D200002B000265FEA0B6035D541462046DAF82E
:104D30000020FFF757FC34E04FF0000B09EB0B00AD
:104D400087780026380606D541462046DAF8002046
:104D5000FFF748FC05E041462046DAF80420FFF75B
:104D600041FC7806070E641CA4B2601B10280CD00E
:104D7000761CF6B2082EE5D30BF1010B0BF0FF0BFE
:104D8000BBF1200FDAD3BDE8F08F2C4608F1010803
:104D90001FFA88F8F0E741462046DAF80420FFF7CA
:104DA00021FC4FEA4B604FEA106B641CA4B2601BFD
:104DB000102808D0761CF6B2082EB3D37F1CFFB2A1
:104DC000202FAAD3DFE72C4608F101081FFA88F844
:104DD000F4E70000083E0708380100202DE9F84FED
:104DE00004468B469246A04600270AFB03F0C117F3
:104DF00000EB5170DFF85C90009025E00A98C65DEA
:104E00000025300606D559462046D9F80020FFF780
:104E1000E9FB05E059462046D9F80420FFF7E2FBFC
:104E20007006060E641CA4B2A4EB0800504505D120
:104E300044460BF1010B1FFA8BFB03E06D1CEDB236
:104E4000082DDED37F1CBFB20098B7EBE00FD5DB97
:104E5000BDE8F88F380100200649002804D0086812
:104E600040F0010008607047086820F00100086009
:104E7000704700001868014030B5264A136826497B
:104E80000B401360038A1B04146845692C431C43C0
:104E90001460121D13680B401360038B1B0414680D
:104EA000C5692C431C431460121D13680B4013602A
:104EB000038C1B041468456A2C431C431460121DA8
:104EC00013680B401360018D09041368C46A2343FF
:104ED0000B431360111D0A68104B1A400A60D0E999
:104EE00000231A43D0E9023423431A430B681A43C0
:104EF0000A60416B0A02018E0B04064924310C68DA
:104F000004F07F440C600C68806B134304431C4323
:104F10000C6030BD0868014000F800F08F88FE0F7B
:104F200041617047002904D0016841F0010101602E
:104F30007047016821F001010160704770B58A88EF
:104F40001204436803F4704343600B6813434360E7
:104F50008A891204836803F4704383608B68134367
:104F60008360026922F0070202610A690261CA696C
:104F700013020A8C120491F8244024068569002546
:104F800085618E6922431E4316438661426922F081
:104F9000FF0242614A694261C26940F207739A4363
:104FA000C261D1E90A231A43C261826A85620A6B2F
:104FB00082620A8F1204C36A03F0E023C3624B6B60
:104FC0001343C362026B6FF30A020263C96B01638E
:104FD00070BD00000149086070470000246801406E
:104FE00010B54FF480610948FEF799FE4FF4005167
:104FF0000748FEF794FE04210648FEF78EFEBDE842
:10500000104001210448FEF788BE0000001C024049
:105010000008024000100240000002407CB501215F
:10502000BF2000F01DFD0420009000248DF80540F5
:1050300001258DF804508DF806408DF8075069461B
:105040000C48FEF715FE4FF4B840009069460A4838
:10505000FEF70EFE8DF805408DF804508DF80640E1
:105060008DF807500820009069460448FEF700FEBE
:105070007CBD000000100240001C0240000C0240F9
:1050800010B504210948FEF74AFE01210848FEF741
:1050900046FE4FF480610748FEF73FFEBDE8104032
:1050A0004FF400510448FEF738BE000000100240E3
:1050B00000000240001C0240000802404FF4006162
:1050C0000148FEF72ABE0000001C02404FF40061B8
:1050D0000148FEF724BE0000001C02402DE9F04705
:1050E00090B0304D002085F8A10095F89E004FF05B
:1050F00003094FF0020AE846082802D085F8A1907B
:105100001DE0A81CFBF78CFC0746281DFBF788FC5C
:105110004FF6FF7101EA4006202E02D985F8A190D2
:105120000DE0002409E008EB4401384600F0ACF83B
:10513000A8B17F1CBFB2641CA4B2B442F3D395F8EB
:10514000A10000282BD12878A87716496878C8775D
:10515000700085F8A29081F82000002117E085F802
:10516000A1A0ECE795F8A20018F81130421C2844E1
:1051700085F8A220837708EB4100437895F8A200D8
:10518000421C284485F8A2208377491C89B2B14289
:10519000E8D3044895F8A2101E3000F0F7F810B0DC
:1051A000BDE8F087F801002010B51D4A002382F801
:1051B000A13092F89E00082803D0032082F8A100B5
:1051C00010BD901CFBF72CFC0446101DFBF728FCBF
:1051D0000E2CF5D11349C0B1012240314A70401E56
:1051E000087009781048017010490978007801F0BA
:1051F000DBF90F48017806290CD000781228DFD19E
:10520000BDE810400720FCF761B8062001F8400F08
:105210004B70EEE7BDE810400420FDF7E7BE00004C
:10522000F8010020DC110020430000204400002091
:105230004100002010B5104C104A94F89E001060F8
:10524000082801D1092111600D49536809688B4272
:1052500011D051600B4A117809B1491E11701178B3
:10526000002908D1002806D0032801D301F016FA3E
:10527000002084F89E0010BDF80100204C010020A1
:105280002C000020240000202DE9F0413A4A92F839
:1052900000C03A4A00260127126802EB82035D0033
:1052A000642302FB03F4364BBCF1070F1AD2DFE88C
:1052B0000CF004070A0D101316001A61DE6011E0ED
:1052C0001D61DE600EE01C61DE600BE01A61DF60D4
:1052D00008E01D61DF6005E01C61DF6002E01A612B
:1052E0000222DA60274A14685C61274C2478012C7A
:1052F00002D1A41E1C615C6113283BD2DFE800F0E0
:105300000A0D101316181B1D1F21232527292B2DCD
:105310002F3133001869000C26E0188A80B223E090
:105320005869000C20E0988A80B21DE090791BE05B
:10533000988980B218E0002016E0002014E00020D8
:1053400012E0002010E000200EE000200CE0002021
:105350000AE0002008E0002006E0002004E0002031
:1053600002E0002000E00020020A0A7048700120DC
:10537000BDE8F0810020FBE743000020880000200A
:1053800024000020900000206800002030B5A1B06B
:1053900005460C462246294601A8FAF723FF214676
:1053A0002846FBF7D9FB050A224601AB641CE1B293
:1053B0009D544A1CD2B25854114601A80EF0F4F97B
:1053C00021B030BDFEE7704708B54FF4A06000F093
:1053D0006BF827208DF8000001208DF801008DF872
:1053E00002008DF80300684600F02AF808BD08B5F1
:1053F0004FF4C06000F058F809208DF8000001203B
:105400008DF801008DF802008DF80300684600F069
:1054100017F808BD00F01F020121914040098000EB
:1054200000F1E020C0F88011704700F01F02012158
:1054300091404009800000F1E020C0F80011704761
:1054400030B50F23C27801250178002A1FD0154AF4
:10545000126802F4E062C2F5E062C2F30722C2F110
:105460000404D3404278A24084781C4014432201B3
:1054700001F1E02181F80024007800F01F018D4047
:105480004009800000F1E020C0F8005130BD01F07B
:105490001F0085404809800000F1E020C0F88051DD
:1054A00030BD00000CED00E00249084302490860ED
:1054B000704700000000FA050CED00E0024A1140C0
:1054C000014302480160704780FFFF1F08ED00E0C4
:1054D000014807F055BB0000F43600201CB501213F
:1054E000084600F0BDFA4020009002208DF805002B
:1054F00000208DF804008DF8060001208DF80700CB
:1055000069460248FEF7B4FB1CBD000000000240E3
:105510007CB50121CD2000F0A3FA102000900024DA
:105520008DF8054001258DF804508DF806408DF862
:10553000075069460D48FEF79BFB009569460C48ED
:10554000FEF796FB6D03009569460A48FEF790FB4F
:105550008DF80440009569460748FEF789FB28113D
:10556000009069460548FEF783FB7CBD001C0240A5
:105570000000024000080240000C024000180240F7
:10558000014908627047000000000E42F0B5804BF0
:1055900093F81E030021012801D983F81E131878FF
:1055A000032800D919705878032800D959709878C1
:1055B000012800D99970DA6A0320052A00D9D86237
:1055C0009D6A744C744AA54200D99A621D6B052DE0
:1055D00000D9196393F840500A2D01D983F840107F
:1055E00093F841500A2D01D983F8411093F84250A5
:1055F000032D01D983F8421093F82050012D01D9D1
:1056000083F82010DD6C052D00D9D8649E6C42F61D
:10561000E065A64200D99D641E6D052E00D919656E
:105620009E6E052E00D998665E6E964200D95D6624
:10563000DE6E052E00D9D966DE68052E00D9D86049
:105640009E68964200D99D601D69052D00D919619B
:10565000D3F88450052D01D9C3F88400D3F88050C5
:10566000A54201D9C3F88020D3F88850052D01D96F
:10567000C3F88810D3F8A050052D01D9C3F8A000B5
:10568000D3F89C00A04201D9C3F89C20D3F8A40011
:10569000052801D9C3F8A41093F8D5020A2801D926
:1056A00083F8D51293F8D802012801D983F8D812CB
:1056B00093F8D702012801D983F8D71293F8D402BE
:1056C000012801D983F8D41293F8D602012801D910
:1056D00083F8D61200201A1892F8D942802C01D9EA
:1056E00082F8D912401CC0B21428F4D30020302410
:1056F0001A1892F81453802D06D9082802D282F87D
:10570000144301E082F81413401CC0B20A28EFD3FE
:105710000020224C224D234A9FED230A03EBC001B7
:10572000D1F8B8602644AE4203D3F7EE000AC1EDCB
:105730002E0AD1F8B46052F83070BE4206D8D1F8C3
:10574000B46002EBC0077F68BE4205D2154E4836F2
:1057500056F82060C1F8B460062809D203EB800136
:10576000124FD1F8F062BE420CDD81EDBC0A09E0B7
:10577000811F03EB81010E4FD1F80C63BE4201DDA6
:1057800081EDC30A401CC0B20828C7D3F0BD000099
:10579000DC110020804F1200C0D40100CDCCCCC061
:1057A0003433730098000020000000000050C3470D
:1057B0000024F448704710B505F0EAFFBDE810403A
:1057C00000F01CB910B505F0D3FFBDE8104000F0A3
:1057D0000FB900002DE9FE4379480024047005F05C
:1057E000D7FF00F095FA0021042000F0C9FCFEF775
:1057F000D9F9002000F006FCA0F54851F23902D09A
:1058000000F0F5FC08E00121080700F053F9012041
:10581000FFF7B6FE00F028FD03F09CFE4FF47A700F
:105820000BF035FEFEF79AFEFFF7B2F9FFF7F2F93B
:105830000120FFF711FB0020FFF730FA4FF47F0043
:10584000FEF712FF0120FFF729FAFF20FFF73EFACB
:105850004FF050184046FEF707FF03F02DF9FEF712
:1058600061FC00F013FFFFF791FE564F97F8D50249
:1058700080B197F8D502012811D097F8D5020228F7
:1058800012D097F8D502032813D097F8D502042830
:1058900014D017E04FF49650FBF7E2FB12E04FF400
:1058A0001650FBF7DDFB0DE04FF46150FBF7D8FB22
:1058B00008E04FF49640FBF7D3FB03E04FF4E130F0
:1058C000FBF7CEFB97F81E03012802D13E480DF0EE
:1058D000D3F903F0DBFE3D480470FDF7FBFF002425
:1058E0003B48012505703B480626067000210078DC
:1058F00000F05AFE3848057038480090384B394A55
:105900000021394806F01EFC3649374807F09CFA5A
:10591000364D4FE0641CA4B2142C03D997F81E0333
:10592000012813D02E700220FEF7BEFD12282DD0C4
:105930000EDC12283ED2DFE800F03D203D263D3D42
:105940003D3D3D1D38233D3D3D3D3D1A2E70EAE76E
:105950001B282FDAA0F1130008282BD2DFE800F073
:105960002A2A2A2A2A2A042805F0FAFE22E005F02B
:10597000EFFE1FE0FFF7AAFB1CE0FFF79FFB19E01B
:1059800005F006FF16E005F0F3FE13E04046FEF7D3
:105990006BFEB420ADF804007820ADF80600ADF839
:1059A000080001A80DF008F804E0FFF769FB01E02A
:1059B000FFF716FB28780228ACD0BDE8FE83000074
:1059C0006A000020DC110020004401084200002091
:1059D00068000020430000206900002060010020D2
:1059E000DC010020A03C0020F43600204100002013
:1059F00020210148FEF791B900080240202101480A
:105A0000FEF78DB9000802402DE9FF5F8946074681
:105A100011469B466846FEF785F90025EA461AF8C6
:105A20000580002409EB0506C4F1070028FA00F000
:105A3000C00706D03819B1B280B25A46FEF7D2FD7F
:105A400005E03819B1B280B20E9AFEF7CBFD641CA6
:105A5000082CE9D36D1C102DE1D3BDE8FF9F000099
:105A6000054A002903D0116801431160704711688D
:105A7000814311607047000030380240054A002918
:105A800003D01168014311607047116881431160B0
:105A90007047000010380240054A002903D0116801
:105AA0000143116070471168814311607047000025
:105AB00038380240054A002903D0116801431160BB
:105AC0007047116881431160704700004038024000
:105AD000054A002903D0116801431160704711681D
