:020000040800F2
:1000000080820020C10100081B530008BD3F00088A
:1000100019530008090B0008E5E40008000000007F
:10002000000000000000000000000000498D0008F2
:10003000D90F00080000000015570008F3940008CD
:10004000DB010008DB010008DB0100089D610008FE
:10005000DB010008DB010008DB010008DB01000810
:10006000DB010008B5370008DB010008DB010008F0
:10007000DB010008DB010008DB010008DB010008F0
:10008000DB010008DB010008DB010008DB010008E0
:10009000DB010008DB010008DB010008DB010008D0
:1000A000DB010008DB010008DB010008DB010008C0
:1000B0002D960008DB010008DB010008DB010008C9
:1000C000DB010008DB010008DB010008DB010008A0
:1000D000DB010008DB010008DB010008F9B40008BF
:1000E00099370008DB010008DB010008DB0100088C
:1000F000DB010008DB010008DB010008DB01000870
:10010000DB010008DB010008DB010008DB0100085F
:10011000DB010008DB01000841960008DB01000854
:10012000DB010008DB010008DB010008DB0100083F
:10013000DB010008DB010008DB010008DB0100082F
:10014000DB010008DB010008DB010008DB0100081F
:10015000DB010008DB010008DB010008DB0100080F
:10016000DB010008DB010008DB010008DB010008FF
:10017000DB01000825540008DB010008DB01000852
:10018000DB010008DB010008DB010008DB010008DF
:10019000DB010008DB010008DB010008DB010008CF
:1001A000DB010008DB010008DB010008DFF80CD0F0
:1001B00000F04EFB00480047A9270108808200207C
:1001C0000648804706480047FEE7FEE7FEE7FEE7F1
:1001D000FEE7FEE7FEE7FEE7FEE7FEE7D195000853
:1001E000AD01000840EA01039B0703D009E008C9FC
:1001F000121F08C0042AFAD203E011F8013B00F8EC
:10020000013B521EF9D27047D2B201E000F8012B37
:10021000491EFBD270470022F6E710B513460A4686
:1002200004461946FFF7F0FF204610BD421E12F8A3
:10023000013F002BFBD111F8013B02F8013B002BE1
:10024000F9D1704710B5002200E0521C835C8C5C31
:10025000A34201D1002BF8D1D8B2E1B2401A10BDAF
:100260002DE9FE4F81EA030404F0004421F000412F
:1002700000944FF0000B23F0004350EA01045ED0DD
:1002800052EA03045BD0C3F30A54C1F30A552C4469
:10029000A4F2F3340194A0FB0254C1F3130141F41E
:1002A0008011C3F3130343F4801301FB024400FBEA
:1002B000034E840A970A44EA815447EA8357A4FB11
:1002C000076802958D0A05FB07854FEA932C04FB0E
:1002D0000C542705029D4FEA065847EA1637B5EB3E
:1002E00008056EEB070C870E920E47EA811742EA6B
:1002F0008312A7FB0201B6EB0B0164EB00042B0D8C
:1003000043EA0C335E1844EB1C50DA465146E7FBD7
:100310000201C5F313044FEA0B3343EA14534FEAC7
:100320000432019C43EA0603A4F10C040294009CED
:10033000CDE900B400F03EF903B0BDE8F08F002035
:100340000146F9E72DE9F04D81EA030404F0004B82
:1003500021F0004514464FF0000A23F0004150EA16
:10036000050220D054EA01021DD0C5F30A57024607
:10037000C5F31303C1F31300C1F30A5640F480150B
:1003800043F48013A7EB0608101BD64608F2FD388D
:1003900073EB050002D308F1010801E092185B41FC
:1003A000B8F1000F03DA00200146BDE8F08D00200F
:1003B0004FF48011064684460EE0171B73EB0507C9
:1003C00005D3121B63EB050306434CEA010C4908F5
:1003D0004FEA300092185B4150EA0107EDD152EA32
:1003E000030012D082EA040083EA0501084305D025
:1003F000101BAB4106D20122002306E000224FF081
:10040000004302E06FF0010253101AEB06004CEBC0
:10041000085110EB0A0041EB0B01BDE8F04D00F074
:10042000BAB80EB540F2334102910021CDE9001176
:100430000A460B4600F0BEF803B000BD00F00042D3
:1004400030F000400AD0C10D01F56071C0F3160014
:1004500042EA0151C208400711437047002001469B
:10046000704701F0004330B421F0004150EA01022E
:1004700006D00A0DA2F56072C1F31301002A02DC56
:1004800030BC00207047440F44EAC104C100E018AA
:1004900030BC00EBC25000F047B830B50B46014607
:1004A00000202022012409E021FA02F59D4205D313
:1004B00003FA02F5491B04FA02F52844151EA2F1BD
:1004C0000102F1DC30BD2DE9F05F054600209246C7
:1004D0009B4688460646814640241BE02846414606
:1004E0004746224600F0D5F953465A46C01A914174
:1004F00010D311461846224600F0BCF92D1A67EBBE
:1005000001084F4622460120002100F0B3F917EB05
:1005100000094E41201EA4F10104DFDC48463146AB
:100520002A464346BDE8F09F0029A8BF7047401CFB
:10053000490008BF20F00100704710B4B0FA80FCF9
:1005400000FA0CF050EA010404BF10BC704749B136
:10055000CCF1200421FA04F411FA0CF118BF0121A6
:1005600021430843A3EB0C01CB1D4FEA00614FEA86
:10057000102042BF002010BC704700EBC350104455
:100580000029A4BF10BC7047401C490008BF20F0E0
:10059000010010BC704710B5141E73F1000408DA96
:1005A000401C41F1000192185B411A4301D120F037
:1005B000010010BD2DE9F04D92469B4611B1B1FAF4
:1005C00081F202E0B0FA80F22032904600F052F957
:1005D00004460F4640EA0A0041EA0B0153465A46D8
:1005E000084313D0114653EA010019D0C8F1400264
:1005F000504600F04EF905460E46504659464246D2
:1006000000F038F9084305D0012004E020463946BF
:10061000BDE8F08D0020054346EAE0762C433743E1
:100620000A986305E40AA0EB08000022FD0A44EAE8
:1006300047540A3002D500200146E9E701051019A8
:100640006941DDE9084500196941BDE8F04DA2E7BF
:100650002DE9FE4F804681EA0300C00F0C46009052
:1006600021F0004123F00045B8EB0200A94105D27A
:100670004046214690461C460B46024623F0004069
:10068000104347D0270DC7F30A00C3F30A51029065
:10069000401A019040286BDAC3F3130040F4801B2A
:1006A0000098924620B10023D2EB030A63EB0B0BB8
:1006B00001985946C0F14002504600F0DBF806466A
:1006C0000D4650465946019A00F0F3F810EB080029
:1006D0006141002487EA115284EAE7731A4340D04B
:1006E000009A62B3019A012A4FEA075215DC001BF7
:1006F00061EB02014FF0004202EA0752CDE90042ED
:10070000001C41F5801132462B46FFF753FF03B022
:10071000BDE8F08F40462146F9E7001B61EB02017E
:10072000001C41F5801300185B412018A2F500174A
:1007300047EB030140EAD570B6196D4111E06D0831
:100740004FEA360645EAC0754FEA0752001B61EBD7
:100750000201001C41F5801149084FEA30000019E0
:10076000514132462B4603B0BDE8F04FFFF713BFAF
:100770000098012240000023D0EB020263EBE073FB
:10078000009821464FEAE074B8EB000061EB0401E9
:10079000E9E783F000435BE781F0004158E770B57B
:1007A00021F0004303430CD0C1F30A550024D5EBDC
:1007B000040564EB0403D617AD1AB34102DB002035
:1007C000014670BD201841EB025170BD0EB5C10F3E
:1007D00080EAE0700844CA07002140F233438DE804
:1007E0000E000A460B46FFF7E5FE03B000BDC1F35D
:1007F0000A52C1F3130140F2FF3341F480119A42CF
:1008000002DA00200146704740F233439A42A2F2D6
:10081000334202DC524200F03CB800F02BB800003A
:1008200030B5041E71F1000404DB4FF00044404277
:1008300064EB0101141E73F1000405DB1C464FF04C
:100840000043524263EB0403994208BF904230BD1B
:10085000064C074D06E0E06840F0010394E807000D
:1008600098471034AC42F6D3FFF7A4FC10420A08B4
:1008700030420A08202A04DB203A00FA02F1002064
:1008800070479140C2F1200320FA03F319439040CE
:100890007047202A04DB203A21FA02F00021704739
:1008A00021FA02F3D040C2F12002914008431946D8
:1008B0007047202A06DBCB17203A41FA02F043EAC0
:1008C000E07306E041FA02F3D040C2F12002914009
:1008D0000843194670472DE9F04D00231A461B1AAC
:1008E0008A4103DB00200146BDE8F08DC1F30A52C6
:1008F000C1F3130141F480154FF0000BD10702D171
:1009000000186D41521E0027044640F2FF11384680
:1009100001EB620A3E468046024600204FF48011F9
:10092000FFF7B7FFC2197141BB1846EB0100B4EBEA
:10093000030C75EB000C04D3E41A65EB00051746B5
:100940000E46241908F101006D4180463428E3DD8C
:10095000F91946EB0600091BA84103D24FF0FF32FC
:10096000134601E0002213461BEB070046EB0A5139
:10097000BDE8F04DFFF70FBE70B58C1810F8015BA5
:1009800015F0070301D110F8013B2A1106D110F828
:10099000012B03E010F8016B01F8016B5B1EF9D12C
:1009A0002B0705D40023521E0DD401F8013BFAE7B2
:1009B00010F8013BCB1A921C03E013F8015B01F81D
:1009C000015B521EF9D5A142D8D3002070BD0000B2
:1009D00010B504210D4803F044F901210C4803F03F
:1009E00040F94FF480610B4803F03BF94FF400519C
:1009F000094803F036F98021084803F032F904F081
:100A000007FBBDE810400AF047BD0000001002409F
:100A100000000240001C024000080240000C02409E
:100A20004178007841EA00207047000010B5074C7B
:100A30002060084600F00CF820680028FCD1BDE8D2
:100A4000104000214FF0804008F063BE58010020A4
:100A50003EB504464FF080450021284608F059FE77
:100A600000220121284608F043FF022C02D0012C6D
:100A700003D005E00B20019002E042F6DF60019018
:100A80000520ADF800000020ADF80800ADF8020028
:100A90006946284608F056FF0121284608F036FE30
:100AA0000121284608F023FE01221146284608F0BD
:100AB0001FFF0121284608F02CFE3EBD20210148E1
:100AC00003F0CFB8001C02402021014803F0CBB84E
:100AD000001C02400B4991F84220002A06D038B190
:100AE00091F8420002280BD0FFF7E8BFFFF7E6BFFE
:100AF00091F84200012801D0FFF7E0BFFFF7E4BF03
:100B0000FFF7E2BFD8110020FEE700007CB501210D
:100B1000084604F055FFA020009002208DF8050043
:100B200001248DF8044000258DF806508DF807400B
:100B3000084E6946304603F03FF88DF804508DF8B2
:100B400006508DF80740402100916946304603F079
:100B500033F87CBD0000024070B5FF22FF23084D32
:100B600005F5807605E010F8014B54402A5D5A40A7
:100B7000335D491E89B2F6D243EA022070BD0000FF
:100B8000DC3201082DE9F05F2DED028B0024624D6F
:100B900095F840A00021084605F0B6FC214600204B
:100BA00001F02EFD9FED5D8A5D4E5E4FACE00120B1
:100BB00008F0E2F8687848B16878012809D06878C8
:100BC000022809D06878032809D00AE011F000FF54
:100BD00007E011F075FF04E011F0EEFF01E012F004
:100BE0003BF896ED000ADFF84081BCEEC00A10EE3B
:100BF000100AC8F8000005F009FCDFF8309120E089
:100C000005F004FC687848B16878012809D0687854
:100C1000022809D06878032809D00AE011F0D8FE2C
:100C200007E011F04DFF04E011F0C6FF01E012F003
:100C300013F896ED000ABCEEC00A10EE100AC8F8D0
:100C4000000099F800000028DAD108F095F86878DB
:100C500048B16878012809D06878022809D06878F6
:100C6000032809D00AE012F045F807E012F0BCF8BA
:100C700004E012F087F901E012F084F9DFF8B080A7
:100C80002C4998ED000ABCEEC00A10EE100A08606C
:100C900005F0BCFB98ED000A4FF0964110EE100AEB
:100CA000884205DD38EE400AB1EE400A88ED000AC0
:100CB00096ED000A10EE100A884205DD38EE400A73
:100CC000B1EE400A86ED000A601E96ED000A05EBC3
:100CD000800080ED7D0A032C04D298ED000A80ED9F
:100CE000840AA3465946204605F00EFC2146002002
:100CF00001F086FC072C05D30620387085F840A04B
:100D000008F0C6FB641CE4B2387811283FF44FAFFA
:100D1000BDEC028BBDE8F09FD8110020FFFF7F4B98
:100D200058000020410000206000002051000020F9
:100D3000540000206400002010B54FF40051094811
:100D400002F091FF0121084802F08DFF4FF480610D
:100D5000064802F086FFBDE810400421044802F076
:100D600080BF00000008024000000240001C02405A
:100D70000010024030B587B0054628784C4C04F886
:100D8000280C687804F8270CA87804F8260CE91CCD
:100D9000684608F091FB9DF8000004F8240C0198C7
:100DA00044F8200C029844F81C0C039844F8180CE2
:100DB000049844F8140C059844F8100C069844F86C
:100DC0000C0C687A04F8080C687A04F8080C05F131
:100DD0000A01684608F070FB9DF8000004F8040C56
:100DE00001982060029860600398A0600498E06019
:100DF0000598206106986061287C2076687CA07642
:100E000005F11201684608F057FB9DF800002077B5
:100E100001982062029860620398A0620498E062E0
:100E2000059820630698606305F11801684608F08C
:100E300043FB9DF8000084F838000198E0630298B5
:100E40002064039860640498A0640598E0640698A0
:100E5000206505F11E01684608F02EFB9DF8000094
:100E600084F854000198A0650298E0650398206614
:100E7000049860660598A0660698E06605F124016E
:100E8000684608F019FB9DF8000084F8700001988E
:100E900060670298A0670398E0670498C4F8800030
:100EA0000598C4F884000698C4F8880007B030BDDF
:100EB0000012002010B50121CC05204604F08EFD63
:100EC0002046BDE81040002104F088BD0146002006
:100ED000024A52680A4200D00120704700B0024026
:100EE00030B500242A4B19682A4A11401960196844
:100EF000026811431960596B21F007015963596B5E
:100F00004268114359634168002928D001292DD036
:100F1000022930D0032933D0C1680A0101690902CE
:100F2000446924038568214315430D43996B0D43A0
:100F30009D638169D963196C6FF30D011964196C94
:100F4000C26911431964818C09045A6C02F0404251
:100F50005A645A6C006A02430A435A6430BDC1683D
:100F60000A02018A0904047D2406DBE7C1680A023B
:100F7000018A0904D6E7C1684A010169C902D1E7BB
:100F8000C1684A01016989024469E403CAE70000B3
:100F900000B00240FCE0FCFF0248016841F00101A2
:100FA0000160704700B002400CB5094B1B788DF80A
:100FB000063000910749895C8DF8041005490B3112
:100FC000895C8DF80510DDE9001206C00CBD00003B
:100FD0003E000020B93E0108704710B590B00446AD
:100FE00002F054FB0122214601A800F0C9FF9DF840
:100FF00004008DF8240002980A9003980B9004983E
:101000000C9005980D9006980E9007980F9009A8DF
:1010100000F078F80890089810B010BD10B590B0A6
:10102000044602F04BFB0022214601A800F0A8FF75
:101030009DF804008DF8240002980A9003980B9004
:1010400004980C9005980D9006980E9007980F90B4
:1010500009A800F057F80890089810B010BD0000DB
:10106000F0B587B006460121022004F0A9FC012159
:10107000880404F0CFFC214F07220B21384602F0F0
:10108000D9FD07220A21384602F0D4FD00248DF84C
:101090001A4001208DF81B0002258DF8185080029F
:1010A00005908DF8195005A9384602F085FD8DF898
:1010B0001850A802059005A9384602F07DFD01965A
:1010C000ADF80840ADF80A40ADF80C40ADF810405E
:1010D0000C20ADF80E000A4C01A920460AF0E6FAF1
:1010E00004F01CF9012240F2255120460AF0C3FA0F
:1010F000012120460AF02CFA07B0F0BD000402409E
:1011000000480040416844F62062914204D9416899
:101110000A22B1FBF2F141604068704738B5002007
:1011200000905E4942F210725D484EF66023AFE0D7
:101130009DF8004000EBC404D4F8B8409DF800507E
:1011400001EBC5056D68AC420CD89DF8004000EB82
:10115000C404D4F8B8409DF8005001EBC5056D6893
:10116000AC4210D29DF80040072C06D29DF80040FA
:1011700000EBC404C4F8B82005E09DF8004000EB83
:10118000C404C4F8B8309DF8004000EBC404D4F89F
:1011900000419DF8005001EBC5056D68AC420CD8CC
:1011A0009DF8004000EBC404D4F800419DF80050C5
:1011B00001EBC5056D68AC4210D29DF80040072CCC
:1011C00006D29DF8004000EBC404C4F8002105E0FD
:1011D0009DF8004000EBC404C4F800319DF80040C5
:1011E00000EBC404D4F848419DF8005001EBC5055C
:1011F0006D68AC420CD89DF8004000EBC404D4F8F4
:1012000048419DF8005001EBC5056D68AC4210D215
:101210009DF80040072C06D29DF8004000EBC40466
:10122000C4F8482105E09DF8004000EBC404C4F870
:1012300048319DF8004000EBC404D4F890419DF87B
:10124000005001EBC5056D68AC420CD89DF800401C
:1012500000EBC404D4F890419DF8005001EBC505A3
:101260006D68AC4210D29DF80040072C06D29DF864
:10127000004000EBC404C4F8902105E09DF8004054
:1012800000EBC404C4F890319DF80040641C009445
:101290009DF80040092CFFF44BAF38BD94000020AE
:1012A000D81100201CB54FF40050009000208DF89C
:1012B00004000C218DF805108DF80600684602F038
:1012C000E1FA1CBD2DE9FC5F0546012D0AD0002086
:1012D00000904FF0501A4FF47F07FE4C009818B161
:1012E000676003E00120F3E7C4F804A0DFF8E8B387
:1012F0009BF8DC0110B1DFF8E48303E0DFF8DC8366
:10130000A8F11C08122368221A21582003F082F940
:101310009BF800000023C0EBC00000EB08021A217C
:1013200058200DF0DFFF022D05D00020009000981E
:1013300018B1676003E00120F8E7C4F804A09BF847
:10134000DC0120B1DFF8948308F1380803E0DFF80E
:101350008C8308F11C08122368222E21582003F0E8
:1013600059F99BF801000023C0EBC00000EB080214
:10137000302158200DF0B6FF032D07D0002000903B
:10138000DFF85C83009818B1676003E00120F6E79E
:10139000C4F804809BF8DC0120B1DFF8409309F128
:1013A000620903E0DFF8349309F15409122368223B
:1013B0005C21582003F02EF99BF802000023C0EBBB
:1013C000C00000EB09025C2158200DF08BFF042DBA
:1013D00005D000200090009818B1676003E001205C
:1013E000F8E7C4F80480DBF80C00C1B2DBF80800B1
:1013F0000023052202F0E4FD12237A2270215820F6
:1014000003F008F90023B74A722158200DF06AFF53
:10141000DBF81010B448002300EB81027221942005
:101420000DF060FF052D05D000200090009818B148
:10143000676003E00120F8E7C4F804809BF8DC0152
:1014400020B1DFF8989209F1620903E0DFF88C928D
:1014500009F15409122368229E21582003F0DAF87A
:101460009BF820000023C0EBC00000EB0902A02184
:1014700058200DF037FF062D05D000200090009871
:1014800018B1676003E00120F8E7C4F80480DBF8D6
:101490002C00C1B2DBF828000023062202F090FDE8
:1014A00012237A22B221582003F0B4F800238D4A87
:1014B000B42158200DF016FF00238CA2B421A020E7
:1014C0000DF010FF072D05D000200090009818B1F6
:1014D000676003E00120F8E7C4F804A09BF8DC0192
:1014E00020B1DFF80492A9F1580903E0DFF8F89180
:1014F000A9F1B0091223682218214FF4A97003F052
:1015000089F89BF84100B0B19BF840000023401CD3
:1015100000EB400101EBC00000EB09021A214FF47F
:10152000A9700DF0DFFE082D0DD00020009000986E
:1015300058B167600BE000234A461A214FF4A970A6
:101540000DF0D0FEEFE70120F0E7C4F804A09BF80F
:10155000DC0120B1DFF89091A9F1EC0903E0DFF89C
:101560007C9109F1DC094FF4A97A122368222E211B
:10157000504603F04FF89BF842000023C0EBC00038
:1015800000EB0902302150460DF0ACFE092D05D0CC
:1015900000200090009818B1676003E00120F8E790
:1015A000C4F80480DBF84C00C1B2DBF8480000232B
:1015B000052202F005FD12237A225C21504603F039
:1015C00029F80023474A5C2150460DF08BFEDBF8DA
:1015D00050104548002300EB81025E214FF4C77094
:1015E0000DF080FE0A2D05D000200090009818B163
:1015F000676003E00120F8E7C4F80480DBF86800C6
:10160000C1B2DBF864000023052202F0D9FC1223EA
:101610007A227021504602F0FDFF0023314A7221E8
:1016200050460DF05FFEDBF86C102F48002300EBF6
:10163000810272214FF4C7700DF054FE0B2D05D0BE
:1016400000200090009818B1676003E00120F8E7DF
:10165000C4F80480DBF88400C1B2DBF8800000230A
:10166000062202F0ADFC12237A229C21504602F0A1
:10167000D1FF00231B4A9E2150460DF033FE00236C
:101680001AA29E214FF4CD700DF02CFE0C2D05D02A
:1016900000200090009818B1676003E00120F8E78F
:1016A000C4F80480DBF8A000C1B2DBF89C00002382
:1016B000062202F085FC12237A22B221504602F063
:1016C000A9FF0023074AB42150460DF00BFE00236A
:1016D00006A20DE034010020D8110020663901086F
:1016E000653434007B0000206A3B0108205600006E
:1016F000B4214FF4CD700DF0F5FD00F0EDFB0020AE
:10170000F54A54276FF07F410D2D2CD2DFE805F00C
:10171000070C2D4E6F8FCFF5F3F2F1F0EF00BDE81F
:10172000FC5F022000F0E4B9216062609BF8DC11EC
:1017300009B1EA4C01E0E94C1C3C019010E0019831
:101740000023C0EBC00002190198F12100EB8000DA
:1017500007EB001080B20DF0C5FD0198401C019010
:1017600001980428EBD3BDE8FC9F216062609BF8E0
:10177000DC1111B1D94C383401E0D84C1C34019043
:1017800010E001980023C0EBC00002190198F1217C
:1017900000EB800007EB001080B20DF0A3FD019874
:1017A000401C019001980428EBD3DCE721606260C3
:1017B0009BF8DC1111B1C94C623401E0C74C5434C0
:1017C000019010E001980023C0EBC00002190198BD
:1017D000F12100EB800007EB001080B20DF082FDDC
:1017E0000198401C019001980228EBD3BBE72160CF
:1017F00062609BF8DC1109B1B94C01E0B84CE41F00
:10180000019010E001980023C0EBC000021901987C
:10181000F12100EB800007EB001080B20DF062FDBB
:101820000198401C019001980028EBD09BE72160B3
:1018300062609BF8B41021B19BF8B410012909D063
:1018400010E09BF8DC1111B1A44EC4360AE0A34DA0
:101850008E3507E09BF8DC1111B1A04EAC3601E0EB
:101860009E4D703501901EE09BF8DC0160B101983F
:10187000002306EBC00200EB800007EB001080B2F3
:10188000F1210DF02FFD0BE00198002300EB80000B
:1018900005EB400207EB001080B2F1210DF022FDB4
:1018A0000198401C019001980328DDD35BE721607B
:1018B00062609BF8DC1109B1894C01E0884CE41F9F
:1018C000019010E001980023C0EBC00002190198BC
:1018D000F12100EB800007EB001080B20DF002FD5B
:1018E0000198401C019001980028EBD03BE7D2E022
:1018F000B1E090E06FE021E0FFE7216062609BF8DB
:10190000DC1109B1774C00E0764C019012E00198AF
:10191000002300EB400101EBC00002190198F12106
:1019200000EB800007EB001080B20DF0DBFC0198AB
:10193000401C019001980528E9D314E721606260FA
:101940009BF8DC1159B19BF84310012902D0654E78
:10195000DC3E0AE0DFF88C91A9F1F80905E09BF87C
:101960004310012907D05D4EF8369BF8431001293A
:1019700006D001902BE0DFF8649109F1DC09F4E76F
:10198000019011E001980023C0EBC00000EB0902B8
:101990000198F12100EB800007EB001080B20DF000
:1019A000A1FC0198401C019001980428EAD3DAE6D2
:1019B0000198002306EBC00200EB800007EB00104B
:1019C00080B2F1210DF08EFC0198401C019001982D
:1019D0000428EDD3C7E6216062609BF8DC1109B1F1
:1019E0003F4C01E03E4CE41F019010E001980023C1
:1019F000C0EBC00002190198F12100EB800007EB59
:101A0000001080B20DF06EFC0198401C019001980E
:101A10000028EBD0A7E6216062609BF8DC1109B1D9
:101A20002F4C01E02E4CE41F019010E001980023A0
:101A3000C0EBC00002190198F12100EB800007EB18
:101A4000001080B20DF04EFC0198401C01900198EE
:101A50000028EBD087E6216062609BF8DC1109B1B9
:101A60001F4C01E01E4CE41F019010E00198002380
:101A7000C0EBC00002190198F12100EB800007EBD8
:101A8000001080B20DF02EFC0198401C01900198CE
:101A90000028EBD067E6216062609BF8DC1109B199
:101AA0000F4C01E00E4CE41F019010E00198002360
:101AB000C0EBC00002190198F12100EB800007EB98
:101AC000001080B20DF00EFC0198401C01900198AE
:101AD0000028EBD047E600003800310066390108E5
:101AE000E3340108763B0108002000F001B8000053
:101AF0002DE9F041044600F0EFF99448944B9549E4
:101B00006FF07F424FF483754FF4AB76002C47D0D3
:101B10004FF4D377012C7DD0022C7CD191F8DC01DD
:101B2000002879D000238CA2E72166200DF0DAFB93
:101B300000238BA2FB2166200DF0D4FB002386A29C
:101B4000E721B6200DF0CEFB002387A2FB21B620B3
:101B50000DF0C8FB002386A2E72128460DF0C2FB4A
:101B6000002381A2FB2128460DF0BCFB002382A2AA
:101B7000E72130460DF0B6FB002380A2FB21304662
:101B80000DF0B0FB00237CA2E72138460DF0AAFB44
:101B90003846BDE8F04100237AA2FB210DF0A2BB3C
:101BA0000260436091F8DC01002831D000236AA272
:101BB000E72166200DF096FB002369A2FB21662039
:101BC0000DF090FB002364A2E721B6200DF08AFB04
:101BD000002365A2FB21B6200DF084FB002364A244
:101BE000E72128460DF07EFB00235FA2FB2128465B
:101BF0000DF078FB002360A2E72130460DF072FB68
:101C00003046BDE8F04100235CA2FB210DF06ABB29
:101C1000002302E032E097E058E05CA2E721662072
:101C20000DF060FB00235BA2FB2166200DF05AFB48
:101C3000002356A2E721B6200DF054FB002357A243
:101C4000FB21B6200DF04EFB002356A2E7212846CB
:101C50000DF048FB002351A2FB2128460DF042FB6A
:101C6000002350A2E72130460DF03CFB3046BDE892
:101C7000F04100234DA2FB210DF034BB0260436014
:101C800000234CA2E72166200DF02CFB00234BA281
:101C9000FB2166200DF026FB00234AA2E721B62097
:101CA0000DF020FB002349A2FB21B6200DF01AFB0A
:101CB000002348A2E72138460DF014FB3846BDE862
:101CC000F041002345A2FB210DF00CBB00232FA205
:101CD000E72166200DF006FB00232EA2FB216620E3
:101CE0000DF000FB002329A2E721B6200DF0FAFA3F
:101CF00000232AA2FB21B6200DF0F4FA002329A22A
:101D0000E72128460DF0EEFA002324A2FB21284605
:101D10000DF0E8FA002323A2E72130460DF0E2FAA5
:101D2000002322A2FB2130460DF0DCFA00232DA275
:101D3000E72138460DF0D6FA3846BDE8F0410023D9
:101D40002AA2FB210DF0CEBABDE8F08134010020BB
:101D500038003100D81100204D45415300000000EB
:101D600044495350000000005345545550000000B2
:101D7000205359530000000053595300494E464F19
:101D8000000000005550444154450000B2E2C1BF7C
:101D900000000000CFD4CABE00000000C9E8D6C3CE
:101DA00000000000CFB5CDB300000000D0C5CFA229
:101DB00000000000CEC4BCFE00000000B9DCC0ED95
:101DC00000000000B1A3B4E600000000CAFDBEDDC3
:101DD00000000000B8FCB6E00000000020322F3206
:101DE00000000000B9CCBCFE00000000C9FDBCB67C
:101DF000000000000FB410B59DF80800002812D0B4
:101E00009DF80800072807D99DF810100023062226
:101E1000039802F0D5F806E09DF818100023072279
:101E2000059802F0CDF89DF808001A2110BC00EBCF
:101E3000800001EB80010123034A4FF4A0705DF89C
:101E400014EB0DF04FBA00007B00002071B581B09B
:101E5000002000901D4C4FF0501532E09DF804100A
:101E60000098401C814203D14FF47F01616000E083
:101E7000656000EB80001A2606EB800081B2142317
:101E80005A22A02002F0C6FB11480099415C11487B
:101E9000009A00EBC200D0F8B8000023062202F03E
:101EA0008FF800980A4A401C00EB800006EB800087
:101EB00081B20123813AA0200DF014FA0098401C51
:101EC000009000980928C9D365607CBD34010020CA
:101ED000FC000020D81100202DE9F05F0024DFF87D
:101EE00078801E4EDFF878A000274FF04C094FF0A5
:101EF000010BC6F8048004EB4401A00001EB0411BF
:101F000000EB810080B22B234C22E42102F082FB03
:101F1000C6F804A004EB84050BEB051080B2012386
:101F20004C22E32102F076FB09EB051080B22C2352
:101F30000122E32102F06EFB77604D2000EB0510DB
:101F400080B22C230322E32102F064FB641C062CE4
:101F5000CFD3BDE8F09F00003800310034010020ED
:101F6000684369000549044848606E235C2140F2DB
:101F7000DF12002002F04EBB653434003401002033
:101F80002DE9F04F93B080460E46012012900C9040
:101F900000270B970A9709970897039702970497CA
:101FA00002970D974FF0200A0FAD07E09DF834001F
:101FB00005F800A09DF83400401C0D909DF83400F9
:101FC0000728F3D38DF843700AB1072400E00624F4
:101FD000DFF8ECB34FF02E097AE1022002F00EFA9E
:101FE0000E909DF83800002846D001210C919DF8F4
:101FF00038001228F8D00CDC12283DD2DFE800F0BF
:102000003C3C3C82F3E5D83C3C5A3C7CCBBEB13CEA
:102010003C3D1A28E8D009DCA0F113000728ECD2D7
:10202000DFE800F02A9285782A2A0E001E286FD059
:1020300022DC1B28D8D01C286BD01D281CD1ECE03A
:10204000049712979DF82000A04214D29DF82C000E
:1020500088B99DF8200050B19DF8200005F8009047
:102060009DF820000A909DF82000401C08909DF8E3
:102070002C00401C0B90059111E1049112979DF8E2
:102080002000A04214D29DF82C0088B99DF82000B1
:1020900050B19DF8200005F800909DF820000A90AE
:1020A0009DF82000401C08909DF82C00401C0B90CF
:1020B0000591F4E0C348007813281CD10220049055
:1020C00012979DF82000A04214D29DF82C0088B9E8
:1020D0009DF8200050B19DF8200005F800909DF873
:1020E00020000A909DF82000401C08909DF82C00CC
:1020F000401C0B900591D2E006208BF8000012974F
:102100000597CCE01297059712208BF80000C6E0E7
:1021100076E09FE09DF82000A04207D29DF82010B5
:10212000312068549DF82000401C0890B7E09DF8CD
:102130002000A04207D29DF82010322068549DF85C
:102140002000401C0890AAE09DF82000A04207D281
:102150009DF82010332068549DF82000401C089002
:102160009DE09DF82000A04207D29DF82010342069
:1021700068549DF82000401C089090E09DF82000D5
:10218000A04207D29DF82010352068549DF8200009
:10219000401C089083E09DF82000A0427FD29DF86B
:1021A0002010362068549DF82000401C089076E0EE
:1021B0009DF82000A04272D29DF82010372068546C
:1021C0009DF82000401C089069E09DF82000A04286
:1021D00065D29DF82010382068549DF82000401CDE
:1021E00008905CE0FFE79DF82000A04257D29DF8E0
:1021F0002010392068549DF82000401C08904EE0C3
:102200009DF82000A0424AD29DF82010302068544A
:102210009DF82000401C089041E09DF82000A0425D
:102220003DD29DF8200040B39DF82C0028BB9DF8BE
:10223000200050B19DF8200005F800909DF8200086
:102240000A909DF82000401C08909DF82C00401C2E
:102250000B9024E09DF8200080B19DF82000401EE6
:1022600008909DF8200005F800A09DF828009DF832
:102270002010884213D10B970A9710E09DF8200098
:10228000285C78B39DF82000285C2D2830D09DF87C
:1022900020102D2068549DF82000401C08909DF8C7
:1022A0003000A8B10C9748486FF07F4101604FF4AF
:1022B0007F014160B0887188103082B2308810236D
:1022C00002F0A8F97188308800230FAA0DF00AF8EF
:1022D0009DF8480000287FF480AE9DF820000D9006
:1022E000302111E0FFE79DF820102D206854D2E73F
:1022F0009DF820102B206854CDE79DF83400295418
:102300009DF83400401C0D909DF83400A042F4D399
:102310000D9734E09DF83C0030282CD39DF83C000C
:10232000392828D89DF83400285C302823D39DF81C
:102330003400285C39281ED89DF828009DF83410F8
:1023400088420CD9029800EB80004000029002986D
:102350009DF83410695C0844303802900BE0029814
:1023600000EB80004000029002989DF83410695CF8
:102370000844303802909DF83400401C0D909DF8C0
:102380003400A042C6D39DF8280003909DF80400B5
:1023900088F800000298C8F804000398C8F80800FC
:1023A0000498C8F80C000598C8F810000698C8F8FA
:1023B00014000798C8F8180013B0BDE8F08F0000AB
:1023C0004100002042000020340100202DE9F84F98
:1023D0005A4E77685A4870600CF074FF594D68780F
:1023E00003281BD0687860B1012357A26C213020EC
:1023F0000CF0C8FF012354A2A32130200CF0C2FF2F
:1024000018E0002350A25C2120200CF0BBFF002329
:102410004DA2932120200CF0B5FF0BE000234AA22F
:102420007C2140200CF05EFF002347A2B321402016
:102430000CF058FF47484FF00008C0F80080083003
:10244000C0F8008095F84300434C4FF4C8794FF42E
:10245000967A80B9FEF770FCFEF730FB16233C221B
:10246000B421484602F0D6F8372328225C21504692
:10247000009402F05DFC95F8200001281FD0A87898
:1024800001281CD0FEF758FCFEF718FB16233C224F
:10249000B421484602F0BEF8372328225C2150467A
:1024A000009402F045FC776095F841002B490978CB
:1024B00000F0A6F82A4902200880BDE8F88F95F8B8
:1024C000430040B34FF47F0070600120FEF702FB31
:1024D00002F030FD1F4A23A0103A0168C2F807102D
:1024E0004C23D372214A032090742148816280F8E2
:1024F0002C301848093880F8058016233C22B42176
:10250000484602F087F8134A0023093AB4214846A6
:102510000CF0E8FEC7E7FEF70FFCFEF7CFFA162334
:102520003C22B421484602F075F812480090372347
:1025300028225C21504602F0FBFBB4E73401002066
:1025400065343400D81100202D2D2D2D2D2D2D2D4D
:102550000000000084000020F87B070844000020F1
:102560000E010020525620464C0000004811002069
:102570005D1100206073070808B5114841794FF4D8
:10258000967000290BD0012911D0022906D10D49DE
:102590000091372328225C2102F0CAFB08BD0A49BA
:1025A0000091372328225C2102F0C2FB08BD0749B5
:1025B0000091372328225C2102F0BAFB08BD0000FD
:1025C000840000206073070899760708F87B0708E5
:1025D00018B509484FF4AA740090372328225C21CB
:1025E000204602F0A5FB05490091372328229321BC
:1025F000204602F09DFB18BDD279070857810708D5
:10260000012800D90120032900D903210A4B4FF0EA
:1026100050125A60C0EBC000084A00EB400002EBC9
:10262000800001EB410100EB81020023D2214FF435
:10263000BE700CF057BE000034010020053E0108BA
:1026400030B595B004460D4601F020F80122294628
:102650006846FFF795FC9DF800008DF8380001985A
:102660000F9002981090039811900498129005987A
:102670001390069814900EA9684601F009FD9DF884
:1026800000008DF81C0001980890029809900398AA
:102690000A9004980B9005980C9006980D900B9852
:1026A00018B90020099008900A909DF81C0020702D
:1026B000089860600998A0600A98E0600B98206113
:1026C0000C9860610D98A06115B030BD30B595B023
:1026D00004460D4600F0F2FF002229466846FFF747
:1026E0004FFC9DF800008DF8380001980F9002987B
:1026F00010900398119004981290059813900698E2
:1027000014900EA9684608F0ADFD9DF800008DF804
:102710001C00019808900298099003980A90049868
:102720000B9005980C9006980D900B9818B9002006
:10273000099008900A909DF81C002070089860602D
:102740000998A0600A98E0600B9820610C9860617D
:102750000D98A06115B030BD70B500F0AFF8254DF3
:102760006FF07F462E6024486860244C94F8DC01AA
:1027700008B1234A01E0224AF23A0023DC32042164
:1027800018460CF0AFFD2E604FF05010686094F8C2
:10279000220238B194F8DC0108B11A4D0AE0194D53
:1027A000543D07E094F8DC0110B1164DA83501E066
:1027B000144D543500241A26C4EBC40000EB40002D
:1027C000421904EB440000EBC40006EB400081B268
:1027D000002318460CF086FD641C042CECD3002367
:1027E000094A5C2152200CF07DFDBDE87040FFF7E6
:1027F0007BB90000340100200352F300D8110020FF
:10280000F0360108093D0108F013002070B50024DE
:102810001825601C00EB400101EBC00005EB4000F7
:1028200081B2012364225A2001F0F4FE641C072CBB
:10283000EFD370BD2DE9F04100F040F81A4E6FF073
:102840007F47376019487060194C94F8DC0108B173
:10285000184A01E0174AF23A0023B0320421184620
:102860000CF040FD37604FF05010706094F8DC01C0
:1028700008B1114D01E0104D583D00244FF01A08E9
:1028800004EB440000EBC400421908EB400081B2A5
:10289000002318460CF026FD641C082CF0D377604A
:1028A000BDE8F041FFF7B2BF340100200352F3004E
:1028B000D8110020F0360108053C010810B500F0E1
:1028C00065FEBDE81040FFF707BB00002DE9FF5F84
:1028D000044600278DF80770012C0AD000200290D2
:1028E000FA4D02984FF47F064FF0501B18B16E60FE
:1028F00003E00120F3E7C5F804B0DFF8D48398F8CB
:10290000DC0110B1DFF8CC9303E0DFF8C893A9F144
:102910000E09122366221A215A2001F07BFE98F834
:10292000D8010023C0EBC00000EB09021C215A2093
:102930000CF0D8FC022C05D000200290029818B1AF
:102940006E6003E00120F8E7C5F804B012236622A8
:1029500030215A2001F05EFE98F8D901DFF8789313
:10296000C0EBC00000EB0902002332215A200CF01A
:10297000B9FC032C05D000200290029818B16E60BB
:1029800003E00120F8E7C5F804B098F8DC0110B1C5
:10299000DFF840A303E0DFF83CA3AAF10E0A1223FC
:1029A000662246215A2001F035FE98F8DA0100230C
:1029B000C0EBC00000EB0A0248215A200CF092FC48
:1029C000042C05D000200290029818B16E6003E03C
:1029D0000120F8E7C5F804B098F8DC0110B1DFF881
:1029E000F4A203E0DFF8ECA2AAF10E0A1223662299
:1029F0005C215A2001F00EFE98F8DB010023C0EBA9
:102A0000C00000EB0A025E215A200CF06BFC052C82
:102A100005D000200290029818B16E6003E00120FA
:102A2000F8E7C5F804B01223662272215A2001F09B
:102A3000F1FD98F8DC01DFF8A0A200230AF1380AC2
:102A40000AEBC00274215A200CF04CFC01A90020B2
:102A500003F018FA6946002003F0E2F9062C05D0CD
:102A600000200290029818B16E6003E00120F8E7A0
:102A7000C5F804B012231A4688215A2001F0CAFD75
:102A80009DF8032095A196480CF0CEFC0023944AB3
:102A90008A215A200CF026FCC5F804B0002391A22C
:102AA0008A216E200CF01EFC072C05D0002002901D
:102AB000029818B16E6003E00120F8E7C5F804B091
:102AC00012231A468821782001F0A4FD9DF80120E8
:102AD00082A183480CF0A8FC0023814A8A21782037
:102AE0000CF000FCC5F804B000237EA28A218C20E3
:102AF0000CF0F8FB082C05D000200290029818B1C9
:102B00006E6003E00120F8E7C5F804B012231A460E
:102B10008821982001F07EFD9DF802206FA1704869
:102B20000CF082FC00236E4A8A2198200CF0DAFB1C
:102B3000092C05D000200290029818B16E6003E0C5
:102B40000120F8E7C5F804B012231A469E215A2046
:102B500001F060FD9DF8042060A161480CF064FC68
:102B600000235F4AA0215A200CF0BCFBC5F804B03A
:102B700000235DA2A0216E200CF0B4FB0A2C05D02E
:102B800000200290029818B16E6003E00120F8E77F
:102B9000C5F804B012231A469E21782001F03AFDB0
:102BA0009DF805204DA14E480CF03EFC00234C4AF8
:102BB000A02178200CF096FBC5F804B000234AA2AF
:102BC000A0218C200CF08EFB0B2C05D00020029055
:102BD000029818B16E6003E00120F8E7C5F804B070
:102BE00012231A469E21982001F014FD9DF806201C
:102BF0003AA13B480CF018FC0023394AA021982048
:102C00000CF070FB0C2C05D000200290029818B13B
:102C10006E6003E00120F8E7C5F804B012236622D5
:102C2000B4215A2001F0F6FC0023304AB6215A2084
:102C30000CF058FBFFF750F96FF07F4028602C48EC
:102C4000686054250C2C09D2DFE804F0060A2854E9
:102C50007290A5A5A5A5A5A5FEF746FFBDE8FF9F17
:102C600098F8DC0108B11B4C01E01A4C0E3C0397AC
:102C700010E003980023C0EBC00002190398F12173
:102C800000EB800005EB001080B20CF02BFB0398EA
:102C9000401C039003980228EBD3DFE7039711E071
:102CA00003980023C0EBC00000EB09020398F12158
:102CB00000EB800005EB001080B20CF013FB0398D2
:102CC000401C039003980528EAD3C7E7340100208D
:102CD000D8110020C83901085D3C01082532640084
:102CE0007B0000202D0000003A000000B5130020FA
:102CF0003800310098F8DC0108B1324C01E0314C69
:102D00000E3C039710E003980023C0EBC0000219AB
:102D10000398F12100EB800005EB001080B20CF06D
:102D2000E1FA0398401C039003980228EBD395E73F
:102D300098F8DC0108B1234C01E0224C0E3C0397CB
:102D400010E003980023C0EBC00002190398F121A2
:102D500000EB800005EB001080B20CF0C3FA039882
:102D6000401C039003980228EBD377E703970EE00B
:102D7000039800230AEBC00200EB800005EB001073
:102D800080B2F1210CF0AEFA0398401C0390039836
:102D90000228EDD362E703970B4C0EE00398002363
:102DA00004EBC00200EB800005EB001080B2F121C3
:102DB0000CF098FA0398401C039003980228EDD376
:102DC0004CE70000C8390108A53C010810B500F027
:102DD000DDFBFFF781F8BDE81040FFF7C3B810B581
:102DE00000F0D4FBFFF778F8BDE81040AFF30080A7
:102DF000FFF7B8B870B5FFF7E9FF254C6FF07F45D6
:102E0000256024486060244E96F8DC0108B1234A0E
:102E100001E0224AF23A0023042118460CF062FA3B
:102E200025604FF05010606096F8DC0108B11C4D31
:102E300001E01B4D3C3D00241A26032C0FD204EB6D
:102E4000840005EB400204EB440000EBC40006EBF9
:102E5000400081B2002318460CF044FA0FE004EB66
:102E6000840005EB4002E01E00EB400101EBC000D6
:102E700006EB400081B20023FA200CF033FA641C08
:102E8000062CDAD3BDE870400020FEF731BE00000A
:102E9000340100200352F300D8110020F03601085D
:102EA000C23501082DE9F047FFF799FF2E4E6FF06C
:102EB0007F4434602D4870602D4D95F8DC0108B1D9
:102EC0002C4A01E02B4AF23A0023583204211846DA
:102ED0000CF008FA34604FF05017776095F8DC0179
:102EE00008B1254D01E0244DB43D0024DFF88C806D
:102EF0004FF01A09092C16D2E01E052802D2C6F896
:102F0000048000E0776004EB840005EB400204EBF2
:102F1000440000EBC40009EB400081B200231846D6
:102F20000CF0E0F918E0A4F10C00052802D2C6F874
:102F3000048000E0776004EB840005EB4002A4F11C
:102F4000090000EB400101EBC00009EB400081B239
:102F50000023FA200CF0C6F9641C122CCAD3BDE879
:102F6000F0470020FEF7C4BD340100200352F300F7
:102F7000D8110020F0360108963801086534340075
:102F80002DE9FC5F0546DFF8C08398F8DC010028D6
:102F900002D0DFF8B8A303E0DFF8B0A3AAF11C0A5F
:102FA000012D0AD000200090E94C00984FF47F06D4
:102FB0004FF0501918B1666003E00120F3E7C4F840
:102FC000049014235C221821582001F023FB6FF099
:102FD0007F47276098F800000023C0EBC00000EB9B
:102FE0000A021A2158200CF07DF9022D05D000208C
:102FF0000090009818B1666003E00120F8E7C4F87B
:103000000490D8F86800C1B2D8F864000023052203
:1030100000F0D6FF14235C223021582001F0FAFA88
:103020000023CC4A302158200CF05CF9D8F86C0011
:10303000DFF824A300230AEB8002302194200CF057
:1030400051F9032D05D000200090009818B166605A
:1030500003E00120F8E7C4F80490D8F80C00C1B2EE
:10306000D8F808000023052200F0AAFF14235C22F0
:103070004621582001F0CEFA0023B64A46215820B6
:103080000CF030F9D8F8100000230AEB800246213A
:1030900094200CF027F9042D05D000200090009812
:1030A00018B1666003E00120F8E7C4F8049098F8CE
:1030B000DC0120B1DFF8A0A2AAF1580A03E0DFF892
:1030C00098A2AAF1B00A4FF4A97B14236822182110
:1030D000584601F09FFA98F84100A8B198F84000CE
:1030E0000023401C00EB400101EBC00000EB0A0292
:1030F0001A2158460CF0F6F8052D0CD0002000904F
:10310000009850B166600AE0002352461A215846E2
:103110000CF0E8F8F0E70120F1E7C4F80490D8F8E3
:10312000A000C1B2D8F89C000023062200F048FF9E
:10313000DA46142368222E21504601F06BFA002350
:10314000844A302150460CF0CDF84FF4CD7B00235B
:1031500082A2302158460CF0C5F8062D05D000207B
:103160000090009818B1666003E00120F8E7C4F809
:103170000490D8F82C00C1B2D8F828000023062209
:1031800000F01EFF142368224421504601F042FA49
:103190000023704A462150460CF0A4F800236FA289
:1031A000462158460CF09EF8FEF796FE00206C492A
:1031B0005426072D29D2DFE805F004092A4A6A8738
:1031C000A700BDE8FC5F0020FEF792BC27606160AD
:1031D00098F8DC1109B15D4C01E05C4C1C3C01909D
:1031E00010E001980023C0EBC00002190198F12102
:1031F00000EB800006EB001080B20CF073F8019831
:10320000401C019001980428EBD3BDE8FC9F276087
:10321000616098F8DC1109B1524C01E0514CE41F97
:10322000019010E001980023C0EBC0000219019842
:10323000F12100EB800006EB001080B20CF052F898
:103240000198401C019001980028EBD0DDE7276031
:10325000616098F8DC1109B1424C01E0414CE41F77
:10326000019010E001980023C0EBC0000219019802
:10327000F12100EB800006EB001080B20CF032F878
:103280000198401C019001980028EBD0BDE7276011
:1032900061600190304C0C3412E00198002300EB87
:1032A000400101EBC00002190198F12100EB800000
:1032B00006EB001080B20CF015F80198401C01904C
:1032C00001980428E9D3A0E72760616098F8DC1131
:1032D00009B1244C01E0234CE41F019010E0019857
:1032E0000023C0EBC00002190198F12100EB80001F
:1032F00006EB001080B20BF0F5FF0198401C019026
:1033000001980028EBD080E72760616098F8DC1115
:1033100009B1144C01E0134CE41F019010E0019836
:103320000023C0EBC00002190198F12100EB8000DE
:1033300006EB001080B20BF0D5FF0198401C019005
:1033400001980028EBD060E7D81100206639010809
:10335000340100207B0000206A3B01082056000059
:1033600038003100E33401082DE9FF5F00980021A7
:103370007E4C00226254491CC9B20929FAD348F292
:10338000E8012D27884206D900202754401CC0B2EE
:103390000628FAD305E09DF804100023052200F06A
:1033A0000FFEDFF8C881724EA8F10708D8F80700B1
:1033B000C6F80300B8F80B10A6F807106D4D686149
:1033C000298308F1100A6C499AF8050001EB800086
:1033D00001886983807828774FF0090B85F81DB044
:1033E0004FF0200984F80690644C61789DF806003F
:1033F00003292BD0617839B1D8B1012360A26C21A7
:1034000030200BF0BFFF1AE030B100235CA25C213A
:1034100020200BF0B7FF05E000235AA25C212020FA
:103420000BF0B0FF0023514A5C2140200BF0AAFFB3
:1034300020E0012353A26C2130200BF0A3FF0123D5
:103440004A4A6C2140200BF09DFF13E030B100236D
:103450004BA27C2140200BF045FF05E0002349A250
:103460007C2140200BF03EFF0023404A7C214A2073
:103470000BF038FF9DF80C1000230622029800F094
:103480009FFDD8F80710C6F80B10B8F80B00A6F887
:103490000F0098F80D20727445F81F1FA880AA71BC
:1034A0005620E87185F808B037A00088E8811F3DF4
:1034B00060789DF80E8003282FD0607848B1B8F16D
:1034C000000F1DD001232EA2A32130200BF05AFFA4
:1034D0001CE0B8F1000F06D0002329A29321202080
:1034E0000BF050FF05E0002326A2932120200BF0D3
:1034F00049FF00231D4A932140200BF043FF22E0A7
:10350000012320A2A32130200BF03CFF0123174A06
:10351000A32140200BF036FF15E0B8F1000F06D0D4
:10352000002317A2B32140200BF0DCFE05E00023AE
:1035300014A2B32140200BF0D5FE00230B4AB32187
:103540004A200BF0CFFEB8F1000F06D086F80A90A3
:1035500085F81E900BF0B6FE03E0B772AF770BF064
:10356000ABFE9AF805007072BDE8FF9F7B0000205B
:10357000481100205D1100206A3B0108D81100208D
:10358000200000002D0000000D0A0000054904483D
:1035900048601623AA220021084601F03BB800002B
:1035A0000352F3003401002038B50E4C25680E4953
:1035B000616001280FD04FF47F0102280FD02160F5
:1035C0000A48009018233022F1214FF4CA7001F00C
:1035D000AFFB256038BD4FF47F402060F0E72160ED
:1035E000EEE700003401002038003100EE930708B8
:1035F00070B500F043F81D4C6FF07F4525601C4806
:10360000606000231B4A042118460BF06BFE256006
:103610004FF0501060600024174D4FF6FF7604EB1A
:10362000840000EBC400421904EB840006EA401059
:1036300000231A210BF056FE641C032CEFD3002448
:103640000D4E1A25273604EB840000EBC4008219C6
:10365000601C00EB800005EB800081B2002318465F
:103660000BF040FE641C092CEDD370BD340100202A
:103670000352F3006C360108EA34010810B5FFF775
:1036800085FFBDE81040FEF727BC000010B5FEF72F
:1036900023FC0848064941606FF07F410160002328
:1036A000F121BDE8104004A254200BF01BBE000025
:1036B00038003100340100202056200010B5FEF7FC
:1036C0000BFC0B48094941606FF07F41016000230A
:1036D00008A2F12154200BF005FE0023F121BDE8E2
:1036E000104006A2A4200BF0FDBD00003800310000
:1036F00034010020206DA6B82020000020A6B820AC
:103700000000000000B58FB00EA9002002F0BAFB47
:103710000DA9002002F084FB9DF836309DF83A0098
:103720009DF839109DF83820CDE90210CDE900321E
:103730009DF835309DF837200BA105A80BF074FEDD
:1037400013494FF050104860002305AA0421FA20C5
:103750000BF0C8FD132205A90E48FCF743FD0D49E7
:103760000920C8740FB000BD323025302E32642DD0
:1037700025302E32642D25302E32642025302E3215
:10378000643A25302E32643A25302E32640000002F
:10379000340100205D11002010B54FF40054204684
:1037A00000F066F8002804D02046BDE8104000F084
:1037B00047B810BD10B5082000F05AF800281FD0F7
:1037C00010480DF0D8FB08210F4800F043FA90B9DB
:1037D0000E48002101700E480E4A012304781CB1E6
:1037E00001700F20107002E00370022010700A496F
:1037F0004FF400700860BDE81040082000F020B8C9
:1038000010BD0000A0860100001002406E000020E4
:103810004B0000204100002080E100E01CB54FF487
:103820000050009000208DF8040001208DF8070062
:103830006946024800F0C0F91CBD000000040240C7
:103840000149086070470000143C0140064900200F
:103850000860091D0860091D0860091D086002490B
:103860000248143108607047003C0140FFFF7F00B0
:1038700001460020024A12680A4200D00120704727
:10388000143C014030B51B4A83790168002B2AD0D3
:1038900013688B431360111D0B680468A3430B600E
:1038A000017911440B68046823430B60114C083400
:1038B0002168036899432160231D19680568A9439D
:1038C00019604179102905D011440A680068024343
:1038D0000A6030BD216802681143216019680068E0
:1038E0000143196030BD0079104402688A430260C8
:1038F00030BD0000003C01402DE9FF4101211020B6
:1039000002F05EF80121880302F0A0F801F019FD31
:103910000826029600248DF80C4001258DF80F50E2
:1039200002A9144800F048F90321042005F00EFA1A
:1039300000968DF804400C268DF805608DF8065031
:103940006846FFF79FFF6F03029702A90A4800F03D
:1039500033F90D21022005F0F9F900978DF80440A4
:103960008DF805608DF806506846FFF78BFFBDE8BF
:10397000FF810000001002400008024000224FF0CA
:10398000204310280AD0B0F5807F09D0B0F5805FC1
:1039900009D0D3F85801814309D107E0586EFAE7FE
:1039A000D3F88400F7E7D3F8A400F4E70122104627
:1039B00070470000D0E9001211438268C068521EAF
:1039C000520142EA40200143014801607047000073
:1039D000500100A070B50468A100A1F1C041D1F868
:1039E0004011CE0BF603D0E901121143D0E90323B5
:1039F0001A4311434269C36911438269056A11433D
:103A00001943426A2943114331434FF02046002CA9
:103A10003CD0D6F840416FF30E042B4322431343AE
:103A2000C6F8403102689200A2F1C042C2F84011CB
:103A3000016871B38900A1F1C041D1F8481101F0CA
:103A40007043816A0A684C68521E641E42EA04147C
:103A50008A68521E44EA02240A8A521E44EA02423A
:103A60001A43D6F8483103F07043CC68898A641E43
:103A70002403491E44EA01511943C6F8481100685D
:103A80008000A0F1C040C0F8482170BDC6F84011C8
:103A9000CEE7FFE7D6F8481101F07041806A02686E
:103AA0004368521E5B1E42EA03138268521E43EAB9
:103AB0000223C268521E43EA0233028A521E43EABC
:103AC0000243828A007E521E43EA0252401E42EAAC
:103AD00000600843C6F8480170BD000002490A684A
:103AE00042EA400008607047540100A02DE9FC47FD
:103AF000012140F2A71001F063FF2E200090022662
:103B00008DF8056001248DF8044000258DF80650DD
:103B10008DF80740244F6946384600F04DF80E21D5
:103B2000384600F0A0F820270097DFF8808069462B
:103B3000404600F041F82021404600F092F8402035
:103B40000090DFF86C906946484600F035F8009721
:103B50006946484600F030F82021484600F081F8D8
:103B60008DF804508DF807506003009069461148A5
:103B700000F022F801F0FCF9FCF7C8FF0BF07AFB2B
:103B800001F056FC01F06EFC102000908DF80560ED
:103B90008DF804408DF806508DF807406946404680
:103BA00000F00AF8BDE8FC8700080240001C024053
:103BB00000200240000402402DE9F04100220127CC
:103BC0004FF0030C07FA02F50B682B40AB422CD1E7
:103BD000066853000CFA03F4A64306600E79D0F889
:103BE00000809E4046EA080606600E79012E01D04C
:103BF000022E12D18668A64386604E79D0F80880DE
:103C00009E4046EA080686604668AE4346604568C0
:103C10008E799640B6B235434560C568A543C56008
:103C2000CC799C40C3681C43C460521C102AC9D381
:103C3000BDE8F08110B54B07DB0E9A40C90800EBD8
:103C40008100016A0F249C40A1430162016A114373
:103C5000016210BD0246002012690A4200D0012014
:103C6000704741837047018370470000034A203941
:103C700002EB01111022FCF7B5BA0000FE8D070817
:103C80002DE9F04788B004460F46002514218548E9
:103C9000FCF7C1FA834814211430FCF7BCFA824EB9
:103CA00000217170B1702046DFF8F8A1AAF1A30AD3
:103CB0009AF89E3006E01AF800202C2A00D105461A
:103CC000401CC0B28342F6D8DFF8D8914FF0010C07
:103CD0004FF00208EDB95FE01AF80420A2F13000BD
:103CE000092801D92E2A07D1707809F800202E2A38
:103CF00000D13071401C707086F805C06D2A02D06A
:103D00006B2A02D003E0717101E086F80580641C23
:103D1000E4B2AC42E0D36D1CEAB21DE01AF8020036
:103D2000A0F13004092C01D92E2808D15D4DB478BA
:103D3000143528552E2800D1B471641CB47086F84F
:103D400007C06D2802D06B2802D003E0F17101E0BA
:103D500086F80780521CD2B29342DFD81EE01AF8D0
:103D60000400A0F13002092A01D92E2807D1727867
:103D700009F802002E2800D13271521C727086F8A8
:103D800005C06D2802D06B2802D003E0717101E0FC
:103D900086F80580641CE4B2A342E0D8434C97B394
:103DA000012F45D0022F57D0032F29D101A804F0AD
:103DB0004DFA9DF8040004F8240F029860600398FF
:103DC000A0600498E06005982061069860610798FB
:103DD000A06101A804F0BEFA9DF8040084F8740004
:103DE0000298A0670398E0670498C4F880000598DB
:103DF000C4F884000698C4F888000798C4F88C00BA
:103E000008B0BDE8F087FFE701A804F01FFA9DF8AD
:103E1000040004F87C0F029860600398A060049886
:103E2000E06005982061069860610798A061E7E767
:103E300001A804F0FBF89DF8040084F844000298FF
:103E4000A0640398E064049820650598606506986E
:103E5000A0650798E065D3E701A804F0E7F89DF8AE
:103E6000040020710298A0600398E060049820612B
:103E7000059860610698A0610798E06101A804F0C8
:103E80005DF99DF8040084F860000298606603986C
:103E9000A0660498E0660598206706986067079812
:103EA000A067ADE79702002024000020D811002071
:103EB0000349085C002801D00020704701207047AA
:103EC0004F0000204069806880B27047D0F8CC0075
:103ED0000068C0F341407047084490F89B03704766
:103EE00000EB8100D0F85003704710B50446002263
:103EF0000023C4F8103304EB8200C0F81433C0F878
:103F00005033A01880F88C33521CD2B20F2AF2D34F
:103F10000820A4F8B203204609F024FB204609F04B
:103F2000B3F8204608F0D4FF0121204609F07CFBBD
:103F3000204609F021F8204609F0E0F8002010BDE5
:103F4000D0F81003704710B509F0F5FA002010BD45
:103F50000022431883F89B2300EB4113C3F8C023CE
:103F600009F022BA2DE9F0410546134F4FF480764F
:103F700031463846FFF775FE00244FF48058280676
:103F800004D541463846FFF76EFE03E04146384609
:103F9000FFF767FE31463846FFF765FE0BF02EFA55
:103FA00031463846FFF75DFE6806050E641CE4B234
:103FB000082CE4D3BDE8F08100080240FEE70000D1
:103FC0002DE9F041082A00D9082202B90122072967
:103FD00000D90721914200D911460024224E202702
:103FE0003755641CE4B2082CFAD314460A250DE0B8
:103FF000B0FBF5FC05FB1C0C06EB04080CF1300CC7
:1040000008F801CCB0FBF5F0641EE4B2002CEFD14F
:1040100069B110460C4605E0351815F8015C3554B9
:10402000401EC0B2641EE4B2F6D22E24345473B9DA
:104030000020531E09E0345C302C08D13418647819
:104040002E2C04D03754401CC0B29842F3DB09B187
:10405000521CD2B2002002E0B054521CD2B2082A44
:10406000FAD3BDE8F08100007B00002006494FF440
:104070000970002201E001F8012B401E80B2FAD243
:104080000248027070470000D81100204000002054
:1040900070B505462DED048B0C466068DFED340AE3
:1040A00000EE100AB8EE400A20EE209AA068C0F197
:1040B0000700FCF7B6F941EC110B9FED2E0B0BF04E
:1040C000DFF9B0EE408AF0EE608A19EE100AFCF7D4
:1040D000B5F953EC182BFCF735F9FCF7C2F900EEF3
:1040E000100A264910EE100A884201DD9FED240ACD
:1040F000244910EE100A88420BDB0320A060DFED9C
:10410000220A80EE201AFCEEC10A10EE900A6060CE
:1041100017E010EE100A1D4988420BDB0420A06056
:10412000F2EE040A80EE201AFCEEC10A10EE900AAC
:10413000606006E00520A060FCEEC00A10EE900A68
:104140006060BCEEC00A10EE100AA06120782870F2
:1041500060686860A068A860E068E860206928611D
:1041600060696861A069A861BDEC048B70BD000046
:10417000002474490000000000002440001BB74ADE
:10418000001BB74A8096184B0000C84200247449AF
:104190000FB40299032902D1039901B900200299B1
:1041A000022902D1039901B901200299042903D1FE
:1041B0000399012900D102200299032903D103990F
:1041C000012900D103200299022903D10399012971
:1041D00000D104200299042903D10399022900D1B6
:1041E00005200299032903D10399022900D1062051
:1041F00004B070470FB40298032806D1019804490F
:10420000884202D9012004B070470020FBE700007B
:10421000C0D401002DE9F04137285DD172B62F4C92
:1042200065682F4E0021304605F073FAB704384612
:1042300005F07CFA0021384605F06BFA304605F0AF
:1042400075FA00220121304605F052FB002130466C
:1042500005F05FFA234E304607F086F9002240F25F
:104260002551304607F007FA0021304607F070F973
:1042700001F008FC002001F0C7FCFFF7E7FA4FF05F
:10428000E0200026066101F045FD0021381401F010
:104290001FFE002001F0D2FFFDF704F81249134879
:1042A00007F042FB72B6432001F05EF82A2001F0CD
:1042B0005BF84D2001F058F84C2001F055F872B62B
:1042C000206880F3098886F31488206880F30888C2
:1042D000AC46BDE8F0416047BDE8F08100000C0845
:1042E0000010004000480040A03B0020F4350020B2
:1042F0002DE9F05FFF250020FFF734FEDFF8CCA0AA
:104300004FF4006949465046FFF7A4FCDFF8C0802F
:104310004FF4806B00B359464046FFF79BFCE8B171
:1043200049464046FFF796FCD0B104212948FFF7E3
:1043300091FCB8B10426042E40D20024264F385DEB
:10434000FFF710FE0BF05AF876B1012E13D0022EB3
:1043500018D0032E23D11CE00026ECE70126EAE763
:104360000226E8E70326E6E749465046FFF772FCD7
:10437000A8B9254613E059464046FFF76BFC70B9D3
:1043800025460CE049464046FFF764FC38B925460F
:1043900005E004210F48FFF75DFC00B92546FF2D1D
:1043A00003D1641CE4B2082CC9D3FF2D04D005EB63
:1043B000C600C0B2BDE8F09F0020FBE74FF40051FB
:1043C0000448FFF747FC0020F4E70000002002400B
:1043D00000080240000C0240CF38070810B5064C18
:1043E0006078002805D00020607000F055F8207833
:1043F00010BD002010BD00001C01002010B50146BA
:10440000002004F031FD064C0020FFF751FD10B9EB
:1044100060780028F8D0BDE81040FFF7DFBF00004B
:104420001C01002070B5FFF763FF1A4C0023012523
:10443000E21CD0B12178814228D16178652901D26E
:10444000491C6170617864291BD00DD9107095707A
:10445000A07800F10100C0B2A0700E2804D9A370AA
:104460005078002800D1557070BD207828B161784F
:10447000091F602901D2107055702370637093700A
:1044800070BDA37010705570957070BD2070637012
:1044900070BD00001901002010B5FCF715FB4FF4AA
:1044A0007A700CF068FDBDE81040FCF707BB000017
:1044B0007CB501214FF4867001F082FA4FF49850D8
:1044C000009002208DF8050001208DF804000024E2
:1044D0008DF806408DF80700134D69462846FFF712
:1044E0006BFB69152846FFF7BEFB4FF44061009156
:1044F0008DF8044069462846FFF75EFBE8140090FB
:1045000069460A48FFF758FB0420009069460848AE
:10451000FFF752FB0748047044708470C01E04709B
:10452000447084707CBD00000008024000200240FE
:10453000000C02401C01002010B500231C4C246814
:10454000002C06D0012C0DD0022C17D0032C1ED02D
:1045500023E000EB4003C1EB011000EB400003EB54
:1045600040131AE0A1F20F11C0F5F070A1EB011198
:1045700000EB4110401E00EB40030EE0A0F20F10D4
:10458000A0EB001001EB401000EB400305E000EB56
:104590000010C1EB001303F20F130648834205D24B
:1045A00005488068C2521844110C817010BD00008B
:1045B0006800002000FA05002001002070B58AB0D4
:1045C000C0F30744C0F30725C6B2FCF773FC4FF4F1
:1045D00040300090012001900494039502960F2032
:1045E00005900B4880680690002007904FF4887073
:1045F00008904FF4F07009906846FCF771FCFCF7E6
:10460000CBFC0220FCF762FC0028FAD00AB070BD97
:10461000200100202DE9F04F8BB03B4C6468C4F3BF
:10462000074704F0FF09C4F30728384CDFF8D8A087
:10463000C2F5F076AAF1140A2568DAF80840002DD0
:1046400037D0C3F5887C012D3ED0022D4CD000EB35
:104650000010C3EB0010401A00F5887000EB40001A
:1046600005191FFA8CF614469B46FCF723FC4FF401
:104670004030019001200290CDF81080CDF80C90D0
:104680000597FF200690079508960994CDF828B065
:1046900001A8FCF725FCFCF77FFC0220FCF716FCC8
:1046A0000028FAD0DAF8000000F0B4FA0BB0BDE848
:1046B000F08FC1EB011100EB411000EB4000051938
:1046C000B6B21C469346D0E7ACEB0101C1EB011139
:1046D000C0EB4110801A00F5F07000EB40000519A6
:1046E000B6B21C469346C0E7C0F58870801AC0EB8E
:1046F000001001EB401000EB40000519C3F5F0700D
:1047000086B214469B46B0E73401002068000020C2
:104710002DE9F0438BB09046994600242E4A156847
:10472000002D0CD0C1EB011200EB42162B4A012DDB
:1047300097680DD0022D11D0032D18D01AE000EB90
:104740004002C1EB011000EB400002EB401411E00D
:10475000A6EB86002249384444180BE0A0F20F1063
:10476000A0EB001001EB401000EB400402E006EB70
:104770004600C419194814300068C0F30745C6B292
:10478000C0F30727FCF796FB4FF44030019001205F
:1047900002900497039605950F2106910794B9F1AD
:1047A000000F12D040F2DF110891CDF824800A905A
:1047B00001A8FCF795FBFCF7EFFB0220FCF786FB5A
:1047C0000028FAD00BB0BDE8F083002108910990D1
:1047D000CDF82880ECE700006800002020010020D0
:1047E00000FA05002DE9FC5F012140F2FF1001F005
:1047F000E7F84FF00408CDF8008003208DF805009D
:1048000002208DF8040000208DF806008DF80700C6
:104810006946AB48FFF7D0F90E220221A848FFF7FE
:1048200009FA4FF00809CDF800906946A448FFF74F
:10483000C3F90E220321A248FFF7FCF94FF4807A56
:10484000CDF800A069469E48FFF7B6F90E22082170
:104850009B48FFF7EFF90124009469469948FFF758
:10486000ABF9092200219748FFF7E4F94FF4006BF8
:10487000CDF800B069469448FFF79EF90E220B214F
:104880009148FFF7D7F92003009069468E48FFF75B
:1048900093F90E220C218C48FFF7CCF902200090EE
:1048A00069468848FFF788F9092201218548FFF702
:1048B000C1F94025009569468448FFF77DF90E222D
:1048C00006218248FFF7B6F920200090694680480B
:1048D000FFF772F90E2205217D48FFF7ABF900952D
:1048E00069467B48FFF768F90E2206217848FFF7F2
:1048F000A1F96003009069467148FFF75DF90E2247
:104900000D216F48FFF796F9A602009669466F4899
:10491000FFF752F909220A216C48FFF78BF9E003EF
:10492000009069466648FFF747F90E220F21644858
:10493000FFF780F9009469466648FFF73DF90E22BB
:1049400000216448FFF776F980270097694662489E
:10495000FFF732F90E2207215F48FFF76BF9CDF818
:10496000008069465B48FFF727F90E22022159486B
:10497000FFF760F94FF01008CDF800806946544801
:10498000FFF71AF90E2204215148FFF753F92003CB
:10499000009069464D48FFF70FF90E220C214B4855
:1049A000FFF748F900954D4D69462846FFF704F991
:1049B0000E2206212846FFF73DF9CDF800B06946E2
:1049C0004248FFF7F9F80E220B214048FFF732F971
:1049D000CDF8008069463F48FFF7EEF80E2204212B
:1049E0003C48FFF727F9CDF8009069463648FFF7B5
:1049F000E3F80E2203213448FFF71CF9CDF800A09C
:104A000069463048FFF7D8F80E2208212D48FFF7F5
:104A100011F94FF40079CDF8009069462948FFF765
:104A2000CBF80E2209212748FFF704F900976946C1
:104A30002648FFF7C1F80E2207212448FFF7FAF8AD
:104A4000009669462348FFF7B7F80E220A2121484D
:104A5000FFF7F0F8CDF8009069461E48FFF7ACF874
:104A60000E2209211B48FFF7E5F800961C4E694607
:104A70003046FFF7A1F80E220A213046FFF7DAF898
:104A8000CDF8008002208DF805008DF8044000204C
:104A90008DF806008DF8074069462846FFF78CF828
:104AA000009769462846FFF787F810212846FFF748
:104AB000DAF880212846FFF7D6F8BDE8FC9F000011
:104AC000001C0240000402400000024000180240A6
:104AD000001002400020024000080240000C02408A
:104AE0000014024000B58FB00121880600F0AEFF2F
:104AF0000121C80500F064FFFFF774FE03F072FEA9
:104B0000062207214FF4967001F074F84FF48030BC
:104B100001F060F8012001F067F83D2001F02EF867
:104B20000028FAD0002000900190029003900C9091
:104B30000D900E90049005902E200690172007905F
:104B400040F20E20089040F2271009904FF40970AF
:104B50000A9040F23D100B90684600F037F90120B2
:104B600000F024F90FB000BD10B590B02F200090D8
:104B700040F20E2001901820029040F2271003907E
:104B800001200490FF20059006900790089009905E
:104B900007200B9040F2A3500D90C01E0E904FF4D2
:104BA00088700F900C480C904FF4C0600A900B4C2A
:104BB0006946204600F06CF9012000F0B5F90121AA
:104BC000204600F059F9012000F0AEF9044800F049
:104BD00009F810B010BD000000FA05D004690140CA
:104BE0003C010020014908617047000020010020BD
:104BF0000649002804D0064888600120C860704734
:104C00004FF0504088600020C860704720010020AD
:104C100000FA05D00149086070470000200100201B
:104C200010B50949C968002908D00146074800F0B5
:104C300021F9BDE81040012000F076B90146034893
:104C4000803800F017F9F4E72001002004690140E2
:104C50002DE9F04F044688462546334902EB021001
:104C6000DFF8C8A001EB4009002B0FD0002709EBAB
:104C7000070090F802B000265FEA0B6035D5414688
:104C80002046DAF80020FFF757FC34E04FF0000B25
:104C900009EB0B0087780026380606D541462046EA
:104CA000DAF80020FFF748FC05E041462046DAF834
:104CB0000420FFF741FC7806070E641CA4B2601BB9
:104CC00010280CD0761CF6B2082EE5D30BF1010BA0
:104CD0000BF0FF0BBBF1200FDAD3BDE8F08F2C46B1
:104CE00008F101081FFA88F8F0E741462046DAF893
:104CF0000420FFF721FC4FEA4B604FEA106B641C65
:104D0000A4B2601B102808D0761CF6B2082EB3D3CC
:104D10007F1CFFB2202FAAD3DFE72C4608F1010841
:104D20001FFA88F8F4E70000D7380708340100209C
:104D30002DE9F84F04468B469246A04600270AFB11
:104D400003F0C11700EB5170DFF85C90009025E094
:104D50000A98C65D0025300606D559462046D9F882
:104D60000020FFF7E9FB05E059462046D9F804206A
:104D7000FFF7E2FB7006060E641CA4B2A4EB080069
:104D8000504505D144460BF1010B1FFA8BFB03E0A4
:104D90006D1CEDB2082DDED37F1CBFB20098B7EBBF
:104DA000E00FD5DBBDE8F88F34010020064900286C
:104DB00004D0086840F0010008607047086820F0DF
:104DC00001000860704700001868014030B5264AAD
:104DD000136826490B401360038A1B041468456955
:104DE0002C431C431460121D13680B401360038B8B
:104DF0001B041468C5692C431C431460121D1368FE
:104E00000B401360038C1B041468456A2C431C433D
:104E10001460121D13680B401360018D09041368A0
:104E2000C46A23430B431360111D0A68104B1A40D8
:104E30000A60D0E900231A43D0E9023423431A431D
:104E40000B681A430A60416B0A02018E0B04064983
:104E500024310C6804F07F440C600C68806B1343B1
:104E600004431C430C6030BD0868014000F800F0AA
:104E70008F88FE0F41617047002904D0016841F01E
:104E8000010101607047016821F001010160704774
:104E900070B58A881204436803F4704343600B685A
:104EA000134343608A891204836803F47043836068
:104EB0008B6813438360026922F0070202610A696A
:104EC0000261CA6913020A8C120491F82440240674
:104ED0008569002585618E6922431E4316438661DC
:104EE000426922F0FF0242614A694261C26940F2AE
:104EF00007739A43C261D1E90A231A43C261826AE5
:104F000085620A6B82620A8F1204C36A03F0E0238F
:104F1000C3624B6B1343C362026B6FF30A020263FB
:104F2000C96B016370BD0000014908607047000053
:104F30002468014010B54FF480610948FEF793FEE4
:104F40004FF400510748FEF78EFE04210648FEF795
:104F500088FEBDE8104001210448FEF782BE000033
:104F6000001C024000080240001002400000024005
:104F70007CB50121BF2000F023FD04200090002417
:104F80008DF8054001258DF804508DF806408DF808
:104F9000075069460C48FEF70FFE4FF4B8400090EA
:104FA00069460A48FEF708FE8DF805408DF8045062
:104FB0008DF806408DF80750082000906946044897
:104FC000FEF7FAFD7CBD000000100240001C02400C
:104FD000000C024010B504210948FEF744FE0121EF
:104FE0000848FEF740FE4FF480610748FEF739FE9F
:104FF000BDE810404FF400510448FEF732BE0000F7
:105000000010024000000240001C02400008024064
:105010004FF400610148FEF724BE0000001C02406E
:105020004FF400610148FEF71EBE0000001C024064
:105030002DE9F04790B0304D002085F8A10095F89B
:105040009E004FF003094FF0020AE846082802D0FC
:1050500085F8A1901DE0A81CFBF7E2FC0746281D7F
:10506000FBF7DEFC4FF6FF7101EA4006202E02D965
:1050700085F8A1900DE0002409E008EB44013846D2
:1050800000F0ACF8A8B17F1CBFB2641CA4B2B4425B
:10509000F3D395F8A10000282BD12878A8771649DA
:1050A0006878C877700085F8A29081F82000002108
:1050B00017E085F8A1A0ECE795F8A20018F81130E8
:1050C000421C284485F8A220837708EB41004378EE
:1050D00095F8A200421C284485F8A2208377491C39
:1050E00089B2B142E8D3044895F8A2101E3000F00E
:1050F000F7F810B0BDE8F087F401002010B51D4AA4
:10510000002382F8A13092F89E00082803D00320E3
:1051100082F8A10010BD901CFBF782FC0446101D14
:10512000FBF77EFC0E2CF5D11349C0B101224031B2
:105130004A70401E087009781048017010490978BB
:10514000007801F0E1F90F48017806290CD00078C9
:105150001228DFD1BDE810400720FCF7B3B80620C5
:1051600001F8400F4B70EEE7BDE810400420FDF75A
:1051700007BF0000F4010020D811002044000020E7
:10518000450000204100002010B5104C104A94F852
:105190009E001060082801D1092111600D49536853
:1051A00009688B4211D051600B4A117809B1491E30
:1051B00011701178002908D1002806D0032801D3E6
:1051C00001F01CFA002084F89E0010BDF4010020BC
:1051D000480100202C000020240000202DE9F0418F
:1051E0003A4A92F800C03A4A00260127126802EBB8
:1051F00082035D00642302FB03F4364BBCF1070F0E
:105200001AD2DFE80CF004070A0D101316001A6119
:10521000DE6011E01D61DE600EE01C61DE600BE00F
:105220001A61DF6008E01D61DF6005E01C61DF607E
:1052300002E01A610222DA60274A14685C61274C96
:105240002478012C02D1A41E1C615C6113283BD27E
:10525000DFE800F00A0D101316181B1D1F2123256F
:1052600027292B2D2F3133001869000C26E0188ACE
:1052700080B223E05869000C20E0988A80B21DE0DB
:1052800090791BE0988980B218E0002016E0002099
:1052900014E0002012E0002010E000200EE00020CA
:1052A0000CE000200AE0002008E0002006E00020DA
:1052B00004E0002002E0002000E00020020A0A7062
:1052C00048700120BDE8F0810020FBE74400002089
:1052D00084000020240000208C0000206C000020AE
:1052E00030B5A1B005460C462246294601A8FAF77A
:1052F00079FF21462846FBF72FFC050A224601AB21
:10530000641CE1B29D544A1CD2B25854114601A803
:105310000DF0B6FF21B030BDFEE7704708B54FF481
:10532000A06000F06BF827208DF8000001208DF8B8
:1053300001008DF802008DF80300684600F02AF89D
:1053400008BD08B54FF4C06000F058F809208DF88A
:10535000000001208DF801008DF802008DF8030097
:10536000684600F017F808BD00F01F0201219140C7
:105370004009800000F1E020C0F88011704700F083
:105380001F02012191404009800000F1E020C0F897
:105390000011704730B50F23C27801250178002A2B
:1053A0001FD0154A126802F4E062C2F5E062C2F34F
:1053B0000722C2F10404D3404278A24084781C4002
:1053C0001443220101F1E02181F80024007800F06B
:1053D0001F018D404009800000F1E020C0F800511D
:1053E00030BD01F01F0085404809800000F1E02039
:1053F000C0F8805130BD00000CED00E002490843C8
:1054000002490860704700000000FA050CED00E05A
:10541000024A1140014302480160704780FFFF1FAC
:1054200008ED00E0014807F04FBA0000F435002015
:105430001CB50121084600F0C3FA4020009002206C
:105440008DF8050000208DF804008DF8060001207D
:105450008DF8070069460248FEF7AEFB1CBD000050
:10546000000002407CB50121CD2000F0A9FA1020F7
:10547000009000248DF8054001258DF804508DF82A
:1054800006408DF8075069460D48FEF795FB0095DC
:1054900069460C48FEF790FB6D03009569460A4883
:1054A000FEF78AFB8DF80440009569460748FEF731
:1054B00083FB2811009069460548FEF77DFB7CBD03
:1054C000001C02400000024000080240000C0240A4
:1054D00000180240014908627047000000000E42B7
:1054E000F0B5834B93F822020021012801D983F8FB
:1054F00022121878032800D919705878032800D987
:1055000059709878012800D99970DA6A0320052A21
:1055100000D9D8629D6A774C774AA54200D99A6231
:105520001D6B052D00D9196393F840500A2D01D940
:1055300083F8401093F841500A2D01D983F84110A7
:1055400093F84250032D01D983F8421093F820506C
:10555000012D01D983F8201093F8B450012D01D901
:1055600083F8B410DD6C052D00D9D8649E6C42F62A
:10557000E065A64200D99D641E6D052E00D919650F
:105580009E6E052E00D998665E6E964200D95D66C5
:10559000DE6E052E00D9D966DE68052E00D9D860EA
:1055A0009E68964200D99D601D69052D00D919613C
:1055B000D3F88450052D01D9C3F88400D3F8805066
:1055C000A54201D9C3F88020D3F88850052D01D910
:1055D000C3F88810D3F8A050052D01D9C3F8A00056
:1055E000D3F89C00A04201D9C3F89C20D3F8A400B2
:1055F000052801D9C3F8A41093F8D9010A2801D9C4
:1056000083F8D91193F8DC01012801D983F8DC1162
:1056100093F8DB01012801D983F8DB1193F8D80155
:10562000012801D983F8D81193F8DA01012801D9AA
:1056300083F8DA1100201A1892F8DD41802C01D984
:1056400082F8DD11401CC0B21428F4D300203024AD
:105650001A1892F81852802D06D9082802D282F81A
:10566000184201E082F81812401CC0B20A28EFD399
:105670000020224C224D234A9FED230A03EBC00158
:10568000D1F8BC602644AE4203D3F7EE000AC1ED68
:105690002F0AD1F8B86052F83070BE4206D8D1F85F
:1056A000B86002EBC0077F68BE4205D2154E48368F
:1056B00056F82060C1F8B860062809D203EB8001D3
:1056C000124FD1F8F461BE420CDD81ED7D0A09E094
:1056D000811F03EB81010E4FD1F81062BE4201DD44
:1056E00081ED840A401CC0B20828C7D3F0BD000079
:1056F000D8110020804F1200C0D40100CDCCCCC006
:105700003433730094000020000000000050C347B1
:105710000024F448704710B505F0DEFEBDE81040E7
:1057200000F01CB910B505F0C7FEBDE8104000F050
:105730000FB900002DE9FE4379480024047005F0FC
:10574000CBFE00F095FA0021042000F0C9FCFEF722
:10575000CDF9002000F006FCA0F54851F23902D046
:1057600000F0F5FC08E00121080700F053F90120E2
:10577000FFF7B0FE00F028FD03F0BEFE4FF47A7094
:105780000BF0F9FBFEF794FEFFF7ACF9FFF7ECF92D
:105790000120FFF70BFB0020FFF72AFA4FF47F00F0
:1057A000FEF70CFF0120FFF723FAFF20FFF738FA7E
:1057B0004FF050184046FEF701FF03F041F9FEF7A5
:1057C00055FC00F013FFFFF78BFE564F97F8D901F9
:1057D00080B197F8D901012811D097F8D901022892
:1057E00012D097F8D901032813D097F8D9010428CB
:1057F00014D017E04FF49650FBF732FC12E04FF450
:105800001650FBF72DFC0DE04FF46150FBF728FC20
:1058100008E04FF49640FBF723FC03E04FF4E1303F
:10582000FBF71EFC97F82202012802D13E480CF03B
:1058300097FF03F0FDFE3D480470FDF7EFFF0024E5
:105840003B48012505703B4806260670002100787C
:1058500000F05AFE3848057038480090384B394AF5
:105860000021394806F012FB3649374807F090F915
:10587000364D4FE0641CA4B2142C03D997F82202D1
:10588000012813D02E700220FEF7B8FD12282DD06B
:105890000EDC12283ED2DFE800F03D203D263D3DE3
:1058A0003D3D3D1D38233D3D3D3D3D1A2E70EAE70F
:1058B0001B282FDAA0F1130008282BD2DFE800F014
:1058C0002A2A2A2A2A2A042805F0EEFD22E005F0D9
:1058D000E3FD1FE0FFF7A4FB1CE0FFF799FB19E0D5
:1058E00005F0FAFD16E005F0E7FD13E04046FEF78F
:1058F00065FEB420ADF804007820ADF80600ADF8E0
:10590000080001A80CF0CCFD04E0FFF763FB01E008
:10591000FFF710FB28780228ACD0BDE8FE8300001A
:105920006E000020D8110020CF3E01084300002067
:105930006C000020440000206D0000205C0100206D
:10594000D8010020A03B0020F435002041000020B9
:1059500020210148FEF785B90008024020210148B6
:10596000FEF781B9000802402DE9FF5F894607462E
:1059700011469B466846FEF779F90025EA461AF873
:105980000580002409EB0506C4F1070028FA00F0A1
:10599000C00706D03819B1B280B25A46FEF7CCFD26
:1059A00005E03819B1B280B20E9AFEF7C5FD641C4D
:1059B000082CE9D36D1C102DE1D3BDE8FF9F00003A
:1059C000054A002903D0116801431160704711682E
:1059D000814311607047000030380240054A0029B9
:1059E00003D0116801431160704711688143116051
:1059F0007047000010380240054A002903D01168A2
:105A000001431160704711688143116070470000C5
:105A100038380240054A002903D01168014311605B
:105A200070471168814311607047000040380240A0
:105A3000054A002903D011680143116070471168BD
:105A4000814311607047000020380240054A002958
:105A500003D01168014311607047116881431160E0
:105A60007047000044380240054A002903D01168FD
:105A70000143116070471168814311607047000055
:105A8000243802401048016841F0010101600E4ACB
:105A900000210832116002680C4B1A400260031D9D
:105AA0000B4A1A60084B0B4A84331A60084A103AB2
:105AB0001B1D1A60026822F48022026002480C302A
:105AC0000160181D0160704700380240FFFFF6EAD0
:105AD000103000240030002070B5244B196801F00C
