:020000040800F2
:1000000080820020C101000853520008F53E00081C
:1000100051520008090B000889E3000800000000A5
:10002000000000000000000000000000758C0008C7
:10003000AD0F0008000000004156000803940008BE
:10004000DB010008DB010008DB010008C9600008D3
:10005000DB010008DB010008DB010008DB01000810
:10006000DB010008ED360008DB010008DB010008B9
:10007000DB010008DB010008DB010008DB010008F0
:10008000DB010008DB010008DB010008DB010008E0
:10009000DB010008DB010008DB010008DB010008D0
:1000A000DB010008DB010008DB010008DB010008C0
:1000B0003D950008DB010008DB010008DB010008BA
:1000C000DB010008DB010008DB010008DB010008A0
:1000D000DB010008DB010008DB0100089DB300081C
:1000E000D1360008DB010008DB010008DB01000855
:1000F000DB010008DB010008DB010008DB01000870
:10010000DB010008DB010008DB010008DB0100085F
:10011000DB010008DB01000851950008DB01000845
:10012000DB010008DB010008DB010008DB0100083F
:10013000DB010008DB010008DB010008DB0100082F
:10014000DB010008DB010008DB010008DB0100081F
:10015000DB010008DB010008DB010008DB0100080F
:10016000DB010008DB010008DB010008DB010008FF
:10017000DB0100085D530008DB010008DB0100081B
:10018000DB010008DB010008DB010008DB010008DF
:10019000DB010008DB010008DB010008DB010008CF
:1001A000DB010008DB010008DB010008DFF80CD0F0
:1001B00000F04EFB004800475126010880820020D5
:1001C0000648804706480047FEE7FEE7FEE7FEE7F1
:1001D000FEE7FEE7FEE7FEE7FEE7FEE7E194000844
:1001E000AD01000840EA01039B0703D009E008C9FC
:1001F000121F08C0042AFAD203E011F8013B00F8EC
:10020000013B521EF9D27047D2B201E000F8012B37
:10021000491EFBD270470022F6E710B513460A4686
:1002200004461946FFF7F0FF204610BD421E12F8A3
:10023000013F002BFBD111F8013B02F8013B002BE1
:10024000F9D1704710B5002200E0521C835C8C5C31
:10025000A34201D1002BF8D1D8B2E1B2401A10BDAF
:100260002DE9FE4F81EA030404F0004421F000412F
:1002700000944FF0000B23F0004350EA01045ED0DD
:1002800052EA03045BD0C3F30A54C1F30A552C4469
:10029000A4F2F3340194A0FB0254C1F3130141F41E
:1002A0008011C3F3130343F4801301FB024400FBEA
:1002B000034E840A970A44EA815447EA8357A4FB11
:1002C000076802958D0A05FB07854FEA932C04FB0E
:1002D0000C542705029D4FEA065847EA1637B5EB3E
:1002E00008056EEB070C870E920E47EA811742EA6B
:1002F0008312A7FB0201B6EB0B0164EB00042B0D8C
:1003000043EA0C335E1844EB1C50DA465146E7FBD7
:100310000201C5F313044FEA0B3343EA14534FEAC7
:100320000432019C43EA0603A4F10C040294009CED
:10033000CDE900B400F03EF903B0BDE8F08F002035
:100340000146F9E72DE9F04D81EA030404F0004B82
:1003500021F0004514464FF0000A23F0004150EA16
:10036000050220D054EA01021DD0C5F30A57024607
:10037000C5F31303C1F31300C1F30A5640F480150B
:1003800043F48013A7EB0608101BD64608F2FD388D
:1003900073EB050002D308F1010801E092185B41FC
:1003A000B8F1000F03DA00200146BDE8F08D00200F
:1003B0004FF48011064684460EE0171B73EB0507C9
:1003C00005D3121B63EB050306434CEA010C4908F5
:1003D0004FEA300092185B4150EA0107EDD152EA32
:1003E000030012D082EA040083EA0501084305D025
:1003F000101BAB4106D20122002306E000224FF081
:10040000004302E06FF0010253101AEB06004CEBC0
:10041000085110EB0A0041EB0B01BDE8F04D00F074
:10042000BAB80EB540F2334102910021CDE9001176
:100430000A460B4600F0BEF803B000BD00F00042D3
:1004400030F000400AD0C10D01F56071C0F3160014
:1004500042EA0151C208400711437047002001469B
:10046000704701F0004330B421F0004150EA01022E
:1004700006D00A0DA2F56072C1F31301002A02DC56
:1004800030BC00207047440F44EAC104C100E018AA
:1004900030BC00EBC25000F047B830B50B46014607
:1004A00000202022012409E021FA02F59D4205D313
:1004B00003FA02F5491B04FA02F52844151EA2F1BD
:1004C0000102F1DC30BD2DE9F05F054600209246C7
:1004D0009B4688460646814640241BE02846414606
:1004E0004746224600F0D5F953465A46C01A914174
:1004F00010D311461846224600F0BCF92D1A67EBBE
:1005000001084F4622460120002100F0B3F917EB05
:1005100000094E41201EA4F10104DFDC48463146AB
:100520002A464346BDE8F09F0029A8BF7047401CFB
:10053000490008BF20F00100704710B4B0FA80FCF9
:1005400000FA0CF050EA010404BF10BC704749B136
:10055000CCF1200421FA04F411FA0CF118BF0121A6
:1005600021430843A3EB0C01CB1D4FEA00614FEA86
:10057000102042BF002010BC704700EBC350104455
:100580000029A4BF10BC7047401C490008BF20F0E0
:10059000010010BC704710B5141E73F1000408DA96
:1005A000401C41F1000192185B411A4301D120F037
:1005B000010010BD2DE9F04D92469B4611B1B1FAF4
:1005C00081F202E0B0FA80F22032904600F052F957
:1005D00004460F4640EA0A0041EA0B0153465A46D8
:1005E000084313D0114653EA010019D0C8F1400264
:1005F000504600F04EF905460E46504659464246D2
:1006000000F038F9084305D0012004E020463946BF
:10061000BDE8F08D0020054346EAE0762C433743E1
:100620000A986305E40AA0EB08000022FD0A44EAE8
:1006300047540A3002D500200146E9E701051019A8
:100640006941DDE9084500196941BDE8F04DA2E7BF
:100650002DE9FE4F804681EA0300C00F0C46009052
:1006600021F0004123F00045B8EB0200A94105D27A
:100670004046214690461C460B46024623F0004069
:10068000104347D0270DC7F30A00C3F30A51029065
:10069000401A019040286BDAC3F3130040F4801B2A
:1006A0000098924620B10023D2EB030A63EB0B0BB8
:1006B00001985946C0F14002504600F0DBF806466A
:1006C0000D4650465946019A00F0F3F810EB080029
:1006D0006141002487EA115284EAE7731A4340D04B
:1006E000009A62B3019A012A4FEA075215DC001BF7
:1006F00061EB02014FF0004202EA0752CDE90042ED
:10070000001C41F5801132462B46FFF753FF03B022
:10071000BDE8F08F40462146F9E7001B61EB02017E
:10072000001C41F5801300185B412018A2F500174A
:1007300047EB030140EAD570B6196D4111E06D0831
:100740004FEA360645EAC0754FEA0752001B61EBD7
:100750000201001C41F5801149084FEA30000019E0
:10076000514132462B4603B0BDE8F04FFFF713BFAF
:100770000098012240000023D0EB020263EBE073FB
:10078000009821464FEAE074B8EB000061EB0401E9
:10079000E9E783F000435BE781F0004158E770B57B
:1007A00021F0004303430CD0C1F30A550024D5EBDC
:1007B000040564EB0403D617AD1AB34102DB002035
:1007C000014670BD201841EB025170BD0EB5C10F3E
:1007D00080EAE0700844CA07002140F233438DE804
:1007E0000E000A460B46FFF7E5FE03B000BDC1F35D
:1007F0000A52C1F3130140F2FF3341F480119A42CF
:1008000002DA00200146704740F233439A42A2F2D6
:10081000334202DC524200F03CB800F02BB800003A
:1008200030B5041E71F1000404DB4FF00044404277
:1008300064EB0101141E73F1000405DB1C464FF04C
:100840000043524263EB0403994208BF904230BD1B
:10085000064C074D06E0E06840F0010394E807000D
:1008600098471034AC42F6D3FFF7A4FC40400A0886
:1008700060400A08202A04DB203A00FA02F1002036
:1008800070479140C2F1200320FA03F319439040CE
:100890007047202A04DB203A21FA02F00021704739
:1008A00021FA02F3D040C2F12002914008431946D8
:1008B0007047202A06DBCB17203A41FA02F043EAC0
:1008C000E07306E041FA02F3D040C2F12002914009
:1008D0000843194670472DE9F04D00231A461B1AAC
:1008E0008A4103DB00200146BDE8F08DC1F30A52C6
:1008F000C1F3130141F480154FF0000BD10702D171
:1009000000186D41521E0027044640F2FF11384680
:1009100001EB620A3E468046024600204FF48011F9
:10092000FFF7B7FFC2197141BB1846EB0100B4EBEA
:10093000030C75EB000C04D3E41A65EB00051746B5
:100940000E46241908F101006D4180463428E3DD8C
:10095000F91946EB0600091BA84103D24FF0FF32FC
:10096000134601E0002213461BEB070046EB0A5139
:10097000BDE8F04DFFF70FBE70B58C1810F8015BA5
:1009800015F0070301D110F8013B2A1106D110F828
:10099000012B03E010F8016B01F8016B5B1EF9D12C
:1009A0002B0705D40023521E0DD401F8013BFAE7B2
:1009B00010F8013BCB1A921C03E013F8015B01F81D
:1009C000015B521EF9D5A142D8D3002070BD0000B2
:1009D00010B504210D4803F0E0F801210C4803F0A4
:1009E000DCF84FF480610B4803F0D7F84FF4005166
:1009F000094803F0D2F88021084803F0CEF804F04B
:100A0000A3FABDE810400AF099BC000000100240B3
:100A100000000240001C024000080240000C02409E
:100A20004178007841EA00207047000010B5074C7B
:100A30002060084600F00CF820680028FCD1BDE8D2
:100A4000104000214FF0804008F0EBBD5C01002019
:100A50003EB504464FF080450021284608F0E1FDF0
:100A600000220121284608F0CBFE022C02D0012CE6
:100A700003D005E00B20019002E042F6DF60019018
:100A80000520ADF800000020ADF80800ADF8020028
:100A90006946284608F0DEFE0121284608F0BEFD22
:100AA0000121284608F0ABFD01221146284608F036
:100AB000A7FE0121284608F0B4FD3EBD20210148D3
:100AC00003F06BB8001C02402021014803F067B816
:100AD000001C02400B4991F84220002A06D038B190
:100AE00091F8420002280BD0FFF7E8BFFFF7E6BFFE
:100AF00091F84200012801D0FFF7E0BFFFF7E4BF03
:100B0000FFF7E2BFDC110020FEE700007CB5012109
:100B1000084604F0EBFEA020009002208DF80500AE
:100B200001248DF8044000258DF806508DF807400B
:100B3000084E6946304602F0DBFF8DF804508DF810
:100B400006508DF80740402100916946304602F07A
:100B5000CFFF7CBD0000024070B5FF22FF23084D8F
:100B600005F5807605E010F8014B54402A5D5A40A7
:100B7000335D491E89B2F6D243EA022070BD0000FF
:100B80008C3101082DE9F05F2DED028B0024574DCB
:100B900095F840A00021084605F04CFC21460020B5
:100BA00001F0CAFC9FED528A524E534F96E001204D
:100BB00008F078F8687848B16878012809D0687832
:100BC000022809D06878032809D00AE011F054FE01
:100BD00007E011F0C9FE04E011F042FF01E011F05E
:100BE0008FFF96ED000ADFF81481BCEEC00A10EE0C
:100BF000100AC8F8000005F09FFBDFF8049120E020
:100C000005F09AFB687848B16878012809D06878BF
:100C1000022809D06878032809D00AE011F02CFED8
:100C200007E011F0A1FE04E011F01AFF01E011F05D
:100C300067FF96ED000ABCEEC00A10EE100AC8F875
:100C4000000099F800000028DAD108F02BF811F024
:100C5000A5FFDFF8B0802C4998ED000ABCEEC00A71
:100C600010EE100A086005F067FB98ED000A4FF0DF
:100C7000964110EE100A884205DD38EE400AB1EECA
:100C8000400A88ED000A96ED000A10EE100A88422C
:100C900005DD38EE400AB1EE400A86ED000A96ED19
:100CA000000A05EB840080ED7C0A022C04D298ED4A
:100CB000000A80ED830AA3465946204605F0BAFB98
:100CC0002146002001F038FC062C05D306203870A0
:100CD00085F840A008F064FB641CE4B23878112861
:100CE0003FF465AFBDEC028BBDE8F09FDC11002046
:100CF000FFFF7F4B580000204500002060000020CF
:100D000053000020540000206400002010B54FF470
:100D10000051094802F043FF0121084802F03FFF5B
:100D20004FF48061064802F038FFBDE8104004210E
:100D3000044802F032BF00000008024000000240F8
:100D4000001C02400010024030B587B005462878EC
:100D50004C4C04F8280C687804F8270CA87804F8A0
:100D6000260CE91C684608F02FFB9DF8000004F8EB
:100D7000240C019844F8200C029844F81C0C0398A9
:100D800044F8180C049844F8140C059844F8100C16
:100D9000069844F80C0C687A04F8080C687A04F891
:100DA000080C05F10A01684608F00EFB9DF80000EA
:100DB00004F8040C01982060029860600398A06019
:100DC0000498E0600598206106986061287C207690
:100DD000687CA07605F11201684608F0F5FA9DF8E6
:100DE0000000207701982062029860620398A06258
:100DF0000498E062059820630698606305F1180185
:100E0000684608F0E1FA9DF8000084F8380001987F
:100E1000E06302982064039860640498A0640598D5
:100E2000E0640698206505F11E01684608F0CCFADA
:100E30009DF8000084F854000198A0650298E065D0
:100E400003982066049860660598A0660698E06698
:100E500005F12401684608F0B7FA9DF8000084F80F
:100E60007000019860670298A0670398E067049893
:100E7000C4F880000598C4F884000698C4F8880077
:100E800007B030BD0412002010B50121CC0520466A
:100E900004F03AFD2046BDE81040002104F034BDC6
:100EA00001460020024A52680A4200D001207047E1
:100EB00000B0024030B500242A4B19682A4A11407C
:100EC00019601968026811431960596B21F0070114
:100ED0005963596B4268114359634168002928D00E
:100EE00001292DD0022930D0032933D0C1680A014D
:100EF00001690902446924038568214315430D43B0
:100F0000996B0D439D638169D963196C6FF30D0172
:100F10001964196CC26911431964818C09045A6CF3
:100F200002F040425A645A6C006A02430A435A640F
:100F300030BDC1680A02018A0904047D2406DBE78A
:100F4000C1680A02018A0904D6E7C1684A01016939
:100F5000C902D1E7C1684A01016989024469E40311
:100F6000CAE7000000B00240FCE0FCFF0248016854
:100F700041F001010160704700B002400CB5094B1F
:100F80001B788DF8063000910749895C8DF80410B4
:100F900005490B31895C8DF80510DDE9001206C0AA
:100FA0000CBD000042000020FD3C0108704710B558
:100FB00090B0044602F006FB0122214601A800F091
:100FC0008BFF9DF804008DF8240002980A90039886
:100FD0000B9004980C9005980D9006980E90079829
:100FE0000F9009A800F078F80890089810B010BD8C
:100FF00010B590B0044602F0FDFA0022214601A887
:1010000000F06AFF9DF804008DF8240002980A9011
:1010100003980B9004980C9005980D9006980E90EC
:1010200007980F9009A800F057F80890089810B09A
:1010300010BD0000F0B587B006460121022004F083
:1010400055FC0121880404F07BFC214F07220B2171
:10105000384602F08BFD07220A21384602F086FD51
:1010600000248DF81A4001208DF81B0002258DF810
:101070001850800205908DF8195005A9384602F0E5
:1010800037FD8DF81850A802059005A9384602F0E2
:101090002FFD0196ADF80840ADF80A40ADF80C40C0
:1010A000ADF810400C20ADF80E000A4C01A9204606
:1010B0000AF04EFA04F0CEF8012240F22551204603
:1010C0000AF02BFA012120460AF094F907B0F0BD8E
:1010D0000004024000480040416842F21072914210
:1010E00004D941680A22B1FBF2F1416040687047BF
:1010F00038B5002000905E4942F210725D484EF60D
:101100006023AFE09DF8004000EBC404D4F8B44085
:101110009DF8005001EBC5056D68AC420CD89DF8F8
:10112000004000EBC404D4F8B4409DF8005001EB3B
:10113000C5056D68AC4210D29DF80040072C06D260
:101140009DF8004000EBC404C4F8B42005E09DF80D
:10115000004000EBC404C4F8B4309DF8004000EB3C
:10116000C404D4F8FC409DF8005001EBC5056D683F
:10117000AC420CD89DF8004000EBC404D4F8FC400D
:101180009DF8005001EBC5056D68AC4210D29DF88A
:101190000040072C06D29DF8004000EBC404C4F8C0
:1011A000FC2005E09DF8004000EBC404C4F8FC30CE
:1011B0009DF8004000EBC404D4F844419DF8005071
:1011C00001EBC5056D68AC420CD89DF8004000EB02
:1011D000C404D4F844419DF8005001EBC5056D6886
:1011E000AC4210D29DF80040072C06D29DF800407A
:1011F00000EBC404C4F8442105E09DF8004000EB76
:10120000C404C4F844319DF8004000EBC404D4F891
:101210008C419DF8005001EBC5056D68AC420CD8BF
:101220009DF8004000EBC404D4F88C419DF80050B8
:1012300001EBC5056D68AC4210D29DF80040072C4B
:1012400006D29DF8004000EBC404C4F88C2105E0F0
:101250009DF8004000EBC404C4F88C319DF80040B8
:10126000641C00949DF80040092CFFF44BAF38BD7E
:1012700094000020DC1100201CB54FF400500090B9
:1012800000208DF804000C218DF805108DF8060063
:10129000684602F093FA1CBD2DE9FC5F0546012D5E
:1012A0000AD0002000904FF0501B4FF47F07FE4CF7
:1012B000009818B1676003E00120F3E7C4F804B0B8
:1012C000DFF8E8A39AF8D80108B1F94E01E0F84E2A
:1012D0001C3E122368221A21582003F037F99AF88D
:1012E00000000023C0EBC00082191A2158200DF025
:1012F0004BFF022D05D000200090009818B16760C8
:1013000003E00120F8E7C4F804B09AF8D80110B15E
:10131000E74E383601E0E64E1C36122368222E21B5
:10132000582003F013F99AF801000023C0EBC00025
:101330008219302158200DF027FF032D07D00020FF
:101340000090DFF87083009818B1676003E0012017
:10135000F6E7C4F804809AF8D80110B1D44E62368A
:1013600001E0D34E5436122368225C21582003F04A
:10137000EDF89AF802000023C0EBC00082195C214E
:1013800058200DF001FF042D05D00020009000989A
:1013900018B1676003E00120F8E7C4F80480DAF8C8
:1013A0000C00C1B2DAF808000023052202F0A4FD07
:1013B00012237A227021582003F0C8F80023BE4A75
:1013C000722158200DF0E0FEDAF81010BB4800231F
:1013D00000EB8102722194200DF0D6FE052D05D080
:1013E00000200090009818B1676003E00120F8E742
:1013F000C4F804809AF8D80110B1AD4E623601E00D
:10140000AB4E5436122368229E21582003F09EF8DA
:101410009AF820000023C0EBC0008219A0215820B8
:101420000DF0B2FE062D05D000200090009818B1F6
:10143000676003E00120F8E7C4F80480DAF82C00C4
:10144000C1B2DAF828000023062202F055FD12236B
:101450007A22B221582003F079F80023964AB42169
:1014600058200DF091FE002395A2B421A0200DF08C
:101470008BFE072D05D000200090009818B1676002
:1014800003E00120F8E7C4F804B09AF8D80110B1DD
:101490008A4E583E01E0894EB03E12236822182140
:1014A0004FF4A97003F052F89AF84100A8B19AF8E5
:1014B00040000023401C00EB400101EBC0008219FA
:1014C0001A214FF4A9700DF05FFE082D0DD00020F9
:1014D0000090009858B167600BE0002332461A2153
:1014E0004FF4A9700DF050FEEFE70120F0E7C4F8CB
:1014F00004B09AF8D80110B16D4EAC3601E06C4ED4
:1015000070364FF4A97B122368222E21584603F02F
:101510001DF89AF842000023C0EBC0008219302168
:1015200058460DF031FE092D05D00020009000989E
:1015300018B1676003E00120F8E7C4F80480DAF826
:101540004C00C1B2DAF848000023052202F0D4FCB6
:1015500012237A225C21584602F0F8FF0023564AF3
:101560005C2158460DF010FEDAF850105348002365
:1015700000EB81025E214FF4C7700DF005FE0A2DCD
:1015800005D000200090009818B1676003E00120AA
:10159000F8E7C4F80480DAF86800C1B2DAF8640049
:1015A0000023052202F0A8FC12237A22702158465B
:1015B00002F0CCFF0023404A722158460DF0E4FDB2
:1015C000DAF86C103D48002300EB810272214FF4E1
:1015D000C7700DF0D9FD0B2D05D0002000900098AC
:1015E00018B1676003E00120F8E7C4F80480DAF876
:1015F0008400C1B2DAF880000023062202F07CFCED
:1016000012237A229C21584602F0A0FF00232A4A86
:101610009E2158460DF0B8FD002329A29E214FF4CB
:10162000CD700DF0B1FD0C2D05D00020009000987C
:1016300018B1676003E00120F8E7C4F80480DAF825
:10164000A000C1B2DAF89C000023062202F054FC8C
:1016500012237A22B221584602F078FF0023164A5C
:10166000B42158460DF090FD002315A2B4214FF48B
:10167000CD700DF089FD00F0DBFB0020114A5427EE
:101680006FF07F410D2D3DD2DFE805F0070C3E5F86
:1016900080A0C1E1EFEEEDECEB00BDE8FC5F0220C5
:1016A00000F0D2B921600FE038010020DC110020E9
:1016B00016380108653434007B000020AE3901087B
:1016C000205600003800310062609AF8D81109B144
:1016D000D84C01E0D74C1C3C019010E0019800234D
:1016E000C0EBC00002190198F12100EB800007EB6C
:1016F000001080B20DF048FD0198401C0190019847
:101700000428EBD3BDE8FC9F216062609AF8D811F1
:1017100011B1C84C383401E0C64C1C34019010E0C3
:1017200001980023C0EBC00002190198F12100EBE1
:10173000800007EB001080B20DF026FD0198401CE0
:10174000019001980428EBD3DCE7216062609AF8ED
:10175000D81111B1B74C623401E0B64C5434019049
:1017600010E001980023C0EBC00002190198F1219C
:1017700000EB800007EB001080B20DF005FD019832
:10178000401C019001980228EBD3BBE72160626006
:101790009AF8D81109B1A84C01E0A74CE41F0190B8
:1017A00010E001980023C0EBC00002190198F1215C
:1017B00000EB800007EB001080B20DF0E5FC019813
:1017C000401C019001980028EBD09BE721606260EB
:1017D0009AF8D81111B1974C623401E0954C543409
:1017E000019010E001980023C0EBC000021901989D
:1017F000F12100EB800007EB001080B20DF0C4FC7B
:101800000198401C019001980228EBD37AE72160EF
:1018100062609AF8D81109B1874C01E0864CE41F48
:10182000019010E001980023C0EBC000021901985C
:10183000F12100EB800007EB001080B20DF0A4FC5A
:101840000198401C019001980028EBD05AE72160D4
:1018500062609AF8D81109B1784C00E0774C019099
:1018600017E0C6E0A5E084E063E016E001980023FD
:1018700000EB400101EBC00002190198F12100EBDF
:10188000800007EB001080B20DF07EFC0198401C38
:10189000019001980528E9D334E7216062609AF845
:1018A000D81159B19AF84310012904D0DFF8849176
:1018B00009F1C8090AE05F4EAC3607E09AF8431018
:1018C000012909D0DFF86C9109F18C099AF84310CD
:1018D000012904D0019028E0564E7036F6E70190B9
:1018E00010E001980023C0EBC00082190198F1219B
:1018F00000EB800007EB001080B20DF045FC019872
:10190000401C019001980428EBD3FBE601980023CA
:1019100009EBC00200EB800007EB001080B2F12160
:101920000DF032FC0198401C019001980428EDD381
:10193000E8E6216062609AF8D81109B13E4C01E0F6
:101940003D4CE41F019010E001980023C0EBC00063
:1019500002190198F12100EB800007EB001080B222
:101960000DF012FC0198401C019001980028EBD06A
:10197000C8E6216062609AF8D81109B12E4C01E0E6
:101980002D4CE41F019010E001980023C0EBC00033
:1019900002190198F12100EB800007EB001080B2E2
:1019A0000DF0F2FB0198401C019001980028EBD04B
:1019B000A8E6216062609AF8D81109B11E4C01E0D6
:1019C0001D4CE41F019010E001980023C0EBC00003
:1019D00002190198F12100EB800007EB001080B2A2
:1019E0000DF0D2FB0198401C019001980028EBD02B
:1019F00088E6216062609AF8D81109B10E4C01E0C6
:101A00000D4CE41F019010E001980023C0EBC000D2
:101A100002190198F12100EB800007EB001080B261
:101A20000DF0B2FB0198401C019001980028EBD00A
:101A300068E600001638010893330108BA39010836
:101A4000002000F001B800002DE9F041044600F04C
:101A5000EFF99448944B95496FF07F424FF48375AA
:101A60004FF4AB76002C47D04FF4D377012C7DD0C8
:101A7000022C7CD191F8D801002879D000238CA2C7
:101A8000E72166200DF080FB00238BA2FB2166205E
:101A90000DF07AFB002386A2E721B6200DF074FB3F
:101AA000002387A2FB21B6200DF06EFB002386A247
:101AB000E72128460DF068FB002381A2FB21284680
:101AC0000DF062FB002382A2E72130460DF05CFBA3
:101AD000002380A2FB2130460DF056FB00237CA2A0
:101AE000E72138460DF050FB3846BDE8F0410023B1
:101AF0007AA2FB210DF048BB0260436091F8D80147
:101B0000002831D000236AA2E72166200DF03CFBBB
:101B1000002369A2FB2166200DF036FB002364A29E
:101B2000E721B6200DF030FB002365A2FB21B62093
:101B30000DF02AFB002364A2E72128460DF024FBC8
:101B400000235FA2FB2128460DF01EFB002360A2AC
:101B5000E72130460DF018FB3046BDE8F041002388
:101B60005CA2FB210DF010BB002302E032E097E005
:101B700058E05CA2E72166200DF006FB00235BA283
:101B8000FB2166200DF000FB002356A2E721B620C2
:101B90000DF0FAFA002357A2FB21B6200DF0F4FA5B
:101BA000002356A2E72128460DF0EEFA002351A2A9
:101BB000FB2128460DF0E8FA002350A2E721304629
:101BC0000DF0E2FA3046BDE8F04100234DA2FB21C2
:101BD0000DF0DABA0260436000234CA2E7216620D0
:101BE0000DF0D2FA00234BA2FB2166200DF0CCFAB7
:101BF00000234AA2E721B6200DF0C6FA002349A22D
:101C0000FB21B6200DF0C0FA002348A2E721384698
:101C10000DF0BAFA3846BDE8F041002345A2FB2199
:101C20000DF0B2BA00232FA2E72166200DF0ACFA26
:101C300000232EA2FB2166200DF0A6FA002329A284
:101C4000E721B6200DF0A0FA00232AA2FB21B6203E
:101C50000DF09AFA002329A2E72128460DF094FA04
:101C6000002324A2FB2128460DF08EFA002323A294
:101C7000E72130460DF088FA002322A2FB213046EE
:101C80000DF082FA00232DA2E72138460DF07CFAF0
:101C90003846BDE8F04100232AA2FB210DF074BABA
:101CA000BDE8F0813801002038003100DC1100204F
:101CB0004D454153000000004449535000000000CE
:101CC0005345545550000000205359530000000064
:101CD00053595300494E464F0000000055504441AF
:101CE00054450000B2E2C1BF00000000CFD4CABE1C
:101CF00000000000C9E8D6C300000000CFB5CDB396
:101D000000000000D0C5CFA200000000CEC4BCFE81
:101D100000000000B9DCC0ED00000000B1A3B4E693
:101D200000000000CAFDBEDD00000000B8FCB6E007
:101D30000000000020322F3200000000B9CCBCFEB1
:101D400000000000C9FDBCB6000000000FB410B5D3
:101D50009DF80800002812D09DF80800072807D930
:101D60009DF8101000230622039802F0C5F806E043
:101D70009DF8181000230722059802F0BDF89DF881
:101D800008001A2110BC00EB800001EB8001012348
:101D9000034A4FF4A0705DF814EB0DF0F5B90000A4
:101DA0007B00002071B581B0002000901D4C4FF0E9
:101DB000501532E09DF804100098401C814203D178
:101DC0004FF47F01616000E0656000EB80001A263F
:101DD00006EB800081B214235A22A02002F0B6FB49
:101DE00011480099415C1148009A00EBC200D0F8FC
:101DF000B4000023062202F07FF800980A4A401C33
:101E000000EB800006EB800081B20123813AA02024
:101E10000DF0BAF90098401C009000980928C9D329
:101E200065607CBD38010020FC000020DC11002032
:101E30002DE9F05F0024DFF878801E4EDFF878A0EF
:101E400000274FF04C094FF0010BC6F8048004EB5B
:101E50004401A00001EB041100EB810080B22B23B0
:101E60004C22E42102F072FBC6F804A004EB8405C6
:101E70000BEB051080B201234C22E32102F066FB3C
:101E800009EB051080B22C230122E32102F05EFB56
:101E900077604D2000EB051080B22C230322E32154
:101EA00002F054FB641C062CCFD3BDE8F09F000069
:101EB00038003100380100206843690005490448B2
:101EC00048606E235C2140F2DF12002002F03EBB2E
:101ED00065343400380100202DE9F04F93B080467E
:101EE0000E46012012900C9000270B970A97099735
:101EF000089703970297049702970D974FF0200ACF
:101F00000FAD07E09DF8340005F800A09DF83400FF
:101F1000401C0D909DF834000728F3D38DF84370D2
:101F20000AB1072400E00624DFF8E0B34FF02E09E1
:101F300075E1022002F0FEF90E909DF838000028AD
:101F400046D001210C919DF838001228F8D00CDC05
:101F500012283DD2DFE800F03C3C3C7EEEE1D43C70
:101F60003C5A3C78C7BAAD3C3C3D1A28E8D009DC65
:101F7000A0F113000728ECD2DFE800F02A8E81726E
:101F80002A2A0E001E2878D022DC1B28D8D01C2834
:101F900074D01D281CD1E7E0049712979DF820000B
:101FA000A04214D29DF82C0088B99DF8200050B1B1
:101FB0009DF8200005F800909DF820000A909DF8FB
:101FC0002000401C08909DF82C00401C0B900591AF
:101FD0000CE1049112979DF82000A04214D29DF8C4
:101FE0002C0088B99DF8200050B19DF8200005F81C
:101FF00000909DF820000A909DF82000401C089059
:102000009DF82C00401C0B900591EFE002200490FD
:1020100012979DF82000A04214D29DF82C0088B998
:102020009DF8200050B19DF8200005F800909DF823
:1020300020000A909DF82000401C08909DF82C007C
:10204000401C0B900591D1E006208BF80000129700
:102050000597CBE01297059712208BF80000C5E09A
:102060009DF82000A04207D29DF82010312068542E
:102070009DF82000401C0890B8E068E091E09DF8D1
:102080002000A04207D29DF82010322068549DF80D
:102090002000401C0890A9E09DF82000A04207D233
:1020A0009DF82010332068549DF82000401C0890B3
:1020B0009CE09DF82000A04207D29DF8201034201B
:1020C00068549DF82000401C08908FE09DF8200087
:1020D000A04207D29DF82010352068549DF82000BA
:1020E000401C089082E09DF82000A0427ED29DF81E
:1020F0002010362068549DF82000401C089075E0A0
:102100009DF82000A04271D29DF82010372068541D
:102110009DF82000401C089068E09DF82000A04237
:1021200064D29DF82010382068549DF82000401C8F
:1021300008905BE09DF82000A04257D29DF8201047
:10214000392068549DF82000401C08904EE09DF80E
:102150002000A0424AD29DF82010302068549DF8FB
:102160002000401C089041E09DF82000A0423DD294
:102170009DF8200040B39DF82C0028BB9DF820005E
:1021800050B19DF8200005F800909DF820000A90BD
:102190009DF82000401C08909DF82C00401C0B90DE
:1021A00024E09DF8200080B19DF82000401E08909A
:1021B0009DF8200005F800A09DF828009DF820104B
:1021C000884213D10B970A9710E09DF82000285CF5
:1021D00078B39DF82000285C2D2830D09DF8201081
:1021E0002D2068549DF82000401C08909DF8300078
:1021F000A8B10C9746486FF07F4101604FF47F0112
:102200004160B0887188103082B23088102302F0AB
:102210009DF97188308800230FAA0CF0B5FF9DF856
:10222000480000287FF485AE9DF820000D903020F6
:1022300011E0FFE79DF820102D206854D2E79DF8AB
:1022400020102B206854CDE79DF8341068549DF879
:102250003410491C0D919DF83410A142F4D30D9710
:1022600034E09DF83C0030282CD39DF83C00392800
:1022700028D89DF83400285C302823D39DF83400FA
:10228000285C39281ED89DF828009DF83410884213
:102290000CD9029800EB80004000029002989DF853
:1022A0003410695C0844303802900BE0029800EB6F
:1022B00080004000029002989DF83410695C084448
:1022C000303802909DF83400401C0D909DF8340089
:1022D000A042C6D39DF8280003909DF8040088F81A
:1022E00000000298C8F804000398C8F80800049891
:1022F000C8F80C000598C8F810000698C8F8140033
:102300000798C8F8180013B0BDE8F08F450000200A
:10231000380100202DE9F84F584E77685848706012
:102320000CF022FF574D687803281BD0687860B105
:10233000012355A26C2130200CF076FF012352A21C
:10234000A32130200CF070FF18E000234EA25C2186
:1023500020200CF069FF00234BA2932120200CF0D9
:1023600063FF0BE0002348A27C2140200CF00CFF0F
:10237000002345A2B32140200CF006FF45484FF052
:102380000008C0F800800830C0F8008095F84300CD
:10239000414C4FF4C8794FF4967A80B9FEF7B6FCF9
:1023A000FEF78CFB16233C22B421484602F0CEF8FF
:1023B000372328225C215046009402F055FC95F802
:1023C000200001281CD0A878012819D0FEF79EFC17
:1023D000FEF774FB16233C22B421484602F0B6F8FF
:1023E000372328225C215046009402F03DFC7760A0
:1023F00095F8410029490978BDE8F84F00F09CB8EC
:1024000095F8430040B34FF47F0070600120FEF761
:1024100061FB02F02BFD1F4A21A0103A0168C2F8AF
:1024200007104C23D372204A032090741F48816206
:1024300080F82C301748093880F8058016233C2294
:10244000B421484602F082F8124A0023093AB42126
:1024500048460CF099FECAE7FEF758FCFEF72EFB43
:1024600016233C22B421484602F070F83723282274
:102470005C215046009402F0F7FBB8E738010020D9
:1024800065343400DC1100202D2D2D2D2D2D2D2D0A
:102490000000000084000020227A07084700002086
:1024A000525620464C0000004C11002061110020C3
:1024B00008B5114841794FF4967000290BD00129D5
:1024C00011D0022906D10D490091372328225C2121
:1024D00002F0CAFB08BD0A490091372328225C217B
:1024E00002F0C2FB08BD07490091372328225C2176
:1024F00002F0BAFB08BD0000840000208A710708C2
:10250000C3740708227A070818B509484FF4AA745B
:102510000090372328225C21204602F0A5FB0549C4
:102520000091372328229321204602F09DFB18BDFD
:10253000FC770708817F0708012800D901200629B8
:1025400000D906210A4B4FF050125A60C0EBC00070
:10255000084A00EB400002EB800001EB410100EB78
:1025600081020023D2214FF4BE700CF00DBE00009A
:1025700038010020493C010830B595B004460D46AD
:1025800001F020F8012229466846FFF7A5FC9DF8D6
:1025900000008DF8380001980F9002981090039871
:1025A00011900498129005981390069814900EA913
:1025B000684601F009FD9DF800008DF81C000198A7
:1025C00008900298099003980A9004980B90059837
:1025D0000C9006980D900B9818B90020099008905F
:1025E0000A909DF81C002070089860600998A0600F
:1025F0000A98E0600B9820610C9860610D98A061CA
:1026000015B030BD30B595B004460D4600F0F2FF70
:10261000002229466846FFF75FFC9DF800008DF810
:10262000380001980F900298109003981190049828
:10263000129005981390069814900EA9684608F019
:10264000D1FD9DF800008DF81C00019808900298BB
:10265000099003980A9004980B9005980C9006989E
:102660000D900B9818B90020099008900A909DF8D9
:102670001C002070089860600998A0600A98E060CB
:102680000B9820610C9860610D98A06115B030BD69
:1026900070B500F0AFF8254D6FF07F462E602448EE
:1026A0006860244C94F8D80108B1234A01E0224A1A
:1026B000F23A0023DC32042118460CF065FD2E604E
:1026C0004FF05010686094F81E0238B194F8D801A9
:1026D00008B11A4D0AE0194D543D07E094F8D801AD
:1026E00010B1164DA83501E0144D543500241A26BA
:1026F000C4EBC40000EB4000421904EB440000EBC3
:10270000C40006EB400081B2002318460CF03CFDEB
:10271000641C042CECD30023094A5C2152200CF0E9
:1027200033FDBDE87040FFF78BB900003801002091
:102730000352F300DC110020A03501084D3B0108D5
:10274000F013002070B500241825601C00EB400138
:1027500001EBC00005EB400081B2012364225A2046
:1027600001F0F4FE641C072CEFD370BD2DE9F0419D
:1027700000F040F81A4E6FF07F47376019487060DC
:10278000194C94F8D80108B1184A01E0174AF23AF6
:102790000023B032042118460CF0F6FC37604FF0ED
:1027A0005010706094F8D80108B1114D01E0104D3F
:1027B000583D00244FF01A0804EB440000EBC4001D
:1027C000421908EB400081B2002318460CF0DCFCF3
:1027D000641C082CF0D37760BDE8F041FFF7B2BF6E
:1027E000380100200352F300DC110020A03501085D
:1027F000493A010810B500F065FEBDE81040FFF74A
:1028000017BB00002DE9FF5F044600278DF8077015
:10281000012C0AD000200290FA4D02984FF47F0656
:102820004FF0501B18B16E6003E00120F3E7C5F8CC
:1028300004B0DFF8D48398F8D80110B1DFF8CC9356
:1028400003E0DFF8C893A9F10E09122366221A21CA
:102850005A2001F07BFE98F8D4010023C0EBC000A1
:1028600000EB09021C215A200CF08EFC022C05D032
:1028700000200290029818B16E6003E00120F8E792
:10288000C5F804B01223662230215A2001F05EFE02
:1028900098F8D501DFF87893C0EBC00000EB09028F
:1028A000002332215A200CF06FFC032C05D00020AD
:1028B0000290029818B16E6003E00120F8E7C5F8B5
:1028C00004B098F8D80110B1DFF840A303E0DFF8B6
:1028D0003CA3AAF10E0A1223662246215A2001F0D7
:1028E00035FE98F8D6010023C0EBC00000EB0A02C9
:1028F00048215A200CF048FC042C05D000200290FE
:10290000029818B16E6003E00120F8E7C5F804B042
:1029100098F8D80110B1DFF8F4A203E0DFF8ECA2D8
:10292000AAF10E0A122366225C215A2001F00EFE43
:1029300098F8D7010023C0EBC00000EB0A025E212B
:102940005A200CF021FC052C05D0002002900298A2
:1029500018B16E6003E00120F8E7C5F804B0122357
:10296000662272215A2001F0F1FD98F8D801DFF8B3
:10297000A0A200230AF1380A0AEBC00274215A20EF
:102980000CF002FC01A9002003F012FA69460020B5
:1029900003F0DCF9062C05D000200290029818B153
:1029A0006E6003E00120F8E7C5F804B012231A4670
:1029B00088215A2001F0CAFD9DF8032095A1964870
:1029C0000CF084FC0023944A8A215A200CF0DCFB92
:1029D000C5F804B0002391A28A216E200CF0D4FB2C
:1029E000072C05D000200290029818B16E6003E019
:1029F0000120F8E7C5F804B012231A468821782090
:102A000001F0A4FD9DF8012082A183480CF05EFC3A
:102A10000023814A8A2178200CF0B6FBC5F804B067
:102A200000237EA28A218C200CF0AEFB082C05D05E
:102A300000200290029818B16E6003E00120F8E7D0
:102A4000C5F804B012231A468821982001F07EFDB3
:102A50009DF802206FA170480CF038FC00236E4AEC
:102A60008A2198200CF090FB092C05D000200290C0
:102A7000029818B16E6003E00120F8E7C5F804B0D1
:102A800012231A469E215A2001F060FD9DF8042071
:102A900060A161480CF01AFC00235F4AA0215A2073
:102AA0000CF072FBC5F804B000235DA2A0216E20DB
:102AB0000CF06AFB0A2C05D000200290029818B195
:102AC0006E6003E00120F8E7C5F804B012231A464F
:102AD0009E21782001F03AFD9DF805204DA14E4839
:102AE0000CF0F4FB00234C4AA02178200CF04CFBA6
:102AF000C5F804B000234AA2A0218C200CF044FBAE
:102B00000B2C05D000200290029818B16E6003E0F3
:102B10000120F8E7C5F804B012231A469E21982038
:102B200001F014FD9DF806203AA13B480CF0CEFBC5
:102B30000023394AA02198200CF026FB0C2C05D04C
:102B400000200290029818B16E6003E00120F8E7BF
:102B5000C5F804B012236622B4215A2001F0F6FC15
:102B60000023304AB6215A200CF00EFBFFF760F923
:102B70006FF07F4028602C48686054250C2C09D2E7
:102B8000DFE804F0060A28547290A5A5A5A5A5A51E
:102B9000FEF756FFBDE8FF9F98F8D80108B11B4C1F
:102BA00001E01A4C0E3C039710E003980023C0EBA1
:102BB000C00002190398F12100EB800005EB001022
:102BC00080B20CF0E1FA0398401C039003980228AD
:102BD000EBD3DFE7039711E003980023C0EBC000BD
:102BE00000EB09020398F12100EB800005EB0010D7
:102BF00080B20CF0C9FA0398401C03900398052892
:102C0000EAD3C7E738010020DC110020783801083A
:102C1000A13A0108253264007B0000202D0000004D
:102C20003A000000B51300203800310098F8D801B0
:102C300008B1324C01E0314C0E3C039710E0039890
:102C40000023C0EBC00002190398F12100EB8000C3
:102C500005EB001080B20CF097FA0398401C03902B
:102C600003980228EBD395E798F8D80108B1234CD4
:102C700001E0224C0E3C039710E003980023C0EBC8
:102C8000C00002190398F12100EB800005EB001051
:102C900080B20CF079FA0398401C03900398022844
:102CA000EBD377E703970EE0039800230AEBC0020B
:102CB00000EB800005EB001080B2F1210CF064FA0B
:102CC0000398401C039003980228EDD362E7039712
:102CD0000B4C0EE00398002304EBC00200EB8000D5
:102CE00005EB001080B2F1210CF04EFA0398401C65
:102CF000039003980228EDD34CE7000078380108D0
:102D0000E93A010810B500F0DDFBFFF791F8BDE8E6
:102D10001040FFF7D3B810B500F0D4FBFFF788F8E8
:102D2000BDE81040AFF30080FFF7C8B870B5FFF7FB
:102D3000E9FF254C6FF07F45256024486060244EF4
:102D400096F8D80108B1234A01E0224AF23A00235A
:102D5000042118460CF018FA25604FF050106060FE
:102D600096F8D80108B11C4D01E01B4D3C3D0024F4
:102D70001A26032C0FD204EB840005EB400204EB6F
:102D8000440000EBC40006EB400081B2002318466B
:102D90000CF0FAF90FE004EB840005EB4002E01EB2
:102DA00000EB400101EBC00006EB400081B20023C4
:102DB000FA200CF0E9F9641C062CDAD3BDE8704067
:102DC0000020FEF741BE0000380100200352F3004E
:102DD000DC110020A0350108723401082DE9F0470C
:102DE000FFF799FF2E4E6FF07F4434602D487060DE
:102DF0002D4D95F8D80108B12C4A01E02B4AF23A42
:102E000000235832042118460CF0BEF934604FF00C
:102E10005017776095F8D80108B1254D01E0244D91
:102E2000B43D0024DFF88C804FF01A09092C16D22B
:102E3000E01E052802D2C6F8048000E0776004EBAB
:102E4000840005EB400204EB440000EBC40009EBF6
:102E5000400081B2002318460CF096F918E0A4F166
:102E60000C00052802D2C6F8048000E0776004EB6D
:102E7000840005EB4002A4F1090000EB400101EBE6
:102E8000C00009EB400081B20023FA200CF07CF96D
:102E9000641C122CCAD3BDE8F0470020FEF7D4BD55
:102EA000380100200352F300DC110020A035010896
:102EB00046370108653434002DE9FC5F0546DFF82C
:102EC000C08398F8D801002802D0DFF8B8A303E047
:102ED000DFF8B0A3AAF11C0A012D0AD0002000904F
:102EE000E94C00984FF47F064FF0501918B1666016
:102EF00003E00120F3E7C4F8049014235C221821B6
:102F0000582001F023FB6FF07F47276098F80000FE
:102F10000023C0EBC00000EB0A021A2158200CF07D
:102F200033F9022D05D000200090009818B166609A
:102F300003E00120F8E7C4F80490D8F86800C1B2B3
:102F4000D8F864000023052200F0D6FF14235C2289
:102F50003021582001F0FAFA0023CC4A30215820C1
:102F60000CF012F9D8F86C00DFF824A300230AEB68
:102F70008002302194200CF007F9032D05D00020A9
:102F80000090009818B1666003E00120F8E7C4F8EB
:102F90000490D8F80C00C1B2D8F80800002305222C
:102FA00000F0AAFF14235C224621582001F0CEFA3B
:102FB0000023B64A462158200CF0E6F8D8F8100055
:102FC00000230AEB8002462194200CF0DDF8042D4A
:102FD00005D000200090009818B1666003E0012041
:102FE000F8E7C4F8049098F8D80120B1DFF8A0A25F
:102FF000AAF1580A03E0DFF898A2AAF1B00A4FF448
:10300000A97B142368221821584601F09FFA98F8EA
:103010004100A8B198F840000023401C00EB40019B
:1030200001EBC00000EB0A021A2158460CF0ACF884
:10303000052D0CD000200090009850B166600AE089
:10304000002352461A2158460CF09EF8F0E7012062
:10305000F1E7C4F80490D8F8A000C1B2D8F89C00F9
:103060000023062200F048FFDA46142368222E21AE
:10307000504601F06BFA0023844A302150460CF090
:1030800083F84FF4CD7B002382A2302158460CF008
:103090007BF8062D05D000200090009818B16660DE
:1030A00003E00120F8E7C4F80490D8F82C00C1B27E
:1030B000D8F828000023062200F01EFF14236822FF
:1030C0004421504601F042FA0023704A46215046FE
:1030D0000CF05AF800236FA2462158460CF054F821
:1030E000FEF7A6FE00206C495426072D29D2DFE802
:1030F00005F004092A4A6A87A700BDE8FC5F0020A2
:10310000FEF7A2BC2760616098F8D81109B15D4C48
:1031100001E05C4C1C3C019010E001980023C0EBE6
:10312000C00002190198F12100EB800006EB0010AD
:1031300080B20CF029F80198401C019001980428F5
:10314000EBD3BDE8FC9F2760616098F8D81109B106
:10315000524C01E0514CE41F019010E00198002313
:10316000C0EBC00002190198F12100EB800006EBD2
:10317000001080B20CF008F80198401C01900198F2
:103180000028EBD0DDE72760616098F8D81109B11D
:10319000424C01E0414CE41F019010E001980023F3
:1031A000C0EBC00002190198F12100EB800006EB92
:1031B000001080B20BF0E8FF0198401C01900198CC
:1031C0000028EBD0BDE7276061600190304C0C34E3
:1031D00012E00198002300EB400101EBC00002194E
:1031E0000198F12100EB800006EB001080B20BF09B
:1031F000CBFF0198401C019001980428E9D3A0E777
:103200002760616098F8D81109B1244C01E0234C83
:10321000E41F019010E001980023C0EBC0000219E8
:103220000198F12100EB800006EB001080B20BF05A
:10323000ABFF0198401C019001980028EBD080E77B
:103240002760616098F8D81109B1144C01E0134C63
:10325000E41F019010E001980023C0EBC0000219A8
:103260000198F12100EB800006EB001080B20BF01A
:103270008BFF0198401C019001980028EBD060E77B
:10328000DC11002016380108380100207B000020E6
:10329000AE39010820560000380031009333010890
:1032A0002DE9FF5F009800217E4C00226254491CEA
:1032B000C9B20929FAD348F2E8012D27884206D974
:1032C00000202754401CC0B20628FAD305E09DF820
:1032D00004100023052200F00FFEDFF8C881724EB3
:1032E000A8F10708D8F80700C6F80300B8F80B10D3
:1032F000A6F807106D4D6861298308F1100A6C4922
:103300009AF8050001EB80000188698380782877AE
:103310004FF0090B85F81DB04FF0200984F8069096
:10332000644C61789DF8060003292BD0617839B18F
:10333000D8B1012360A26C2130200BF075FF1AE098
:1033400030B100235CA25C2120200BF06DFF05E072
:1033500000235AA25C2120200BF066FF0023514A73
:103360005C2140200BF060FF20E0012353A26C2180
:1033700030200BF059FF01234A4A6C2140200BF00A
:1033800053FF13E030B100234BA27C2140200BF00F
:10339000FBFE05E0002349A27C2140200BF0F4FE57
:1033A0000023404A7C214A200BF0EEFE9DF80C10D1
:1033B00000230622029800F09FFDD8F80710C6F8F7
:1033C0000B10B8F80B00A6F80F0098F80D207274D7
:1033D00045F81F1FA880AA715620E87185F808B02B
:1033E00037A00088E8811F3D60789DF80E80032893
:1033F0002FD0607848B1B8F1000F1DD001232EA264
:10340000A32130200BF010FF1CE0B8F1000F06D014
:10341000002329A2932120200BF006FF05E00023C2
:1034200026A2932120200BF0FFFE00231D4A9321AA
:1034300040200BF0F9FE22E0012320A2A32130203E
:103440000BF0F2FE0123174AA32140200BF0ECFE03
:1034500015E0B8F1000F06D0002317A2B3214020D9
:103460000BF092FE05E0002314A2B32140200BF0E4
:103470008BFE00230B4AB3214A200BF085FEB8F1E6
:10348000000F06D086F80A9085F81E900BF06CFEAF
:1034900003E0B772AF770BF061FE9AF80500707227
:1034A000BDE8FF9F7B0000204C110020611100202F
:1034B000AE390108DC110020200000002D000000C2
:1034C0000D0A00000549044848601623AA2200217D
:1034D000084601F03BB800000352F3003801002019
:1034E00038B50E4C25680E49616001280FD04FF4A5
:1034F0007F0102280FD021600A4800901823302253
:10350000F1214FF4CA7001F0AFFB256038BD4FF4D4
:103510007F402060F0E72160EEE7000038010020E6
:10352000380031001892070870B500F043F81D4CC0
:103530006FF07F4525601C48606000231B4A042112
:1035400018460BF021FE25604FF0501060600024FB
:10355000174D4FF6FF7604EB840000EBC4004219D0
:1035600004EB840006EA401000231A210BF00CFE45
:10357000641C032CEFD300240D4E1A25273604EBD0
:10358000840000EBC4008219601C00EB800005EB96
:10359000800081B2002318460BF0F6FD641C092C54
:1035A000EDD370BD380100200352F3001C35010833
:1035B0009A33010810B5FFF785FFBDE81040FEF70C
:1035C00037BC000010B5FEF733FC084806494160DF
:1035D0006FF07F4101600023F121BDE8104004A29B
:1035E00054200BF0D1BD000038003100380100201C
:1035F0002056200010B5FEF71BFC0B48094941601E
:103600006FF07F410160002308A2F12154200BF0EC
:10361000BBFD0023F121BDE8104006A2A4200BF061
:10362000B3BD00003800310038010020206DA6B87D
:103630002020000020A6B8200000000000B58FB0B8
:103640000EA9002002F0B4FB0DA9002002F07EFBC1
:103650009DF836309DF83A009DF839109DF83820D5
:10366000CDE90210CDE900329DF835309DF83720C4
:103670000BA105A80BF02AFE13494FF0501048602B
:10368000002305AA0421FA200BF07EFD132205A9D0
:103690000E48FCF7A7FD0D490920C8740FB000BD06
:1036A000323025302E32642D25302E32642D2530D7
:1036B0002E32642025302E32643A25302E32643A80
:1036C00025302E32640000003801002061110020F6
:1036D00010B54FF40054204600F066F8002804D0DE
:1036E0002046BDE8104000F047B810BD10B50820D6
:1036F00000F05AF800281FD010480DF090FB082168
:103700000F4800F043FA90B90E48002101700E48AE
:103710000E4A012304781CB101700F20107002E0E2
:103720000370022010700A494FF400700860BDE871
:103730001040082000F020B810BD0000A086010055
:10374000001002406E0000204D00002045000020C7
:1037500080E100E01CB54FF40050009000208DF88F
:10376000040001208DF807006946024800F0C0F906
:103770001CBD0000000402400149086070470000C1
:10378000143C0140064900200860091D0860091D1D
:103790000860091D0860024902481431086070473A
:1037A000003C0140FFFF7F0001460020024A1268F2
:1037B0000A4200D001207047143C014030B51B4A3A
:1037C00083790168002B2AD013688B431360111D85
:1037D0000B680468A3430B60017911440B6804680B
:1037E00023430B60114C083421680368994321601E
:1037F000231D19680568A94319604179102905D06E
:1038000011440A68006802430A6030BD21680268FA
:1038100011432160196800680143196030BD0079C7
:10382000104402688A43026030BD0000003C014041
:103830002DE9FF410121102002F058F801218803F1
:1038400002F09AF801F019FD0826029600248DF87E
:103850000C4001258DF80F5002A9144800F048F9DA
:103860000321042005F008FA00968DF804400C2688
:103870008DF805608DF806506846FFF79FFF6F03CF
:10388000029702A90A4800F033F90D21022005F041
:10389000F3F900978DF804408DF805608DF8065017
:1038A0006846FFF78BFFBDE8FF8100000010024073
:1038B0000008024000224FF0204310280AD0B0F543
:1038C000807F09D0B0F5805F09D0D3F858018143DB
:1038D00009D107E0586EFAE7D3F88400F7E7D3F888
:1038E000A400F4E70122104670470000D0E900125E
:1038F00011438268C068521E520142EA40200143CF
:103900000148016070470000500100A070B50468D4
:10391000A100A1F1C041D1F84011CE0BF603D0E9CE
:1039200001121143D0E903231A4311434269C369C9
:1039300011438269056A11431943426A29431143BD
:1039400031434FF02046002C3CD0D6F840416FF375
:103950000E042B4322431343C6F840310268920001
:10396000A2F1C042C2F84011016871B38900A1F10F
:10397000C041D1F8481101F07043816A0A684C686F
:10398000521E641E42EA04148A68521E44EA02244B
:103990000A8A521E44EA02421A43D6F8483103F01A
:1039A0007043CC68898A641E2403491E44EA01518D
:1039B0001943C6F8481100688000A0F1C040C0F863
:1039C000482170BDC6F84011CEE7FFE7D6F8481190
:1039D00001F07041806A02684368521E5B1E42EA31
:1039E00003138268521E43EA0223C268521E43EA4E
:1039F0000233028A521E43EA0243828A007E521E2A
:103A000043EA0252401E42EA00600843C6F84801F9
:103A100070BD000002490A6842EA40000860704731
:103A2000540100A02DE9FC47012140F2A71001F04C
:103A30005DFF2E20009002268DF8056001248DF890
:103A4000044000258DF806508DF80740244F694644
:103A5000384600F04DF80E21384600F0A0F8202737
:103A60000097DFF880806946404600F041F8202149
:103A7000404600F092F840200090DFF86C906946D4
:103A8000484600F035F800976946484600F030F89F
:103A90002021484600F081F88DF804508DF8075039
:103AA000600300906946114800F022F801F0FCF92B
:103AB000FDF72CF80BF030FB01F056FC01F06EFC2A
:103AC000102000908DF805608DF804408DF80650A8
:103AD0008DF807406946404600F00AF8BDE8FC87CB
:103AE00000080240001C0240002002400004024086
:103AF0002DE9F041002201274FF0030C07FA02F5EF
:103B00000B682B40AB422CD1066853000CFA03F42F
:103B1000A64306600E79D0F800809E4046EA08066B
:103B200006600E79012E01D0022E12D18668A643BE
:103B300086604E79D0F808809E4046EA0806866086
:103B40004668AE43466045688E799640B6B23543C6
:103B50004560C568A543C560CC799C40C3681C43DB
:103B6000C460521C102AC9D3BDE8F08110B54B07C0
:103B7000DB0E9A40C90800EB8100016A0F249C40CB
:103B8000A1430162016A1143016210BD0246002097
:103B900012690A4200D001207047418370470183B7
:103BA00070470000034A203902EB01111022FCF794
:103BB00019BB0000288C07082DE9F04788B004469F
:103BC0000F46002514218548FCF725FB8348142166
:103BD0001430FCF720FB824E00217170B17020463A
:103BE000DFF8F8A1AAF1A30A9AF89E3006E01AF8C5
:103BF00000202C2A00D10546401CC0B28342F6D8D2
:103C0000DFF8D8914FF0010C4FF00208EDB95FE0FA
:103C10001AF80420A2F13000092801D92E2A07D170
:103C2000707809F800202E2A00D17071401C707045
:103C300086F806C06D2A02D06B2A02D003E0B1716B
:103C400001E086F80680641CE4B2AC42E0D36D1C4F
:103C5000EAB21DE01AF80200A0F13004092C01D9E3
:103C60002E2808D15D4DB478143528552E2800D162
:103C7000F471641CB47086F808C06D2802D06B28FB
:103C800002D003E0317201E086F80880521CD2B203
:103C90009342DFD81EE01AF80400A0F13002092A8E
:103CA00001D92E2807D1727809F802002E2800D1F8
:103CB0007271521C727086F806C06D2802D06B2893
:103CC00002D003E0B17101E086F80680641CE4B222
:103CD000A342E0D8434C97B3012F45D0022F57D0D1
:103CE000032F29D101A804F047FA9DF8040004F835
:103CF000240F029860600398A0600498E060059823
:103D00002061069860610798A06101A804F0B8FAE4
:103D10009DF8040084F874000298A0670398E06797
:103D20000498C4F880000598C4F884000698C4F884
:103D300088000798C4F88C0008B0BDE8F087FFE75A
:103D400001A804F019FA9DF8040004F87C0F029809
:103D500060600398A0600498E06005982061069870
:103D600060610798A061E7E701A804F0F5F89DF805
:103D7000040084F844000298A0640398E064049866
:103D80002065059860650698A0650798E065D3E70B
:103D900001A804F0E1F89DF8040020710298A060E9
:103DA0000398E06004982061059860610698A0611E
:103DB0000798E06101A804F057F99DF8040084F821
:103DC0006000029860660398A0660498E066059813
:103DD0002067069860670798A067ADE79B02002000
:103DE00024000020DC1100200349085C002801D0D9
:103DF0000020704701207047510000204069806812
:103E000080B27047D0F8CC000068C0F341407047E2
:103E1000084490F89B03704700EB8100D0F85003F2
:103E2000704710B5044600220023C4F8103304EB99
:103E30008200C0F81433C0F85033A01880F88C33D7
:103E4000521CD2B20F2AF2D30820A4F8B2032046A3
:103E500009F0DAFA204609F069F8204608F08AFFEE
:103E60000121204609F032FB204608F0D7FF20460A
:103E700009F096F8002010BDD0F81003704710B577
:103E800009F0ABFA002010BD0022431883F89B23F1
:103E900000EB4113C3F8C02309F0D8B92DE9F04174
:103EA0000546134F4FF4807631463846FFF775FECE
:103EB00000244FF48058280604D541463846FFF7C1
:103EC0006EFE03E041463846FFF767FE314638464E
:103ED000FFF765FE0BF0E4F931463846FFF75DFE6B
:103EE0006806050E641CE4B2082CE4D3BDE8F0813A
:103EF00000080240FEE700002DE9F041082A00D941
:103F0000082202B90122072900D90721914200D9CC
:103F100011460024224E20273755641CE4B2082C99
:103F2000FAD314460A250DE0B0FBF5FC05FB1C0C8A
:103F300006EB04080CF1300C08F801CCB0FBF5F0EE
:103F4000641EE4B2002CEFD169B110460C4605E0C6
:103F5000351815F8015C3554401EC0B2641EE4B239
:103F6000F6D22E24345473B90020531E09E0345C79
:103F7000302C08D1341864782E2C04D03754401CCF
:103F8000C0B29842F3DB09B1521CD2B2002002E069
:103F9000B054521CD2B2082AFAD3BDE8F081000016
:103FA0007B00002006494FF40870002201E001F870
:103FB000012B401E80B2FAD2024802707047000006
:103FC000DC1100204400002070B505462DED048B67
:103FD0000C466068DFED340A00EE100AB8EE400AC5
:103FE00020EE209AA068C0F10700FCF71AFA41EC15
:103FF000110B9FED2E0B0BF097F9B0EE408AF0EE0F
:10400000608A19EE100AFCF719FA53EC182BFCF72A
:1040100099F9FCF726FA00EE100A264910EE100A6C
:10402000884201DD9FED240A244910EE100A8842DF
:104030000BDB0320A060DFED220A80EE201AFCEEED
:10404000C10A10EE900A606017E010EE100A1D49D8
:1040500088420BDB0420A060F2EE040A80EE201AF6
:10406000FCEEC10A10EE900A606006E00520A06038
:10407000FCEEC00A10EE900A6060BCEEC00A10EEC2
:10408000100AA0612078287060686860A068A86045
:10409000E068E8602069286160696861A069A861DA
:1040A000BDEC048B70BD00000024744900000000CA
:1040B0000000244000BA5B4900BA5B498096184B67
:1040C0000000C842002474490FB40299032902D1A8
:1040D000039901B900200299022902D1039901B97B
:1040E00001200299042903D10399012900D102205A
:1040F0000299032903D10399012900D103200299D0
:10410000022903D10399012900D10420029904292D
:1041100003D10399022900D105200299032903D173
:104120000399022900D1062004B070470FB4029809
:10413000032806D101980449884202D9012004B01D
:1041400070470020FBE70000C0D401002DE9F041DA
:1041500037285DD172B62F4C65682F4E002130464E
:1041600005F05FFAB704384605F068FA00213846D2
:1041700005F057FA304605F061FA00220121304679
:1041800005F03EFB0021304605F04BFA234E304649
:1041900007F03CF9002240F22551304607F0BDF906
:1041A0000021304607F026F901F002FC002001F062
:1041B000C1FCFFF7E7FA4FF0E0200026066101F0AE
:1041C0003FFD0021381401F019FE002001F0CCFF62
:1041D000FDF752F81249134807F0F8FA72B6432077
:1041E00001F05EF82A2001F05BF84D2001F058F84C
:1041F0004C2001F055F872B6206880F3098886F3E8
:104200001488206880F30888AC46BDE8F041604718
:10421000BDE8F08100000C0800100040004800409C
:10422000A03B0020F43500202DE9F05FFF250020A1
:10423000FFF734FEDFF8CCA04FF400694946504642
:10424000FFF7A4FCDFF8C0804FF4806B00B3594641
:104250004046FFF79BFCE8B149464046FFF796FC15
:10426000D0B104212948FFF791FCB8B10426042EEF
:1042700040D20024264F385DFFF710FE0BF010F8F7
:1042800076B1012E13D0022E18D0032E23D11CE0BC
:104290000026ECE70126EAE70226E8E70326E6E740
:1042A00049465046FFF772FCA8B9254613E0594627
:1042B0004046FFF76BFC70B925460CE04946404686
:1042C000FFF764FC38B9254605E004210F48FFF7E5
:1042D0005DFC00B92546FF2D03D1641CE4B2082C17
:1042E000C9D3FF2D04D005EBC600C0B2BDE8F09FD6
:1042F0000020FBE74FF400510448FFF747FC002083
:10430000F4E700000020024000080240000C0240D8
:104310001B37070810B5064C6078002805D0002030
:10432000607000F055F8207810BD002010BD00002E
:104330002001002010B50146002004F02BFD064CA2
:104340000020FFF751FD10B960780028F8D0BDE8D3
:104350001040FFF7DFBF00002001002070B5FFF71D
:1043600063FF1A4C00230125E21CD0B12178814261
:1043700028D16178652901D2491C6170617864296E
:104380001BD00DD910709570A07800F10100C0B25B
:10439000A0700E2804D9A3705078002800D1557061
:1043A00070BD207828B16178091F602901D2107092
:1043B000557023706370937070BDA370107055704A
:1043C000957070BD2070637070BD00001D010020ED
:1043D00010B5FCF779FB4FF47A700CF020FDBDE8C6
:1043E0001040FCF76BBB00007CB501214FF48670D8
:1043F00001F07CFA4FF49850009002208DF80500EF
:1044000001208DF8040000248DF806408DF8070087
:10441000134D69462846FFF76BFB69152846FFF7E1
:10442000BEFB4FF4406100918DF804406946284678
:10443000FFF75EFBE814009069460A48FFF758FB57
:104440000420009069460848FFF752FB07480470B3
:1044500044708470C01E0470447084707CBD000081
:104460000008024000200240000C02402001002011
:1044700010B500231C4C2468002C06D0012C0DD054
:10448000022C17D0032C1ED023E000EB4003C1EB1D
:10449000011000EB400003EB40131AE0A1F20F11F2
:1044A000C0F5F070A1EB011100EB4110401E00EBD4
:1044B00040030EE0A0F20F10A0EB001001EB401043
:1044C00000EB400305E000EB0010C1EB001303F22A
:1044D0000F130648834205D205488068C25218442B
:1044E000110C817010BD00006800002000FA05006A
:1044F0002401002070B58AB0C0F30744C0F307253B
:10450000C6B2FCF7C1FC4FF440300090012001908E
:104510000494039502960F2005900B48806806903E
:10452000002007904FF4887008904FF4F0700990C5
:104530006846FCF7BFFCFCF719FD0220FCF7B0FC55
:104540000028FAD00AB070BD240100202DE9F04FF8
:104550008BB03B4C6468C4F3074704F0FF09C4F315
:104560000728384CDFF8D8A0C2F5F076AAF1140A73
:104570002568DAF80840002D37D0C3F5887C012D76
:104580003ED0022D4CD000EB0010C3EB0010401ABF
:1045900000F5887000EB400005191FFA8CF61446F0
:1045A0009B46FCF771FC4FF44030019001200290D3
:1045B000CDF81080CDF80C900597FF200690079558
:1045C00008960994CDF828B001A8FCF773FCFCF715
:1045D000CDFC0220FCF764FC0028FAD0DAF80000D9
:1045E00000F0B4FA0BB0BDE8F08FC1EB011100EBA5
:1045F000411000EB40000519B6B21C469346D0E7C7
:10460000ACEB0101C1EB0111C0EB4110801A00F5C8
:10461000F07000EB40000519B6B21C469346C0E7A7
:10462000C0F58870801AC0EB001001EB401000EB61
:1046300040000519C3F5F07086B214469B46B0E7FA
:1046400038010020680000202DE9F0438BB090462F
:10465000994600242E4A1568002D0CD0C1EB01129A
:1046600000EB42162B4A012D97680DD0022D11D078
:10467000032D18D01AE000EB4002C1EB011000EB53
:10468000400002EB401411E0A6EB860022493844BA
:1046900044180BE0A0F20F10A0EB001001EB40104B
:1046A00000EB400402E006EB4600C4191948143040
:1046B0000068C0F30745C6B2C0F30727FCF7E4FB68
:1046C0004FF4403001900120029004970396059525
:1046D0000F2106910794B9F1000F12D040F2DF11BB
:1046E0000891CDF824800A9001A8FCF7E3FBFCF7C1
:1046F0003DFC0220FCF7D4FB0028FAD00BB0BDE84B
:10470000F083002108910990CDF82880ECE70000A3
:10471000680000202401002000FA05002DE9FC5F5C
:10472000012140F2FF1001F0E1F84FF00408CDF84C
:10473000008003208DF8050002208DF80400002081
:104740008DF806008DF807006946AB48FFF7D0F9F1
:104750000E220221A848FFF709FA4FF00809CDF808
:1047600000906946A448FFF7C3F90E220321A2482E
:10477000FFF7FCF94FF4807ACDF800A069469E4817
:10478000FFF7B6F90E2208219B48FFF7EFF9012445
:10479000009469469948FFF7ABF909220021974830
:1047A000FFF7E4F94FF4006BCDF800B06946944888
:1047B000FFF79EF90E220B219148FFF7D7F920034E
:1047C000009069468E48FFF793F90E220C218C4821
:1047D000FFF7CCF90220009069468848FFF788F976
:1047E000092201218548FFF7C1F940250095694656
:1047F0008448FFF77DF90E2206218248FFF7B6F9BB
:104800002020009069468048FFF772F90E220521AA
:104810007D48FFF7ABF9009569467B48FFF768F9DB
:104820000E2206217848FFF7A1F96003009069463F
:104830007148FFF75DF90E220D216F48FFF796F9D9
:10484000A602009669466F48FFF752F909220A212D
:104850006C48FFF78BF9E003009069466648FFF764
:1048600047F90E220F216448FFF780F9009469464A
:104870006648FFF73DF90E2200216448FFF776F9FC
:104880008027009769466248FFF732F90E22072118
:104890005F48FFF76BF9CDF8008069465B48FFF78A
:1048A00027F90E2202215948FFF760F94FF010084E
:1048B000CDF8008069465448FFF71AF90E2204210A
:1048C0005148FFF753F92003009069464D48FFF720
:1048D0000FF90E220C214B48FFF748F900954D4D7A
:1048E00069462846FFF704F90E2206212846FFF7FD
:1048F0003DF9CDF800B069464248FFF7F9F80E22BD
:104900000B214048FFF732F9CDF8008069463F4857
:10491000FFF7EEF80E2204213C48FFF727F9CDF807
:10492000009069463648FFF7E3F80E220321344829
:10493000FFF71CF9CDF800A069463048FFF7D8F81A
:104940000E2208212D48FFF711F94FF40079CDF818
:10495000009069462948FFF7CBF80E220921274825
:10496000FFF704F9009769462648FFF7C1F80E22C1
:1049700007212448FFF7FAF8009669462348FFF715
:10498000B7F80E220A212148FFF7F0F8CDF8009081
:1049900069461E48FFF7ACF80E2209211B48FFF7B5
:1049A000E5F800961C4E69463046FFF7A1F80E2246
:1049B0000A213046FFF7DAF8CDF8008002208DF8A2
:1049C00005008DF8044000208DF806008DF80740A2
:1049D00069462846FFF78CF8009769462846FFF796
:1049E00087F810212846FFF7DAF880212846FFF7DC
:1049F000D6F8BDE8FC9F0000001C02400004024005
:104A00000000024000180240001002400020024056
:104A100000080240000C02400014024000B58FB0B4
:104A20000121880600F0A8FF0121C80500F05EFF03
:104A3000FFF774FE03F06CFE062207214FF4967018
:104A400001F06EF84FF4803001F05AF8012001F0C7
:104A500061F83D2001F028F80028FAD000200090ED
:104A60000190029003900C900D900E900490059090
:104A70002E2006901720079040F20E20089040F25A
:104A8000271009904FF409700A9040F23D100B90E6
:104A9000684600F037F9012000F024F90FB000BD9E
:104AA00010B590B02F20009040F20E2001901820F9
:104AB000029040F22710039001200490FF200590FF
:104AC000069007900890099007200B9040F2A350A1
:104AD0000D90C01E0E904FF488700F900C480C90F3
:104AE0004FF4C0600A900B4C6946204600F06CF908
:104AF000012000F0B5F90121204600F059F901200C
:104B000000F0AEF9044800F009F810B010BD000044
:104B100000FA05D004690140400100200149086104
:104B200070470000240100200649002804D00648F0
:104B300088600120C86070474FF0504088600020B6
:104B4000C86070472401002000FA05D001490860C0
:104B5000704700002401002010B50949C9680029E8
:104B600008D00146074800F021F9BDE810400120B7
:104B700000F076B901460348803800F017F9F4E7F1
:104B800024010020046901402DE9F04F04468846C5
:104B90002546334902EB0210DFF8C8A001EB4009BB
:104BA000002B0FD0002709EB070090F802B0002679
:104BB0005FEA0B6035D541462046DAF80020FFF762
:104BC00057FC34E04FF0000B09EB0B008778002610
:104BD000380606D541462046DAF80020FFF748FCA3
:104BE00005E041462046DAF80420FFF741FC78064C
:104BF000070E641CA4B2601B10280CD0761CF6B201
:104C0000082EE5D30BF1010B0BF0FF0BBBF1200FCE
:104C1000DAD3BDE8F08F2C4608F101081FFA88F8B6
:104C2000F0E741462046DAF80420FFF721FC4FEA7E
:104C30004B604FEA106B641CA4B2601B102808D0B4
:104C4000761CF6B2082EB3D37F1CFFB2202FAAD356
:104C5000DFE72C4608F101081FFA88F8F4E70000A6
:104C600023370708380100202DE9F84F04468B460A
:104C70009246A04600270AFB03F0C11700EB5170D3
:104C8000DFF85C90009025E00A98C65D00253006AC
:104C900006D559462046D9F80020FFF7E9FB05E084
:104CA00059462046D9F80420FFF7E2FB7006060EAD
:104CB000641CA4B2A4EB0800504505D144460BF196
:104CC000010B1FFA8BFB03E06D1CEDB2082DDED348
:104CD0007F1CBFB20098B7EBE00FD5DBBDE8F88FC3
:104CE000380100200649002804D0086840F001007F
:104CF00008607047086820F00100086070470000F5
:104D00001868014030B5264A136826490B401360E5
:104D1000038A1B04146845692C431C431460121D4C
:104D200013680B401360038B1B041468C5692C4384
:104D30001C431460121D13680B401360038C1B048A
:104D40001468456A2C431C431460121D13680B4001
:104D50001360018D09041368C46A23430B43136075
:104D6000111D0A68104B1A400A60D0E900231A434B
:104D7000D0E9023423431A430B681A430A60416B9B
:104D80000A02018E0B04064924310C6804F07F44AA
:104D90000C600C68806B134304431C430C6030BDF3
:104DA0000868014000F800F08F88FE0F41617047ED
:104DB000002904D0016841F00101016070470168D9
:104DC00021F001010160704770B58A8812044368C0
:104DD00003F4704343600B68134343608A891204F1
:104DE000836803F4704383608B68134383600269B4
:104DF00022F0070202610A690261CA6913020A8C81
:104E0000120491F8244024068569002585618E6985
:104E100022431E4316438661426922F0FF0242612B
:104E20004A694261C26940F207739A43C261D1E99B
:104E30000A231A43C261826A85620A6B82620A8F00
:104E40001204C36A03F0E023C3624B6B1343C362D3
:104E5000026B6FF30A020263C96B016370BD00004D
:104E600001490860704700002468014010B54FF404
:104E700080610948FEF793FE4FF400510748FEF7A2
:104E80008EFE04210648FEF788FEBDE81040012191
:104E90000448FEF782BE0000001C024000080240E9
:104EA00000100240000002407CB50121BF2000F04C
:104EB0001DFD0420009000248DF8054001258DF88B
:104EC00004508DF806408DF8075069460C48FEF7EF
:104ED0000FFE4FF4B840009069460A48FEF708FEFE
:104EE0008DF805408DF804508DF806408DF8075078
:104EF0000820009069460448FEF7FAFD7CBD0000DA
:104F000000100240001C0240000C024010B50421B9
:104F10000948FEF744FE01210848FEF740FE4FF421
:104F200080610748FEF739FEBDE810404FF400519C
:104F30000448FEF732BE00000010024000000240AC
:104F4000001C0240000802404FF400610148FEF7D7
:104F500024BE0000001C02404FF400610148FEF72F
:104F60001EBE0000001C02402DE9F04790B0304DFD
:104F7000002085F8A10095F89E004FF003094FF03E
:104F8000020AE846082802D085F8A1901DE0A81C76
:104F9000FBF746FD0746281DFBF742FD4FF6FF7164
:104FA00001EA4006202E02D985F8A1900DE00024E8
:104FB00009E008EB4401384600F0ACF8A8B17F1CCA
:104FC000BFB2641CA4B2B442F3D395F8A100002888
:104FD0002BD12878A87716496878C877700085F8AB
:104FE000A29081F82000002117E085F8A1A0ECE74D
:104FF00095F8A20018F81130421C284485F8A22028
:10500000837708EB4100437895F8A200421C2844BE
:1050100085F8A2208377491C89B2B142E8D30448BD
:1050200095F8A2101E3000F0F7F810B0BDE8F08738
:10503000F801002010B51D4A002382F8A13092F833
:105040009E00082803D0032082F8A10010BD901C08
:10505000FBF7E6FC0446101DFBF7E2FC0E2CF5D135
:105060001349C0B1012240314A70401E08700978CE
:105070001048017010490978007801F0DBF90F48F9
:10508000017806290CD000781228DFD1BDE8104045
:105090000720FCF701B9062001F8400F4B70EEE73E
:1050A000BDE810400420FDF707BF0000F801002014
:1050B000DC110020470000204800002045000020AF
:1050C00010B5104C104A94F89E001060082801D1C9
:1050D000092111600D49536809688B4211D0516054
:1050E0000B4A117809B1491E11701178002908D1B5
:1050F000002806D0032801D301F016FA002084F816
:105100009E0010BDF80100204C010020300000205E
:10511000240000202DE9F0413A4A92F800C03A4AB2
:1051200000260127126802EB82035D00642302FB64
:1051300003F4364BBCF1070F1AD2DFE80CF004077A
:105140000A0D101316005A611E6111E05D611E61A7
:105150000EE05C611E610BE05A611F6108E05D6159
:105160001F6105E05C611F6102E05A6102221A6161
:10517000274A14689C61274C2478012C02D1A41E74
:105180005C619C6113283BD2DFE800F00A0D10132C
:1051900016181B1D1F21232527292B2D2F313300E6
:1051A0005869000C26E0988A80B223E09869000CC8
:1051B00020E0188B80B21DE090791BE0188A80B245
:1051C00018E0002016E0002014E0002012E000208B
:1051D00010E000200EE000200CE000200AE000209B
:1051E00008E0002006E0002004E0002002E00020AB
:1051F00000E00020020A0A7048700120BDE8F0813A
:105200000020FBE74700002084000020240000204D
:105210008C0000206C00002030B5A1B005460C4683
:105220002246294601A8FAF7DDFF21462846FBF76A
:1052300093FC050A224601AB641CE1B29D544A1C52
:10524000D2B25854114601A80DF072FF21B030BD02
:10525000FEE7704708B54FF4A06000F06BF8272018
:105260008DF8000001208DF801008DF802008DF806
:105270000300684600F02AF808BD08B54FF4C06086
:1052800000F058F809208DF8000001208DF8010089
:105290008DF802008DF80300684600F017F808BD8D
:1052A00000F01F02012191404009800000F1E02040
:1052B000C0F88011704700F01F02012191404009A1
:1052C000800000F1E020C0F80011704730B50F23D6
:1052D000C27801250178002A1FD0154A126802F40D
:1052E000E062C2F5E062C2F30722C2F10404D340D7
:1052F0004278A24084781C401443220101F1E0214D
:1053000081F80024007800F01F018D4040098000E2
:1053100000F1E020C0F8005130BD01F01F008540D1
:105320004809800000F1E020C0F8805130BD000045
:105330000CED00E002490843024908607047000094
:105340000000FA050CED00E0024A1140014302485A
:105350000160704780FFFF1F08ED00E0014807F083
:1053600005BA0000F43500201CB50121084600F004
:10537000BDFA4020009002208DF8050000208DF835
:1053800004008DF8060001208DF8070069460248E8
:10539000FEF7AEFB1CBD0000000002407CB5012101
:1053A000CD2000F0A3FA1020009000248DF80540D5
:1053B00001258DF804508DF806408DF80750694698
:1053C0000D48FEF795FB009569460C48FEF790FBEB
:1053D0006D03009569460A48FEF78AFB8DF8044084
:1053E000009569460748FEF783FB2811009069463F
:1053F0000548FEF77DFB7CBD001C0240000002401A
:1054000000080240000C02400018024001490862F6
:105410007047000000000E42F0B5804B93F81E026A
:105420000021012801D983F81E121878032800D919
:1054300019705878032800D959709878012800D934
:105440009970DA6A0320052A00D9D8629D6A744CE3
:10545000744AA54200D99A621D6B052D00D91963C3
:1054600093F840500A2D01D983F8401093F8415029
:105470000A2D01D983F8411093F84250032D01D928
:1054800083F8421093F82050012D01D983F82010A1
:10549000DD6C052D00D9D8649E6C42F6E065A6420D
:1054A00000D99D641E6D052E00D919659E6E052ECE
:1054B00000D998665E6E964200D95D66DE6E052E56
:1054C00000D9D966DE68052E00D9D8609E6896425C
:1054D00000D99D601D69052D00D91961D3F884504C
:1054E000052D01D9C3F88400D3F88050A54201D915
:1054F000C3F88020D3F88850052D01D9C3F888104F
:10550000D3F8A050052D01D9C3F8A000D3F89C0012
:10551000A04201D9C3F89C20D3F8A400052801D9E2
:10552000C3F8A41093F8D5010A2801D983F8D5113E
:1055300093F8D801012801D983F8D81193F8D7013D
:10554000012801D983F8D71193F8D401012801D992
:1055500083F8D41193F8D601012801D983F8D61124
:1055600000201A1892F8D941802C01D982F8D9115B
:10557000401CC0B21428F4D3002030241A1892F82A
:105580001452802D06D9082802D282F8144201E074
:1055900082F81412401CC0B20A28EFD30020224C1B
:1055A000224D234A9FED230A03EBC001D1F8B860D6
:1055B0002644AE4203D3F7EE000AC1ED2E0AD1F81D
:1055C000B46052F83070BE4206D8D1F8B46002EB35
:1055D000C0077F68BE4205D2154E483656F8206097
:1055E000C1F8B460062809D203EB8001124FD1F84C
:1055F000F061BE420CDD81ED7C0A09E0811F03EB06
:1056000081010E4FD1F80C62BE4201DD81ED830AAB
:10561000401CC0B20828C7D3F0BD0000DC11002038
:10562000804F1200C0D40100CDCCCCC03433730005
:1056300094000020000000000050C3470024F448FC
:10564000704710B505F09AFEBDE8104000F01CB997
:1056500010B505F083FEBDE8104000F00FB9000062
:105660002DE9FE4379480024047005F087FE00F020
:1056700095FA0021042000F0C9FCFEF7D3F90020C0
:1056800000F006FCA0F54851F23902D000F0F5FC1C
:1056900008E00121080700F053F90120FFF7B6FEEA
:1056A00000F028FD03F0B0FE4FF47A700BF0B7FB6A
:1056B000FEF79AFEFFF7B2F9FFF7F2F90120FFF7C4
:1056C00011FB0020FFF730FA4FF47F00FEF712FFC6
:1056D0000120FFF729FAFF20FFF73EFA4FF050189C
:1056E0004046FEF707FF03F041F9FEF75BFC00F0D0
:1056F00013FFFFF791FE564F97F8D50180B197F849
:10570000D501012811D097F8D501022812D097F8B9
:10571000D501032813D097F8D501042814D017E039
:105720004FF49650FBF786FC12E04FF41650FBF74F
:1057300081FC0DE04FF46150FBF77CFC08E04FF476
:105740009640FBF777FC03E04FF4E130FBF772FC87
:1057500097F81E02012802D13E480CF055FF03F0D5
:10576000EFFE3D480470FDF7F5FF00243B4801259E
:1057700005703B48062606700021007800F05AFEAE
:105780003848057038480090384B394A002139486C
:1057900006F0CEFA3649374807F04CF9364D4FE05F
:1057A000641CA4B2142C03D997F81E02012813D04C
:1057B0002E700220FEF7BEFD12282DD00EDC12281E
:1057C0003ED2DFE800F03D203D263D3D3D3D3D1D04
:1057D00038233D3D3D3D3D1A2E70EAE71B282FDA68
:1057E000A0F1130008282BD2DFE800F02A2A2A2A89
:1057F0002A2A042805F0AAFD22E005F09FFD1FE0FB
:10580000FFF7AAFB1CE0FFF79FFB19E005F0B6FDD0
:1058100016E005F0A3FD13E04046FEF76BFEB42052
:10582000ADF804007820ADF80600ADF8080001A836
:105830000CF08AFD04E0FFF769FB01E0FFF716FBBF
:1058400028780228ACD0BDE8FE8300006E0000205E
:10585000DC110020133D0108460000206C000020F0
:10586000470000206D00002060010020DC010020C6
:10587000A03B0020F43500204500002020210148F5
:10588000FEF78BB90008024020210148FEF787B9D6
:10589000000802402DE9FF5F8946074611469B46F6
:1058A0006846FEF77FF90025EA461AF805800024CD
:1058B00009EB0506C4F1070028FA00F0C00706D07E
:1058C0003819B1B280B25A46FEF7D2FD05E0381958
:1058D000B1B280B20E9AFEF7CBFD641C082CE9D35E
:1058E0006D1C102DE1D3BDE8FF9F0000054A002983
:1058F00003D0116801431160704711688143116042
:105900007047000030380240054A002903D0116872
:1059100001431160704711688143116070470000B6
:1059200010380240054A002903D011680143116074
:105930007047116881431160704700003838024099
:10594000054A002903D011680143116070471168AE
:10595000814311607047000040380240054A002929
:1059600003D01168014311607047116881431160D1
:105970007047000020380240054A002903D0116812
:105980000143116070471168814311607047000046
:1059900044380240054A002903D0116801431160D0
:1059A000704711688143116070470000243802403D
:1059B0001048016841F0010101600E4A00210832DF
:1059C000116002680C4B1A400260031D0B4A1A60FA
:1059D000084B0B4A84331A60084A103A1B1D1A60A0
:1059E000026822F48022026002480C300160181D17
:1059F0000160704700380240FFFFF6EA10300024D3
:105A00000030002070B5244B196801F00C01234CC4
:105A100000291ED0224E04291DD008291DD0046063
:105A2000196801F0F00109091E4A545C0168E1405F
:105A300041601C6804F4E054A40A145D21FA04F4E3
:105A400084601B6803F460435B0BD25CD140C1608F
:105A500070BD0460E4E70660E2E70F4A121F1168B8
:105A6000C1F38055116801F03F0135B1B6FBF1F18A
:105A70001468C4F38814614305E0B4FBF1F11468C1
:105A8000C4F3881461431268C2F30142521C5200ED
:105A9000B1FBF2F10160C3E7083802400024F400D2
:105AA00040787D01140000200246002051090129A0
:105AB0000BD002290DD00949096802F01F02012309
:105AC00093400B4200D001207047044974390968A3
:105AD000F3E70249091F0968EFE700007438024044
