:020000040800F2
:1000000038760020C10100085B5000086D400008F0
:1000100059500008B90F000899CD000800000000F1
:1000200000000000000000000000000099790008B6
:10003000D513000800000000295400081B810008A7
:10004000DB010008DB010008DB010008F95C0008A7
:10005000DB010008DB010008DB010008DB01000810
:10006000DB010008F1390008DB010008DB010008B2
:10007000DB010008DB010008DB010008DB010008F0
:10008000DB010008DB010008DB010008DB010008E0
:10009000DB010008DB010008DB010008DB010008D0
:1000A000DB010008DB010008DB010008DB010008C0
:1000B00055820008DB010008DB010008DB010008B5
:1000C000DB010008DB010008DB010008DB010008A0
:1000D000DB010008DB010008DB010008AD9E000821
:1000E000D5390008DB010008DB010008DB0100084E
:1000F000DB010008DB010008DB010008DB01000870
:10010000DB010008DB010008DB010008DB0100085F
:10011000DB010008DB01000869820008DB01000840
:10012000DB010008DB010008DB010008DB0100083F
:10013000DB010008DB010008DB010008DB0100082F
:10014000DB010008DB010008DB010008DB0100081F
:10015000DB010008DB010008DB010008DB0100080F
:10016000DB010008DB010008DB010008DB010008FF
:10017000DB01000851510008DB010008DB01000829
:10018000DB010008DB010008DB010008DB010008DF
:10019000DB010008DB010008DB010008DB010008CF
:1001A000DB010008DB010008DB010008DFF80CD0F0
:1001B00000F0C6FB00480047BD0D0108387600205E
:1001C0000648804706480047FEE7FEE7FEE7FEE7F1
:1001D000FEE7FEE7FEE7FEE7FEE7FEE7F98100083F
:1001E000AD01000840EA01039B0703D009E008C9FC
:1001F000121F08C0042AFAD203E011F8013B00F8EC
:10020000013B521EF9D27047D2B201E000F8012B37
:10021000491EFBD270470022F6E710B513460A4686
:1002200004461946FFF7F0FF204610BD421E12F8A3
:10023000013F002BFBD111F8013B02F8013B002BE1
:10024000F9D1704710B5002200E0521C835C8C5C31
:10025000A34201D1002BF8D1D8B2E1B2401A10BDAF
:100260002DE9FE4F81EA030404F0004421F000412F
:1002700000944FF0000B23F0004350EA01045ED0DD
:1002800052EA03045BD0C3F30A54C1F30A552C4469
:10029000A4F2F3340194A0FB0254C1F3130141F41E
:1002A0008011C3F3130343F4801301FB024400FBEA
:1002B000034E840A970A44EA815447EA8357A4FB11
:1002C000076802958D0A05FB07854FEA932C04FB0E
:1002D0000C542705029D4FEA065847EA1637B5EB3E
:1002E00008056EEB070C870E920E47EA811742EA6B
:1002F0008312A7FB0201B6EB0B0164EB00042B0D8C
:1003000043EA0C335E1844EB1C50DA465146E7FBD7
:100310000201C5F313044FEA0B3343EA14534FEAC7
:100320000432019C43EA0603A4F10C040294009CED
:10033000CDE900B400F0B6F903B0BDE8F08F0020BD
:100340000146F9E72DE9F04D81EA030404F0004B82
:1003500021F0004514464FF0000A23F0004150EA16
:10036000050220D054EA01021DD0C5F30A57024607
:10037000C5F31303C1F31300C1F30A5640F480150B
:1003800043F48013A7EB0608101BD64608F2FD388D
:1003900073EB050002D308F1010801E092185B41FC
:1003A000B8F1000F03DA00200146BDE8F08D00200F
:1003B0004FF48011064684460EE0171B73EB0507C9
:1003C00005D3121B63EB050306434CEA010C4908F5
:1003D0004FEA300092185B4150EA0107EDD152EA32
:1003E000030012D082EA040083EA0501084305D025
:1003F000101BAB4106D20122002306E000224FF081
:10040000004302E06FF0010253101AEB06004CEBC0
:10041000085110EB0A0041EB0B01BDE8F04D00F074
:1004200032B90EB540F2334102910021CDE90011FD
:100430000A460B4600F036F903B000BDC1F30A527C
:1004400010B5C1F3130140F2FF3341F480119A4219
:1004500001DA002010BD40F233439A42A2F2334247
:1004600003DC524200F079F810BD904010BD00F05E
:10047000004230F000400AD0C10D01F56071C0F3B8
:10048000160042EA0151C20840071143704700209C
:100490000146704701F0004330B421F0004150EABA
:1004A000010206D00A0DA2F56072C1F31301002A01
:1004B00002DC30BC00207047440F44EAC104C10094
:1004C000E01830BC00EBC25000F0A6B830B50B46C7
:1004D000014600202022012409E021FA02F59D4274
:1004E00005D303FA02F5491B04FA02F52844151E48
:1004F000A2F10102F1DC30BD2DE9F05F05460020DC
:1005000092469B4688460646814640241BE0284684
:1005100041464746224600F020F853465A46C01A44
:10052000914110D311461846224600F01BFA2D1AAD
:1005300067EB01084F4622460120002100F012FA25
:1005400017EB00094E41201EA4F10104DFDC4846F0
:1005500031462A464346BDE8F09F202A04DB203A74
:1005600021FA02F00021704721FA02F3D040C2F1D3
:100570002002914008431946704700000FB4002341
:1005800000B589B00CA900910B996FF00042CB60C7
:100590001E4B06931E4B07930423CDE901321D4ADF
:1005A000089202466B46002000F096FA09B05DF80A
:1005B00014FB70B586B006464FF0FF300091CDE9D0
:1005C0000101002015460C4604903246694604A8F5
:1005D000FFF7D4FF02460498211825B108B1084658
:1005E00000E020462860049800280DD0002A02DD93
:1005F0000098884208D0081B0094CDE901043246D7
:10060000694604A8FFF7BAFF06B070BD110D0008D7
:100610002F0D0008A70900080029A8BF7047401C3B
:10062000490008BF20F00100704710B4B0FA80FC08
:1006300000FA0CF050EA010404BF10BC704749B145
:10064000CCF1200421FA04F411FA0CF118BF0121B5
:1006500021430843A3EB0C01CB1D4FEA00614FEA95
:10066000102042BF002010BC704700EBC350104464
:100670000029A4BF10BC7047401C490008BF20F0EF
:10068000010010BC704710B5141E73F1000408DAA5
:10069000401C41F1000192185B411A4301D120F046
:1006A000010010BD2DE9F04D92469B4611B1B1FA03
:1006B00081F202E0B0FA80F22032904600F052F966
:1006C00004460F4640EA0A0041EA0B0153465A46E7
:1006D000084313D0114653EA010019D0C8F1400273
:1006E0005046FFF73AFF05460E46504659464246E9
:1006F00000F038F9084305D0012004E020463946CF
:10070000BDE8F08D0020054346EAE0762C433743F0
:100710000A986305E40AA0EB08000022FD0A44EAF7
:1007200047540A3002D500200146E9E701051019B7
:100730006941DDE9084500196941BDE8F04DA2E7CE
:100740002DE9FE4F804681EA0300C00F0C46009061
:1007500021F0004123F00045B8EB0200A94105D289
:100760004046214690461C460B46024623F0004078
:10077000104347D0270DC7F30A00C3F30A51029074
:10078000401A019040286BDAC3F3130040F4801B39
:100790000098924620B10023D2EB030A63EB0B0BC7
:1007A00001985946C0F14002504600F0DBF8064679
:1007B0000D4650465946019A00F0E3F810EB080048
:1007C0006141002487EA115284EAE7731A4340D05A
:1007D000009A62B3019A012A4FEA075215DC001B06
:1007E00061EB02014FF0004202EA0752CDE90042FC
:1007F000001C41F5801132462B46FFF753FF03B032
:10080000BDE8F08F40462146F9E7001B61EB02018D
:10081000001C41F5801300185B412018A2F5001759
:1008200047EB030140EAD570B6196D4111E06D0840
:100830004FEA360645EAC0754FEA0752001B61EBE6
:100840000201001C41F5801149084FEA30000019EF
:10085000514132462B4603B0BDE8F04FFFF713BFBE
:100860000098012240000023D0EB020263EBE0730A
:10087000009821464FEAE074B8EB000061EB0401F8
:10088000E9E783F000435BE781F0004158E770B58A
:1008900021F0004303430CD0C1F30A550024D5EBEB
:1008A000040564EB0403D617AD1AB34102DB002044
:1008B000014670BD201841EB025170BD0EB5C10F4D
:1008C00080EAE0700844CA07002140F233438DE813
:1008D0000E000A460B46FFF7E5FE03B000BDC1F36C
:1008E0000A52C1F3130140F2FF3341F480119A42DE
:1008F00002DA00200146704740F233439A42A2F2E6
:10090000334202DC5242FFF728BE00F02BB8000051
:1009100030B5041E71F1000404DB4FF00044404286
:1009200064EB0101141E73F1000405DB1C464FF05B
:100930000043524263EB0403994208BF904230BD2A
:10094000064C074D06E0E06840F0010394E807001C
:1009500098471034AC42F6D3FFF72CFC38250A0830
:1009600058250A08202A04DB203A00FA02F1002068
:1009700070479140C2F1200320FA03F319439040DD
:100980007047202A06DBCB17203A41FA02F043EAEF
:10099000E07306E041FA02F3D040C2F12002914038
:1009A000084319467047C0B24FF4F05100F022BA24
:1009B0002DE9FF4F087883B09946FF2805D0491CE0
:1009C0002D2804D00024002008E000200BE00124A2
:1009D000F9E700EB800003EB4000491C0B78FF2B8C
:1009E000F7D104B1404200230293147819461D4602
:1009F0002D2C01D02B2C04D1521C2D2C13D00024D3
:100A00000294AA461478FF2C0FD00A25A3FB057880
:100A100001FB05814FF0000C03FB0C11521CE31984
:100A20004AEB0101EEE70124EAE7814453EA0100C1
:100A300002D019F5C87F06DA03980021C0E9001139
:100A400007B0BDE8F08F0025AE4E2F46DFF8B88224
:100A5000184600F0E3F9CDE90001B9F1000002DA2F
:100A6000C9F1000400E004460023A74A1AEB030B77
:100A700042EB045A12E0E00707D02A4633463846D4
:100A80004146FFF7EDFB074688462A4633461046A7
:100A90001946FFF7E5FB05460E466410002CEAD127
:100AA000DDE90001B9F1000F5A46534606DAFFF7B7
:100AB00049FC3A464346FFF745FC05E0FFF7D0FB0B
:100AC0003A464346FFF7CCFB029A0AB181F0004157
:100AD000039AC2E90001B3E72DE9FF4F1F468DB02D
:100AE000D7E901464FF0FF382E2045464FF0000968
:100AF0000B90B9696D1C0E988847396A8246884701
:100B00000028F6D1BAF1FF3F0AD024F4D064002EB9
:100B100011DDBAF12B0F08D0BAF12D0F0BD102E085
:100B2000404611B08DE744F48064B9696D1C0E989D
:100B300088478246761E6946600501D52D2000E073
:100B40002B208DF8000001F1010B0DF1200809E0C8
:100B5000B9696D1C0E98884782460F9844F400745A
:100B6000761E0560002E02DDBAF1300FF0D00B9931
:100B70008A453ED144F0800406E00F99681CA9F133
:100B8000010944F400740860B9696D1C761E0E9862
:100B9000884782463028F0D02BE00B998A4505D152
:100BA000200603D444F08004761E18E050460DF071
:100BB00039FF08B30DF11301761E44F400748B4520
:100BC00008D2AAF130000BF8010B200607D5A9F1D5
:100BD000010003E0200602D409F101008146A005CE
:100BE00002D50F99681C0860B9696D1C0E9888477A
:100BF0008246002ED1DC53E0002E51DDBAF1650FA4
:100C000002D0BAF1450F4BD1A00549D5B9696D1C89
:100C100024F44074761E0E9888478246002E0CDD20
:100C20002B2804D0BAF12D0F07D144F48074B96990
:100C30006D1C0E9888478246761EE00501D52D2151
:100C400000E02B2108F8011BCDF82C8021E00DF1EC
:100C50002901761E44F4007488450CD2AAF13000B4
:100C600010F0FF0088F8000002D10B99884509D9DF
:100C700008F1010806E0E00501D5244801E042F250
:100C80000F708146B9696D1C0E98884782460F988F
:100C90000560002E04DD50460DF0C4FE0028D6D1BC
:100CA000F9690E988847FF208BF8000088F800004B
:100CB0000020069007904B466A4608A906A8FFF751
:100CC00077FEA00502D46FF001002AE714F0240F8C
:100CD0000AD0E00714D1DDE906123868031D3B6035
:100CE0000068C0E900120BE0DDE90601FFF7D2FB66
:100CF0000146E00704D13868021D3A6000680160CF
:100D000028460EE7000014400000F03FF1D8FFFF36
:100D1000426842B1016811F8013B23B1521EC0E99B
:100D20000012184670470121C160881E7047426852
:100D30005AB1C368016843B983688B4205D0491E24
:100D4000521CC0E90012002070474FF0FF3070477E
:100D50002DE9F04D00231A461B1A8A4103DB0020BF
:100D60000146BDE8F08DC1F30A52C1F3130141F40D
:100D700080154FF0000BD10702D100186D41521EB3
:100D80000027044640F2FF11384601EB620A3E4656
:100D90008046024600204FF48011FFF7DEFBC219A7
:100DA0007141BB1846EB0100B4EB030C75EB000C72
:100DB00004D3E41A65EB000517460E46241908F122
:100DC00001006D4180463428E3DDF91946EB060049
:100DD000091BA84103D24FF0FF32134601E0002265
:100DE00013461BEB070046EB0A51BDE8F04DFFF739
:100DF0004ABC00007F2801D9002208E0064A02EB25
:100E00005002C007127800D1120902F00F0201202F
:100E10009040084070470000F8240A080EB540F2E0
:100E2000334202920022CDE900221346FFF73AFC3A
:100E300003B000BD70B58C1810F8015B15F0070306
:100E400001D110F8013B2A1106D110F8012B03E063
:100E500010F8016B01F8016B5B1EF9D12B0705D46B
:100E60000023521E0DD401F8013BFAE710F8013BB4
:100E7000CB1A921C03E013F8015B01F8015B521ED0
:100E8000F9D5A142D8D3002070BD000010B50421CF
:100E90000D4802F0F2FF01210C4802F0EEFF4FF482
:100EA00080610B4802F0E9FF4FF40051094802F05D
:100EB000E4FF8021084802F0E0FF04F093F8BDE869
:100EC000104008F0C3BF00000010024000000240C4
:100ED000001C024000080240000C024010B5074C04
:100EE0002060084600F00CF820680028FCD1BDE81E
:100EF000104000214FF0804007F01FBA440100204D
:100F00003EB504464FF080450021284607F015FA0B
:100F100000220121284607F028FA022C02D0012CD9
:100F200003D005E00B20019002E042F6DF60019063
:100F30000520ADF800000020ADF80800ADF8020073
:100F40006946284607F03CFA0121284607F0F2F9E5
:100F50000121284607F0DFF901221146284607F053
:100F600004FA0121284607F0E8F93EBD2021014896
:100F700002F083BF001C02402021014802F07FBF25
:100F8000001C02400B4991F84220002A06D038B1DB
:100F900091F8420002280BD0FFF7E8BFFFF7E6BF49
:100FA00091F84200012801D0FFF7E0BFFFF7E4BF4E
:100FB000FFF7E2BF4C070020FEE700007CB50121EF
:100FC000084604F04DFBA020009002208DF805009B
:100FD00001248DF8044000258DF806508DF8074057
:100FE000084E6946304602F0F3FE8DF804508DF845
:100FF00006508DF80740402100916946304602F0C6
:10100000E7FE7CBD000002402DE9F05F2DED028B74
:101010000024DFF800A19AF840900021084605F06E
:1010200021F82146002001F00BFC9FED3B8A3B4D4F
:101030003B4E68E0012006F0C7FC0FF0D3FF95EDB2
:10104000000A384FBCEEC00A10EE100A386004F0F7
:101050008BFFDFF8D4800AE004F086FF0FF0C2FFB8
:1010600095ED000ABCEEC00A10EE100A386098F840
:1010700000000028F0D106F0A7FC10F043F92B4F38
:101080002B4997ED000ABCEEC00A10EE100A08606A
:1010900004F06AFF97ED000A4FF0964110EE100A37
:1010A000884205DD38EE400AB1EE400A87ED000ABD
:1010B00095ED000A10EE100A884205DD38EE400A70
:1010C000B1EE400A85ED000A95ED000A0AEB8400B6
:1010D00080ED460A022C04D297ED000A80ED4D0AFD
:1010E000A3465946204604F0BDFF2146002001F0EA
:1010F000A7FB062C05D3062030708AF8409006F036
:10110000DBFF641CE4B23078112893D0BDEC028B75
:10111000BDE8F09F4C070020FFFF7F4B44000020FC
:10112000310000204C0000203F0000204000002043
:101130005000002010B54FF40051094802F09FFE06
:101140000121084802F09BFE4FF48061064802F03E
:1011500094FEBDE810400421044802F08EBE000059
:101160000008024000000240001C02400010024043
:1011700030B587B0054628784C4C04F8280C6878C0
:1011800004F8270CA87804F8260CE91C684606F039
:10119000A7FF9DF8000004F8240C019844F8200CE7
:1011A000029844F81C0C039844F8180C049844F86E
:1011B000140C059844F8100C069844F80C0C687A46
:1011C00004F8080C687A04F8080C05F10A0168466E
:1011D00006F086FF9DF8000004F8040C01982060DA
:1011E000029860600398A0600498E0600598206110
:1011F00006986061287C2076687CA07605F1120153
:10120000684606F06DFF9DF8000020770198206287
:10121000029860620398A0620498E06205982063D7
:101220000698606305F11801684606F059FF9DF8BD
:10123000000084F838000198E06302982064039865
:1012400060640498A0640598E0640698206505F140
:101250001E01684606F044FF9DF8000084F8540023
:101260000198A0650298E06503982066049860667E
:101270000598A0660698E06605F12401684606F028
:101280002FFF9DF8000084F87000019860670298B5
:10129000A0670398E0670498C4F880000598C4F834
:1012A00084000698C4F8880007B030BD7407002099
:1012B00010B50121CC05204604F0E0F92046BDE838
:1012C0001040002104F0DAB901460020024A5268B9
:1012D0000A4200D00120704700B0024030B500241F
:1012E0002A4B19682A4A114019601968026811438B
:1012F0001960596B21F007015963596B426811431A
:1013000059634168002928D001292DD0022930D005
:10131000032933D0C1680A01016909024469240321
:101320008568214315430D43996B0D439D63816986
:10133000D963196C6FF30D011964196CC2691143FB
:101340001964818C09045A6C02F040425A645A6C48
:10135000006A02430A435A6430BDC1680A02018A26
:101360000904047D2406DBE7C1680A02018A090436
:10137000D6E7C1684A010169C902D1E7C1684A01DB
:10138000016989024469E403CAE7000000B0024031
:10139000FCE0FCFF0248016841F001010160704778
:1013A00000B002400CB5094B1B788DF80630009157
:1013B0000749895C8DF8041005490B31895C8DF86B
:1013C0000510DDE9001206C00CBD00002E00002053
:1013D000BD210108704710B590B0044602F06AFACA
:1013E0000122214601A800F0FBFE9DF804008DF8C3
:1013F000240002980A9003980B9004980C9005988A
:101400000D9006980E9007980F9009A800F07AF8B2
:101410000890089810B010BD10B590B0044602F0C6
:1014200061FA0022214601A800F0DAFE9DF80400CE
:101430008DF8240002980A9003980B9004980C9061
:1014400005980D9006980E9007980F9009A800F047
:1014500059F80890089810B010BD000070B586B01B
:101460000121022004F0FCF80121880404F022F993
:10147000224E07220B21304602F0E8FC07220A2107
:10148000304602F0E3FC00248DF8164001208DF870
:10149000170002258DF81450810204918DF8155023
:1014A00004A9304602F094FC8DF81450A802049070
:1014B00004A9304602F08CFC4FF496400090ADF841
:1014C0000440ADF80640ADF80840ADF80C400C20E3
:1014D000ADF80A000A4C6946204608F041FD03F0C9
:1014E000BDFD012240F22551204608F01EFD0121DC
:1014F000204608F007FD06B070BD00000004024061
:1015000000480040416842F21072914204D941689B
:101510000A22B1FBF2F141604068704738B5002003
:1015200000901D491D4842F210734EF660242EE0D3
:101530009DF8002000EBC202D2F8B4209DF80050C4
:1015400001EBC5056D68AA420CD89DF8002000EBA0
:10155000C202D2F8B4209DF8005001EBC5056D68B9
:10156000AA4210D29DF80020072A06D29DF800203A
:1015700000EBC202C2F8B43005E09DF8002000EB99
:10158000C202C2F8B4409DF80020521C00929DF89F
:101590000020092ACCD338BD800000204C07002051
:1015A0002DE9FC5F0546012D0AD0002000904FF088
:1015B000501B4FF47F07FE4C009818B1676003E0A2
:1015C0000120F3E7C4F804B0DFF8E8A39AF80001BB
:1015D00008B1F94E01E0F84E1C3E122368221A2190
:1015E000582003F001F89AF800000023C0EBC00077
:1015F00082191A2158200CF053F9022D05D0002031
:101600000090009818B1676003E00120F8E7C4F883
:1016100004B09AF8000110B1E74E383601E0E64E0A
:101620001C36122368222E21582002F0DDFF9AF882
:1016300001000023C0EBC0008219302158200CF0BB
:101640002FF9032D07D000200090DFF87083009859
:1016500018B1676003E00120F6E7C4F804809AF847
:10166000000110B1D44E623601E0D34E543612233D
:1016700068225C21582002F0B7FF9AF8020000238C
:10168000C0EBC00082195C2158200CF009F9042D30
:1016900005D000200090009818B1676003E0012099
:1016A000F8E7C4F80480DAF80C00C1B2DAF80800F0
:1016B0000023052202F0DCFC12237A22702158203C
:1016C00002F092FF0023BE4A722158200CF0E8F885
:1016D000DAF81010BB48002300EB8102722194203D
:1016E0000CF0DEF8052D05D000200090009818B110
:1016F000676003E00120F8E7C4F804809AF800016D
:1017000010B1AD4E623601E0AB4E54361223682262
:101710009E21582002F068FF9AF820000023C0EBB9
:10172000C0008219A02158200CF0BAF8062D05D06F
:1017300000200090009818B1676003E00120F8E7EE
:10174000C4F80480DAF82C00C1B2DAF828000023CB
:10175000062202F08DFC12237A22B221582002F0D8
:1017600043FF0023964AB42158200CF099F8002337
:1017700095A2B421A0200CF093F8072D05D00020ED
:101780000090009818B1676003E00120F8E7C4F802
:1017900004B09AF8000110B18A4E583E01E0894E1B
:1017A000B03E1223682218214FF4A97002F01CFFEA
:1017B0009AF84100A8B19AF840000023401C00EBC1
:1017C000400101EBC00082191A214FF4A9700CF0FE
:1017D00067F8082D0DD000200090009858B1676080
:1017E0000BE0002332461A214FF4A9700CF058F890
:1017F000EFE70120F0E7C4F804B09AF8000110B157
:101800006D4EAC3601E06C4E70364FF4A97B12235E
:1018100068222E21584602F0E7FE9AF84200002383
:10182000C0EBC0008219302158460CF039F8092D60
:1018300005D000200090009818B1676003E00120F7
:10184000F8E7C4F80480DAF84C00C1B2DAF84800CE
:101850000023052202F00CFC12237A225C21584658
:1018600002F0C2FE0023564A5C2158460CF018F8DC
:10187000DAF850105348002300EB81025E214FF448
:10188000C7700CF00DF80A2D05D0002000900098CC
:1018900018B1676003E00120F8E7C4F80480DAF8C3
:1018A0006800C1B2DAF864000023052202F0E0FB10
:1018B00012237A227021584602F096FE0023404AF5
:1018C000722158460BF0ECFFDAF86C103D4800230B
:1018D00000EB810272214FF4C7700BF0E1FF0B2D7A
:1018E00005D000200090009818B1676003E0012047
:1018F000F8E7C4F80480DAF88400C1B2DAF88000AE
:101900000023062202F0B4FB12237A229C215846BF
:1019100002F06AFE00232A4A9E2158460BF0C0FFBF
:10192000002329A29E214FF4CD700BF0B9FF0C2D9E
:1019300005D000200090009818B1676003E00120F6
:10194000F8E7C4F80480DAF8A000C1B2DAF89C0025
:101950000023062202F08CFB12237A22B221584681
:1019600002F042FE0023164AB42158460BF098FFBD
:10197000002315A2B4214FF4CD700BF091FF00F0BD
:10198000DBFB0020114A54276FF07F410D2D3DD223
:10199000DFE805F0070C3E5F80A0C1E1EFEEEDEC63
:1019A000EB00BDE8FC5F022000F0D2B921600FE03F
:1019B000200100204C0700207E1D01086534340002
:1019C00067000020161F0108205600003800310073
:1019D00062609AF8001109B1D84C01E0D74C1C3C68
:1019E000019010E001980023C0EBC000021901989B
:1019F000F12100EB800007EB001080B20BF050FFEC
:101A00000198401C019001980428EBD3BDE8FC9F8D
:101A1000216062609AF8001111B1C84C383401E0BD
:101A2000C64C1C34019010E001980023C0EBC000AC
:101A300002190198F12100EB800007EB001080B241
:101A40000BF02EFF0198401C019001980428EBD365
:101A5000DCE7216062609AF8001111B1B74C623482
:101A600001E0B64C5434019010E001980023C0EB23
:101A7000C00002190198F12100EB800007EB001073
:101A800080B20BF00DFF0198401C019001980228D4
:101A9000EBD3BBE7216062609AF8001109B1A84C52
:101AA00001E0A74CE41F019010E001980023C0EB77
:101AB000C00002190198F12100EB800007EB001033
:101AC00080B20BF0EDFE0198401C019001980028B7
:101AD000EBD09BE7216062609AF8001111B1974C3E
:101AE000623401E0954C5434019010E001980023D9
:101AF000C0EBC00002190198F12100EB800007EB58
:101B0000001080B20BF0CCFE0198401C01900198AF
:101B10000228EBD37AE7216062609AF8001109B1DC
:101B2000874C01E0864CE41F019010E001980023EF
:101B3000C0EBC00002190198F12100EB800007EB17
:101B4000001080B20BF0ACFE0198401C019001988F
:101B50000028EBD05AE7216062609AF8001109B1C1
:101B6000784C00E0774C019017E0C6E0A5E084E0F7
:101B700063E016E00198002300EB400101EBC00098
:101B800002190198F12100EB800007EB001080B2F0
:101B90000BF086FE0198401C019001980528E9D3BE
:101BA00034E7216062609AF8001159B19AF8431045
:101BB000012904D0DFF8849109F1C8090AE05F4ED9
:101BC000AC3607E09AF84310012909D0DFF86C9190
:101BD00009F18C099AF84310012904D0019028E0FA
:101BE000564E7036F6E7019010E001980023C0EBE6
:101BF000C00082190198F12100EB800007EB001072
:101C000080B20BF04DFE0198401C01900198042811
:101C1000EBD3FBE60198002309EBC00200EB800048
:101C200007EB001080B2F1210BF03AFE0198401C46
:101C3000019001980428EDD3E8E6216062609AF8EB
:101C4000001109B13E4C01E03D4CE41F019010E051
:101C500001980023C0EBC00002190198F12100EBAC
:101C6000800007EB001080B20BF01AFE0198401CB8
:101C7000019001980028EBD0C8E6216062609AF8D4
:101C8000001109B12E4C01E02D4CE41F019010E031
:101C900001980023C0EBC00002190198F12100EB6C
:101CA000800007EB001080B20BF0FAFD0198401C99
:101CB000019001980028EBD0A8E6216062609AF8B4
:101CC000001109B11E4C01E01D4CE41F019010E011
:101CD00001980023C0EBC00002190198F12100EB2C
:101CE000800007EB001080B20BF0DAFD0198401C79
:101CF000019001980028EBD088E6216062609AF894
:101D0000001109B10E4C01E00D4CE41F019010E0F0
:101D100001980023C0EBC00002190198F12100EBEB
:101D2000800007EB001080B20BF0BAFD0198401C58
:101D3000019001980028EBD068E600007E1D0108A4
:101D4000FB180108221F0108002000F001B8000064
:101D50002DE9F041044600F0EFF99448944B954981
:101D60006FF07F424FF483754FF4AB76002C47D071
:101D70004FF4D377012C7DD0022C7CD191F8000157
:101D8000002879D000238CA2E72166200BF088FD83
:101D900000238BA2FB2166200BF082FD002386A28C
:101DA000E721B6200BF07CFD002387A2FB21B620A3
:101DB0000BF076FD002386A2E72128460BF070FD8C
:101DC000002381A2FB2128460BF06AFD002382A29A
:101DD000E72130460BF064FD002380A2FB21304652
:101DE0000BF05EFD00237CA2E72138460BF058FD86
:101DF0003846BDE8F04100237AA2FB210BF050BD2C
:101E00000260436091F80001002831D000236AA2EB
:101E1000E72166200BF044FD002369A2FB21662028
:101E20000BF03EFD002364A2E721B6200BF038FD45
:101E3000002365A2FB21B6200BF032FD002364A233
:101E4000E72128460BF02CFD00235FA2FB2128464A
:101E50000BF026FD002360A2E72130460BF020FDA9
:101E60003046BDE8F04100235CA2FB210BF018BD19
:101E7000002302E032E097E058E05CA2E721662010
:101E80000BF00EFD00235BA2FB2166200BF008FD8A
:101E9000002356A2E721B6200BF002FD002357A233
:101EA000FB21B6200BF0FCFC002356A2E7212846BC
:101EB0000BF0F6FC002351A2FB2128460BF0F0FCAE
:101EC000002350A2E72130460BF0EAFC3046BDE883
:101ED000F04100234DA2FB210BF0E2BC0260436005
:101EE00000234CA2E72166200BF0DAFC00234BA272
:101EF000FB2166200BF0D4FC00234AA2E721B62088
:101F00000BF0CEFC002349A2FB21B6200BF0C8FC4D
:101F1000002348A2E72138460BF0C2FC3846BDE852
:101F2000F041002345A2FB210BF0BABC00232FA2F5
:101F3000E72166200BF0B4FC00232EA2FB216620D3
:101F40000BF0AEFC002329A2E721B6200BF0A8FC81
:101F500000232AA2FB21B6200BF0A2FC002329A219
:101F6000E72128460BF09CFC002324A2FB212846F5
:101F70000BF096FC002323A2E72130460BF090FCE7
:101F8000002322A2FB2130460BF08AFC00232DA265
:101F9000E72138460BF084FC3846BDE8F0410023C9
:101FA0002AA2FB210BF07CBCBDE8F08120010020BF
:101FB000380031004C0700204D454153000000001F
:101FC0004449535000000000534554555000000050
:101FD000205359530000000053595300494E464FB7
:101FE000000000005550444154450000B2E2C1BF1A
:101FF00000000000CFD4CABE00000000C9E8D6C36C
:1020000000000000CFB5CDB300000000D0C5CFA2C6
:1020100000000000CEC4BCFE00000000B9DCC0ED32
:1020200000000000B1A3B4E600000000CAFDBEDD60
:1020300000000000B8FCB6E00000000020322F32A3
:1020400000000000B9CCBCFE00000000C9FDBCB619
:10205000000000000FB410B59DF80800002812D051
:102060009DF80800072807D99DF8101000230622C4
:10207000039801F0FDFF06E09DF8181000230722E9
:10208000059801F0F5FF9DF808001A2110BC00EB3F
:10209000800001EB80010123034A4FF4A0705DF83A
:1020A00014EB0BF0FDBB00006700002071B581B0A0
:1020B000002000901D4C4FF0501532E09DF80410A8
:1020C0000098401C814203D14FF47F01616000E021
:1020D000656000EB80001A2606EB800081B21423B5
:1020E0005A22A02002F080FA11480099415C114860
:1020F000009A00EBC200D0F8B4000023062201F0E1
:10210000B7FF00980A4A401C00EB800006EB8000F5
:1021100081B20123813AA0200BF0C2FB0098401C41
:10212000009000980928C9D365607CBD200100207B
:10213000E80000204C0700202DE9F05F0024DFF8C4
:1021400078801E4EDFF878A000274FF04C094FF042
:10215000010BC6F8048004EB4401A00001EB04115C
:1021600000EB810080B22B234C22E42102F03CFAE8
:10217000C6F804A004EB84050BEB051080B2012324
:102180004C22E32102F030FA09EB051080B22C2337
:102190000122E32102F028FA77604D2000EB0510C0
:1021A00080B22C230322E32102F01EFA641C062CC9
:1021B000CFD3BDE8F09F000038003100200100209F
:1021C000684369000549044848606E235C2140F279
:1021D000DF12002002F008BA65343400200100202C
:1021E0002DE9F04F93B080460E46012012900C90DE
:1021F00000270B970A970997089703970297049768
:1022000002970D974FF0200A0FAD07E09DF83400BC
:1022100005F800A09DF83400401C0D909DF8340096
:102220000728F3D38DF843700AB1072400E0062491
:10223000DFF8E0B34FF02E0975E1022002F0C8F894
:102240000E909DF83800002846D001210C919DF891
:1022500038001228F8D00CDC12283DD2DFE800F05C
:102260003C3C3C7EEEE1D43C3C5A3C78C7BAAD3CA9
:102270003C3D1A28E8D009DCA0F113000728ECD275
:10228000DFE800F02A8E81722A2A0E001E2878D0FC
:1022900022DC1B28D8D01C2874D01D281CD1E7E0D4
:1022A000049712979DF82000A04214D29DF82C00AC
:1022B00088B99DF8200050B19DF8200005F80090E5
:1022C0009DF820000A909DF82000401C08909DF881
:1022D0002C00401C0B9005910CE1049112979DF885
:1022E0002000A04214D29DF82C0088B99DF820004F
:1022F00050B19DF8200005F800909DF820000A904C
:102300009DF82000401C08909DF82C00401C0B906C
:102310000591EFE00220049012979DF82000A04262
:1023200014D29DF82C0088B99DF8200050B19DF87A
:10233000200005F800909DF820000A909DF82000EC
:10234000401C08909DF82C00401C0B900591D1E09A
:1023500006208BF8000012970597CBE0129705979F
:1023600012208BF80000C5E09DF82000A04207D2A3
:102370009DF82010312068549DF82000401C0890E2
:10238000B8E068E091E09DF82000A04207D29DF8F7
:102390002010322068549DF82000401C0890A9E0CD
:1023A0009DF82000A04207D29DF8201033206854E9
:1023B0009DF82000401C08909CE09DF82000A04261
:1023C00007D29DF82010342068549DF82000401C4E
:1023D00008908FE09DF82000A04207D29DF82010C1
:1023E000352068549DF82000401C089082E09DF83C
:1023F0002000A0427ED29DF82010362068549DF81F
:102400002000401C089075E09DF82000A04271D289
:102410009DF82010372068549DF82000401C08903B
:1024200068E09DF82000A04264D29DF8201038207A
:1024300068549DF82000401C08905BE09DF8200047
:10244000A04257D29DF82010392068549DF82000F2
:10245000401C08904EE09DF82000A0424AD29DF812
:102460002010302068549DF82000401C089041E066
:102470009DF82000A0423DD29DF8200040B39DF879
:102480002C0028BB9DF8200050B19DF8200005F8D5
:1024900000909DF820000A909DF82000401C0890B4
:1024A0009DF82C00401C0B9024E09DF8200080B18A
:1024B0009DF82000401E08909DF8200005F800A01F
:1024C0009DF828009DF82010884213D10B970A9799
:1024D00010E09DF82000285C78B39DF82000285C6F
:1024E0002D2830D09DF820102D2068549DF8200014
:1024F000401C08909DF83000A8B10C9746486FF03A
:102500007F4101604FF47F014160B08871881030D5
:1025100082B23088102302F067F871883088002377
:102520000FAA0BF0BDF99DF8480000287FF485AE96
:102530009DF820000D90302011E0FFE79DF820105D
:102540002D206854D2E79DF820102B206854CDE749
:102550009DF8341068549DF83410491C0D919DF875
:102560003410A142F4D30D9734E09DF83C0030289C
:102570002CD39DF83C00392828D89DF83400285CDD
:10258000302823D39DF83400285C39281ED89DF8C4
:1025900028009DF8341088420CD9029800EB800086
:1025A0004000029002989DF83410695C084430386D
:1025B00002900BE0029800EB80004000029002982D
:1025C0009DF83410695C0844303802909DF834005E
:1025D000401C0D909DF83400A042C6D39DF8280001
:1025E00003909DF8040088F800000298C8F80400E1
:1025F0000398C8F808000498C8F80C000598C8F8B3
:1026000010000698C8F814000798C8F8180013B00E
:10261000BDE8F08F31000020200100202DE9F84FA7
:10262000584E7768584870600BF02AF9574D687813
:1026300003281BD0687860B1012355A26C2130209B
:102640000BF07EF9012352A2A32130200BF078F980
:1026500018E000234EA25C2120200BF071F900232A
:102660004BA2932120200BF06BF90BE0002348A232
:102670007C2140200BF014F9002345A2B321402017
:102680000BF00EF945484FF00008C0F80080083004
:10269000C0F8008095F84300414C4FF4C8794FF4DE
:1026A000967A80B9FEF746FDFEF760FC16233C22C1
:1026B000B421484601F098FF372328225C21504678
:1026C000009402F01FFB95F8200001281CD0A87888
:1026D000012819D0FEF72EFDFEF748FC16233C22F8
:1026E000B421484601F080FF372328225C21504660
:1026F000009402F007FB776095F8410029490978BA
:10270000BDE8F84F00F09CB895F8430040B34FF493
:102710007F0070600120FEF735FC02F0F5FB1F4AD8
:1027200021A0103A0168C2F807104C23D372204A46
:10273000032090741F48816280F82C3017480938B4
:1027400080F8058016233C22B421484601F04CFF56
:10275000124A0023093AB42148460BF0A1F8CAE70F
:10276000FEF7E8FCFEF702FC16233C22B4214846A3
:1027700001F03AFF372328225C215046009402F0F2
:10278000C1FAB8E720010020653434004C0700206E
:102790002D2D2D2D2D2D2D2D000000007000002041
:1027A0004256070833000020525620464C000000D5
:1027B000BC060020D106002008B5114841794FF42D
:1027C000967000290BD0012911D0022906D10D499C
:1027D0000091372328225C2102F094FA08BD0A49AF
:1027E0000091372328225C2102F08CFA08BD0749AA
:1027F0000091372328225C2102F084FA08BD0000F2
:1028000070000020425607087B590708DA5E070867
:1028100018B509484FF4AA740090372328225C2188
:10282000204602F06FFA05490091372328229321B0
:10283000204602F067FA18BDB45C0708396407083F
:10284000012800D90120062900D906210A4B4FF0A2
:1028500050125A60C0EBC000084A00EB400002EB87
:10286000800001EB410100EB81020023D2214FF4F3
:10287000BE700BF015B800002001002009210108EE
:1028800030B595B004460D4601F014F801222946F2
:102890006846FFF7A5FC9DF800008DF83800019808
:1028A0000F90029810900398119004981290059838
:1028B0001390069814900EA9684601F041FC9DF80B
:1028C00000008DF81C000198089002980990039868
:1028D0000A9004980B9005980C9006980D900B9810
:1028E00018B90020099008900A909DF81C002070EB
:1028F000089860600998A0600A98E0600B982061D1
:102900000C9860610D98A06115B030BD30B595B0E0
:1029100004460D4600F0E6FF002229466846FFF710
:102920005FFC9DF800008DF8380001980F90029828
:10293000109003981190049812900598139006989F
:1029400014900EA9684607F067F99DF800008DF80D
:102950001C00019808900298099003980A90049826
:102960000B9005980C9006980D900B9818B90020C4
:10297000099008900A909DF81C00207008986060EB
:102980000998A0600A98E0600B9820610C9860613B
:102990000D98A06115B030BD70B500F0A3F81F4CC4
:1029A0006FF07F4525601E4860601E4E96F800015E
:1029B00008B11D4A01E01C4AF23A0023DC3204212E
:1029C00018460AF06DFF25604FF05010606096F8D1
:1029D000000108B1154D01E0144D543D00241A26A4
:1029E000C4EBC40000EB4000421904EB440000EBD0
:1029F000C40006EB400081B2002318460AF050FFE5
:102A0000641C042CECD30023094A5C2152200AF0F8
:102A100047FFBDE87040FFF797B900002001002094
:102A20000352F3004C070020081B0108B5200108E1
:102A30008808002070B500241825601C00EB4001B8
:102A400001EBC00005EB400081B2012364225A2053
:102A500001F0CAFD641C072CEFD370BD2DE9F041D5
:102A600000F040F81A4E6FF07F47376019487060E9
:102A7000194C94F8000108B1184A01E0174AF23ADB
:102A80000023B032042118460AF00AFF37604FF0E5
:102A90005010706094F8000108B1114D01E0104D24
:102AA000583D00244FF01A0804EB440000EBC4002A
:102AB000421908EB400081B2002318460AF0F0FEEC
:102AC000641C082CF0D37760BDE8F041FFF7B2BF7B
:102AD000200100200352F3004C070020081B0108CE
:102AE000B11F010810B500F065FEBDE81040FFF70A
:102AF00023BB00002DE9FF5F044600278DF8077017
:102B0000012C0AD000200290FA4D02984FF47F0663
:102B10004FF0501B18B16E6003E00120F3E7C5F8D9
:102B200004B0DFF8D48398F8000110B1DFF8CC933B
:102B300003E0DFF8C893A9F10E09122366221A21D7
:102B40005A2001F051FD98F8FC000023C0EBC000B2
:102B500000EB09021C215A200AF0A2FE022C05D02B
:102B600000200290029818B16E6003E00120F8E79F
:102B7000C5F804B01223662230215A2001F034FD3A
:102B800098F8FD00DFF87893C0EBC00000EB090275
:102B9000002332215A200AF083FE032C05D00020A6
:102BA0000290029818B16E6003E00120F8E7C5F8C2
:102BB00004B098F8000110B1DFF840A303E0DFF89B
:102BC0003CA3AAF10E0A1223662246215A2001F0E4
:102BD0000BFD98F8FE000023C0EBC00000EB0A02DA
:102BE00048215A200AF05CFE042C05D000200290F7
:102BF000029818B16E6003E00120F8E7C5F804B050
:102C000098F8000110B1DFF8F4A203E0DFF8ECA2BD
:102C1000AAF10E0A122366225C215A2001F0E4FC7C
:102C200098F8FF000023C0EBC00000EB0A025E2111
:102C30005A200AF035FE052C05D00020029002989B
:102C400018B16E6003E00120F8E7C5F804B0122364
:102C5000662272215A2001F0C7FC98F80001DFF8C3
:102C6000A0A200230AF1380A0AEBC00274215A20FC
:102C70000AF016FE01A9002002F0B2FE694600200B
:102C800002F07CFE062C05D000200290029818B1BC
:102C90006E6003E00120F8E7C5F804B012231A467D
:102CA00088215A2001F0A0FC9DF8032095A19648A8
:102CB0000AF098FE0023944A8A215A200AF0F0FD77
:102CC000C5F804B0002391A28A216E200AF0E8FD25
:102CD000072C05D000200290029818B16E6003E026
:102CE0000120F8E7C5F804B012231A46882178209D
:102CF00001F07AFC9DF8012082A183480AF072FE5F
:102D00000023814A8A2178200AF0CAFDC5F804B060
:102D100000237EA28A218C200AF0C2FD082C05D057
:102D200000200290029818B16E6003E00120F8E7DD
:102D3000C5F804B012231A468821982001F054FCEB
:102D40009DF802206FA170480AF04CFE00236E4AE5
:102D50008A2198200AF0A4FD092C05D000200290B9
:102D6000029818B16E6003E00120F8E7C5F804B0DE
:102D700012231A469E215A2001F036FC9DF80420A9
:102D800060A161480AF02EFE00235F4AA0215A206C
:102D90000AF086FDC5F804B000235DA2A0216E20D4
:102DA0000AF07EFD0A2C05D000200290029818B18E
:102DB0006E6003E00120F8E7C5F804B012231A465C
:102DC0009E21782001F010FC9DF805204DA14E4871
:102DD0000AF008FE00234C4AA02178200AF060FD8A
:102DE000C5F804B000234AA2A0218C200AF058FDA7
:102DF0000B2C05D000200290029818B16E6003E001
:102E00000120F8E7C5F804B012231A469E21982045
:102E100001F0EAFB9DF806203AA13B480AF0E2FDEA
:102E20000023394AA02198200AF03AFD0C2C05D045
:102E300000200290029818B16E6003E00120F8E7CC
:102E4000C5F804B012236622B4215A2001F0CCFB4D
:102E50000023304AB6215A200AF022FDFFF76CF910
:102E60006FF07F4028602C48686054250C2C09D2F4
:102E7000DFE804F0060A28547290A5A5A5A5A5A52B
:102E8000FEF762FFBDE8FF9F98F8000108B11B4CF8
:102E900001E01A4C0E3C039710E003980023C0EBAE
:102EA000C00002190398F12100EB800005EB00102F
:102EB00080B20AF0F5FC0398401C039003980228A6
:102EC000EBD3DFE7039711E003980023C0EBC000CA
:102ED00000EB09020398F12100EB800005EB0010E4
:102EE00080B20AF0DDFC0398401C0390039805288B
:102EF000EAD3C7E7200100204C070020E01D0108AD
:102F00000920010825326400670000202D00000020
:102F10003A0000004D0800203800310098F8000108
:102F200008B1324C01E0314C0E3C039710E003989D
:102F30000023C0EBC00002190398F12100EB8000D0
:102F400005EB001080B20AF0ABFC0398401C039024
:102F500003980228EBD395E798F8000108B1234CB9
:102F600001E0224C0E3C039710E003980023C0EBD5
:102F7000C00002190398F12100EB800005EB00105E
:102F800080B20AF08DFC0398401C0390039802283D
:102F9000EBD377E703970EE0039800230AEBC00218
:102FA00000EB800005EB001080B2F1210AF078FC04
:102FB0000398401C039003980228EDD362E703971F
:102FC0000B4C0EE00398002304EBC00200EB8000E2
:102FD00005EB001080B2F1210AF062FC0398401C5E
:102FE000039003980228EDD34CE70000E01D010890
:102FF0005120010810B500F0DDFBFFF79DF8BDE89A
:103000001040FFF7DFB810B500F0D4FBFFF794F8DD
:10301000BDE81040AFF30080FFF7D4B870B5FFF7FC
:10302000E9FF254C6FF07F45256024486060244E01
:1030300096F8000108B1234A01E0224AF23A00233F
:10304000042118460AF02CFC25604FF050106060F7
:1030500096F8000108B11C4D01E01B4D3C3D0024D9
:103060001A26032C0FD204EB840005EB400204EB7C
:10307000440000EBC40006EB400081B20023184678
:103080000AF00EFC0FE004EB840005EB4002E01EAA
:1030900000EB400101EBC00006EB400081B20023D1
:1030A000FA200AF0FDFB641C062CDAD3BDE8704060
:1030B0000020FEF74DBE0000200100200352F30067
:1030C0004C070020081B0108DA1901082DE9F04718
:1030D000FFF799FF2E4E6FF07F4434602D487060EB
:1030E0002D4D95F8000108B12C4A01E02B4AF23A27
:1030F00000235832042118460AF0D2FB34604FF006
:103100005017776095F8000108B1254D01E0244D76
:10311000B43D0024DFF88C804FF01A09092C16D238
:10312000E01E052802D2C6F8048000E0776004EBB8
:10313000840005EB400204EB440000EBC40009EB03
:10314000400081B2002318460AF0AAFB18E0A4F15F
:103150000C00052802D2C6F8048000E0776004EB7A
:10316000840005EB4002A4F1090000EB400101EBF3
:10317000C00009EB400081B20023FA200AF090FB66
:10318000641C122CCAD3BDE8F0470020FEF7E0BD56
:10319000200100200352F3004C070020081B010807
:1031A000AE1C0108653434002DE9FC5F0546DFF8EC
:1031B000C08398F80001002802D0DFF8B8A303E02C
:1031C000DFF8B0A3AAF11C0A012D0AD0002000905C
:1031D000E94C00984FF47F064FF0501918B1666023
:1031E00003E00120F3E7C4F8049014235C221821C3
:1031F000582001F0F9F96FF07F47276098F8000038
:103200000023C0EBC00000EB0A021A2158200AF08C
:1032100047FB022D05D000200090009818B1666091
:1032200003E00120F8E7C4F80490D8F86800C1B2C0
:10323000D8F864000023052200F01AFF14235C2252
:103240003021582001F0D0F90023CC4A30215820F9
:103250000AF026FBD8F86C00DFF824A300230AEB61
:103260008002302194200AF01BFB032D05D00020A2
:103270000090009818B1666003E00120F8E7C4F8F8
:103280000490D8F80C00C1B2D8F808000023052239
:1032900000F0EEFE14235C224621582001F0A4F930
:1032A0000023B64A462158200AF0FAFAD8F810004E
:1032B00000230AEB8002462194200AF0F1FA042D43
:1032C00005D000200090009818B1666003E001204E
:1032D000F8E7C4F8049098F8000120B1DFF8A0A244
:1032E000AAF1580A03E0DFF898A2AAF1B00A4FF455
:1032F000A97B142368221821584601F075F998F823
:103300004100A8B198F840000023401C00EB4001A8
:1033100001EBC00000EB0A021A2158460AF0C0FA7D
:10332000052D0CD000200090009850B166600AE096
:10333000002352461A2158460AF0B2FAF0E701205B
:10334000F1E7C4F80490D8F8A000C1B2D8F89C0006
:103350000023062200F08CFEDA46142368222E2178
:10336000504601F041F90023844A302150460AF0CA
:1033700097FA4FF4CD7B002382A2302158460AF001
:103380008FFA062D05D000200090009818B16660D5
:1033900003E00120F8E7C4F80490D8F82C00C1B28B
:1033A000D8F828000023062200F062FE14236822C9
:1033B0004421504601F018F90023704A4621504636
:1033C0000AF06EFA00236FA2462158460AF068FA06
:1033D000FEF7B2FE00206C495426072D29D2DFE803
:1033E00005F004092A4A6A87A700BDE8FC5F0020AF
:1033F000FEF7AEBC2760616098F8001109B15D4C22
:1034000001E05C4C1C3C019010E001980023C0EBF3
:10341000C00002190198F12100EB800006EB0010BA
:1034200080B20AF03DFA0198401C019001980428EE
:10343000EBD3BDE8FC9F2760616098F8001109B1EB
:10344000524C01E0514CE41F019010E00198002320
:10345000C0EBC00002190198F12100EB800006EBDF
:10346000001080B20AF01CFA0198401C01900198EB
:103470000028EBD0DDE72760616098F8001109B102
:10348000424C01E0414CE41F019010E00198002300
:10349000C0EBC00002190198F12100EB800006EB9F
:1034A000001080B20AF0FCF90198401C01900198CC
:1034B0000028EBD0BDE7276061600190304C0C34F0
:1034C00012E00198002300EB400101EBC00002195B
:1034D0000198F12100EB800006EB001080B20AF0A9
:1034E000DFF90198401C019001980428E9D3A0E776
:1034F0002760616098F8001109B1244C01E0234C69
:10350000E41F019010E001980023C0EBC0000219F5
:103510000198F12100EB800006EB001080B20AF068
:10352000BFF90198401C019001980028EBD080E77A
:103530002760616098F8001109B1144C01E0134C48
:10354000E41F019010E001980023C0EBC0000219B5
:103550000198F12100EB800006EB001080B20AF028
:103560009FF90198401C019001980028EBD060E77A
:103570004C0700207E1D010820010020670000206C
:10358000161F01082056000038003100FB18010802
:103590002DE9FF5F009800217E4C00226254491CF7
:1035A000C9B20929FAD348F2E8012D27884206D981
:1035B00000202754401CC0B20628FAD305E09DF82D
:1035C00004100023052200F053FDDFF8C881724E7D
:1035D000A8F10708D8F80700C6F80300B8F80B10E0
:1035E000A6F807106D4D6861298308F1100A6C492F
:1035F0009AF8050001EB80000188698380782877BC
:103600004FF0090B85F81DB04FF0200984F80690A3
:10361000644C61789DF8060003292BD0617839B19C
:10362000D8B1012360A26C2130200AF089F91AE098
:1036300030B100235CA25C2120200AF081F905E072
:1036400000235AA25C2120200AF07AF90023514A73
:103650005C2140200AF074F920E0012353A26C2180
:1036600030200AF06DF901234A4A6C2140200AF00B
:1036700067F913E030B100234BA27C2140200AF00F
:103680000FF905E0002349A27C2140200AF008F947
:103690000023404A7C214A200AF002F99DF80C10D0
:1036A00000230622029800F0E3FCD8F80710C6F8C1
:1036B0000B10B8F80B00A6F80F0098F80D207274E4
:1036C00045F81F1FA880AA715620E87185F808B038
:1036D00037A00088E8811F3D60789DF80E800328A0
:1036E0002FD0607848B1B8F1000F1DD001232EA271
:1036F000A32130200AF024F91CE0B8F1000F06D015
:10370000002329A2932120200AF01AF905E00023C2
:1037100026A2932120200AF013F900231D4A9321A9
:1037200040200AF00DF922E0012320A2A32130203D
:103730000AF006F90123174AA32140200AF000F9F4
:1037400015E0B8F1000F06D0002317A2B3214020E6
:103750000AF0A6F805E0002314A2B32140200AF0E5
:103760009FF800230B4AB3214A200AF099F8B8F1D8
:10377000000F06D086F80A9085F81E900AF080F8AF
:1037800003E0B772AF770AF075F89AF80500707227
:10379000BDE8FF9F67000020BC060020D106002086
:1037A000161F01084C070020200000002D0000001B
:1037B0000D0A00000549044848601623AA2200218A
:1037C000084600F011BF00000352F3002001002062
:1037D00038B50E4C25680E49616001280FD04FF4B2
:1037E0007F0102280FD021600A4800901823302260
:1037F000F1214FF4CA7001F085FA256038BD4FF40D
:103800007F402060F0E72160EEE70000200100200B
:1038100038003100D076070870B500F043F81D4C31
:103820006FF07F4525601C48606000231B4A04211F
:1038300018460AF035F825604FF0501060600024FB
:10384000174D4FF6FF7604EB840000EBC4004219DD
:1038500004EB840006EA401000231A210AF020F845
:10386000641C032CEFD300240D4E1A25273604EBDD
:10387000840000EBC4008219601C00EB800005EBA3
:10388000800081B2002318460AF00AF8641C092C53
:10389000EDD370BD200100200352F300841A01080B
:1038A0000219010810B5FFF785FFBDE81040FEF7CB
:1038B00043BC000010B5FEF73FFC084806494160D4
:1038C0006FF07F4101600023F121BDE8104004A2A8
:1038D000542009F0E5BF000038003100200100202D
:1038E0002056200010B5FEF727FC0E480C49416019
:1038F0006FF07F41016000230BA2F121542009F0F9
:10390000CFFF00230AA2F121A42009F0C9FF002360
:10391000F121BDE8104008A2F42009F0C1BF000069
:103920003800310020010020206DA6B820200000C2
:1039300020A6B820000000006BA6B8200000000000
:1039400000B58FB00EA9002002F04AF80DA90020A2
:1039500002F014F89DF836309DF83A009DF83910C1
:103960009DF83820CDE90210CDE900329DF83530C0
:103970009DF837200BA105A80AF034F813494FF041
:1039800050104860002305AA0421FA2009F088FF9E
:10399000132205A90E48FCF725FC0D490920C8741F
:1039A0000FB000BD323025302E32642D25302E323E
:1039B000642D25302E32642025302E32643A253095
:1039C0002E32643A25302E3264000000200100209F
:1039D000D106002010B54FF40054204600F054F8F2
:1039E000002804D02046BDE8104000F047B810BDC4
:1039F00010B5082000F048F800281FD010480BF040
:103A0000C4FD08210F4800F031FA90B90E4800219A
:103A100001700E480E4A012304781CB101700F207A
:103A2000107002E00370022010700A494FF4007019
:103A30000860BDE81040082000F020B810BD00006C
:103A4000A0860100001002405A000020390000202A
:103A50003100002080E100E01CB54FF400500090E0
:103A600000208DF8040001208DF807006946024807
:103A700000F0AEF91CBD00000004024001490860DE
:103A800070470000143C014001460020024A1268C1
:103A90000A4200D001207047143C014030B51B4A57
:103AA00083790168002B2AD013688B431360111DA2
:103AB0000B680468A3430B60017911440B68046828
:103AC00023430B60114C083421680368994321603B
:103AD000231D19680568A94319604179102905D08B
:103AE00011440A68006802430A6030BD2168026818
:103AF00011432160196800680143196030BD0079E5
:103B0000104402688A43026030BD0000003C01405E
:103B10002DE9FF410121102001F0A2FD01218803C0
:103B200001F0D6FD01F0ADFA0826029600248DF8CA
:103B30000C4001258DF80F5002A9144800F048F9F7
:103B40000321042003F02AFF00968DF804400C2680
:103B50008DF805608DF806506846FFF79FFF6F03EC
:103B6000029702A90A4800F033F90D21022003F060
:103B700015FF00978DF804408DF805608DF806500C
:103B80006846FFF78BFFBDE8FF8100000010024090
:103B90000008024000224FF0204310280AD0B0F560
:103BA000807F09D0B0F5805F09D0D3F858018143F8
:103BB00009D107E0586EFAE7D3F88400F7E7D3F8A5
:103BC000A400F4E70122104670470000D0E900127B
:103BD00011438268C068521E520142EA40200143EC
:103BE0000148016070470000500100A070B50468F2
:103BF000A100A1F1C041D1F84011CE0BF603D0E9EC
:103C000001121143D0E903231A4311434269C369E6
:103C100011438269056A11431943426A29431143DA
:103C200031434FF02046002C3CD0D6F840416FF392
:103C30000E042B4322431343C6F84031026892001E
:103C4000A2F1C042C2F84011016871B38900A1F12C
:103C5000C041D1F8481101F07043816A0A684C688C
:103C6000521E641E42EA04148A68521E44EA022468
:103C70000A8A521E44EA02421A43D6F8483103F037
:103C80007043CC68898A641E2403491E44EA0151AA
:103C90001943C6F8481100688000A0F1C040C0F880
:103CA000482170BDC6F84011CEE7FFE7D6F84811AD
:103CB00001F07041806A02684368521E5B1E42EA4E
:103CC00003138268521E43EA0223C268521E43EA6B
:103CD0000233028A521E43EA0243828A007E521E47
:103CE00043EA0252401E42EA00600843C6F8480117
:103CF00070BD000002490A6842EA4000086070474F
:103D0000540100A02DE9FC47012140F2A71001F069
:103D1000A7FC2E20009002268DF8056001248DF866
:103D2000044000258DF806508DF80740244F694661
:103D3000384600F04DF80E21384600F0A0F8202754
:103D40000097DFF880806946404600F041F8202166
:103D5000404600F092F840200090DFF86C906946F1
:103D6000484600F035F800976946484600F030F8BC
:103D70002021484600F081F88DF804508DF8075056
:103D8000600300906946114800F022F801F0DAF86B
:103D9000FDF714F909F04CFD01F0E0F901F0F8F934
:103DA000102000908DF805608DF804408DF80650C5
:103DB0008DF807406946404600F00AF8BDE8FC87E8
:103DC00000080240001C02400020024000040240A3
:103DD0002DE9F041002201274FF0030C07FA02F50C
:103DE0000B682B40AB422CD1066853000CFA03F44D
:103DF000A64306600E79D0F800809E4046EA080689
:103E000006600E79012E01D0022E12D18668A643DB
:103E100086604E79D0F808809E4046EA08068660A3
:103E20004668AE43466045688E799640B6B23543E3
:103E30004560C568A543C560CC799C40C3681C43F8
:103E4000C460521C102AC9D3BDE8F08110B54B07DD
:103E5000DB0E9A40C90800EB8100016A0F249C40E8
:103E6000A1430162016A1143016210BD02460020B4
:103E700012690A4200D001207047418370470183D4
:103E800070470000034A203902EB01111022FCF7B1
:103E9000A9B90000E07007082DE9F04104460025AB
:103EA00014212C48FCF7B7F92A4814211430FCF7E8
:103EB000B2F92849274FA33991F89E200AE0085DFE
:103EC000452801D0652800D1012678556D1CEDB23A
:103ED000641CE4B2A242F2D81F48204C4078A0B142
:103EE000781910F8010C3038E0641A4809F0A8FD80
:103EF00051EC100BFCF7A2FAA064012E17D178192F
:103F000010F8021C2D2909D00CE0124809F098FD88
:103F100051EC100BFCF792FAA064EEE710F8012CBC
:103F2000332A02D02B2904D007E000202065BDE809
:103F3000F08110F8012C332A08D02B29F7D110F882
:103F4000010C3028F3D101202065F0E70220206524
:103F5000EDE7000083020020240000204C07002031
:103F60000349085C002801D00020704701207047F9
:103F70003D0000204069806880B27047D0F8CC00D6
:103F80000068C0F341407047084490F89B037047B5
:103F900000EB8100D0F85003704710B504460022B2
:103FA0000023C4F8103304EB8200C0F81433C0F8C7
:103FB0005033A01880F88C33521CD2B20F2AF2D39F
:103FC0000820A4F8B203204607F026FF204607F099
:103FD000B5FC204607F0D6FB0121204607F07EFF06
:103FE000204607F023FC204607F0E2FC002010BD2D
:103FF000D0F81003704710B507F0F7FE002010BD91
:104000000022431883F89B2300EB4113C3F8C0231D
:1040100007F024BE2DE9F0410546134F4FF480769A
:1040200031463846FFF729FF00244FF48058280610
:1040300004D541463846FFF722FF03E041463846A3
:10404000FFF71BFF31463846FFF719FF09F0B4FCB4
:1040500031463846FFF711FF6806050E641CE4B2CE
:10406000082CE4D3BDE8F08100080240FEE7000020
:104070002DE9F041082A00D9082202B901220729B6
:1040800000D90721914200D911460024224E202751
:104090003755641CE4B2082CFAD314460A250DE007
:1040A000B0FBF5FC05FB1C0C06EB04080CF1300C16
:1040B00008F801CCB0FBF5F0641EE4B2002CEFD19F
:1040C00069B110460C4605E0351815F8015C355409
:1040D000401EC0B2641EE4B2F6D22E24345473B92A
:1040E0000020531E09E0345C302C08D13418647869
:1040F0002E2C04D03754401CC0B29842F3DB09B1D7
:10410000521CD2B2002002E0B054521CD2B2082A93
:10411000FAD3BDE8F08100006700002006494FF4A3
:10412000A470002201E001F8012B401E80B2FAD2F7
:1041300002480270704700004C0700203000002049
:1041400070B505462DED048B0C466068DFED340A32
:1041500000EE100AB8EE400A20EE209AA068C0F1E6
:104160000700FCF75EF941EC110B9FED2E0B09F0F7
:1041700083FCB0EE408AF0EE608A19EE100AFCF77C
:1041800076F953EC182BFCF7DDF8FCF783F900EE19
:10419000100A264910EE100A884201DD9FED240A1C
:1041A000244910EE100A88420BDB0320A060DFEDEB
:1041B000220A80EE201AFCEEC10A10EE900A60601E
:1041C00017E010EE100A1D4988420BDB0420A060A6
:1041D000F2EE040A80EE201AFCEEC10A10EE900AFC
:1041E000606006E00520A060FCEEC00A10EE900AB8
:1041F0006060BCEEC00A10EE100AA0612078287042
:1042000060686860A068A860E068E860206928616C
:1042100060696861A069A861BDEC048B70BD000095
:10422000002474490000000000002440001B374BAC
:10423000001B374B8096184B0000C842002474497D
:104240000FB40299032902D1039901B90020029900
:10425000022902D1039901B901200299042903D14D
:104260000399012900D102200299032903D103995E
:10427000012900D103200299022903D103990129C0
:1042800000D104200299042903D10399022900D105
:1042900005200299032903D10399022900D10620A0
:1042A00004B070470FB40298032806D1019804495E
:1042B000884202D9012004B070470020FBE70000CB
:1042C000C0D401002DE9F05FFF250020FFF7A2FE1A
:1042D000DFF8CCA04FF4006949465046FFF7C6FD11
:1042E000DFF8C0804FF4806B00B359464046FFF7BB
:1042F000BDFDE8B149464046FFF7B8FDD0B1042105
:104300002948FFF7B3FDB8B10426042E40D200249B
:10431000264F385DFFF77EFE09F04EFB76B1012E89
:1043200013D0022E18D0032E23D11CE00026ECE778
:104330000126EAE70226E8E70326E6E74946504673
:10434000FFF794FDA8B9254613E059464046FFF70C
:104350008DFD70B925460CE049464046FFF786FDC5
:1043600038B9254605E004210F48FFF77FFD00B965
:104370002546FF2D03D1641CE4B2082CC9D3FF2DC0
:1043800004D005EBC600C0B2BDE8F09F0020FBE7FB
:104390004FF400510448FFF769FD0020F4E70000E6
:1043A0000020024000080240000C0240D31B070816
:1043B00010B5064C6078002805D00020607000F031
:1043C00055F8207810BD002010BD00000801002025
:1043D00010B50146002003F06FFB064C0020FFF7EC
:1043E000BFFD10B960780028F8D0BDE81040FFF795
:1043F000DFBF00000801002070B5FFF763FF1A4C13
:1044000000230125E21CD0B12178814228D16178B6
:10441000652901D2491C6170617864291BD00DD9CE
:1044200010709570A07800F10100C0B2A0700E2845
:1044300004D9A3705078002800D1557070BD207841
:1044400028B16178091F602901D21070557023705E
:104450006370937070BDA37010705570957070BDCF
:104460002070637070BD00000501002010B5FCF7DE
:1044700083FD4FF47A700BF088F8BDE81040FCF72C
:1044800075BD00007CB501214FF4867001F0E8F89D
:104490004FF49850009002208DF8050001208DF80F
:1044A000040000248DF806408DF80700134D69467E
:1044B0002846FFF78DFC69152846FFF7E0FC4FF40E
:1044C000406100918DF8044069462846FFF780FC62
:1044D000E814009069460A48FFF77AFC042000902F
:1044E00069460848FFF774FC0748047044708470FC
:1044F000C01E0470447084707CBD0000000802403F
:1045000000200240000C02400801002010B50023EA
:104510001C4C2468002C06D0012C0DD0022C17D086
:10452000032C1ED023E000EB4003C1EB011000EB95
:10453000400003EB40131AE0A1F20F11C0F5F07038
:10454000A1EB011100EB4110401E00EB40030EE017
:10455000A0F20F10A0EB001001EB401000EB4003A5
:1045600005E000EB0010C1EB001303F20F13064847
:10457000834205D205488068C2521844110C8170EC
:1045800010BD00005400002000FA05000C010020BE
:1045900070B58AB0C0F30744C0F30725C6B2FCF774
:1045A00087FE4FF440300090012001900494039561
:1045B00002960F2005900B48806806900020079017
:1045C0004FF4887008904FF4F07009906846FCF73B
:1045D00085FEFCF7DFFE0220FCF776FE0028FAD00D
:1045E0000AB070BD0C0100202DE9F04F8BB03B4CA0
:1045F0006468C4F3074704F0FF09C4F30728384C84
:10460000DFF8D8A0C2F5F076AAF1140A2568DAF826
:104610000840002D37D0C3F5887C012D3ED0022DF7
:104620004CD000EB0010C3EB0010401A00F588706E
:1046300000EB400005191FFA8CF614469B46FCF768
:1046400037FE4FF44030019001200290CDF81080E9
:10465000CDF80C900597FF200690079508960994D1
:10466000CDF828B001A8FCF739FEFCF793FE022034
:10467000FCF72AFE0028FAD0DAF8000000F0B4FABD
:104680000BB0BDE8F08FC1EB011100EB411000EB66
:1046900040000519B6B21C469346D0E7ACEB0101C9
:1046A000C1EB0111C0EB4110801A00F5F07000EB76
:1046B00040000519B6B21C469346C0E7C0F58870A5
:1046C000801AC0EB001001EB401000EB4000051910
:1046D000C3F5F07086B214469B46B0E72001002077
:1046E000540000202DE9F0438BB0904699460024F9
:1046F0002E4A1568002D0CD0C1EB011200EB4216BA
:104700002B4A012D97680DD0022D11D0032D18D002
:104710001AE000EB4002C1EB011000EB400002EB9D
:10472000401411E0A6EB86002249384444180BE0FF
:10473000A0F20F10A0EB001001EB401000EB4004C2
:1047400002E006EB4600C419194814300068C0F3B3
:104750000745C6B2C0F30727FCF7AAFD4FF4403067
:104760000190012002900497039605950F21069170
:104770000794B9F1000F12D040F2DF110891CDF883
:1047800024800A9001A8FCF7A9FDFCF703FE022093
:10479000FCF79AFD0028FAD00BB0BDE8F0830021A9
:1047A00008910990CDF82880ECE700005400002023
:1047B0000C01002000FA05002DE9FC5F012140F208
:1047C000FF1000F04DFF4FF00408CDF800800320EB
:1047D0008DF8050002208DF8040000208DF80600F9
:1047E0008DF807006946AB48FFF7F2FA0E22022166
:1047F000A848FFF72BFB4FF00809CDF80090694659
:10480000A448FFF7E5FA0E220321A248FFF71EFB9A
:104810004FF4807ACDF800A069469E48FFF7D8FA99
:104820000E2208219B48FFF711FB012400946946E2
:104830009948FFF7CDFA092200219748FFF706FBB8
:104840004FF4006BCDF800B069469448FFF7C0FA0A
:104850000E220B219148FFF7F9FA200300906946D8
:104860008E48FFF7B5FA0E220C218C48FFF7EEFABE
:104870000220009069468848FFF7AAFA0922012120
:104880008548FFF7E3FA4025009569468448FFF71D
:104890009FFA0E2206218248FFF7D8FA20200090C6
:1048A00069468048FFF794FA0E2205217D48FFF7FC
:1048B000CDFA009569467B48FFF78AFA0E22062159
:1048C0007848FFF7C3FA6003009069467148FFF724
:1048D0007FFA0E220D216F48FFF7B8FAA602009664
:1048E00069466F48FFF774FA09220A216C48FFF7FE
:1048F000ADFAE003009069466648FFF769FA0E22B8
:104900000F216448FFF7A2FA009469466648FFF752
:104910005FFA0E2200216448FFF798FA802700977B
:1049200069466248FFF754FA0E2207215F48FFF7F5
:104930008DFACDF8008069465B48FFF749FA0E22F0
:1049400002215948FFF782FA4FF01008CDF8008095
:1049500069465448FFF73CFA0E2204215148FFF7FC
:1049600075FA2003009069464D48FFF731FA0E2290
:104970000C214B48FFF76AFA00954D4D69462846D1
:10498000FFF726FA0E2206212846FFF75FFACDF838
:1049900000B069464248FFF71BFA0E220B2140483F
:1049A000FFF754FACDF8008069463F48FFF710FA48
:1049B0000E2204213C48FFF749FACDF800906946E1
:1049C0003648FFF705FA0E2203213448FFF73EFA76
:1049D000CDF800A069463048FFF7FAF90E22082109
:1049E0002D48FFF733FA4FF40079CDF8009069466F
:1049F0002948FFF7EDF90E2209212748FFF726FA8B
:104A0000009769462648FFF7E3F90E22072124485C
:104A1000FFF71CFA009669462348FFF7D9F90E22E2
:104A20000A212148FFF712FACDF8009069461E4886
:104A3000FFF7CEF90E2209211B48FFF707FA00966F
:104A40001C4E69463046FFF7C3F90E220A21304654
:104A5000FFF7FCF9CDF8008002208DF805008DF8F5
:104A6000044000208DF806008DF80740694628466E
:104A7000FFF7AEF9009769462846FFF7A9F910211C
:104A80002846FFF7FCF980212846FFF7F8F9BDE832
:104A9000FC9F0000001C0240000402400000024095
:104AA00000180240001002400020024000080240AE
:104AB000000C02400014024000B58FB001218806AE
:104AC00000F006FE0121C80500F0CAFDFFF774FEE4
:104AD00002F0B0FC062207214FF4967000F094FE1D
:104AE0004FF4803000F080FE012000F087FE3D2072
:104AF00000F04EFE0028FAD00020009001900290B5
:104B000003900C900D900E90049005902E2006902E
:104B10001720079040F20E20089040F227100990CD
:104B20004FF409700A9040F23D100B90684600F077
:104B300037F9012000F024F90FB000BD10B590B096
:104B40002F20009040F20E2001901820029040F299
:104B50002710039001200490FF20059006900790F5
:104B60000890099007200B9040F2A3500D90C01EB2
:104B70000E904FF488700F900C480C904FF4C0606A
:104B80000A900B4C6946204600F06CF9012000F0B9
:104B9000B5F90121204600F059F9012000F0AEF9E5
:104BA000044800F009F810B010BD000000FA05D06C
:104BB0000469014028010020014908617047000094
:104BC0000C0100200649002804D006488860012016
:104BD000C86070474FF0504088600020C860704740
:104BE0000C01002000FA05D0014908607047000060
:104BF0000C01002010B50949C968002908D00146F8
:104C0000074800F021F9BDE81040012000F076B916
:104C100001460348803800F017F9F4E70C01002042
:104C2000046901402DE9F04F044688462546334982
:104C300002EB0210DFF8C8A001EB4009002B0FD0F7
:104C4000002709EB070090F802B000265FEA0B602E
:104C500035D541462046DAF80020FFF757FC34E00E
:104C60004FF0000B09EB0B0087780026380606D5BD
:104C700041462046DAF80020FFF748FC05E04146AF
:104C80002046DAF80420FFF741FC7806070E641C82
:104C9000A4B2601B10280CD0761CF6B2082EE5D307
:104CA0000BF1010B0BF0FF0BBBF1200FDAD3BDE8CA
:104CB000F08F2C4608F101081FFA88F8F0E741460A
:104CC0002046DAF80420FFF721FC4FEA4B604FEA58
:104CD000106B641CA4B2601B102808D0761CF6B2BE
:104CE000082EB3D37F1CFFB2202FAAD3DFE72C46B8
:104CF00008F101081FFA88F8F4E70000DB1B070839
:104D0000200100202DE9F84F04468B469246A0462C
:104D100000270AFB03F0C11700EB5170DFF85C902D
:104D2000009025E00A98C65D0025300606D5594654
:104D30002046D9F80020FFF7E9FB05E05946204658
:104D4000D9F80420FFF7E2FB7006060E641CA4B23B
:104D5000A4EB0800504505D144460BF1010B1FFAA6
:104D60008BFB03E06D1CEDB2082DDED37F1CBFB2C0
:104D70000098B7EBE00FD5DBBDE8F88F20010020ED
:104D80000649002804D0086840F001000860704718
:104D9000086820F0010008607047000018680140B2
:104DA00030B5264A136826490B401360038A1B045A
:104DB000146845692C431C431460121D13680B4092
:104DC0001360038B1B041468C5692C431C431460D7
:104DD000121D13680B401360038C1B041468456A92
:104DE0002C431C431460121D13680B401360018D8B
:104DF00009041368C46A23430B431360111D0A6836
:104E0000104B1A400A60D0E900231A43D0E902345B
:104E100023431A430B681A430A60416B0A02018E4E
:104E20000B04064924310C6804F07F440C600C68C4
:104E3000806B134304431C430C6030BD0868014081
:104E400000F800F08F88FE0F41617047002904D000
:104E5000016841F0010101607047016821F0010122
:104E60000160704770B58A881204436803F4704388
:104E700043600B68134343608A891204836803F418
:104E8000704383608B6813438360026922F00702DA
:104E900002610A690261CA6913020A8C120491F85C
:104EA000244024068569002585618E6922431E43BE
:104EB00016438661426922F0FF0242614A694261FB
:104EC000C26940F207739A43C261D1E90A231A43C7
:104ED000C261826A85620A6B82620A8F1204C36AA7
:104EE00003F0E023C3624B6B1343C362026B6FF3A7
:104EF0000A020263C96B016370BD000001490860CA
:104F0000704700002468014010B54FF480610948E3
:104F1000FEF7B5FF4FF400510748FEF7B0FF04213C
:104F20000648FEF7AAFFBDE8104001210448FEF73D
:104F3000A4BF0000001C0240000802400010024014
:104F4000000002407CB50121BF2000F089FB042055
:104F5000009000248DF8054001258DF804508DF84F
:104F600006408DF8075069460C48FEF731FF4FF4B4
:104F7000B840009069460A48FEF72AFF8DF80540C0
:104F80008DF804508DF806408DF8075008200090E9
:104F900069460448FEF71CFF7CBD0000001002407B
:104FA000001C0240000C024010B504210948FEF725
:104FB00066FF01210848FEF762FF4FF48061074851
:104FC000FEF75BFFBDE810404FF400510448FEF7C8
:104FD00054BF00000010024000000240001C0240CC
:104FE000000802404FF400610148FEF746BF000090
:104FF000001C02404FF400610148FEF740BF000072
:10500000001C024010B5104C104A94F89E0010602D
:10501000082801D1092111600D49536809688B42A4
:1050200011D051600B4A117809B1491E11701178E5
:10503000002908D1002806D0032801D301F08CF8FC
:10504000002084F89E0010BDE00100203401002003
:105050002800002024000020FEE7704708B54FF428
:10506000A06000F061F827208DF8000001208DF885
:1050700001008DF802008DF80300684600F020F86A
:1050800008BD08B54FF4C06000F04EF809208DF857
:10509000000001208DF801008DF802008DF803005A
:1050A000684600F00DF808BD00F01F020121914094
:1050B0004009800000F1E020C0F8001170470000B6
:1050C00030B50F23C27801250178002A1FD0154A78
:1050D000126802F4E062C2F5E062C2F30722C2F194
:1050E0000404D3404278A24084781C401443220137
:1050F00001F1E02181F80024007800F01F018D40CB
:105100004009800000F1E020C0F8005130BD01F0FE
:105110001F0085404809800000F1E020C0F8805160
:1051200030BD00000CED00E0024908430249086070
:10513000704700000000FA050CED00E0024A114043
:10514000014302480160704780FFFF1F08ED00E047
:10515000014806F013B80000AC2900201CB501215D
:10516000084600F07DFA4020009002208DF80500EE
:1051700000208DF804008DF8060001208DF807004E
:1051800069460248FEF724FE1CBD000000000240F4
:105190007CB50121CD2000F063FA1020009000249E
:1051A0008DF8054001258DF804508DF806408DF8E6
:1051B000075069460D48FEF70BFE009569460C48FE
:1051C000FEF706FE6D03009569460A48FEF700FEED
:1051D0008DF80440009569460748FEF7F9FD28114F
:1051E000009069460548FEF7F3FD7CBD001C0240B7
:1051F0000000024000080240000C0240001802407B
:10520000014908627047000000000E42F0B57D4B76
:1052100018780021032800D919705878032800D97C
:1052200059709878012800D99970DA6A0320052A04
:1052300000D9D8629D6A744C744AA54200D99A621A
:105240001D6B052D00D9196393F840500A2D01D923
:1052500083F8401093F841500A2D01D983F841108A
:1052600093F84250032D01D983F8421093F820504F
:10527000012D01D983F82010DD6C052D00D9D864EB
:105280009E6C42F6E065A64200D99D641E6D052E17
:1052900000D919659E6E052E00D998665E6E9642FD
:1052A00000D95D66DE6E052E00D9D966DE68052E52
:1052B00000D9D8609E68964200D99D601D69052D71
:1052C00000D91961D3F88450052D01D9C3F88400A1
:1052D000D3F88050A54201D9C3F88020D3F8885074
:1052E000052D01D9C3F88810D3F8A050052D01D998
:1052F000C3F8A000D3F89C00A04201D9C3F89C20B9
:10530000D3F8A400052801D9C3F8A41093F8FD0030
:105310000A2801D983F8FD1093F80001012801D96A
:1053200083F8001193F8FF00012801D983F8FF10DA
:1053300093F8FC00012801D983F8FC1093F8FE00D3
:10534000012801D983F8FE1000201A1892F80141B3
:10535000802C01D982F80111401CC0B21428F4D36A
:10536000002030241A1892F83C51802D06D90828C4
:1053700002D282F83C4101E082F83C11401CC0B2EC
:105380000A28EFD30020224C224D234A9FED230A06
:1053900003EBC001D1F8B8602644AE4203D3F7EE68
:1053A000000AC1ED2E0AD1F8B46052F83070BE4246
:1053B00006D8D1F8B46002EBC0077F68BE4205D2C0
:1053C000154E483656F82060C1F8B460062809D258
:1053D00003EB8001124FD1F81861BE420CDD81ED64
:1053E000460A09E0811F03EB81010E4FD1F83461B9
:1053F000BE4201DD81ED4D0A401CC0B20828C7D372
:10540000F0BD00004C070020804F1200C0D4010006
:10541000CDCCCCC0343373008000002000000000ED
:105420000050C3470024F448704710B504F02EFD27
:10543000BDE8104000F0E2B810B504F017FDBDE87B
:10544000104000F0D5B80000FEB55E48002404709E
:1054500004F01CFDFCF702F800F014FA002104200F
:1054600000F0ECFBFEF74EFC002000F029FBA0F55D
:105470004851F23902D000F018FC08E00121080779
:1054800000F018F90120FFF7BBFE00F04BFC02F022
:1054900047FE4FF47A700AF078F8FEF7F3FFFFF753
:1054A0000BFBFFF74BFB0120FFF76AFC0020FFF727
:1054B00089FB4FF47F00FFF76BF80120FFF782FBB9
:1054C000FF20FFF797FB4FF050173846FFF760F8C3
:1054D00002F0DEF8FEF722FE00F036FE3A480BF04E
:1054E00049FCFFF793FE02F0B7FE38480470FEF760
:1054F000B3FA0024364801250570364806260670A2
:105500000021007800F0AEFD33480570334800906C
:10551000334B344A0021344805F012F931493248FE
:1055200005F090FF314D49E0641CA4B2142C00D961
:105530002E700220FEF74CFF12282BD00CDC122814
:105540003CD2DFE800F03B1E3B243B3B3B3B3B1B9C
:1055500036213B3B3B3B3B181B282FDAA0F11300C5
:1055600008282BD2DFE800F02A2A2A2A2A2A04282F
:1055700004F074FC22E004F069FC1FE0FFF73AFD40
:105580001CE0FFF72FFD19E004F080FC16E004F0AA
:105590006DFC13E03846FEF7FBFFB420ADF80400C5
:1055A0007820ADF80600ADF8080001A80BF082FAEB
:1055B00004E0FFF7F9FC01E0FFF7A6FC28780228D9
:1055C000B2D0FEBD5A000020D321010832000020D5
:1055D000580000203300002059000020480100201E
:1055E000C4010020582F0020AC29002031000020E9
:1055F00020210148FEF741BC00080240202101485B
:10560000FEF73DBC000802402DE9FF5F89460746D2
:1056100011469B466846FEF735FC0025EA461AF817
:105620000580002409EB0506C4F1070028FA00F004
:10563000C00706D03819B1B280B25A46FEF766FFED
:1056400005E03819B1B280B20E9AFEF75FFF641C14
:10565000082CE9D36D1C102DE1D3BDE8FF9F00009D
:10566000054A002903D01168014311607047116891
:10567000814311607047000030380240054A00291C
:1056800003D01168014311607047116881431160B4
:105690007047000010380240054A002903D0116805
:1056A0000143116070471168814311607047000029
:1056B00038380240054A002903D0116801431160BF
:1056C0007047116881431160704700004038024004
:1056D000054A002903D01168014311607047116821
:1056E00081431160704700004438024070B5244B7C
:1056F000196801F00C01234C00291ED0224E042908
:105700001DD008291DD00460196801F0F0010909B5
:105710001E4A545C0168E14041601C6804F4E05496
:10572000A40A145D21FA04F484601B6803F4604346
:105730005B0BD25CD140C16070BD0460E4E70660E1
:10574000E2E70F4A121F1168C1F38055116801F09A
:105750003F0135B1B6FBF1F11468C4F3881461431D
:1057600005E0B4FBF1F11468C4F3881461431268D6
:10577000C2F30142521C5200B1FBF2F10160C3E7D7
:10578000083802400024F40040787D011400002015
:1057900002460020510901290BD002290DD00949E8
:1057A000096802F01F02012393400B4200D0012040
:1057B0007047044974390968F3E70249091F096809
:1057C000EFE7000074380240064900220A700A70B0
:1057D000012804D0042801D1052008707047012059
:1057E0000870704770380240034A116821F4403154
:1057F00001431160704700008C380240014908677E
:105800007047000000004742800140EA0160024901
:1058100040EA027008607047883802400149086019
:10582000704700003C0E4742C0F30121032907D115
:10583000074B196821F4F812064901401143196019
:10584000034A68321168C0F30B00014311607047CE
:1058500008380240FFFCFF0F010901EB81014900FC
:1058600000F00F000844C0B27047002103E0491C5B
:10587000C9B20A38C0B20A28F9D2090740EA116051
:10588000704700000EB501210807FFF713FF012044
:10589000FFF7B6FC0120FFF797FF4120FFF778FFE5
:1058A0000028FAD04FF48070FFF7BEFF0120FFF709
:1058B000B5FF00F037FA7F200190FF200290002012
:1058C0000090684600F0D4F8002802D101A008F04A
:1058D00079F80EBD0A0D2052544320CAB1D6D3B375
:1058E000F5CABCBBAFCAA7B0DC200D0A000000009F
:1058F00080B240F08000C1430348026802F0800299
:1059000011430160704700000C280040000980B27C
:1059100040F08000C1430348026802F08002114356
:10592000016070470C28004008B5002000900E4927
:105930000868400615D44FF0FF3008608B130868E4
:1059400000F04000009A521C0092009A9A4201D046
:105950000028F4D00868400601D5012008BD0020C9
:1059600008BD012008BD00000C2800400248016865
:1059700021F08001016070470C28004010B50246FC
:105980000C460E4801680E480140080CE070C1F357
:105990000423637001F03F03A370C1F3423121700F
:1059A000002A0AD1FFF758FFE0706078FFF754FF34
:1059B0006070A078FFF750FFA07010BD0428004071
:1059C0003FFFFF000246002003490968034B1940CE
:1059D000114200D0012070470C2800407F3F010099
:1059E00010B502460C460F4801680F480140C1F34C
:1059F00005402070C1F30623637001F07F03A3709C
:105A000001F48001090CE170002A0AD1FFF724FF9C
:105A100020706078FFF720FF6070A078FFF71CFF10
:105A2000A07010BD002800407F7F7F0030B50F4D73
:105A3000CA222A6053222A600C4C0C4B1C3C20F0DA
:105A400004021C3300F00400002906D02168114331
:105A5000216019680143196005E0216891432160C4
:105A6000196881431960FF20286030BD2428004058
:105A700070B504460025114ECA20306053203060B6
:105A8000FFF752FFA8B10D481C38016821F0400112
:105A9000016001682268114301600848A168143858
:105AA00001600168A28841EA02410160FFF75EFFE0
:105AB0000125FF203060284670BD000024280040EA
:105AC00008B5034901EB800000900098006808BD0C
:105AD0005028004070B505460C460026002D06D122
