:020000040800F2
:1000000020760020C10100081B4D0008F53A0008C9
:10001000194D0008090B000811BB00080000000082
:1000200000000000000000000000000095670008CC
:10003000510F000800000000E9500008176F000889
:10004000DB010008DB010008DB010008B9590008EA
:10005000DB010008DB010008DB010008DB01000810
:10006000DB01000841350008DB010008DB01000866
:10007000DB010008DB010008DB010008DB010008F0
:10008000DB010008DB010008DB010008DB010008E0
:10009000DB010008DB010008DB010008DB010008D0
:1000A000DB010008DB010008DB010008DB010008C0
:1000B00051700008DB010008DB010008DB010008CB
:1000C000DB010008DB010008DB010008DB010008A0
:1000D000DB010008DB010008DB010008258C0008BB
:1000E00025350008DB010008DB010008DB01000802
:1000F000DB010008DB010008DB010008DB01000870
:10010000DB010008DB010008DB010008DB0100085F
:10011000DB010008DB01000865700008DB01000856
:10012000DB010008DB010008DB010008DB0100083F
:10013000DB010008DB010008DB010008DB0100082F
:10014000DB010008DB010008DB010008DB0100081F
:10015000DB010008DB010008DB010008DB0100080F
:10016000DB010008DB010008DB010008DB010008FF
:10017000DB010008114E0008DB010008DB0100086C
:10018000DB010008DB010008DB010008DB010008DF
:10019000DB010008DB010008DB010008DB010008CF
:1001A000DB010008DB010008DB010008DFF80CD0F0
:1001B00000F04EFB0048004751FA0008207600206E
:1001C0000648804706480047FEE7FEE7FEE7FEE7F1
:1001D000FEE7FEE7FEE7FEE7FEE7FEE7F56F000855
:1001E000AD01000840EA01039B0703D009E008C9FC
:1001F000121F08C0042AFAD203E011F8013B00F8EC
:10020000013B521EF9D27047D2B201E000F8012B37
:10021000491EFBD270470022F6E710B513460A4686
:1002200004461946FFF7F0FF204610BD421E12F8A3
:10023000013F002BFBD111F8013B02F8013B002BE1
:10024000F9D1704710B5002200E0521C835C8C5C31
:10025000A34201D1002BF8D1D8B2E1B2401A10BDAF
:100260002DE9FE4F81EA030404F0004421F000412F
:1002700000944FF0000B23F0004350EA01045ED0DD
:1002800052EA03045BD0C3F30A54C1F30A552C4469
:10029000A4F2F3340194A0FB0254C1F3130141F41E
:1002A0008011C3F3130343F4801301FB024400FBEA
:1002B000034E840A970A44EA815447EA8357A4FB11
:1002C000076802958D0A05FB07854FEA932C04FB0E
:1002D0000C542705029D4FEA065847EA1637B5EB3E
:1002E00008056EEB070C870E920E47EA811742EA6B
:1002F0008312A7FB0201B6EB0B0164EB00042B0D8C
:1003000043EA0C335E1844EB1C50DA465146E7FBD7
:100310000201C5F313044FEA0B3343EA14534FEAC7
:100320000432019C43EA0603A4F10C040294009CED
:10033000CDE900B400F03EF903B0BDE8F08F002035
:100340000146F9E72DE9F04D81EA030404F0004B82
:1003500021F0004514464FF0000A23F0004150EA16
:10036000050220D054EA01021DD0C5F30A57024607
:10037000C5F31303C1F31300C1F30A5640F480150B
:1003800043F48013A7EB0608101BD64608F2FD388D
:1003900073EB050002D308F1010801E092185B41FC
:1003A000B8F1000F03DA00200146BDE8F08D00200F
:1003B0004FF48011064684460EE0171B73EB0507C9
:1003C00005D3121B63EB050306434CEA010C4908F5
:1003D0004FEA300092185B4150EA0107EDD152EA32
:1003E000030012D082EA040083EA0501084305D025
:1003F000101BAB4106D20122002306E000224FF081
:10040000004302E06FF0010253101AEB06004CEBC0
:10041000085110EB0A0041EB0B01BDE8F04D00F074
:10042000BAB80EB540F2334102910021CDE9001176
:100430000A460B4600F0BEF803B000BD00F00042D3
:1004400030F000400AD0C10D01F56071C0F3160014
:1004500042EA0151C208400711437047002001469B
:10046000704701F0004330B421F0004150EA01022E
:1004700006D00A0DA2F56072C1F31301002A02DC56
:1004800030BC00207047440F44EAC104C100E018AA
:1004900030BC00EBC25000F047B830B50B46014607
:1004A00000202022012409E021FA02F59D4205D313
:1004B00003FA02F5491B04FA02F52844151EA2F1BD
:1004C0000102F1DC30BD2DE9F05F054600209246C7
:1004D0009B4688460646814640241BE02846414606
:1004E0004746224600F0D5F953465A46C01A914174
:1004F00010D311461846224600F0BCF92D1A67EBBE
:1005000001084F4622460120002100F0B3F917EB05
:1005100000094E41201EA4F10104DFDC48463146AB
:100520002A464346BDE8F09F0029A8BF7047401CFB
:10053000490008BF20F00100704710B4B0FA80FCF9
:1005400000FA0CF050EA010404BF10BC704749B136
:10055000CCF1200421FA04F411FA0CF118BF0121A6
:1005600021430843A3EB0C01CB1D4FEA00614FEA86
:10057000102042BF002010BC704700EBC350104455
:100580000029A4BF10BC7047401C490008BF20F0E0
:10059000010010BC704710B5141E73F1000408DA96
:1005A000401C41F1000192185B411A4301D120F037
:1005B000010010BD2DE9F04D92469B4611B1B1FAF4
:1005C00081F202E0B0FA80F22032904600F052F957
:1005D00004460F4640EA0A0041EA0B0153465A46D8
:1005E000084313D0114653EA010019D0C8F1400264
:1005F000504600F04EF905460E46504659464246D2
:1006000000F038F9084305D0012004E020463946BF
:10061000BDE8F08D0020054346EAE0762C433743E1
:100620000A986305E40AA0EB08000022FD0A44EAE8
:1006300047540A3002D500200146E9E701051019A8
:100640006941DDE9084500196941BDE8F04DA2E7BF
:100650002DE9FE4F804681EA0300C00F0C46009052
:1006600021F0004123F00045B8EB0200A94105D27A
:100670004046214690461C460B46024623F0004069
:10068000104347D0270DC7F30A00C3F30A51029065
:10069000401A019040286BDAC3F3130040F4801B2A
:1006A0000098924620B10023D2EB030A63EB0B0BB8
:1006B00001985946C0F14002504600F0DBF806466A
:1006C0000D4650465946019A00F0F3F810EB080029
:1006D0006141002487EA115284EAE7731A4340D04B
:1006E000009A62B3019A012A4FEA075215DC001BF7
:1006F00061EB02014FF0004202EA0752CDE90042ED
:10070000001C41F5801132462B46FFF753FF03B022
:10071000BDE8F08F40462146F9E7001B61EB02017E
:10072000001C41F5801300185B412018A2F500174A
:1007300047EB030140EAD570B6196D4111E06D0831
:100740004FEA360645EAC0754FEA0752001B61EBD7
:100750000201001C41F5801149084FEA30000019E0
:10076000514132462B4603B0BDE8F04FFFF713BFAF
:100770000098012240000023D0EB020263EBE073FB
:10078000009821464FEAE074B8EB000061EB0401E9
:10079000E9E783F000435BE781F0004158E770B57B
:1007A00021F0004303430CD0C1F30A550024D5EBDC
:1007B000040564EB0403D617AD1AB34102DB002035
:1007C000014670BD201841EB025170BD0EB5C10F3E
:1007D00080EAE0700844CA07002140F233438DE804
:1007E0000E000A460B46FFF7E5FE03B000BDC1F35D
:1007F0000A52C1F3130140F2FF3341F480119A42CF
:1008000002DA00200146704740F233439A42A2F2D6
:10081000334202DC524200F03CB800F02BB800003A
:1008200030B5041E71F1000404DB4FF00044404277
:1008300064EB0101141E73F1000405DB1C464FF04C
:100840000043524263EB0403994208BF904230BD1B
:10085000064C074D06E0E06840F0010394E807000D
:1008600098471034AC42F6D3FFF7A4FC88130A086B
:10087000A8130A08202A04DB203A00FA02F100201B
:1008800070479140C2F1200320FA03F319439040CE
:100890007047202A04DB203A21FA02F00021704739
:1008A00021FA02F3D040C2F12002914008431946D8
:1008B0007047202A06DBCB17203A41FA02F043EAC0
:1008C000E07306E041FA02F3D040C2F12002914009
:1008D0000843194670472DE9F04D00231A461B1AAC
:1008E0008A4103DB00200146BDE8F08DC1F30A52C6
:1008F000C1F3130141F480154FF0000BD10702D171
:1009000000186D41521E0027044640F2FF11384680
:1009100001EB620A3E468046024600204FF48011F9
:10092000FFF7B7FFC2197141BB1846EB0100B4EBEA
:10093000030C75EB000C04D3E41A65EB00051746B5
:100940000E46241908F101006D4180463428E3DD8C
:10095000F91946EB0600091BA84103D24FF0FF32FC
:10096000134601E0002213461BEB070046EB0A5139
:10097000BDE8F04DFFF70FBE70B58C1810F8015BA5
:1009800015F0070301D110F8013B2A1106D110F828
:10099000012B03E010F8016B01F8016B5B1EF9D12C
:1009A0002B0705D40023521E0DD401F8013BFAE7B2
:1009B00010F8013BCB1A921C03E013F8015B01F81D
:1009C000015B521EF9D5A142D8D3002070BD0000B2
:1009D00010B504210D4802F0F8FF01210C4802F087
:1009E000F4FF4FF480610B4802F0EFFF4FF4005129
:1009F000094802F0EAFF8021084802F0E6FF04F00F
:100A000035F8BDE8104008F0DDB8000000100240E5
:100A100000000240001C024000080240000C02409E
:100A20004178007841EA00207047000010B5074C7B
:100A30002060084600F00CF820680028FCD1BDE8D2
:100A4000104000214FF0804006F075BB500100209F
:100A50003EB504464FF080450021284606F06BFB6A
:100A600000220121284606F07EFB022C02D0012C38
:100A700003D005E00B20019002E042F6DF60019018
:100A80000520ADF800000020ADF80800ADF8020028
:100A90006946284606F092FB0121284606F048FBED
:100AA0000121284606F035FB01221146284606F0B2
:100AB0005AFB0121284606F03EFB3EBD202101489D
:100AC00002F083BF001C02402021014802F07FBFDA
:100AD000001C02400B4991F84220002A06D038B190
:100AE00091F8420002280BD0FFF7E8BFFFF7E6BFFE
:100AF00091F84200012801D0FFF7E0BFFFF7E4BF03
:100B0000FFF7E2BF30070020FEE700007CB50121BF
:100B1000084604F005FCA020009002208DF8050096
:100B200001248DF8044000258DF806508DF807400B
:100B3000084E6946304602F0F3FE8DF804508DF8F9
:100B400006508DF80740402100916946304602F07A
:100B5000E7FE7CBD0000024070B5FF22FF23084D78
:100B600005F5807605E010F8014B54402A5D5A40A7
:100B7000335D491E89B2F6D243EA022070BD0000FF
:100B8000880501082DE9F05F2DED028B0024DFF8C8
:100B900000A19AF840900021084605F0F3F821469C
:100BA000002001F0F5FB9FED3B8A3B4D3B4E68E09A
:100BB000012005F007FE0FF05FF895ED000A384FB1
:100BC000BCEEC00A10EE100A386005F02DF8DFF810
:100BD000D4800AE005F028F80FF04EF895ED000AF1
:100BE000BCEEC00A10EE100A386098F80000002829
:100BF000F0D105F0E7FD0FF0CFF92B4F2B4997ED22
:100C0000000ABCEEC00A10EE100A086005F00CF8ED
:100C100097ED000A4FF0964110EE100A884205DD6C
:100C200038EE400AB1EE400A87ED000A95ED000A61
:100C300010EE100A884205DD38EE400AB1EE400A97
:100C400085ED000A95ED000A0AEB840080ED460A66
:100C5000022C04D297ED000A80ED4D0AA3465946B6
:100C6000204605F08FF82146002001F091FB062C6C
:100C700005D3062030708AF8409006F01BF9641CFA
:100C8000E4B23078112893D0BDEC028BBDE8F09F20
:100C900030070020FFFF7F4B500000203D00002068
:100CA000580000204B0000204C0000205C00002079
:100CB00010B54FF40051094802F089FE012108489F
:100CC00002F085FE4FF48061064802F07EFEBDE82A
:100CD00010400421044802F078BE000000080240E1
:100CE00000000240001C02400010024030B587B0F6
:100CF000054628784C4C04F8280C687804F8270C32
:100D0000A87804F8260CE91C684606F0E7F89DF878
:100D1000000004F8240C019844F8200C029844F8D0
:100D20001C0C039844F8180C049844F8140C05980B
:100D300044F8100C069844F80C0C687A04F8080C77
:100D4000687A04F8080C05F10A01684606F0C6F84E
:100D50009DF8000004F8040C01982060029860607F
:100D60000398A0600498E06005982061069860618F
:100D7000287C2076687CA07605F11201684606F092
:100D8000ADF89DF80000207701982062029860621B
:100D90000398A0620498E062059820630698606357
:100DA00005F11801684606F099F89DF8000084F8EE
:100DB00038000198E0630298206403986064049806
:100DC000A0640598E0640698206505F11E01684658
:100DD00006F084F89DF8000084F854000198A0659E
:100DE0000298E06503982066049860660598A066FE
:100DF0000698E06605F12401684606F06FF89DF854
:100E0000000084F87000019860670298A06703985A
:100E1000E0670498C4F880000598C4F88400069838
:100E2000C4F8880007B030BD5807002010B5012174
:100E3000CC05204604F082FA2046BDE8104000218F
:100E400004F07CBA01460020024A52680A4200D0EF
:100E50000120704700B0024030B500242A4B1968C9
:100E60002A4A114019601968026811431960596BC8
:100E700021F007015963596B426811435963416876
:100E8000002928D001292DD0022930D0032933D0C0
:100E9000C1680A0101690902446924038568214384
:100EA00015430D43996B0D439D638169D963196C9B
:100EB0006FF30D011964196CC26911431964818CB7
:100EC00009045A6C02F040425A645A6C006A0243A8
:100ED0000A435A6430BDC1680A02018A0904047DCC
:100EE0002406DBE7C1680A02018A0904D6E7C16863
:100EF0004A010169C902D1E7C1684A010169890251
:100F00004469E403CAE7000000B00240FCE0FCFFD3
:100F10000248016841F001010160704700B00240E1
:100F20000CB5094B1B788DF8063000910749895C98
:100F30008DF8041005490B31895C8DF80510DDE949
:100F4000001206C00CBD00003A000020511001083C
:100F5000704710B590B0044602F054FA01222146C1
:100F600001A800F0FBFE9DF804008DF82400029813
:100F70000A9003980B9004980C9005980D90069891
:100F80000E9007980F9009A800F07AF8089008983A
:100F900010B010BD10B590B0044602F04BFA00221C
:100FA000214601A800F0DAFE9DF804008DF8240027
:100FB00002980A9003980B9004980C9005980D9055
:100FC00006980E9007980F9009A800F059F808901D
:100FD000089810B010BD000070B586B00121022045
:100FE00004F09EF90121880404F0C4F9224E07227E
:100FF0000B21304602F0D2FC07220A21304602F0D3
:10100000CDFC00248DF8164001208DF81700022534
:101010008DF81450810204918DF8155004A93046C2
:1010200002F07EFC8DF81450A802049004A930460A
:1010300002F076FC4FF496400090ADF80440ADF815
:101040000640ADF80840ADF80C400C20ADF80A00A1
:101050000A4C6946204607F03FFE03F05FFE01227E
:1010600040F22551204607F01CFE0121204607F0E2
:1010700005FE06B070BD00000004024000480040BC
:10108000416842F21072914204D941680A22B1FBD0
:10109000F2F141604068704738B5002000901D496A
:1010A0001D4842F210734EF660242EE09DF8002099
:1010B00000EBC202D2F8B4209DF8005001EBC50548
:1010C0006D68AA420CD89DF8002000EBC202D2F84D
:1010D000B4209DF8005001EBC5056D68AA4210D2FE
:1010E0009DF80020072A06D29DF8002000EBC202DE
:1010F000C2F8B43005E09DF8002000EBC202C2F84F
:10110000B4409DF80020521C00929DF80020092A4E
:10111000CCD338BD8C000020300700202DE9FC5FC7
:101120000546012D0AD0002000904FF0501B4FF4CF
:101130007F07FE4C009818B1676003E00120F3E7D9
:10114000C4F804B0DFF8E8A39AF8000108B1F94E3A
:1011500001E0F84E1C3E122368221A21582002F0AA
:1011600087FF9AF800000023C0EBC00082191A2103
:1011700058200BF00BFA022D05D0002000900098AB
:1011800018B1676003E00120F8E7C4F804B09AF8EA
:10119000000110B1E74E383601E0E64E1C3612234E
:1011A00068222E21582002F063FF9AF801000023E4
:1011B000C0EBC0008219302158200BF0E7F9032D55
:1011C00007D000200090DFF87083009818B16760A6
:1011D00003E00120F6E7C4F804809AF8000110B19A
:1011E000D44E623601E0D34E5436122368225C217D
:1011F000582002F03DFF9AF802000023C0EBC00027
:1012000082195C2158200BF0C1F9042D05D0002073
:101210000090009818B1676003E00120F8E7C4F877
:101220000480DAF80C00C1B2DAF8080000230522C5
:1012300002F062FC12237A227021582002F018FF7B
:101240000023BE4A722158200BF0A0F9DAF81010E2
:10125000BB48002300EB8102722194200BF096F929
:10126000052D05D000200090009818B1676003E0BC
:101270000120F8E7C4F804809AF8000110B1AD4EDF
:10128000623601E0AB4E5436122368229E2158206C
:1012900002F0EEFE9AF820000023C0EBC000821995
:1012A000A02158200BF072F9062D05D000200090E7
:1012B000009818B1676003E00120F8E7C4F80480E3
:1012C000DAF82C00C1B2DAF828000023062202F076
:1012D00013FC12237A22B221582002F0C9FE002307
:1012E000964AB42158200BF051F9002395A2B4215D
:1012F000A0200BF04BF9072D05D00020009000989E
:1013000018B1676003E00120F8E7C4F804B09AF868
:10131000000110B18A4E583E01E0894EB03E1223C2
:10132000682218214FF4A97002F0A2FE9AF8410039
:10133000A8B19AF840000023401C00EB400101EBEB
:10134000C00082191A214FF4A9700BF01FF9082D63
:101350000DD000200090009858B167600BE000238A
:1013600032461A214FF4A9700BF010F9EFE7012073
:10137000F0E7C4F804B09AF8000110B16D4EAC3635
:1013800001E06C4E70364FF4A97B122368222E21A7
:10139000584602F06DFE9AF842000023C0EBC000F0
:1013A0008219302158460BF0F1F8092D05D00020A4
:1013B0000090009818B1676003E00120F8E7C4F8D6
:1013C0000480DAF84C00C1B2DAF8480000230522A4
:1013D00002F092FB12237A225C21584602F048FE6A
:1013E0000023564A5C2158460BF0D0F8DAF850102A
:1013F0005348002300EB81025E214FF4C7700BF0CD
:10140000C5F80A2D05D000200090009818B167603B
:1014100003E00120F8E7C4F80480DAF86800C1B2FC
:10142000DAF864000023052202F066FB12237A2218
:101430007021584602F01CFE0023404A7221584693
:101440000BF0A4F8DAF86C103D48002300EB8102A1
:1014500072214FF4C7700BF099F80B2D05D00020C6
:101460000090009818B1676003E00120F8E7C4F825
:101470000480DAF88400C1B2DAF880000023062282
:1014800002F03AFB12237A229C21584602F0F0FD2A
:1014900000232A4A9E2158460BF078F8002329A2FF
:1014A0009E214FF4CD700BF071F80C2D05D000206B
:1014B0000090009818B1676003E00120F8E7C4F8D5
:1014C0000480DAF8A000C1B2DAF89C0000230622FA
:1014D00002F012FB12237A22B221584602F0C8FD14
:1014E0000023164AB42158460BF050F8002315A2E9
:1014F000B4214FF4CD700BF049F800F0DBFB002075
:10150000114A54276FF07F410D2D3DD2DFE805F0E1
:10151000070C3E5F80A0C1E1EFEEEDECEB00BDE813
:10152000FC5F022000F0D2B921600FE02C01002006
:1015300030070020120C01086534340073000020CD
:10154000AA0D0108205600003800310062609AF8A8
:10155000001109B1D84C01E0D74C1C3C019010E0BF
:1015600001980023C0EBC00002190198F12100EBA3
:10157000800007EB001080B20BF008F80198401CC7
:10158000019001980428EBD3BDE8FC9F21606260C4
:101590009AF8001111B1C84C383401E0C64C1C3423
:1015A000019010E001980023C0EBC00002190198DF
:1015B000F12100EB800007EB001080B20AF0E6FF9B
:1015C0000198401C019001980428EBD3DCE72160CE
:1015D00062609AF8001111B1B74C623401E0B64C68
:1015E0005434019010E001980023C0EBC0000219B0
:1015F0000198F12100EB800007EB001080B20AF0A7
:10160000C5FF0198401C019001980228EBD3BBE76D
:10161000216062609AF8001109B1A84C01E0A74C62
:10162000E41F019010E001980023C0EBC0000219F4
:101630000198F12100EB800007EB001080B20AF066
:10164000A5FF0198401C019001980028EBD09BE772
:10165000216062609AF8001111B1974C623401E088
:10166000954C5434019010E001980023C0EBC00069
:1016700002190198F12100EB800007EB001080B205
:101680000AF084FF0198401C019001980228EBD3D6
:101690007AE7216062609AF8001109B1874C01E095
:1016A000864CE41F019010E001980023C0EBC000BD
:1016B00002190198F12100EB800007EB001080B2C5
:1016C0000AF064FF0198401C019001980028EBD0BB
:1016D0005AE7216062609AF8001109B1784C00E085
:1016E000774C019017E0C6E0A5E084E063E016E0E7
:1016F0000198002300EB400101EBC00002190198A2
:10170000F12100EB800007EB001080B20AF03EFFF1
:101710000198401C019001980528E9D334E7216025
:1017200062609AF8001159B19AF84310012904D067
:10173000DFF8849109F1C8090AE05F4EAC3607E092
:101740009AF84310012909D0DFF86C9109F18C094E
:101750009AF84310012904D0019028E0564E7036C3
:10176000F6E7019010E001980023C0EBC000821959
:101770000198F12100EB800007EB001080B20AF025
:1017800005FF0198401C019001980428EBD3FBE66B
:101790000198002309EBC00200EB800007EB00106A
:1017A00080B2F1210AF0F2FE0198401C01900198EC
:1017B0000428EDD3E8E6216062609AF8001109B1CF
:1017C0003E4C01E03D4CE41F019010E001980023E5
:1017D000C0EBC00002190198F12100EB800007EB7B
:1017E000001080B20AF0D2FE0198401C01900198CE
:1017F0000028EBD0C8E6216062609AF8001109B1B8
:101800002E4C01E02D4CE41F019010E001980023C4
:10181000C0EBC00002190198F12100EB800007EB3A
:10182000001080B20AF0B2FE0198401C01900198AD
:101830000028EBD0A8E6216062609AF8001109B197
:101840001E4C01E01D4CE41F019010E001980023A4
:10185000C0EBC00002190198F12100EB800007EBFA
:10186000001080B20AF092FE0198401C019001988D
:101870000028EBD088E6216062609AF8001109B177
:101880000E4C01E00D4CE41F019010E00198002384
:10189000C0EBC00002190198F12100EB800007EBBA
:1018A000001080B20AF072FE0198401C019001986D
:1018B0000028EBD068E60000120C01088F07010831
:1018C000B60D0108002000F001B800002DE9F0413C
:1018D000044600F0EFF99448944B95496FF07F422D
:1018E0004FF483754FF4AB76002C47D04FF4D37789
:1018F000012C7DD0022C7CD191F80001002879D0F8
:1019000000238CA2E72166200AF040FE00238BA270
:10191000FB2166200AF03AFE002386A2E721B620CA
:101920000AF034FE002387A2FB21B6200AF02EFE27
:10193000002386A2E72128460AF028FE002381A280
:10194000FB2128460AF022FE002382A2E72130462E
:101950000AF01CFE002380A2FB2130460AF016FE8E
:1019600000237CA2E72138460AF010FE3846BDE885
:10197000F04100237AA2FB210AF008BE0260436016
:1019800091F80001002831D000236AA2E7216620E7
:101990000AF0FCFD002369A2FB2166200AF0F6FD97
:1019A000002364A2E721B6200AF0F0FD002365A21F
:1019B000FB21B6200AF0EAFD002364A2E7212846B5
:1019C0000AF0E4FD00235FA2FB2128460AF0DEFDB9
:1019D000002360A2E72130460AF0D8FD3046BDE87A
:1019E000F04100235CA2FB210AF0D0BD002302E0FD
:1019F00032E097E058E05CA2E72166200AF0C6FDDD
:101A000000235BA2FB2166200AF0C0FD002356A242
:101A1000E721B6200AF0BAFD002357A2FB21B62029
:101A20000AF0B4FD002356A2E72128460AF0AEFDD5
:101A3000002351A2FB2128460AF0A8FD002350A252
:101A4000E72130460AF0A2FD3046BDE8F041002310
:101A50004DA2FB210AF09ABD0260436000234CA214
:101A6000E72166200AF092FD00234BA2FB216620AD
:101A70000AF08CFD00234AA2E721B6200AF086FD79
:101A8000002349A2FB21B6200AF080FD002348A2D2
:101A9000E72138460AF07AFD3846BDE8F0410023D8
:101AA00045A2FB210AF072BD00232FA2E721662088
:101AB0000AF06CFD00232EA2FB2166200AF066FDD1
:101AC000002329A2E721B6200AF060FD00232AA204
:101AD000FB21B6200AF05AFD002329A2E72128465F
:101AE0000AF054FD002324A2FB2128460AF04EFDF3
:101AF000002323A2E72130460AF048FD002322A25A
:101B0000FB2130460AF042FD00232DA2E721384692
:101B10000AF03CFD3846BDE8F04100232AA2FB2133
:101B20000AF034BDBDE8F0812C01002038003100FE
:101B3000300700204D4541530000000044495350F8
:101B400000000000534554555000000020535953E5
:101B50000000000053595300494E464F000000005A
:101B60005550444154450000B2E2C1BF000000009E
:101B7000CFD4CABE00000000C9E8D6C300000000F0
:101B8000CFB5CDB300000000D0C5CFA2000000004B
:101B9000CEC4BCFE00000000B9DCC0ED00000000B7
:101BA000B1A3B4E600000000CAFDBEDD00000000E5
:101BB000B8FCB6E00000000020322F320000000028
:101BC000B9CCBCFE00000000C9FDBCB6000000009E
:101BD0000FB410B59DF80800002812D09DF8080039
:101BE000072807D99DF8101000230622039801F05A
:101BF00083FF06E09DF8181000230722059801F0E6
:101C00007BFF9DF808001A2110BC00EB800001EB5F
:101C100080010123034A4FF4A0705DF814EB0AF031
:101C2000B5BC00007300002071B581B000200090A9
:101C30001D4C4FF0501532E09DF804100098401CE8
:101C4000814203D14FF47F01616000E0656000EBE9
:101C500080001A2606EB800081B214235A22A020AD
:101C600002F006FA11480099415C1148009A00EB15
:101C7000C200D0F8B4000023062201F03DFF009816
:101C80000A4A401C00EB800006EB800081B2012371
:101C9000813AA0200AF07AFC0098401C009000983D
:101CA0000928C9D365607CBD2C010020F400002008
:101CB000300700202DE9F05F0024DFF878801E4E09
:101CC000DFF878A000274FF04C094FF0010BC6F861
:101CD000048004EB4401A00001EB041100EB81003F
:101CE00080B22B234C22E42102F0C2F9C6F804A0F2
:101CF00004EB84050BEB051080B201234C22E32199
:101D000002F0B6F909EB051080B22C230122E32181
:101D100002F0AEF977604D2000EB051080B22C2365
:101D20000322E32102F0A4F9641C062CCFD3BDE802
:101D3000F09F0000380031002C010020684369004A
:101D40000549044848606E235C2140F2DF12002000
:101D500002F08EB9653434002C0100202DE9F04FDB
:101D600093B080460E46012012900C9000270B97EE
:101D70000A970997089703970297049702970D9778
:101D80004FF0200A0FAD07E09DF8340005F800A0E1
:101D90009DF83400401C0D909DF834000728F3D3C3
:101DA0008DF843700AB1072400E00624DFF8E0B3A1
:101DB0004FF02E0975E1022002F04EF80E909DF8CA
:101DC0003800002846D001210C919DF838001228D7
:101DD000F8D00CDC12283DD2DFE800F03C3C3C7E21
:101DE000EEE1D43C3C5A3C78C7BAAD3C3C3D1A28A5
:101DF000E8D009DCA0F113000728ECD2DFE800F0FE
:101E00002A8E81722A2A0E001E2878D022DC1B28F6
:101E1000D8D01C2874D01D281CD1E7E00497129755
:101E20009DF82000A04214D29DF82C0088B99DF89E
:101E3000200050B19DF8200005F800909DF820008A
:101E40000A909DF82000401C08909DF82C00401C32
:101E50000B9005910CE1049112979DF82000A0428F
:101E600014D29DF82C0088B99DF8200050B19DF83F
:101E7000200005F800909DF820000A909DF82000B1
:101E8000401C08909DF82C00401C0B900591EFE041
:101E90000220049012979DF82000A04214D29DF8D1
:101EA0002C0088B99DF8200050B19DF8200005F85D
:101EB00000909DF820000A909DF82000401C08909A
:101EC0009DF82C00401C0B900591D1E006208BF86A
:101ED000000012970597CBE01297059712208BF818
:101EE0000000C5E09DF82000A04207D29DF8201018
:101EF000312068549DF82000401C0890B8E068E04C
:101F000091E09DF82000A04207D29DF820103220D9
:101F100068549DF82000401C0890A9E09DF820001E
:101F2000A04207D29DF82010332068549DF820006D
:101F3000401C08909CE09DF82000A04207D29DF82C
:101F40002010342068549DF82000401C08908FE039
:101F50009DF82000A04207D29DF82010352068543B
:101F60009DF82000401C089082E09DF82000A042CF
:101F70007ED29DF82010362068549DF82000401C29
:101F8000089075E09DF82000A04271D29DF82010C5
:101F9000372068549DF82000401C089068E09DF8A8
:101FA0002000A04264D29DF82010382068549DF88B
:101FB0002000401C08905BE09DF82000A04257D212
:101FC0009DF82010392068549DF82000401C08908E
:101FD0004EE09DF82000A0424AD29DF8201030200B
:101FE00068549DF82000401C089041E09DF82000B6
:101FF000A0423DD29DF8200040B39DF82C0028BBA4
:102000009DF8200050B19DF8200005F800909DF843
:1020100020000A909DF82000401C08909DF82C009C
:10202000401C0B9024E09DF8200080B19DF820001A
:10203000401E08909DF8200005F800A09DF828009B
:102040009DF82010884213D10B970A9710E09DF855
:102050002000285C78B39DF82000285C2D2830D023
:102060009DF820102D2068549DF82000401C0890F9
:102070009DF83000A8B10C9746486FF07F41016091
:102080004FF47F014160B0887188103082B230888F
:10209000102301F0EDFF7188308800230FAA0AF0A9
:1020A00075FA9DF8480000287FF485AE9DF8200061
:1020B0000D90302011E0FFE79DF820102D2068548E
:1020C000D2E79DF820102B206854CDE79DF83410FE
:1020D00068549DF83410491C0D919DF83410A142AC
:1020E000F4D30D9734E09DF83C0030282CD39DF8B4
:1020F0003C00392828D89DF83400285C302823D3A8
:102100009DF83400285C39281ED89DF828009DF8D9
:10211000341088420CD9029800EB800040000290F5
:1021200002989DF83410695C0844303802900BE046
:10213000029800EB80004000029002989DF8341055
:10214000695C0844303802909DF83400401C0D90C2
:102150009DF83400A042C6D39DF8280003909DF856
:10216000040088F800000298C8F804000398C8F832
:1021700008000498C8F80C000598C8F810000698E4
:10218000C8F814000798C8F8180013B0BDE8F08F1D
:102190003D0000202C0100202DE9F84F4D4E7768BE
:1021A0004D4870600AF0E2F94C4D687803281BD066
:1021B000687860B101234AA26C2130200AF036FA17
:1021C000012347A2A32130200AF030FA18E00023AF
:1021D00043A25C2120200AF029FA002340A2932187
:1021E00020200AF023FA0BE000233DA27C214020AE
:1021F0000AF0CCF900233AA2B32140200AF0C6F934
:102200003A484FF00008C0F800800830C0F800805D
:1022100095F82000364C4FF4967A4FF4C87901288F
:102220001AD0A878012817D0FEF742FD16233C22C9
:10223000B421484601F01CFF372328225C21504678
:10224000009402F0A3FA776095F8410029490978D3
:10225000BDE8F84F00F09CB895F8430040B34FF448
:102260007F0070600120FEF735FC02F091FB1F4AF1
:1022700021A0103A0168C2F807104C23D372204AFB
:10228000032090741F48816280F82C301748093869
:1022900080F8058016233C22B421484601F0E8FE70
:1022A000124A0023093AB42148460AF06FF9CAE7F6
:1022B000FEF7FEFCFEF702FC16233C22B421484642
:1022C00001F0D6FE372328225C215046009402F00C
:1022D0005DFAB8E72C010020653434003007002097
:1022E0002D2D2D2D2D2D2D2D000000007C000020EA
:1022F000D64407083F000020525620464C000000FC
:10230000A0060020B506002008B5114841794FF419
:10231000967000290BD0012911D0022906D10D4950
:102320000091372328225C2102F030FA08BD0A49C7
:102330000091372328225C2102F028FA08BD0749C2
:102340000091372328225C2102F020FA08BD00000A
:102350007C000020D64407080F4807086E4D070888
:1023600018B509484FF4AA740090372328225C213D
:10237000204602F00BFA05490091372328229321C9
:10238000204602F003FA18BD484B0708CD52070853
:10239000012800D90120062900D906210A4B4FF057
:1023A00050125A60C0EBC000084A00EB400002EB3C
:1023B000800001EB410100EB81020023D2214FF4A8
:1023C000BE700AF0E3B800002C0100209D0F010848
:1023D00030B595B004460D4601F014F801222946A7
:1023E0006846FFF7BBFC9DF800008DF838000198A7
:1023F0000F900298109003981190049812900598ED
:102400001390069814900EA9684601F0DDFB9DF824
:1024100000008DF81C00019808900298099003981C
:102420000A9004980B9005980C9006980D900B98C4
:1024300018B90020099008900A909DF81C0020709F
:10244000089860600998A0600A98E0600B98206185
:102450000C9860610D98A06115B030BD30B595B095
:1024600004460D4600F0E6FF002229466846FFF7C5
:1024700075FC9DF800008DF8380001980F900298C7
:102480001090039811900498129005981390069854
:1024900014900EA9684606F07BFA9DF800008DF8AE
:1024A0001C00019808900298099003980A900498DB
:1024B0000B9005980C9006980D900B9818B9002079
:1024C000099008900A909DF81C00207008986060A0
:1024D0000998A0600A98E0600B9820610C986061F0
:1024E0000D98A06115B030BD70B500F0A3F81F4C79
:1024F0006FF07F4525601E4860601E4E96F8000113
:1025000008B11D4A01E01C4AF23A0023DC320421E2
:1025100018460AF03BF825604FF05010606096F8BE
:10252000000108B1154D01E0144D543D00241A2658
:10253000C4EBC40000EB4000421904EB440000EB84
:10254000C40006EB400081B2002318460AF01EF8D2
:10255000641C042CECD30023094A5C2152200AF0AD
:1025600015F8BDE87040FFF7ADB900002C01002060
:102570000352F300300700209C090108490F0108AD
:102580006C08002070B500241825601C00EB400189
:1025900001EBC00005EB400081B2012364225A2008
:1025A00001F066FD641C072CEFD370BD2DE9F041EE
:1025B00000F040F81A4E6FF07F473760194870609E
:1025C000194C94F8000108B1184A01E0174AF23A90
:1025D0000023B0320421184609F0D8FF37604FF0CD
:1025E0005010706094F8000108B1114D01E0104DD9
:1025F000583D00244FF01A0804EB440000EBC400DF
:10260000421908EB400081B20023184609F0BEFFD2
:10261000641C082CF0D37760BDE8F041FFF7B2BF2F
:102620002C0100200352F300300700209C09010810
:10263000450E010810B500F065FEBDE81040FFF73B
:1026400039BB00002DE9FF5F044600278DF80770B5
:10265000012C0AD000200290FA4D02984FF47F0618
:102660004FF0501B18B16E6003E00120F3E7C5F88E
:1026700004B0DFF8D48398F8000110B1DFF8CC93F0
:1026800003E0DFF8C893A9F10E09122366221A218C
:102690005A2001F0EDFC98F8FC000023C0EBC000CC
:1026A00000EB09021C215A2009F070FF022C05D012
:1026B00000200290029818B16E6003E00120F8E754
:1026C000C5F804B01223662230215A2001F0D0FC54
:1026D00098F8FD00DFF87893C0EBC00000EB09022A
:1026E000002332215A2009F051FF032C05D000208D
:1026F0000290029818B16E6003E00120F8E7C5F877
:1027000004B098F8000110B1DFF840A303E0DFF84F
:102710003CA3AAF10E0A1223662246215A2001F098
:10272000A7FC98F8FE000023C0EBC00000EB0A02F3
:1027300048215A2009F02AFF042C05D000200290DD
:10274000029818B16E6003E00120F8E7C5F804B004
:1027500098F8000110B1DFF8F4A203E0DFF8ECA272
:10276000AAF10E0A122366225C215A2001F080FC95
:1027700098F8FF000023C0EBC00000EB0A025E21C6
:102780005A2009F003FF052C05D000200290029882
:1027900018B16E6003E00120F8E7C5F804B0122319
:1027A000662272215A2001F063FC98F80001DFF8DC
:1027B000A0A200230AF1380A0AEBC00274215A20B1
:1027C00009F0E4FE01A9002002F06AFF694600203A
:1027D00002F034FF062C05D000200290029818B1B8
:1027E0006E6003E00120F8E7C5F804B012231A4632
:1027F00088215A2001F03CFC9DF8032095A19648C1
:1028000009F066FF0023944A8A215A2009F0BEFE8F
:10281000C5F804B0002391A28A216E2009F0B6FE0B
:10282000072C05D000200290029818B16E6003E0DA
:102830000120F8E7C5F804B012231A468821782051
:1028400001F016FC9DF8012082A1834809F040FFA9
:102850000023814A8A21782009F098FEC5F804B047
:1028600000237EA28A218C2009F090FE082C05D03E
:1028700000200290029818B16E6003E00120F8E792
:10288000C5F804B012231A468821982001F0F0FB05
:102890009DF802206FA1704809F01AFF00236E4ACC
:1028A0008A21982009F072FE092C05D000200290A0
:1028B000029818B16E6003E00120F8E7C5F804B093
:1028C00012231A469E215A2001F0D2FB9DF80420C3
:1028D00060A1614809F0FCFE00235F4AA0215A2054
:1028E00009F054FEC5F804B000235DA2A0216E20BB
:1028F00009F04CFE0A2C05D000200290029818B175
:102900006E6003E00120F8E7C5F804B012231A4610
:102910009E21782001F0ACFB9DF805204DA14E488A
:1029200009F0D6FE00234C4AA021782009F02EFEA3
:10293000C5F804B000234AA2A0218C2009F026FE8D
:102940000B2C05D000200290029818B16E6003E0B5
:102950000120F8E7C5F804B012231A469E219820FA
:1029600001F086FB9DF806203AA13B4809F0B0FE35
:102970000023394AA021982009F008FE0C2C05D02C
:1029800000200290029818B16E6003E00120F8E781
:10299000C5F804B012236622B4215A2001F068FB66
:1029A0000023304AB6215A2009F0F0FDFFF782F9E2
:1029B0006FF07F4028602C48686054250C2C09D2A9
:1029C000DFE804F0060A28547290A5A5A5A5A5A5E0
:1029D000FEF778FFBDE8FF9F98F8000108B11B4C97
:1029E00001E01A4C0E3C039710E003980023C0EB63
:1029F000C00002190398F12100EB800005EB0010E4
:102A000080B209F0C3FD0398401C0390039802288C
:102A1000EBD3DFE7039711E003980023C0EBC0007E
:102A200000EB09020398F12100EB800005EB001098
:102A300080B209F0ABFD0398401C03900398052871
:102A4000EAD3C7E72C01002030070020740C0108EE
:102A50009D0E010825326400730000202D00000047
:102A60003A000000310800203800310098F80001D9
:102A700008B1324C01E0314C0E3C039710E0039852
:102A80000023C0EBC00002190398F12100EB800085
:102A900005EB001080B209F079FD0398401C03900B
:102AA00003980228EBD395E798F8000108B1234C6E
:102AB00001E0224C0E3C039710E003980023C0EB8A
:102AC000C00002190398F12100EB800005EB001013
:102AD00080B209F05BFD0398401C03900398022824
:102AE000EBD377E703970EE0039800230AEBC002CD
:102AF00000EB800005EB001080B2F12109F046FDEB
:102B00000398401C039003980228EDD362E70397D3
:102B10000B4C0EE00398002304EBC00200EB800096
:102B200005EB001080B2F12109F030FD0398401C44
:102B3000039003980228EDD34CE70000740C0108C1
:102B4000E50E010810B500F0DDFBFFF7B3F8BDE8B6
:102B50001040FFF7F5B810B500F0D4FBFFF7AAF866
:102B6000BDE81040AFF30080FFF7EAB870B5FFF79B
:102B7000E9FF254C6FF07F45256024486060244EB6
:102B800096F8000108B1234A01E0224AF23A0023F4
:102B90000421184609F0FAFC25604FF050106060DF
:102BA00096F8000108B11C4D01E01B4D3C3D00248E
:102BB0001A26032C0FD204EB840005EB400204EB31
:102BC000440000EBC40006EB400081B2002318462D
:102BD00009F0DCFC0FE004EB840005EB4002E01E92
:102BE00000EB400101EBC00006EB400081B2002386
:102BF000FA2009F0CBFC641C062CDAD3BDE8704047
:102C00000020FEF763BE00002C0100200352F300F9
:102C1000300700209C0901086E0801082DE9F047E3
:102C2000FFF799FF2E4E6FF07F4434602D4870609F
:102C30002D4D95F8000108B12C4A01E02B4AF23ADB
:102C4000002358320421184609F0A0FC34604FF0EC
:102C50005017776095F8000108B1254D01E0244D2B
:102C6000B43D0024DFF88C804FF01A09092C16D2ED
:102C7000E01E052802D2C6F8048000E0776004EB6D
:102C8000840005EB400204EB440000EBC40009EBB8
:102C9000400081B20023184609F078FC18E0A4F146
:102CA0000C00052802D2C6F8048000E0776004EB2F
:102CB000840005EB4002A4F1090000EB400101EBA8
:102CC000C00009EB400081B20023FA2009F05EFC4D
:102CD000641C122CCAD3BDE8F0470020FEF7F6BDF5
:102CE0002C0100200352F300300700209C0901084A
:102CF000420B0108653434002DE9FC5F0546DFF81E
:102D0000C08398F80001002802D0DFF8B8A303E0E0
:102D1000DFF8B0A3AAF11C0A012D0AD00020009010
:102D2000E94C00984FF47F064FF0501918B16660D7
:102D300003E00120F3E7C4F8049014235C22182177
:102D4000582001F095F96FF07F47276098F8000050
:102D50000023C0EBC00000EB0A021A21582009F042
:102D600015FC022D05D000200090009818B1666077
:102D700003E00120F8E7C4F80490D8F86800C1B275
:102D8000D8F864000023052200F0B6FE14235C226C
:102D90003021582001F06CF90023CC4A3021582012
:102DA00009F0F4FBD8F86C00DFF824A300230AEB49
:102DB00080023021942009F0E9FB032D05D000208A
:102DC0000090009818B1666003E00120F8E7C4F8AD
:102DD0000490D8F80C00C1B2D8F8080000230522EE
:102DE00000F08AFE14235C224621582001F040F9AD
:102DF0000023B64A4621582009F0C8FBD8F8100035
:102E000000230AEB80024621942009F0BFFB042D29
:102E100005D000200090009818B1666003E0012002
:102E2000F8E7C4F8049098F8000120B1DFF8A0A2F8
:102E3000AAF1580A03E0DFF898A2AAF1B00A4FF409
:102E4000A97B142368221821584601F011F998F83B
:102E50004100A8B198F840000023401C00EB40015D
:102E600001EBC00000EB0A021A21584609F08EFB64
:102E7000052D0CD000200090009850B166600AE04B
:102E8000002352461A21584609F080FBF0E7012042
:102E9000F1E7C4F80490D8F8A000C1B2D8F89C00BB
:102EA0000023062200F028FEDA46142368222E2191
:102EB000504601F0DDF80023844A3021504609F0E5
:102EC00065FB4FF4CD7B002382A23021584609F0E8
:102ED0005DFB062D05D000200090009818B16660BB
:102EE00003E00120F8E7C4F80490D8F82C00C1B240
:102EF000D8F828000023062200F0FEFD14236822E3
:102F00004421504601F0B4F80023704A462150464F
:102F100009F03CFB00236FA24621584609F036FB1E
:102F2000FEF7C8FE00206C495426072D29D2DFE8A1
:102F300005F004092A4A6A87A700BDE8FC5F002063
:102F4000FEF7C4BC2760616098F8001109B15D4CC0
:102F500001E05C4C1C3C019010E001980023C0EBA8
:102F6000C00002190198F12100EB800006EB00106F
:102F700080B209F00BFB0198401C019001980428D5
:102F8000EBD3BDE8FC9F2760616098F8001109B1A0
:102F9000524C01E0514CE41F019010E001980023D5
:102FA000C0EBC00002190198F12100EB800006EB94
:102FB000001080B209F0EAFA0198401C01900198D3
:102FC0000028EBD0DDE72760616098F8001109B1B7
:102FD000424C01E0414CE41F019010E001980023B5
:102FE000C0EBC00002190198F12100EB800006EB54
:102FF000001080B209F0CAFA0198401C01900198B3
:103000000028EBD0BDE7276061600190304C0C34A4
:1030100012E00198002300EB400101EBC00002190F
:103020000198F12100EB800006EB001080B209F05E
:10303000ADFA0198401C019001980428E9D3A0E75B
:103040002760616098F8001109B1244C01E0234C1D
:10305000E41F019010E001980023C0EBC0000219AA
:103060000198F12100EB800006EB001080B209F01E
:103070008DFA0198401C019001980028EBD080E760
:103080002760616098F8001109B1144C01E0134CFD
:10309000E41F019010E001980023C0EBC00002196A
:1030A0000198F12100EB800006EB001080B209F0DE
:1030B0006DFA0198401C019001980028EBD060E760
:1030C00030070020120C01082C01002073000020A2
:1030D000AA0D010820560000380031008F070108B2
:1030E0002DE9FF5F009800217E4C00226254491CAC
:1030F000C9B20929FAD348F2E8012D27884206D936
:1031000000202754401CC0B20628FAD305E09DF8E1
:1031100004100023052200F0EFFCDFF8C881724E96
:10312000A8F10708D8F80700C6F80300B8F80B1094
:10313000A6F807106D4D6861298308F1100A6C49E3
:103140009AF8050001EB8000018869838078287770
:103150004FF0090B85F81DB04FF0200984F8069058
:10316000644C61789DF8060003292BD0617839B151
:10317000D8B1012360A26C21302009F057FA1AE07F
:1031800030B100235CA25C21202009F04FFA05E059
:1031900000235AA25C21202009F048FA0023514A5A
:1031A0005C21402009F042FA20E0012353A26C2167
:1031B000302009F03BFA01234A4A6C21402009F0F3
:1031C00035FA13E030B100234BA27C21402009F0F6
:1031D000DDF905E0002349A27C21402009F0D6F961
:1031E0000023404A7C214A2009F0D0F99DF80C10B8
:1031F00000230622029800F07FFCD8F80710C6F8DA
:103200000B10B8F80B00A6F80F0098F80D20727498
:1032100045F81F1FA880AA715620E87185F808B0EC
:1032200037A00088E8811F3D60789DF80E80032854
:103230002FD0607848B1B8F1000F1DD001232EA225
:10324000A321302009F0F2F91CE0B8F1000F06D0FC
:10325000002329A29321202009F0E8F905E00023AA
:1032600026A29321202009F0E1F900231D4A932191
:10327000402009F0DBF922E0012320A2A321302025
:1032800009F0D4F90123174AA321402009F0CEF90F
:1032900015E0B8F1000F06D0002317A2B32140209B
:1032A00009F074F905E0002314A2B321402009F0CD
:1032B0006DF900230B4AB3214A2009F067F9B8F1F0
:1032C000000F06D086F80A9085F81E9009F04EF996
:1032D00003E0B772AF7709F043F99AF8050070720E
:1032E000BDE8FF9F73000020A0060020B506002067
:1032F000AA0D010830070020200000002D0000006A
:103300000D0A00000549044848601623AA2200213E
:10331000084600F0ADBE00000352F3002C0100206F
:1033200038B50E4C25680E49616001280FD04FF466
:103330007F0102280FD021600A4800901823302214
:10334000F1214FF4CA7001F021FA256038BD4FF425
:103350007F402060F0E72160EEE700002C010020B4
:10336000380031006465070870B500F043F81D4C63
:103370006FF07F4525601C48606000231B4A0421D4
:10338000184609F003F925604FF0501060600024E2
:10339000174D4FF6FF7604EB840000EBC400421992
:1033A00004EB840006EA401000231A2109F0EEF82D
:1033B000641C032CEFD300240D4E1A25273604EB92
:1033C000840000EBC4008219601C00EB800005EB58
:1033D000800081B20023184609F0D8F8641C092C3B
:1033E000EDD370BD2C0100200352F3001809010831
:1033F0009607010810B5FFF785FFBDE81040FEF7FE
:1034000059BC000010B5FEF755FC0848064941605C
:103410006FF07F4101600023F121BDE8104004A25C
:10342000542009F0B3B80000380031002C0100200E
:103430002056200010B5FEF73DFC0E480C494160B7
:103440006FF07F41016000230BA2F121542009F0AD
:103450009DF800230AA2F121A42009F097F8002387
:10346000F121BDE8104008A2F42009F08FB8000057
:10347000380031002C010020206DA6B8202000006B
:1034800020A6B820000000006BA6B82000000000B5
:1034900000B58FB00EA9002002F002F90DA900209E
:1034A00002F0CCF89DF836309DF83A009DF83910BE
:1034B0009DF83820CDE90210CDE900329DF8353075
:1034C0009DF837200BA105A809F002F913494FF028
:1034D00050104860002305AA0421FA2009F056F88C
:1034E000132205A90E48FCF77DFE0D490920C8747A
:1034F0000FB000BD323025302E32642D25302E32F3
:10350000642D25302E32642025302E32643A253049
:103510002E32643A25302E32640000002C01002047
:10352000B506002010B54FF40054204600F054F8C2
:10353000002804D02046BDE8104000F047B810BD78
:1035400010B5082000F048F800281FD010480AF0F5
:1035500066FE08210F4800F031FA90B90E480021AC
:1035600001700E480E4A012304781CB101700F202F
:10357000107002E00370022010700A494FF40070CE
:103580000860BDE81040082000F020B810BD000021
:10359000A0860100001002406600002045000020C7
:1035A0003D00002080E100E01CB54FF40050009089
:1035B00000208DF8040001208DF8070069460248BC
:1035C00000F0AEF91CBD0000000402400149086093
:1035D00070470000143C014001460020024A126876
:1035E0000A4200D001207047143C014030B51B4A0C
:1035F00083790168002B2AD013688B431360111D57
:103600000B680468A3430B60017911440B680468DC
:1036100023430B60114C08342168036899432160EF
:10362000231D19680568A94319604179102905D03F
:1036300011440A68006802430A6030BD21680268CC
:1036400011432160196800680143196030BD007999
:10365000104402688A43026030BD0000003C014013
:103660002DE9FF410121102001F05AFE01218803BC
:1036700001F08EFE01F065FB0826029600248DF80D
:103680000C4001258DF80F5002A9144800F048F9AC
:103690000321042003F080F800968DF804400C26E6
:1036A0008DF805608DF806506846FFF79FFF6F03A1
:1036B000029702A90A4800F033F90D21022003F015
:1036C0006BF800978DF804408DF805608DF8065072
:1036D0006846FFF78BFFBDE8FF8100000010024045
:1036E0000008024000224FF0204310280AD0B0F515
:1036F000807F09D0B0F5805F09D0D3F858018143AD
:1037000009D107E0586EFAE7D3F88400F7E7D3F859
:10371000A400F4E70122104670470000D0E900122F
:1037200011438268C068521E520142EA40200143A0
:103730000148016070470000500100A070B50468A6
:10374000A100A1F1C041D1F84011CE0BF603D0E9A0
:1037500001121143D0E903231A4311434269C3699B
:1037600011438269056A11431943426A294311438F
:1037700031434FF02046002C3CD0D6F840416FF347
:103780000E042B4322431343C6F8403102689200D3
:10379000A2F1C042C2F84011016871B38900A1F1E1
:1037A000C041D1F8481101F07043816A0A684C6841
:1037B000521E641E42EA04148A68521E44EA02241D
:1037C0000A8A521E44EA02421A43D6F8483103F0EC
:1037D0007043CC68898A641E2403491E44EA01515F
:1037E0001943C6F8481100688000A0F1C040C0F835
:1037F000482170BDC6F84011CEE7FFE7D6F8481162
:1038000001F07041806A02684368521E5B1E42EA02
:1038100003138268521E43EA0223C268521E43EA1F
:103820000233028A521E43EA0243828A007E521EFB
:1038300043EA0252401E42EA00600843C6F84801CB
:1038400070BD000002490A6842EA40000860704703
:10385000540100A02DE9FC47012140F2A71001F01E
:103860005FFD2E20009002268DF8056001248DF862
:10387000044000258DF806508DF80740244F694616
:10388000384600F04DF80E21384600F0A0F8202709
:103890000097DFF880806946404600F041F820211B
:1038A000404600F092F840200090DFF86C906946A6
:1038B000484600F035F800976946484600F030F871
:1038C0002021484600F081F88DF804508DF807500B
:1038D000600300906946114800F022F801F076F884
:1038E000FDF714F908F01AFE01F098FA01F0B0FAA9
:1038F000102000908DF805608DF804408DF806507A
:103900008DF807406946404600F00AF8BDE8FC879C
:1039100000080240001C0240002002400004024057
:103920002DE9F041002201274FF0030C07FA02F5C0
:103930000B682B40AB422CD1066853000CFA03F401
:10394000A64306600E79D0F800809E4046EA08063D
:1039500006600E79012E01D0022E12D18668A64390
:1039600086604E79D0F808809E4046EA0806866058
:103970004668AE43466045688E799640B6B2354398
:103980004560C568A543C560CC799C40C3681C43AD
:10399000C460521C102AC9D3BDE8F08110B54B0792
:1039A000DB0E9A40C90800EB8100016A0F249C409D
:1039B000A1430162016A1143016210BD0246002069
:1039C00012690A4200D00120704741837047018389
:1039D00070470000034A203902EB01111022FCF766
:1039E00001BC0000745F07080349085C002801D08F
:1039F000002070470120704749000020406980681E
:103A000080B27047D0F8CC000068C0F341407047E6
:103A1000084490F89B03704700EB8100D0F85003F6
:103A2000704710B5044600220023C4F8103304EB9D
:103A30008200C0F81433C0F85033A01880F88C33DB
:103A4000521CD2B20F2AF2D30820A4F8B2032046A7
:103A500007F09EF8204606F02DFE204606F04EFDAB
:103A60000121204607F0F6F8204606F09BFD20468F
:103A700006F05AFE002010BDD0F81003704710B5B4
:103A800007F06FF8002010BD0022431883F89B2335
:103A900000EB4113C3F8C02306F09CBF2DE9F041B1
:103AA0000546134F4FF4807631463846FFF78DFFB9
:103AB00000244FF48058280604D541463846FFF7C5
:103AC00086FF03E041463846FFF77FFF3146384620
:103AD000FFF77DFF08F0E6FD31463846FFF775FF3A
:103AE0006806050E641CE4B2082CE4D3BDE8F0813E
:103AF00000080240FEE700002DE9F041082A00D945
:103B0000082202B90122072900D90721914200D9D0
:103B100011460024224E20273755641CE4B2082C9D
:103B2000FAD314460A250DE0B0FBF5FC05FB1C0C8E
:103B300006EB04080CF1300C08F801CCB0FBF5F0F2
:103B4000641EE4B2002CEFD169B110460C4605E0CA
:103B5000351815F8015C3554401EC0B2641EE4B23D
:103B6000F6D22E24345473B90020531E09E0345C7D
:103B7000302C08D1341864782E2C04D03754401CD3
:103B8000C0B29842F3DB09B1521CD2B2002002E06D
:103B9000B054521CD2B2082AFAD3BDE8F08100001A
:103BA0007300002006494FF4A470002201E001F8E0
:103BB000012B401E80B2FAD202480270704700000A
:103BC000300700203C00002070B505462DED048B29
:103BD0000C466068DFED340A00EE100AB8EE400AC9
:103BE00020EE209AA068C0F10700FCF71AFC41EC17
:103BF000110B9FED2E0B08F097FDB0EE408AF0EE12
:103C0000608A19EE100AFCF719FC53EC182BFCF72C
:103C100099FBFCF726FC00EE100A264910EE100A6C
:103C2000884201DD9FED240A244910EE100A8842E3
:103C30000BDB0320A060DFED220A80EE201AFCEEF1
:103C4000C10A10EE900A606017E010EE100A1D49DC
:103C500088420BDB0420A060F2EE040A80EE201AFA
:103C6000FCEEC10A10EE900A606006E00520A0603C
:103C7000FCEEC00A10EE900A6060BCEEC00A10EEC6
:103C8000100AA0612078287060686860A068A86049
:103C9000E068E8602069286160696861A069A861DE
:103CA000BDEC048B70BD00000024744900000000CE
:103CB00000002440001B374B001B374B8096184BED
:103CC0000000C842002474490FB40299032902D1AC
:103CD000039901B900200299022902D1039901B97F
:103CE00001200299042903D10399012900D102205E
:103CF0000299032903D10399012900D103200299D4
:103D0000022903D10399012900D104200299042931
:103D100003D10399022900D105200299032903D177
:103D20000399022900D1062004B070470FB402980D
:103D3000032806D101980449884202D9012004B021
:103D400070470020FBE70000C0D401002DE9F05FC0
:103D5000FF250020FFF7A2FEDFF8CCA04FF400699A
:103D600049465046FFF72AFEDFF8C0804FF4806BCB
:103D700000B359464046FFF721FEE8B149464046A8
:103D8000FFF71CFED0B104212948FFF717FEB8B198
:103D90000426042E40D20024264F385DFFF77EFE15
:103DA00008F080FC76B1012E13D0022E18D0032E1D
:103DB00023D11CE00026ECE70126EAE70226E8E72B
:103DC0000326E6E749465046FFF7F8FDA8B9254621
:103DD00013E059464046FFF7F1FD70B925460CE067
:103DE00049464046FFF7EAFD38B9254605E004217B
:103DF0000F48FFF7E3FD00B92546FF2D03D1641CF2
:103E0000E4B2082CC9D3FF2D04D005EBC600C0B224
:103E1000BDE8F09F0020FBE74FF400510448FFF796
:103E2000CDFD0020F4E70000002002400008024021
:103E3000000C0240670A070810B5064C607800289D
:103E400005D00020607000F055F8207810BD0020EB
:103E500010BD00001401002010B50146002002F042
:103E600029FD064C0020FFF7BFFD10B9607800283F
:103E7000F8D0BDE81040FFF7DFBF000014010020BC
:103E800070B5FFF763FF1A4C00230125E21CD0B187
:103E90002178814228D16178652901D2491C61705D
:103EA000617864291BD00DD910709570A07800F14D
:103EB0000100C0B2A0700E2804D9A3705078002869
:103EC00000D1557070BD207828B16178091F602934
:103ED00001D21070557023706370937070BDA37021
:103EE00010705570957070BD2070637070BD0000CB
:103EF0001101002010B5FCF7E7FD4FF47A700AF0CD
:103F00008EF9BDE81040FCF7D9BD00007CB5012159
:103F10004FF4867001F004FA4FF49850009002209C
:103F20008DF8050001208DF8040000248DF806406E
:103F30008DF80700134D69462846FFF7F1FC691517
:103F40002846FFF744FD4FF4406100918DF804408E
:103F500069462846FFF7E4FCE814009069460A48E1
:103F6000FFF7DEFC0420009069460848FFF7D8FC04
:103F70000748047044708470C01E047044708470DC
:103F80007CBD00000008024000200240000C0240FE
:103F90001401002010B500231C4C2468002C06D00E
:103FA000012C0DD0022C17D0032C1ED023E000EBE7
:103FB0004003C1EB011000EB400003EB40131AE09B
:103FC000A1F20F11C0F5F070A1EB011100EB41104F
:103FD000401E00EB40030EE0A0F20F10A0EB00101B
:103FE00001EB401000EB400305E000EB0010C1EBDB
:103FF000001303F20F130648834205D20548806878
:10400000C2521844110C817010BD000060000020E5
:1040100000FA05001801002070B58AB0C0F307440B
:10402000C0F30725C6B2FCF701FF4FF44030009003
:10403000012001900494039502960F2005900B48EF
:1040400080680690002007904FF4887008904FF425
:10405000F07009906846FCF7FFFEFCF759FF02205C
:10406000FCF7F0FE0028FAD00AB070BD180100205D
:104070002DE9F04F8BB03B4C6468C4F3074704F064
:10408000FF09C4F30728384CDFF8D8A0C2F5F07652
:10409000AAF1140A2568DAF80840002D37D0C3F5D4
:1040A000887C012D3ED0022D4CD000EB0010C3EBDC
:1040B0000010401A00F5887000EB400005191FFA47
:1040C0008CF614469B46FCF7B1FE4FF4403001904D
:1040D00001200290CDF81080CDF80C900597FF20BC
:1040E0000690079508960994CDF828B001A8FCF72A
:1040F000B3FEFCF70DFF0220FCF7A4FE0028FAD067
:10410000DAF8000000F0B4FA0BB0BDE8F08FC1EBB4
:10411000011100EB411000EB40000519B6B21C463E
:104120009346D0E7ACEB0101C1EB0111C0EB4110AC
:10413000801A00F5F07000EB40000519B6B21C467D
:104140009346C0E7C0F58870801AC0EB001001EB01
:10415000401000EB40000519C3F5F07086B214461C
:104160009B46B0E72C010020600000202DE9F043C1
:104170008BB09046994600242E4A1568002D0CD02D
:10418000C1EB011200EB42162B4A012D97680DD0AE
:10419000022D11D0032D18D01AE000EB4002C1EB24
:1041A000011000EB400002EB401411E0A6EB86008A
:1041B0002249384444180BE0A0F20F10A0EB001085
:1041C00001EB401000EB400402E006EB4600C4198E
:1041D000194814300068C0F30745C6B2C0F307277A
:1041E000FCF724FE4FF44030019001200290049728
:1041F000039605950F2106910794B9F1000F12D08F
:1042000040F2DF110891CDF824800A9001A8FCF754
:1042100023FEFCF77DFE0220FCF714FE0028FAD0F6
:104220000BB0BDE8F083002108910990CDF82880FB
:10423000ECE70000600000201801002000FA0500F3
:104240002DE9FC5F012140F2FF1001F069F84FF009
:104250000408CDF8008003208DF8050002208DF8B9
:10426000040000208DF806008DF807006946AB4871
:10427000FFF756FB0E220221A848FFF78FFB4FF0F5
:104280000809CDF800906946A448FFF749FB0E22C3
:104290000321A248FFF782FB4FF4807ACDF800A0FB
:1042A00069469E48FFF73CFB0E2208219B48FFF71A
:1042B00075FB0124009469469948FFF731FB0922F8
:1042C00000219748FFF76AFB4FF4006BCDF800B070
:1042D00069469448FFF724FB0E220B219148FFF713
:1042E0005DFB2003009069468E48FFF719FB0E2204
:1042F0000C218C48FFF752FB022000906946884849
:10430000FFF70EFB092201218548FFF747FB4025F7
:10431000009569468448FFF703FB0E220621824878
:10432000FFF73CFB2020009069468048FFF7F8FA31
:104330000E2205217D48FFF731FB009569467B4839
:10434000FFF7EEFA0E2206217848FFF727FB6003FD
:10435000009069467148FFF7E3FA0E220D216F487D
:10436000FFF71CFBA602009669466F48FFF7D8FAD4
:1043700009220A216C48FFF711FBE003009069460F
:104380006648FFF7CDFA0E220F216448FFF706FBBF
:10439000009469466648FFF7C3FA0E22002164487C
:1043A000FFF7FCFA8027009769466248FFF7B8FAE2
:1043B0000E2207215F48FFF7F1FACDF80080694629
:1043C0005B48FFF7ADFA0E2202215948FFF7E6FAE3
:1043D0004FF01008CDF8008069465448FFF7A0FA66
:1043E0000E2204215148FFF7D9FA200300906946B4
:1043F0004D48FFF795FA0E220C214B48FFF7CEFAF5
:1044000000954D4D69462846FFF78AFA0E2206218F
:104410002846FFF7C3FACDF800B069464248FFF7D7
:104420007FFA0E220B214048FFF7B8FACDF8008042
:1044300069463F48FFF774FA0E2204213C48FFF713
:10444000ADFACDF8009069463648FFF769FA0E22BA
:1044500003213448FFF7A2FACDF800A0694630489E
:10446000FFF75EFA0E2208212D48FFF797FA4FF466
:104470000079CDF8009069462948FFF751FA0E22DD
:1044800009212748FFF78AFA009769462648FFF76F
:1044900047FA0E2207212448FFF780FA0096694662
:1044A0002348FFF73DFA0E220A212148FFF776FA4A
:1044B000CDF8009069461E48FFF732FA0E22092116
:1044C0001B48FFF76BFA00961C4E69463046FFF713
:1044D00027FA0E220A213046FFF760FACDF8008055
:1044E00002208DF805008DF8044000208DF80600AC
:1044F0008DF8074069462846FFF712FA009769468B
:104500002846FFF70DFA10212846FFF760FA8021B0
:104510002846FFF75CFABDE8FC9F0000001C024043
:104520000004024000000240001802400010024057
:104530000020024000080240000C0240001402402B
:1045400000B58FB00121880600F022FF0121C805C7
:1045500000F0E6FEFFF774FE01F06AFE0622072176
:104560004FF4967000F0B0FF4FF4803000F09CFFE5
:10457000012000F0A3FF3D2000F06AFF0028FAD0E0
:10458000002000900190029003900C900D900E90EE
:10459000049005902E2006901720079040F20E20E0
:1045A000089040F2271009904FF409700A9040F2E9
:1045B0003D100B90684600F037F9012000F024F917
:1045C0000FB000BD10B590B02F20009040F20E202B
:1045D00001901820029040F22710039001200490CF
:1045E000FF200590069007900890099007200B90F7
:1045F00040F2A3500D90C01E0E904FF488700F90A3
:104600000C480C904FF4C0600A900B4C6946204651
:1046100000F06CF9012000F0B5F90121204600F00E
:1046200059F9012000F0AEF9044800F009F810B083
:1046300010BD000000FA05D00469014034010020DB
:104640000149086170470000180100200649002850
:1046500004D0064888600120C86070474FF0504081
:1046600088600020C86070471801002000FA05D05B
:1046700001490860704700001801002010B5094981
:10468000C968002908D00146074800F021F9BDE8B3
:104690001040012000F076B901460348803800F050
:1046A00017F9F4E718010020046901402DE9F04FE3
:1046B000044688462546334902EB0210DFF8C8A0BD
:1046C00001EB4009002B0FD0002709EB070090F801
:1046D00002B000265FEA0B6035D541462046DAF885
:1046E0000020FFF757FC34E04FF0000B09EB0B0004
:1046F00087780026380606D541462046DAF800209D
:10470000FFF748FC05E041462046DAF80420FFF7B1
:1047100041FC7806070E641CA4B2601B10280CD064
:10472000761CF6B2082EE5D30BF1010B0BF0FF0B54
:10473000BBF1200FDAD3BDE8F08F2C4608F1010859
:104740001FFA88F8F0E741462046DAF80420FFF720
:1047500021FC4FEA4B604FEA106B641CA4B2601B53
:10476000102808D0761CF6B2082EB3D37F1CFFB2F7
:10477000202FAAD3DFE72C4608F101081FFA88F89A
:10478000F4E700006F0A07082C0100202DE9F84F1C
:1047900004468B469246A04600270AFB03F0C11749
:1047A00000EB5170DFF85C90009025E00A98C65D40
:1047B0000025300606D559462046D9F80020FFF7D7
:1047C000E9FB05E059462046D9F80420FFF7E2FB53
:1047D0007006060E641CA4B2A4EB0800504505D177
:1047E00044460BF1010B1FFA8BFB03E06D1CEDB28D
:1047F000082DDED37F1CBFB20098B7EBE00FD5DBEE
:10480000BDE8F88F2C0100200649002804D0086874
:1048100040F0010008607047086820F0010008605F
:10482000704700001868014030B5264A13682649D1
:104830000B401360038A1B04146845692C431C4316
:104840001460121D13680B401360038B1B04146863
:10485000C5692C431C431460121D13680B40136080
:10486000038C1B041468456A2C431C431460121DFE
:1048700013680B401360018D09041368C46A234355
:104880000B431360111D0A68104B1A400A60D0E9EF
:1048900000231A43D0E9023423431A430B681A4316
:1048A0000A60416B0A02018E0B04064924310C6830
:1048B00004F07F440C600C68806B134304431C437A
:1048C0000C6030BD0868014000F800F08F88FE0FD2
:1048D00041617047002904D0016841F00101016085
:1048E0007047016821F001010160704770B58A8846
:1048F0001204436803F4704343600B68134343603E
:104900008A891204836803F4704383608B681343BD
:104910008360026922F0070202610A690261CA69C2
:1049200013020A8C120491F824402406856900259C
:1049300085618E6922431E4316438661426922F0D7
:10494000FF0242614A694261C26940F207739A43B9
:10495000C261D1E90A231A43C261826A85620A6B85
:1049600082620A8F1204C36A03F0E023C3624B6BB6
:104970001343C362026B6FF30A020263C96B0163E4
:1049800070BD0000014908607047000024680140C4
:1049900010B54FF480610948FFF719F84FF4005142
:1049A0000748FFF714F804210648FFF70EF8BDE8A2
:1049B000104001210448FFF708B80000001C024025
:1049C0000008024000100240000002407CB50121B6
:1049D000BF2000F0A5FC0420009000248DF80540C5
:1049E00001258DF804508DF806408DF80750694672
:1049F0000C48FEF795FF4FF4B840009069460A480E
:104A0000FEF78EFF8DF805408DF804508DF80640B6
:104A10008DF807500820009069460448FEF780FF93
:104A20007CBD000000100240001C0240000C02404F
:104A300010B504210948FEF7CAFF01210848FEF716
:104A4000C6FF4FF480610748FEF7BFFFBDE8104086
:104A50004FF400510448FEF7B8BF000000100240B8
:104A600000000240001C0240000802404FF40061B8
:104A70000148FEF7AABF0000001C02404FF400618D
:104A80000148FEF7A4BF0000001C02402DE9F047DA
:104A900090B0304D002085F8A10095F89E004FF0B1
:104AA00003094FF0020AE846082802D085F8A190D1
:104AB0001DE0A81CFBF7B4FF0746281DFBF7B0FF5D
:104AC0004FF6FF7101EA4006202E02D985F8A19029
:104AD0000DE0002409E008EB4401384600F07EF8C0
:104AE000A8B17F1CBFB2641CA4B2B442F3D395F842
:104AF000A10000282BD12878A87716496878C877B4
:104B0000700085F8A29081F82000002117E085F858
:104B1000A1A0ECE795F8A20018F81130421C284437
:104B200085F8A220837708EB4100437895F8A2002E
:104B3000421C284485F8A2208377491C89B2B142DF
:104B4000E8D3044895F8A2101E3000F0C9F810B060
:104B5000BDE8F087EC01002000B50A4A002082F889
:104B6000A10092F89E00082803D0032082F8A1003B
:104B700000BD901CFBF754FF101D5DF804EBFBF724
:104B80004FBF0000EC01002010B5104C104A94F803
:104B90009E001060082801D1092111600D49536859
:104BA00009688B4211D051600B4A117809B1491E36
:104BB00011701178002908D1002806D0032801D3EC
:104BC00001F05AF9002084F89E0010BDEC0100208D
:104BD0004001002028000020240000202DE9F041A1
:104BE0003A4A92F800C03A4A00260127126802EBBE
:104BF00082035D00642302FB03F4364BBCF1070F14
:104C00001AD2DFE80CF004070A0D10131600DA6060
:104C10009E6011E0DD609E600EE0DC609E600BE057
:104C2000DA609F6008E0DD609F6005E0DC609F6007
:104C300002E0DA6002229A60274A14681C61274C5D
:104C40002478012C02D1A41EDC601C6113283BD205
:104C5000DFE800F00A0D101316181B1D1F21232575
:104C600027292B2D2F313300D868000C26E0988996
:104C700080B223E01869000C20E0188A80B21DE0A1
:104C800090791BE0188980B218E0002016E000201F
:104C900014E0002012E0002010E000200EE00020D0
:104CA0000CE000200AE0002008E0002006E00020E0
:104CB00004E0002002E0002000E00020020A0A7068
:104CC00048700120BDE8F0810020FBE73F00002094
:104CD0007C000020240000208400002064000020CC
:104CE00030B5A1B005460C462246294601A8FBF77F
:104CF00079FA21462846FBF72FFF050A224601AB29
:104D0000641CE1B29D544A1CD2B25854114601A809
:104D10000BF00CFC21B030BDFEE7704708B54FF436
:104D2000A06000F061F827208DF8000001208DF8C8
:104D300001008DF802008DF80300684600F020F8AD
:104D400008BD08B54FF4C06000F04EF809208DF89A
:104D5000000001208DF801008DF802008DF803009D
:104D6000684600F00DF808BD00F01F0201219140D7
:104D70004009800000F1E020C0F8001170470000F9
:104D800030B50F23C27801250178002A1FD0154ABB
:104D9000126802F4E062C2F5E062C2F30722C2F1D7
:104DA0000404D3404278A24084781C40144322017A
:104DB00001F1E02181F80024007800F01F018D400E
:104DC0004009800000F1E020C0F8005130BD01F042
:104DD0001F0085404809800000F1E020C0F88051A4
:104DE00030BD00000CED00E00249084302490860B4
:104DF000704700000000FA050CED00E0024A114087
:104E0000014302480160704780FFFF1F08ED00E08A
:104E1000014805F06FB80000902900201CB5012161
:104E2000084600F07DFA4020009002208DF8050031
:104E300000208DF804008DF8060001208DF8070091
:104E400069460248FEF76CFD1CBD000000000240F0
:104E50007CB50121CD2000F063FA102000900024E1
:104E60008DF8054001258DF804508DF806408DF829
:104E7000075069460D48FEF753FD009569460C48FA
:104E8000FEF74EFD6D03009569460A48FEF748FDA2
:104E90008DF80440009569460748FEF741FD28114A
:104EA000009069460548FEF73BFD7CBD001C0240B2
:104EB0000000024000080240000C024000180240BE
:104EC000014908627047000000000E42F0B57D4BBA
:104ED00018780021032800D919705878032800D9C0
:104EE00059709878012800D99970DA6A0320052A48
:104EF00000D9D8629D6A744C744AA54200D99A625E
:104F00001D6B052D00D9196393F840500A2D01D966
:104F100083F8401093F841500A2D01D983F84110CD
:104F200093F84250032D01D983F8421093F8205092
:104F3000012D01D983F82010DD6C052D00D9D8642E
:104F40009E6C42F6E065A64200D99D641E6D052E5A
:104F500000D919659E6E052E00D998665E6E964240
:104F600000D95D66DE6E052E00D9D966DE68052E95
:104F700000D9D8609E68964200D99D601D69052DB4
:104F800000D91961D3F88450052D01D9C3F88400E4
:104F9000D3F88050A54201D9C3F88020D3F88850B7
:104FA000052D01D9C3F88810D3F8A050052D01D9DB
:104FB000C3F8A000D3F89C00A04201D9C3F89C20FC
:104FC000D3F8A400052801D9C3F8A41093F8FD0074
:104FD0000A2801D983F8FD1093F80001012801D9AE
:104FE00083F8001193F8FF00012801D983F8FF101E
:104FF00093F8FC00012801D983F8FC1093F8FE0017
:10500000012801D983F8FE1000201A1892F80141F6
:10501000802C01D982F80111401CC0B21428F4D3AD
:10502000002030241A1892F83C51802D06D9082807
:1050300002D282F83C4101E082F83C11401CC0B22F
:105040000A28EFD30020224C224D234A9FED230A49
:1050500003EBC001D1F8B8602644AE4203D3F7EEAB
:10506000000AC1ED2E0AD1F8B46052F83070BE4289
:1050700006D8D1F8B46002EBC0077F68BE4205D203
:10508000154E483656F82060C1F8B460062809D29B
:1050900003EB8001124FD1F81861BE420CDD81EDA7
:1050A000460A09E0811F03EB81010E4FD1F83461FC
:1050B000BE4201DD81ED4D0A401CC0B20828C7D3B5
:1050C000F0BD000030070020804F1200C0D4010066
:1050D000CDCCCCC0343373008C0000200000000025
:1050E0000050C3470024F448704710B503F08AFD10
:1050F000BDE8104000F0E2B810B503F073FDBDE864
:10510000104000F0D5B80000FEB55E4800240470E1
:1051100003F078FDFBF760FF00F014FA0021042093
:1051200000F0ECFBFEF796FB002000F029FBA0F559
:105130004851F23902D000F018FC08E001210807BC
:1051400000F018F90120FFF7BBFE00F04BFC01F066
:10515000E5FE4FF47A7009F062F8FEF7D7FEFFF72C
:10516000EFF9FFF72FFA0120FFF74EFB0020FFF7C2
:105170006DFA4FF47F00FEF74FFF0120FFF766FA4C
:10518000FF20FFF77BFA4FF050173846FEF744FF39
:1051900001F07CF9FEF706FD00F066FE3A480AF0E1
:1051A00033FCFFF793FE01F055FF38480470FEF71B
:1051B000FBF900243648012505703648062606709E
:1051C0000021007800F0DEFD334805703348009080
:1051D000334B344A0021344804F06EF931493248E7
:1051E00004F0ECFF314D49E0641CA4B2142C00D94A
:1051F0002E700220FEF730FE12282BD00CDC122875
:105200003CD2DFE800F03B1E3B243B3B3B3B3B1BDF
:1052100036213B3B3B3B3B181B282FDAA0F1130008
:1052200008282BD2DFE800F02A2A2A2A2A2A042872
:1052300003F0D0FC22E003F0C5FC1FE0FFF71EFCEA
:105240001CE0FFF713FC19E003F0DCFC16E003F0B0
:10525000C9FC13E03846FEF7DFFEB420ADF80400C9
:105260007820ADF80600ADF8080001A80AF06CFA45
:1052700004E0FFF7DDFB01E0FFF78AFB2878022856
:10528000B2D0FEBD66000020671001083E0000207D
:10529000640000203F000020650000205401002031
:1052A000D00100203C2F0020902900203D0000204C
:1052B00020210148FEF789BB000802402021014857
:1052C000FEF785BB000802402DE9FF5F89460746CF
:1052D00011469B466846FEF77DFB0025EA461AF814
:1052E0000580002409EB0506C4F1070028FA00F048
:1052F000C00706D03819B1B280B25A46FEF74AFE4E
:1053000005E03819B1B280B20E9AFEF743FE641C74
:10531000082CE9D36D1C102DE1D3BDE8FF9F0000E0
:10532000054A002903D011680143116070471168D4
:10533000814311607047000030380240054A00295F
:1053400003D01168014311607047116881431160F7
:105350007047000010380240054A002903D0116848
:10536000014311607047116881431160704700006C
:1053700038380240054A002903D011680143116002
:105380007047116881431160704700004038024047
:10539000054A002903D01168014311607047116864
:1053A00081431160704700004438024070B5244BBF
:1053B000196801F00C01234C00291ED0224E04294B
:1053C0001DD008291DD00460196801F0F0010909F9
:1053D0001E4A545C0168E14041601C6804F4E054DA
:1053E000A40A145D21FA04F484601B6803F460438A
:1053F0005B0BD25CD140C16070BD0460E4E7066025
:10540000E2E70F4A121F1168C1F38055116801F0DD
:105410003F0135B1B6FBF1F11468C4F38814614360
:1054200005E0B4FBF1F11468C4F388146143126819
:10543000C2F30142521C5200B1FBF2F10160C3E71A
:10544000083802400024F40040787D011400002058
:1054500002460020510901290BD002290DD009492B
:10546000096802F01F02012393400B4200D0012083
:105470007047044974390968F3E70249091F09684C
:10548000EFE7000074380240064900220A700A70F3
:10549000012804D0042801D105200870704701209C
:1054A0000870704770380240034A116821F4403197
:1054B00001431160704700008C38024001490867C1
:1054C0007047000000004742800140EA0160024945
:1054D00040EA02700860704788380240014908605D
:1054E000704700003C0E4742C0F30121032907D159
:1054F000074B196821F4F81206490140114319605D
:10550000034A68321168C0F30B0001431160704711
:1055100008380240FFFCFF0F010901EB810149003F
:1055200000F00F000844C0B27047002103E0491C9E
:10553000C9B20A38C0B20A28F9D2090740EA116094
:10554000704700000EB501210807FFF713FF012087
:10555000FFF7B6FC0120FFF797FF4120FFF778FF28
:105560000028FAD04FF48070FFF7BEFF0120FFF74C
:10557000B5FF00F037FA7F200190FF200290002055
:105580000090684600F0D4F8002802D101A007F08E
:105590008FF80EBD0A0D2052544320CAB1D6D3B3A2
:1055A000F5CABCBBAFCAA7B0DC200D0A00000000E2
:1055B00080B240F08000C1430348026802F08002DC
:1055C00011430160704700000C280040000980B2C0
:1055D00040F08000C1430348026802F0800211439A
:1055E000016070470C28004008B5002000900E496B
:1055F0000868400615D44FF0FF3008608B13086828
:1056000000F04000009A521C0092009A9A4201D089
:105610000028F4D00868400601D5012008BD00200C
:1056200008BD012008BD00000C28004002480168A8
:1056300021F08001016070470C28004010B502463F
:105640000C460E4801680E480140080CE070C1F39A
:105650000423637001F03F03A370C1F34231217052
:10566000002A0AD1FFF758FFE0706078FFF754FF77
:105670006070A078FFF750FFA07010BD04280040B4
:105680003FFFFF000246002003490968034B194011
:10569000114200D0012070470C2800407F3F0100DC
:1056A00010B502460C460F4801680F480140C1F38F
:1056B00005402070C1F30623637001F07F03A370DF
:1056C00001F48001090CE170002A0AD1FFF724FFE0
:1056D00020706078FFF720FF6070A078FFF71CFF54
:1056E000A07010BD002800407F7F7F0030B50F4DB7
:1056F000CA222A6053222A600C4C0C4B1C3C20F01E
:1057000004021C3300F00400002906D02168114374
:10571000216019680143196005E021689143216007
:10572000196881431960FF20286030BD242800409B
:1057300070B504460025114ECA20306053203060F9
:10574000FFF752FFA8B10D481C38016821F0400155
:10575000016001682268114301600848A16814389B
:1057600001600168A28841EA02410160FFF75EFF23
:105770000125FF203060284670BD0000242800402D
:1057800008B5034901EB800000900098006808BD4F
:105790005028004070B505460C460026002D06D165
:1057A0006078C10603D520F010000A3060702DB17A
:1057B0006078FFF7B1FEA078FFF7AEFE55B1A07894
:1057C000E17840EA014560782178000240EA413002
:1057D00005430FE0E078FFF7A8FE05046078FFF7C7
:1057E000A4FE45EA0025A078FFF79FFE0543207838
:1057F00045EA40350E4CCA20206053202060FFF758
:10580000F3FE88B10B480540094820380560FFF7D2
:105810000DFF07481C380068800604D400F0E2F849
:1058200010B1012600E00126FF202060304670BD47
:10583000242800403FFFFF002DE9F04105460C46BB
:1058400000260020244F002D06D03968490608D5CF
:105850002078FFF761FE05E03968490602D4E07060
:1058600000E0E07055B1A078217840EA0145607809
:10587000E178000240EA014005430FE02078FFF79D
:1058800054FE05046078FFF750FE45EA0025A07835
:10589000FFF74BFE0543E07845EA00450E4CCA2071
:1058A0001C34206053202060FFF79EFE78B10B4827
:1058B0000540094808380560FFF7B8FE38688006DB
:1058C00004D400F08FF810B1012600E00126FF207B
:1058D00020603046BDE8F081082800407F7F7F00CF
:1058E0000549CA220A6053220A60034A103A10602E
:1058F000FF20086070470000242800403EB50546A0
:105900000C46002000F0A8F8284600F091F8204648
:10591000FFF7E6FF4FF480452846FFF757FE2C02BD
:105920002046FDF753FE01212846FFF7DFFE012048
:1059300000F092F8019400208DF8080008208DF8FE
:10594000090001248DF80A4001A8FDF74FFE03204D
:105950008DF8000002208DF801008DF802008DF80E
:1059600003406846FFF70CFA3EBD7CB500208DF879
:10597000070001248DF804408DF805408DF806409D
:1059800001A9FFF759FF43F2F2252946002000F054
:1059900093F88DF800408DF802408DF801401220F8
:1059A0008DF8030069460020FFF7F4FE2946002029
:1059B00000F082F87CBD000010B54FF480642046F2
:1059C000FFF760FE012805D12046FFF7F1FD0449ED
:1059D00001200870BDE810404FF48000FDF7F6BDCF
:1059E0004800002018B500200090104BCA20186015
:1059F000532018600D491839086820F0A00008608D
:105A00004FF40034086800F02000009A521C009205
:105A1000009AA24201D00028F4D00868800601D57F
:105A2000012000E00020FF21196018BD242800405B
:105A3000084ACA2111605321116006491C390B68BC
:105A400023F007030B600B6803430B60FF2010601B
:105A5000704700002428004018B500210091154B24
:105A6000CA2119605321196012491C39002805D038
:105A7000086840F480600860012017E0086820F49E
:105A8000806008600B4A183A9413106800F0040014
:105A90000099491C00910099A14201D00028F4D03E
:105AA0001068400701D4002000E00120FF211960A8
:105AB00018BD00002428004008B5034A02EB80000E
:105AC00000900098016008BD5028004010B52DEDF1
:105AD000088B514C2079FAF7A4FC41EC110B9FED97
